{
  "_format": "hh-sol-artifact-1",
  "contractName": "Voting",
  "sourceName": "contracts/Voting.sol",
  "abi": [
    {
      "inputs": [
        {
          "internalType": "uint256[]",
          "name": "initialMovieIds",
          "type": "uint256[]"
        },
        {
          "internalType": "string[]",
          "name": "initialMovieTitles",
          "type": "string[]"
        }
      ],
      "stateMutability": "nonpayable",
      "type": "constructor"
    },
    {
      "inputs": [
        {
          "internalType": "address",
          "name": "sender",
          "type": "address"
        },
        {
          "internalType": "uint256",
          "name": "tokenId",
          "type": "uint256"
        },
        {
          "internalType": "address",
          "name": "owner",
          "type": "address"
        }
      ],
      "name": "ERC721IncorrectOwner",
      "type": "error"
    },
    {
      "inputs": [
        {
          "internalType": "address",
          "name": "operator",
          "type": "address"
        },
        {
          "internalType": "uint256",
          "name": "tokenId",
          "type": "uint256"
        }
      ],
      "name": "ERC721InsufficientApproval",
      "type": "error"
    },
    {
      "inputs": [
        {
          "internalType": "address",
          "name": "approver",
          "type": "address"
        }
      ],
      "name": "ERC721InvalidApprover",
      "type": "error"
    },
    {
      "inputs": [
        {
          "internalType": "address",
          "name": "operator",
          "type": "address"
        }
      ],
      "name": "ERC721InvalidOperator",
      "type": "error"
    },
    {
      "inputs": [
        {
          "internalType": "address",
          "name": "owner",
          "type": "address"
        }
      ],
      "name": "ERC721InvalidOwner",
      "type": "error"
    },
    {
      "inputs": [
        {
          "internalType": "address",
          "name": "receiver",
          "type": "address"
        }
      ],
      "name": "ERC721InvalidReceiver",
      "type": "error"
    },
    {
      "inputs": [
        {
          "internalType": "address",
          "name": "sender",
          "type": "address"
        }
      ],
      "name": "ERC721InvalidSender",
      "type": "error"
    },
    {
      "inputs": [
        {
          "internalType": "uint256",
          "name": "tokenId",
          "type": "uint256"
        }
      ],
      "name": "ERC721NonexistentToken",
      "type": "error"
    },
    {
      "anonymous": false,
      "inputs": [
        {
          "indexed": true,
          "internalType": "address",
          "name": "owner",
          "type": "address"
        },
        {
          "indexed": true,
          "internalType": "address",
          "name": "approved",
          "type": "address"
        },
        {
          "indexed": true,
          "internalType": "uint256",
          "name": "tokenId",
          "type": "uint256"
        }
      ],
      "name": "Approval",
      "type": "event"
    },
    {
      "anonymous": false,
      "inputs": [
        {
          "indexed": true,
          "internalType": "address",
          "name": "owner",
          "type": "address"
        },
        {
          "indexed": true,
          "internalType": "address",
          "name": "operator",
          "type": "address"
        },
        {
          "indexed": false,
          "internalType": "bool",
          "name": "approved",
          "type": "bool"
        }
      ],
      "name": "ApprovalForAll",
      "type": "event"
    },
    {
      "anonymous": false,
      "inputs": [
        {
          "indexed": true,
          "internalType": "address",
          "name": "from",
          "type": "address"
        },
        {
          "indexed": true,
          "internalType": "address",
          "name": "to",
          "type": "address"
        },
        {
          "indexed": true,
          "internalType": "uint256",
          "name": "tokenId",
          "type": "uint256"
        }
      ],
      "name": "Transfer",
      "type": "event"
    },
    {
      "anonymous": false,
      "inputs": [
        {
          "indexed": false,
          "internalType": "uint256",
          "name": "movieId",
          "type": "uint256"
        }
      ],
      "name": "Voted",
      "type": "event"
    },
    {
      "inputs": [
        {
          "internalType": "uint256",
          "name": "movie_id",
          "type": "uint256"
        },
        {
          "internalType": "string",
          "name": "name",
          "type": "string"
        }
      ],
      "name": "addMovie",
      "outputs": [],
      "stateMutability": "nonpayable",
      "type": "function"
    },
    {
      "inputs": [
        {
          "internalType": "address",
          "name": "to",
          "type": "address"
        },
        {
          "internalType": "uint256",
          "name": "tokenId",
          "type": "uint256"
        }
      ],
      "name": "approve",
      "outputs": [],
      "stateMutability": "nonpayable",
      "type": "function"
    },
    {
      "inputs": [
        {
          "internalType": "address",
          "name": "owner",
          "type": "address"
        }
      ],
      "name": "balanceOf",
      "outputs": [
        {
          "internalType": "uint256",
          "name": "",
          "type": "uint256"
        }
      ],
      "stateMutability": "view",
      "type": "function"
    },
    {
      "inputs": [],
      "name": "generateRandomNumber",
      "outputs": [
        {
          "internalType": "uint256",
          "name": "",
          "type": "uint256"
        }
      ],
      "stateMutability": "nonpayable",
      "type": "function"
    },
    {
      "inputs": [],
      "name": "getAllVotes",
      "outputs": [
        {
          "internalType": "string[]",
          "name": "",
          "type": "string[]"
        },
        {
          "internalType": "uint256[]",
          "name": "",
          "type": "uint256[]"
        }
      ],
      "stateMutability": "view",
      "type": "function"
    },
    {
      "inputs": [
        {
          "internalType": "uint256",
          "name": "tokenId",
          "type": "uint256"
        }
      ],
      "name": "getApproved",
      "outputs": [
        {
          "internalType": "address",
          "name": "",
          "type": "address"
        }
      ],
      "stateMutability": "view",
      "type": "function"
    },
    {
      "inputs": [
        {
          "internalType": "uint256",
          "name": "movieId",
          "type": "uint256"
        }
      ],
      "name": "getMovieById",
      "outputs": [
        {
          "internalType": "string",
          "name": "",
          "type": "string"
        }
      ],
      "stateMutability": "view",
      "type": "function"
    },
    {
      "inputs": [
        {
          "internalType": "string",
          "name": "_movieName",
          "type": "string"
        }
      ],
      "name": "getMovieIdByName",
      "outputs": [
        {
          "internalType": "uint256",
          "name": "",
          "type": "uint256"
        }
      ],
      "stateMutability": "view",
      "type": "function"
    },
    {
      "inputs": [],
      "name": "getMoviesCount",
      "outputs": [
        {
          "internalType": "uint256",
          "name": "",
          "type": "uint256"
        }
      ],
      "stateMutability": "view",
      "type": "function"
    },
    {
      "inputs": [],
      "name": "getTop5Movies",
      "outputs": [
        {
          "internalType": "uint256[5]",
          "name": "topMovieIds",
          "type": "uint256[5]"
        }
      ],
      "stateMutability": "view",
      "type": "function"
    },
    {
      "inputs": [
        {
          "internalType": "uint256",
          "name": "_movieId",
          "type": "uint256"
        }
      ],
      "name": "getVoteCountByMovieId",
      "outputs": [
        {
          "internalType": "uint256",
          "name": "",
          "type": "uint256"
        }
      ],
      "stateMutability": "view",
      "type": "function"
    },
    {
      "inputs": [
        {
          "internalType": "uint256",
          "name": "_id",
          "type": "uint256"
        }
      ],
      "name": "getVotesByMovieId",
      "outputs": [
        {
          "internalType": "uint256",
          "name": "",
          "type": "uint256"
        }
      ],
      "stateMutability": "view",
      "type": "function"
    },
    {
      "inputs": [
        {
          "internalType": "address",
          "name": "",
          "type": "address"
        }
      ],
      "name": "hasVoted",
      "outputs": [
        {
          "internalType": "bool",
          "name": "",
          "type": "bool"
        }
      ],
      "stateMutability": "view",
      "type": "function"
    },
    {
      "inputs": [
        {
          "internalType": "address",
          "name": "owner",
          "type": "address"
        },
        {
          "internalType": "address",
          "name": "operator",
          "type": "address"
        }
      ],
      "name": "isApprovedForAll",
      "outputs": [
        {
          "internalType": "bool",
          "name": "",
          "type": "bool"
        }
      ],
      "stateMutability": "view",
      "type": "function"
    },
    {
      "inputs": [
        {
          "internalType": "uint256",
          "name": "",
          "type": "uint256"
        }
      ],
      "name": "movieNames",
      "outputs": [
        {
          "internalType": "string",
          "name": "",
          "type": "string"
        }
      ],
      "stateMutability": "view",
      "type": "function"
    },
    {
      "inputs": [],
      "name": "name",
      "outputs": [
        {
          "internalType": "string",
          "name": "",
          "type": "string"
        }
      ],
      "stateMutability": "view",
      "type": "function"
    },
    {
      "inputs": [],
      "name": "nextTokenId",
      "outputs": [
        {
          "internalType": "uint256",
          "name": "",
          "type": "uint256"
        }
      ],
      "stateMutability": "view",
      "type": "function"
    },
    {
      "inputs": [
        {
          "internalType": "uint256",
          "name": "",
          "type": "uint256"
        }
      ],
      "name": "nftIdsToMovieIds",
      "outputs": [
        {
          "internalType": "uint256",
          "name": "",
          "type": "uint256"
        }
      ],
      "stateMutability": "view",
      "type": "function"
    },
    {
      "inputs": [
        {
          "internalType": "uint256",
          "name": "tokenId",
          "type": "uint256"
        }
      ],
      "name": "ownerOf",
      "outputs": [
        {
          "internalType": "address",
          "name": "",
          "type": "address"
        }
      ],
      "stateMutability": "view",
      "type": "function"
    },
    {
      "inputs": [
        {
          "internalType": "address",
          "name": "from",
          "type": "address"
        },
        {
          "internalType": "address",
          "name": "to",
          "type": "address"
        },
        {
          "internalType": "uint256",
          "name": "tokenId",
          "type": "uint256"
        }
      ],
      "name": "safeTransferFrom",
      "outputs": [],
      "stateMutability": "nonpayable",
      "type": "function"
    },
    {
      "inputs": [
        {
          "internalType": "address",
          "name": "from",
          "type": "address"
        },
        {
          "internalType": "address",
          "name": "to",
          "type": "address"
        },
        {
          "internalType": "uint256",
          "name": "tokenId",
          "type": "uint256"
        },
        {
          "internalType": "bytes",
          "name": "data",
          "type": "bytes"
        }
      ],
      "name": "safeTransferFrom",
      "outputs": [],
      "stateMutability": "nonpayable",
      "type": "function"
    },
    {
      "inputs": [
        {
          "internalType": "address",
          "name": "operator",
          "type": "address"
        },
        {
          "internalType": "bool",
          "name": "approved",
          "type": "bool"
        }
      ],
      "name": "setApprovalForAll",
      "outputs": [],
      "stateMutability": "nonpayable",
      "type": "function"
    },
    {
      "inputs": [
        {
          "internalType": "bytes4",
          "name": "interfaceId",
          "type": "bytes4"
        }
      ],
      "name": "supportsInterface",
      "outputs": [
        {
          "internalType": "bool",
          "name": "",
          "type": "bool"
        }
      ],
      "stateMutability": "view",
      "type": "function"
    },
    {
      "inputs": [],
      "name": "symbol",
      "outputs": [
        {
          "internalType": "string",
          "name": "",
          "type": "string"
        }
      ],
      "stateMutability": "view",
      "type": "function"
    },
    {
      "inputs": [
        {
          "internalType": "uint256",
          "name": "tokenId",
          "type": "uint256"
        }
      ],
      "name": "tokenURI",
      "outputs": [
        {
          "internalType": "string",
          "name": "",
          "type": "string"
        }
      ],
      "stateMutability": "view",
      "type": "function"
    },
    {
      "inputs": [
        {
          "internalType": "address",
          "name": "from",
          "type": "address"
        },
        {
          "internalType": "address",
          "name": "to",
          "type": "address"
        },
        {
          "internalType": "uint256",
          "name": "tokenId",
          "type": "uint256"
        }
      ],
      "name": "transferFrom",
      "outputs": [],
      "stateMutability": "nonpayable",
      "type": "function"
    },
    {
      "inputs": [
        {
          "internalType": "uint256",
          "name": "_movieId",
          "type": "uint256"
        }
      ],
      "name": "vote",
      "outputs": [],
      "stateMutability": "nonpayable",
      "type": "function"
    },
    {
      "inputs": [
        {
          "internalType": "uint256",
          "name": "",
          "type": "uint256"
        }
      ],
      "name": "voteCounts",
      "outputs": [
        {
          "internalType": "uint256",
          "name": "",
          "type": "uint256"
        }
      ],
      "stateMutability": "view",
      "type": "function"
    }
  ],
  "bytecode": "0x60806040526019600a5534801561001557600080fd5b5060405161460038038061460083398181016040528101906100379190610d7b565b6040518060400160405280600981526020017f566f74696e674e465400000000000000000000000000000000000000000000008152506040518060400160405280600481526020017f564f54450000000000000000000000000000000000000000000000000000000081525081600090816100b2919061100a565b5080600190816100c2919061100a565b5050508051825114610109576040517f08c379a000000000000000000000000000000000000000000000000000000000815260040161010090611139565b60405180910390fd5b6000600b8190555060005b825181101561016e5761016183828151811061013357610132611159565b5b602002602001015183838151811061014e5761014d611159565b5b602002602001015161017660201b60201c565b8080600101915050610114565b5050506112ae565b80600660008481526020019081526020016000209081610196919061100a565b50600060086000848152602001908152602001600020819055508160076000600b548152602001908152602001600020819055506101dc33600b546101f860201b60201c565b600b60008154809291906101ef906111b7565b91905055505050565b600073ffffffffffffffffffffffffffffffffffffffff168273ffffffffffffffffffffffffffffffffffffffff160361026a5760006040517f64a0ae920000000000000000000000000000000000000000000000000000000081526004016102619190611240565b60405180910390fd5b600061027e838360006102f760201b60201c565b9050600073ffffffffffffffffffffffffffffffffffffffff168173ffffffffffffffffffffffffffffffffffffffff16146102f25760006040517f73c6ac6e0000000000000000000000000000000000000000000000000000000081526004016102e99190611240565b60405180910390fd5b505050565b6000806103098461052360201b60201c565b9050600073ffffffffffffffffffffffffffffffffffffffff168373ffffffffffffffffffffffffffffffffffffffff16146103515761035081848661056060201b60201c565b5b600073ffffffffffffffffffffffffffffffffffffffff168173ffffffffffffffffffffffffffffffffffffffff16146103e85761039960008560008061062a60201b60201c565b6001600360008373ffffffffffffffffffffffffffffffffffffffff1673ffffffffffffffffffffffffffffffffffffffff168152602001908152602001600020600082825403925050819055505b600073ffffffffffffffffffffffffffffffffffffffff168573ffffffffffffffffffffffffffffffffffffffff161461046b576001600360008773ffffffffffffffffffffffffffffffffffffffff1673ffffffffffffffffffffffffffffffffffffffff168152602001908152602001600020600082825401925050819055505b846002600086815260200190815260200160002060006101000a81548173ffffffffffffffffffffffffffffffffffffffff021916908373ffffffffffffffffffffffffffffffffffffffff160217905550838573ffffffffffffffffffffffffffffffffffffffff168273ffffffffffffffffffffffffffffffffffffffff167fddf252ad1be2c89b69c2b068fc378daa952ba7f163c4a11628f55a4df523b3ef60405160405180910390a4809150509392505050565b60006002600083815260200190815260200160002060009054906101000a900473ffffffffffffffffffffffffffffffffffffffff169050919050565b6105718383836107fb60201b60201c565b61062557600073ffffffffffffffffffffffffffffffffffffffff168373ffffffffffffffffffffffffffffffffffffffff16036105e657806040517f7e2732890000000000000000000000000000000000000000000000000000000081526004016105dd919061126a565b60405180910390fd5b81816040517f177e802f00000000000000000000000000000000000000000000000000000000815260040161061c929190611285565b60405180910390fd5b505050565b80806106635750600073ffffffffffffffffffffffffffffffffffffffff168273ffffffffffffffffffffffffffffffffffffffff1614155b156107a3576000610679846108c860201b60201c565b9050600073ffffffffffffffffffffffffffffffffffffffff168373ffffffffffffffffffffffffffffffffffffffff16141580156106e457508273ffffffffffffffffffffffffffffffffffffffff168173ffffffffffffffffffffffffffffffffffffffff1614155b80156106fd57506106fb818461095660201b60201c565b155b1561073f57826040517fa9fbf51f0000000000000000000000000000000000000000000000000000000081526004016107369190611240565b60405180910390fd5b81156107a157838573ffffffffffffffffffffffffffffffffffffffff168273ffffffffffffffffffffffffffffffffffffffff167f8c5be1e5ebec7d5bd14f71427d1e84f3dd0314c0f7b2291e5b200ac8c7c3b92560405160405180910390a45b505b836004600085815260200190815260200160002060006101000a81548173ffffffffffffffffffffffffffffffffffffffff021916908373ffffffffffffffffffffffffffffffffffffffff16021790555050505050565b60008073ffffffffffffffffffffffffffffffffffffffff168373ffffffffffffffffffffffffffffffffffffffff16141580156108bf57508273ffffffffffffffffffffffffffffffffffffffff168473ffffffffffffffffffffffffffffffffffffffff16148061087a5750610879848461095660201b60201c565b5b806108be57508273ffffffffffffffffffffffffffffffffffffffff166108a6836109ea60201b60201c565b73ffffffffffffffffffffffffffffffffffffffff16145b5b90509392505050565b6000806108da8361052360201b60201c565b9050600073ffffffffffffffffffffffffffffffffffffffff168173ffffffffffffffffffffffffffffffffffffffff160361094d57826040517f7e273289000000000000000000000000000000000000000000000000000000008152600401610944919061126a565b60405180910390fd5b80915050919050565b6000600560008473ffffffffffffffffffffffffffffffffffffffff1673ffffffffffffffffffffffffffffffffffffffff16815260200190815260200160002060008373ffffffffffffffffffffffffffffffffffffffff1673ffffffffffffffffffffffffffffffffffffffff16815260200190815260200160002060009054906101000a900460ff16905092915050565b60006004600083815260200190815260200160002060009054906101000a900473ffffffffffffffffffffffffffffffffffffffff169050919050565b6000604051905090565b600080fd5b600080fd5b600080fd5b6000601f19601f8301169050919050565b7f4e487b7100000000000000000000000000000000000000000000000000000000600052604160045260246000fd5b610a8982610a40565b810181811067ffffffffffffffff82111715610aa857610aa7610a51565b5b80604052505050565b6000610abb610a27565b9050610ac78282610a80565b919050565b600067ffffffffffffffff821115610ae757610ae6610a51565b5b602082029050602081019050919050565b600080fd5b6000819050919050565b610b1081610afd565b8114610b1b57600080fd5b50565b600081519050610b2d81610b07565b92915050565b6000610b46610b4184610acc565b610ab1565b90508083825260208201905060208402830185811115610b6957610b68610af8565b5b835b81811015610b925780610b7e8882610b1e565b845260208401935050602081019050610b6b565b5050509392505050565b600082601f830112610bb157610bb0610a3b565b5b8151610bc1848260208601610b33565b91505092915050565b600067ffffffffffffffff821115610be557610be4610a51565b5b602082029050602081019050919050565b600080fd5b600067ffffffffffffffff821115610c1657610c15610a51565b5b610c1f82610a40565b9050602081019050919050565b60005b83811015610c4a578082015181840152602081019050610c2f565b60008484015250505050565b6000610c69610c6484610bfb565b610ab1565b905082815260208101848484011115610c8557610c84610bf6565b5b610c90848285610c2c565b509392505050565b600082601f830112610cad57610cac610a3b565b5b8151610cbd848260208601610c56565b91505092915050565b6000610cd9610cd484610bca565b610ab1565b90508083825260208201905060208402830185811115610cfc57610cfb610af8565b5b835b81811015610d4357805167ffffffffffffffff811115610d2157610d20610a3b565b5b808601610d2e8982610c98565b85526020850194505050602081019050610cfe565b5050509392505050565b600082601f830112610d6257610d61610a3b565b5b8151610d72848260208601610cc6565b91505092915050565b60008060408385031215610d9257610d91610a31565b5b600083015167ffffffffffffffff811115610db057610daf610a36565b5b610dbc85828601610b9c565b925050602083015167ffffffffffffffff811115610ddd57610ddc610a36565b5b610de985828601610d4d565b9150509250929050565b600081519050919050565b7f4e487b7100000000000000000000000000000000000000000000000000000000600052602260045260246000fd5b60006002820490506001821680610e4557607f821691505b602082108103610e5857610e57610dfe565b5b50919050565b60008190508160005260206000209050919050565b60006020601f8301049050919050565b600082821b905092915050565b600060088302610ec07fffffffffffffffffffffffffffffffffffffffffffffffffffffffffffffffff82610e83565b610eca8683610e83565b95508019841693508086168417925050509392505050565b6000819050919050565b6000610f07610f02610efd84610afd565b610ee2565b610afd565b9050919050565b6000819050919050565b610f2183610eec565b610f35610f2d82610f0e565b848454610e90565b825550505050565b600090565b610f4a610f3d565b610f55818484610f18565b505050565b5b81811015610f7957610f6e600082610f42565b600181019050610f5b565b5050565b601f821115610fbe57610f8f81610e5e565b610f9884610e73565b81016020851015610fa7578190505b610fbb610fb385610e73565b830182610f5a565b50505b505050565b600082821c905092915050565b6000610fe160001984600802610fc3565b1980831691505092915050565b6000610ffa8383610fd0565b9150826002028217905092915050565b61101382610df3565b67ffffffffffffffff81111561102c5761102b610a51565b5b6110368254610e2d565b611041828285610f7d565b600060209050601f8311600181146110745760008415611062578287015190505b61106c8582610fee565b8655506110d4565b601f19841661108286610e5e565b60005b828110156110aa57848901518255600182019150602085019450602081019050611085565b868310156110c757848901516110c3601f891682610fd0565b8355505b6001600288020188555050505b505050505050565b600082825260208201905092915050565b7f4d69736d61746368656420696e707574206c656e677468730000000000000000600082015250565b60006111236018836110dc565b915061112e826110ed565b602082019050919050565b6000602082019050818103600083015261115281611116565b9050919050565b7f4e487b7100000000000000000000000000000000000000000000000000000000600052603260045260246000fd5b7f4e487b7100000000000000000000000000000000000000000000000000000000600052601160045260246000fd5b60006111c282610afd565b91507fffffffffffffffffffffffffffffffffffffffffffffffffffffffffffffffff82036111f4576111f3611188565b5b600182019050919050565b600073ffffffffffffffffffffffffffffffffffffffff82169050919050565b600061122a826111ff565b9050919050565b61123a8161121f565b82525050565b60006020820190506112556000830184611231565b92915050565b61126481610afd565b82525050565b600060208201905061127f600083018461125b565b92915050565b600060408201905061129a6000830185611231565b6112a7602083018461125b565b9392505050565b613343806112bd6000396000f3fe608060405234801561001057600080fd5b50600436106101c45760003560e01c806370a08231116100f9578063b88d4fde11610097578063e20da8e011610071578063e20da8e014610566578063e985e9c514610584578063f206ae1b146105b4578063f77a9b3f146105d0576101c4565b8063b88d4fde146104ea578063b98afc7014610506578063c87b56dd14610536576101c4565b8063851b6ef2116100d3578063851b6ef21461046157806395d89b4114610480578063a22cb4651461049e578063ae0b05e9146104ba576101c4565b806370a08231146103f557806375794a3c14610425578063773a115414610443576101c4565b80632ed4bccc1161016657806341aa389d1161014057806341aa389d1461034957806342842e0e146103795780636352211e146103955780636d4d371a146103c5576101c4565b80632ed4bccc146102cb5780633500d740146102fb5780633c3a220d14610319576101c4565b8063081812fc116101a2578063081812fc14610233578063095ea7b31461026357806309eef43e1461027f57806323b872dd146102af576101c4565b80630121b93f146101c957806301ffc9a7146101e557806306fdde0314610215575b600080fd5b6101e360048036038101906101de9190612253565b610600565b005b6101ff60048036038101906101fa91906122d8565b610748565b60405161020c9190612320565b60405180910390f35b61021d61082a565b60405161022a91906123cb565b60405180910390f35b61024d60048036038101906102489190612253565b6108bc565b60405161025a919061242e565b60405180910390f35b61027d60048036038101906102789190612475565b6108d8565b005b610299600480360381019061029491906124b5565b6108ee565b6040516102a69190612320565b60405180910390f35b6102c960048036038101906102c491906124e2565b61090e565b005b6102e560048036038101906102e0919061266a565b610a10565b6040516102f291906126c2565b60405180910390f35b610303610bac565b6040516103109190612788565b60405180910390f35b610333600480360381019061032e9190612253565b610d39565b60405161034091906126c2565b60405180910390f35b610363600480360381019061035e9190612253565b610d51565b60405161037091906126c2565b60405180910390f35b610393600480360381019061038e91906124e2565b610db2565b005b6103af60048036038101906103aa9190612253565b610dd2565b6040516103bc919061242e565b60405180910390f35b6103df60048036038101906103da9190612253565b610de4565b6040516103ec91906123cb565b60405180910390f35b61040f600480360381019061040a91906124b5565b610e84565b60405161041c91906126c2565b60405180910390f35b61042d610f3e565b60405161043a91906126c2565b60405180910390f35b61044b610f44565b60405161045891906126c2565b60405180910390f35b610469610f91565b604051610477929190612946565b60405180910390f35b61048861114b565b60405161049591906123cb565b60405180910390f35b6104b860048036038101906104b391906129a9565b6111dd565b005b6104d460048036038101906104cf9190612253565b6111f3565b6040516104e191906123cb565b60405180910390f35b61050460048036038101906104ff9190612a8a565b6112c1565b005b610520600480360381019061051b9190612253565b6112e6565b60405161052d91906126c2565b60405180910390f35b610550600480360381019061054b9190612253565b6112fe565b60405161055d91906123cb565b60405180910390f35b61056e611367565b60405161057b91906126c2565b60405180910390f35b61059e60048036038101906105999190612b0d565b611371565b6040516105ab9190612320565b60405180910390f35b6105ce60048036038101906105c99190612b4d565b611405565b005b6105ea60048036038101906105e59190612253565b611413565b6040516105f791906126c2565b60405180910390f35b600960003373ffffffffffffffffffffffffffffffffffffffff1673ffffffffffffffffffffffffffffffffffffffff16815260200190815260200160002060009054906101000a900460ff161561068d576040517f08c379a000000000000000000000000000000000000000000000000000000000815260040161068490612bf5565b60405180910390fd5b6008600082815260200190815260200160002060008154809291906106b190612c44565b91905055506001600960003373ffffffffffffffffffffffffffffffffffffffff1673ffffffffffffffffffffffffffffffffffffffff16815260200190815260200160002060006101000a81548160ff0219169083151502179055507f7f511e347bf51eed3be100b3194247d5207f05f3b33de7d31e3e8ee73199a0498160405161073d91906126c2565b60405180910390a150565b60007f80ac58cd000000000000000000000000000000000000000000000000000000007bffffffffffffffffffffffffffffffffffffffffffffffffffffffff1916827bffffffffffffffffffffffffffffffffffffffffffffffffffffffff1916148061081357507f5b5e139f000000000000000000000000000000000000000000000000000000007bffffffffffffffffffffffffffffffffffffffffffffffffffffffff1916827bffffffffffffffffffffffffffffffffffffffffffffffffffffffff1916145b80610823575061082282611430565b5b9050919050565b60606000805461083990612cbb565b80601f016020809104026020016040519081016040528092919081815260200182805461086590612cbb565b80156108b25780601f10610887576101008083540402835291602001916108b2565b820191906000526020600020905b81548152906001019060200180831161089557829003601f168201915b5050505050905090565b60006108c78261149a565b506108d182611522565b9050919050565b6108ea82826108e561155f565b611567565b5050565b60096020528060005260406000206000915054906101000a900460ff1681565b600073ffffffffffffffffffffffffffffffffffffffff168273ffffffffffffffffffffffffffffffffffffffff16036109805760006040517f64a0ae92000000000000000000000000000000000000000000000000000000008152600401610977919061242e565b60405180910390fd5b6000610994838361098f61155f565b611579565b90508373ffffffffffffffffffffffffffffffffffffffff168173ffffffffffffffffffffffffffffffffffffffff1614610a0a578382826040517f64283d7b000000000000000000000000000000000000000000000000000000008152600401610a0193929190612cec565b60405180910390fd5b50505050565b600080600090505b600b54811015610b6b578251600660008381526020019081526020016000208054610a4290612cbb565b905003610b5e5760006001905060005b8451811015610b4b57848181518110610a6e57610a6d612d23565b5b602001015160f81c60f81b7effffffffffffffffffffffffffffffffffffffffffffffffffffffffffffff191660066000858152602001908152602001600020828154610aba90612cbb565b8110610ac957610ac8612d23565b5b815460011615610ae85790600052602060002090602091828204019190065b9054901a7f0100000000000000000000000000000000000000000000000000000000000000027effffffffffffffffffffffffffffffffffffffffffffffffffffffffffffff191614610b3e5760009150610b4b565b8080600101915050610a52565b508015610b5c578192505050610ba7565b505b8080600101915050610a18565b506040517f08c379a0000000000000000000000000000000000000000000000000000000008152600401610b9e90612d9e565b60405180910390fd5b919050565b610bb46121e7565b6000600b549050610bc36121e7565b610bcb6121e7565b60005b83811015610d2f5760006007600083815260200190815260200160002054905060006008600083815260200190815260200160002054905060005b6005811015610d1f57858160058110610c2557610c24612d23565b5b60200201518210610d12576000600490505b81811115610cd25786600182610c4d9190612dbe565b60058110610c5e57610c5d612d23565b5b6020020151878260058110610c7657610c75612d23565b5b60200201818152505085600182610c8d9190612dbe565b60058110610c9e57610c9d612d23565b5b6020020151868260058110610cb657610cb5612d23565b5b6020020181815250508080610cca90612df2565b915050610c37565b5081868260058110610ce757610ce6612d23565b5b60200201818152505082858260058110610d0457610d03612d23565b5b602002018181525050610d1f565b8080600101915050610c09565b5050508080600101915050610bce565b5080935050505090565b60086020528060005260406000206000915090505481565b6000600b548210610d97576040517f08c379a0000000000000000000000000000000000000000000000000000000008152600401610d8e90612e67565b60405180910390fd5b60086000838152602001908152602001600020549050919050565b610dcd838383604051806020016040528060008152506112c1565b505050565b6000610ddd8261149a565b9050919050565b60066020528060005260406000206000915090508054610e0390612cbb565b80601f0160208091040260200160405190810160405280929190818152602001828054610e2f90612cbb565b8015610e7c5780601f10610e5157610100808354040283529160200191610e7c565b820191906000526020600020905b815481529060010190602001808311610e5f57829003601f168201915b505050505081565b60008073ffffffffffffffffffffffffffffffffffffffff168273ffffffffffffffffffffffffffffffffffffffff1603610ef75760006040517f89c62b64000000000000000000000000000000000000000000000000000000008152600401610eee919061242e565b60405180910390fd5b600360008373ffffffffffffffffffffffffffffffffffffffff1673ffffffffffffffffffffffffffffffffffffffff168152602001908152602001600020549050919050565b600b5481565b600080600a54604051602001610f5a9190612ea8565b6040516020818303038152906040528051906020012060001c9050606481610f829190612ef2565b600a81905550600a5491505090565b6060806000600b5467ffffffffffffffff811115610fb257610fb161253f565b5b604051908082528060200260200182016040528015610fe557816020015b6060815260200190600190039081610fd05790505b5090506000600b5467ffffffffffffffff8111156110065761100561253f565b5b6040519080825280602002602001820160405280156110345781602001602082028036833780820191505090505b50905060005b600b5481101561113e5760066000828152602001908152602001600020805461106290612cbb565b80601f016020809104026020016040519081016040528092919081815260200182805461108e90612cbb565b80156110db5780601f106110b0576101008083540402835291602001916110db565b820191906000526020600020905b8154815290600101906020018083116110be57829003601f168201915b50505050508382815181106110f3576110f2612d23565b5b6020026020010181905250600860008281526020019081526020016000205482828151811061112557611124612d23565b5b602002602001018181525050808060010191505061103a565b5081819350935050509091565b60606001805461115a90612cbb565b80601f016020809104026020016040519081016040528092919081815260200182805461118690612cbb565b80156111d35780601f106111a8576101008083540402835291602001916111d3565b820191906000526020600020905b8154815290600101906020018083116111b657829003601f168201915b5050505050905090565b6111ef6111e861155f565b8383611793565b5050565b6060600060066000848152602001908152602001600020805461121590612cbb565b80601f016020809104026020016040519081016040528092919081815260200182805461124190612cbb565b801561128e5780601f106112635761010080835404028352916020019161128e565b820191906000526020600020905b81548152906001019060200180831161127157829003601f168201915b505050505090506000815111156112a857809150506112bc565b604051806020016040528060008152509150505b919050565b6112cc84848461090e565b6112e06112d761155f565b85858585611902565b50505050565b60076020528060005260406000206000915090505481565b60606113098261149a565b506000611314611ab3565b90506000815111611334576040518060200160405280600081525061135f565b8061133e84611aca565b60405160200161134f929190612f5f565b6040516020818303038152906040525b915050919050565b6000600b54905090565b6000600560008473ffffffffffffffffffffffffffffffffffffffff1673ffffffffffffffffffffffffffffffffffffffff16815260200190815260200160002060008373ffffffffffffffffffffffffffffffffffffffff1673ffffffffffffffffffffffffffffffffffffffff16815260200190815260200160002060009054906101000a900460ff16905092915050565b61140f8282611b98565b5050565b600060086000838152602001908152602001600020549050919050565b60007f01ffc9a7000000000000000000000000000000000000000000000000000000007bffffffffffffffffffffffffffffffffffffffffffffffffffffffff1916827bffffffffffffffffffffffffffffffffffffffffffffffffffffffff1916149050919050565b6000806114a683611c14565b9050600073ffffffffffffffffffffffffffffffffffffffff168173ffffffffffffffffffffffffffffffffffffffff160361151957826040517f7e27328900000000000000000000000000000000000000000000000000000000815260040161151091906126c2565b60405180910390fd5b80915050919050565b60006004600083815260200190815260200160002060009054906101000a900473ffffffffffffffffffffffffffffffffffffffff169050919050565b600033905090565b6115748383836001611c51565b505050565b60008061158584611c14565b9050600073ffffffffffffffffffffffffffffffffffffffff168373ffffffffffffffffffffffffffffffffffffffff16146115c7576115c6818486611e16565b5b600073ffffffffffffffffffffffffffffffffffffffff168173ffffffffffffffffffffffffffffffffffffffff161461165857611609600085600080611c51565b6001600360008373ffffffffffffffffffffffffffffffffffffffff1673ffffffffffffffffffffffffffffffffffffffff168152602001908152602001600020600082825403925050819055505b600073ffffffffffffffffffffffffffffffffffffffff168573ffffffffffffffffffffffffffffffffffffffff16146116db576001600360008773ffffffffffffffffffffffffffffffffffffffff1673ffffffffffffffffffffffffffffffffffffffff168152602001908152602001600020600082825401925050819055505b846002600086815260200190815260200160002060006101000a81548173ffffffffffffffffffffffffffffffffffffffff021916908373ffffffffffffffffffffffffffffffffffffffff160217905550838573ffffffffffffffffffffffffffffffffffffffff168273ffffffffffffffffffffffffffffffffffffffff167fddf252ad1be2c89b69c2b068fc378daa952ba7f163c4a11628f55a4df523b3ef60405160405180910390a4809150509392505050565b600073ffffffffffffffffffffffffffffffffffffffff168273ffffffffffffffffffffffffffffffffffffffff160361180457816040517f5b08ba180000000000000000000000000000000000000000000000000000000081526004016117fb919061242e565b60405180910390fd5b80600560008573ffffffffffffffffffffffffffffffffffffffff1673ffffffffffffffffffffffffffffffffffffffff16815260200190815260200160002060008473ffffffffffffffffffffffffffffffffffffffff1673ffffffffffffffffffffffffffffffffffffffff16815260200190815260200160002060006101000a81548160ff0219169083151502179055508173ffffffffffffffffffffffffffffffffffffffff168373ffffffffffffffffffffffffffffffffffffffff167f17307eab39ab6107e8899845ad3d59bd9653f200f220920489ca2b5937696c31836040516118f59190612320565b60405180910390a3505050565b60008373ffffffffffffffffffffffffffffffffffffffff163b1115611aac578273ffffffffffffffffffffffffffffffffffffffff1663150b7a02868685856040518563ffffffff1660e01b81526004016119619493929190612fd8565b6020604051808303816000875af192505050801561199d57506040513d601f19601f8201168201806040525081019061199a9190613039565b60015b611a21573d80600081146119cd576040519150601f19603f3d011682016040523d82523d6000602084013e6119d2565b606091505b506000815103611a1957836040517f64a0ae92000000000000000000000000000000000000000000000000000000008152600401611a10919061242e565b60405180910390fd5b805181602001fd5b63150b7a0260e01b7bffffffffffffffffffffffffffffffffffffffffffffffffffffffff1916817bffffffffffffffffffffffffffffffffffffffffffffffffffffffff191614611aaa57836040517f64a0ae92000000000000000000000000000000000000000000000000000000008152600401611aa1919061242e565b60405180910390fd5b505b5050505050565b606060405180602001604052806000815250905090565b606060006001611ad984611eda565b01905060008167ffffffffffffffff811115611af857611af761253f565b5b6040519080825280601f01601f191660200182016040528015611b2a5781602001600182028036833780820191505090505b509050600082602001820190505b600115611b8d578080600190039150507f3031323334353637383961626364656600000000000000000000000000000000600a86061a8153600a8581611b8157611b80612ec3565b5b04945060008503611b38575b819350505050919050565b80600660008481526020019081526020016000209081611bb89190613212565b50600060086000848152602001908152602001600020819055508160076000600b54815260200190815260200160002081905550611bf833600b5461202d565b600b6000815480929190611c0b90612c44565b91905055505050565b60006002600083815260200190815260200160002060009054906101000a900473ffffffffffffffffffffffffffffffffffffffff169050919050565b8080611c8a5750600073ffffffffffffffffffffffffffffffffffffffff168273ffffffffffffffffffffffffffffffffffffffff1614155b15611dbe576000611c9a8461149a565b9050600073ffffffffffffffffffffffffffffffffffffffff168373ffffffffffffffffffffffffffffffffffffffff1614158015611d0557508273ffffffffffffffffffffffffffffffffffffffff168173ffffffffffffffffffffffffffffffffffffffff1614155b8015611d185750611d168184611371565b155b15611d5a57826040517fa9fbf51f000000000000000000000000000000000000000000000000000000008152600401611d51919061242e565b60405180910390fd5b8115611dbc57838573ffffffffffffffffffffffffffffffffffffffff168273ffffffffffffffffffffffffffffffffffffffff167f8c5be1e5ebec7d5bd14f71427d1e84f3dd0314c0f7b2291e5b200ac8c7c3b92560405160405180910390a45b505b836004600085815260200190815260200160002060006101000a81548173ffffffffffffffffffffffffffffffffffffffff021916908373ffffffffffffffffffffffffffffffffffffffff16021790555050505050565b611e21838383612126565b611ed557600073ffffffffffffffffffffffffffffffffffffffff168373ffffffffffffffffffffffffffffffffffffffff1603611e9657806040517f7e273289000000000000000000000000000000000000000000000000000000008152600401611e8d91906126c2565b60405180910390fd5b81816040517f177e802f000000000000000000000000000000000000000000000000000000008152600401611ecc9291906132e4565b60405180910390fd5b505050565b600080600090507a184f03e93ff9f4daa797ed6e38ed64bf6a1f0100000000000000008310611f38577a184f03e93ff9f4daa797ed6e38ed64bf6a1f0100000000000000008381611f2e57611f2d612ec3565b5b0492506040810190505b6d04ee2d6d415b85acef81000000008310611f75576d04ee2d6d415b85acef81000000008381611f6b57611f6a612ec3565b5b0492506020810190505b662386f26fc100008310611fa457662386f26fc100008381611f9a57611f99612ec3565b5b0492506010810190505b6305f5e1008310611fcd576305f5e1008381611fc357611fc2612ec3565b5b0492506008810190505b6127108310611ff2576127108381611fe857611fe7612ec3565b5b0492506004810190505b60648310612015576064838161200b5761200a612ec3565b5b0492506002810190505b600a8310612024576001810190505b80915050919050565b600073ffffffffffffffffffffffffffffffffffffffff168273ffffffffffffffffffffffffffffffffffffffff160361209f5760006040517f64a0ae92000000000000000000000000000000000000000000000000000000008152600401612096919061242e565b60405180910390fd5b60006120ad83836000611579565b9050600073ffffffffffffffffffffffffffffffffffffffff168173ffffffffffffffffffffffffffffffffffffffff16146121215760006040517f73c6ac6e000000000000000000000000000000000000000000000000000000008152600401612118919061242e565b60405180910390fd5b505050565b60008073ffffffffffffffffffffffffffffffffffffffff168373ffffffffffffffffffffffffffffffffffffffff16141580156121de57508273ffffffffffffffffffffffffffffffffffffffff168473ffffffffffffffffffffffffffffffffffffffff16148061219f575061219e8484611371565b5b806121dd57508273ffffffffffffffffffffffffffffffffffffffff166121c583611522565b73ffffffffffffffffffffffffffffffffffffffff16145b5b90509392505050565b6040518060a00160405280600590602082028036833780820191505090505090565b6000604051905090565b600080fd5b600080fd5b6000819050919050565b6122308161221d565b811461223b57600080fd5b50565b60008135905061224d81612227565b92915050565b60006020828403121561226957612268612213565b5b60006122778482850161223e565b91505092915050565b60007fffffffff0000000000000000000000000000000000000000000000000000000082169050919050565b6122b581612280565b81146122c057600080fd5b50565b6000813590506122d2816122ac565b92915050565b6000602082840312156122ee576122ed612213565b5b60006122fc848285016122c3565b91505092915050565b60008115159050919050565b61231a81612305565b82525050565b60006020820190506123356000830184612311565b92915050565b600081519050919050565b600082825260208201905092915050565b60005b8381101561237557808201518184015260208101905061235a565b60008484015250505050565b6000601f19601f8301169050919050565b600061239d8261233b565b6123a78185612346565b93506123b7818560208601612357565b6123c081612381565b840191505092915050565b600060208201905081810360008301526123e58184612392565b905092915050565b600073ffffffffffffffffffffffffffffffffffffffff82169050919050565b6000612418826123ed565b9050919050565b6124288161240d565b82525050565b6000602082019050612443600083018461241f565b92915050565b6124528161240d565b811461245d57600080fd5b50565b60008135905061246f81612449565b92915050565b6000806040838503121561248c5761248b612213565b5b600061249a85828601612460565b92505060206124ab8582860161223e565b9150509250929050565b6000602082840312156124cb576124ca612213565b5b60006124d984828501612460565b91505092915050565b6000806000606084860312156124fb576124fa612213565b5b600061250986828701612460565b935050602061251a86828701612460565b925050604061252b8682870161223e565b9150509250925092565b600080fd5b600080fd5b7f4e487b7100000000000000000000000000000000000000000000000000000000600052604160045260246000fd5b61257782612381565b810181811067ffffffffffffffff821117156125965761259561253f565b5b80604052505050565b60006125a9612209565b90506125b5828261256e565b919050565b600067ffffffffffffffff8211156125d5576125d461253f565b5b6125de82612381565b9050602081019050919050565b82818337600083830152505050565b600061260d612608846125ba565b61259f565b9050828152602081018484840111156126295761262861253a565b5b6126348482856125eb565b509392505050565b600082601f83011261265157612650612535565b5b81356126618482602086016125fa565b91505092915050565b6000602082840312156126805761267f612213565b5b600082013567ffffffffffffffff81111561269e5761269d612218565b5b6126aa8482850161263c565b91505092915050565b6126bc8161221d565b82525050565b60006020820190506126d760008301846126b3565b92915050565b600060059050919050565b600081905092915050565b6000819050919050565b6127068161221d565b82525050565b600061271883836126fd565b60208301905092915050565b6000602082019050919050565b61273a816126dd565b61274481846126e8565b925061274f826126f3565b8060005b83811015612780578151612767878261270c565b965061277283612724565b925050600181019050612753565b505050505050565b600060a08201905061279d6000830184612731565b92915050565b600081519050919050565b600082825260208201905092915050565b6000819050602082019050919050565b600082825260208201905092915050565b60006127eb8261233b565b6127f581856127cf565b9350612805818560208601612357565b61280e81612381565b840191505092915050565b600061282583836127e0565b905092915050565b6000602082019050919050565b6000612845826127a3565b61284f81856127ae565b935083602082028501612861856127bf565b8060005b8581101561289d578484038952815161287e8582612819565b94506128898361282d565b925060208a01995050600181019050612865565b50829750879550505050505092915050565b600081519050919050565b600082825260208201905092915050565b6000819050602082019050919050565b6000602082019050919050565b60006128f3826128af565b6128fd81856128ba565b9350612908836128cb565b8060005b83811015612939578151612920888261270c565b975061292b836128db565b92505060018101905061290c565b5085935050505092915050565b60006040820190508181036000830152612960818561283a565b9050818103602083015261297481846128e8565b90509392505050565b61298681612305565b811461299157600080fd5b50565b6000813590506129a38161297d565b92915050565b600080604083850312156129c0576129bf612213565b5b60006129ce85828601612460565b92505060206129df85828601612994565b9150509250929050565b600067ffffffffffffffff821115612a0457612a0361253f565b5b612a0d82612381565b9050602081019050919050565b6000612a2d612a28846129e9565b61259f565b905082815260208101848484011115612a4957612a4861253a565b5b612a548482856125eb565b509392505050565b600082601f830112612a7157612a70612535565b5b8135612a81848260208601612a1a565b91505092915050565b60008060008060808587031215612aa457612aa3612213565b5b6000612ab287828801612460565b9450506020612ac387828801612460565b9350506040612ad48782880161223e565b925050606085013567ffffffffffffffff811115612af557612af4612218565b5b612b0187828801612a5c565b91505092959194509250565b60008060408385031215612b2457612b23612213565b5b6000612b3285828601612460565b9250506020612b4385828601612460565b9150509250929050565b60008060408385031215612b6457612b63612213565b5b6000612b728582860161223e565b925050602083013567ffffffffffffffff811115612b9357612b92612218565b5b612b9f8582860161263c565b9150509250929050565b7f416c726561647920766f74656400000000000000000000000000000000000000600082015250565b6000612bdf600d83612346565b9150612bea82612ba9565b602082019050919050565b60006020820190508181036000830152612c0e81612bd2565b9050919050565b7f4e487b7100000000000000000000000000000000000000000000000000000000600052601160045260246000fd5b6000612c4f8261221d565b91507fffffffffffffffffffffffffffffffffffffffffffffffffffffffffffffffff8203612c8157612c80612c15565b5b600182019050919050565b7f4e487b7100000000000000000000000000000000000000000000000000000000600052602260045260246000fd5b60006002820490506001821680612cd357607f821691505b602082108103612ce657612ce5612c8c565b5b50919050565b6000606082019050612d01600083018661241f565b612d0e60208301856126b3565b612d1b604083018461241f565b949350505050565b7f4e487b7100000000000000000000000000000000000000000000000000000000600052603260045260246000fd5b7f4964206e6f7420666f756e640000000000000000000000000000000000000000600082015250565b6000612d88600c83612346565b9150612d9382612d52565b602082019050919050565b60006020820190508181036000830152612db781612d7b565b9050919050565b6000612dc98261221d565b9150612dd48361221d565b9250828203905081811115612dec57612deb612c15565b5b92915050565b6000612dfd8261221d565b915060008203612e1057612e0f612c15565b5b600182039050919050565b7f496e76616c6964206d6f76696520494400000000000000000000000000000000600082015250565b6000612e51601083612346565b9150612e5c82612e1b565b602082019050919050565b60006020820190508181036000830152612e8081612e44565b9050919050565b6000819050919050565b612ea2612e9d8261221d565b612e87565b82525050565b6000612eb48284612e91565b60208201915081905092915050565b7f4e487b7100000000000000000000000000000000000000000000000000000000600052601260045260246000fd5b6000612efd8261221d565b9150612f088361221d565b925082612f1857612f17612ec3565b5b828206905092915050565b600081905092915050565b6000612f398261233b565b612f438185612f23565b9350612f53818560208601612357565b80840191505092915050565b6000612f6b8285612f2e565b9150612f778284612f2e565b91508190509392505050565b600081519050919050565b600082825260208201905092915050565b6000612faa82612f83565b612fb48185612f8e565b9350612fc4818560208601612357565b612fcd81612381565b840191505092915050565b6000608082019050612fed600083018761241f565b612ffa602083018661241f565b61300760408301856126b3565b81810360608301526130198184612f9f565b905095945050505050565b600081519050613033816122ac565b92915050565b60006020828403121561304f5761304e612213565b5b600061305d84828501613024565b91505092915050565b60008190508160005260206000209050919050565b60006020601f8301049050919050565b600082821b905092915050565b6000600883026130c87fffffffffffffffffffffffffffffffffffffffffffffffffffffffffffffffff8261308b565b6130d2868361308b565b95508019841693508086168417925050509392505050565b6000819050919050565b600061310f61310a6131058461221d565b6130ea565b61221d565b9050919050565b6000819050919050565b613129836130f4565b61313d61313582613116565b848454613098565b825550505050565b600090565b613152613145565b61315d818484613120565b505050565b5b818110156131815761317660008261314a565b600181019050613163565b5050565b601f8211156131c65761319781613066565b6131a08461307b565b810160208510156131af578190505b6131c36131bb8561307b565b830182613162565b50505b505050565b600082821c905092915050565b60006131e9600019846008026131cb565b1980831691505092915050565b600061320283836131d8565b9150826002028217905092915050565b61321b8261233b565b67ffffffffffffffff8111156132345761323361253f565b5b61323e8254612cbb565b613249828285613185565b600060209050601f83116001811461327c576000841561326a578287015190505b61327485826131f6565b8655506132dc565b601f19841661328a86613066565b60005b828110156132b25784890151825560018201915060208501945060208101905061328d565b868310156132cf57848901516132cb601f8916826131d8565b8355505b6001600288020188555050505b505050505050565b60006040820190506132f9600083018561241f565b61330660208301846126b3565b939250505056fea264697066735822122030695cd4154a875436530ed4ff0da8f47b751b2f14ffcc1a6da2ec898ecbfbcb64736f6c634300081c0033",
  "linkReferences": {},
  "deployedLinkReferences": {}
}