{
  "_format": "hh-sol-artifact-1",
  "contractName": "Voting",
  "sourceName": "contracts/Voting.sol",
  "abi": [
    {
      "inputs": [
        {
          "internalType": "uint256[]",
          "name": "initialMovieIds",
          "type": "uint256[]"
        },
        {
          "internalType": "string[]",
          "name": "initialMovieTitles",
          "type": "string[]"
        }
      ],
      "stateMutability": "nonpayable",
      "type": "constructor"
    },
    {
      "inputs": [
        {
          "internalType": "address",
          "name": "sender",
          "type": "address"
        },
        {
          "internalType": "uint256",
          "name": "tokenId",
          "type": "uint256"
        },
        {
          "internalType": "address",
          "name": "owner",
          "type": "address"
        }
      ],
      "name": "ERC721IncorrectOwner",
      "type": "error"
    },
    {
      "inputs": [
        {
          "internalType": "address",
          "name": "operator",
          "type": "address"
        },
        {
          "internalType": "uint256",
          "name": "tokenId",
          "type": "uint256"
        }
      ],
      "name": "ERC721InsufficientApproval",
      "type": "error"
    },
    {
      "inputs": [
        {
          "internalType": "address",
          "name": "approver",
          "type": "address"
        }
      ],
      "name": "ERC721InvalidApprover",
      "type": "error"
    },
    {
      "inputs": [
        {
          "internalType": "address",
          "name": "operator",
          "type": "address"
        }
      ],
      "name": "ERC721InvalidOperator",
      "type": "error"
    },
    {
      "inputs": [
        {
          "internalType": "address",
          "name": "owner",
          "type": "address"
        }
      ],
      "name": "ERC721InvalidOwner",
      "type": "error"
    },
    {
      "inputs": [
        {
          "internalType": "address",
          "name": "receiver",
          "type": "address"
        }
      ],
      "name": "ERC721InvalidReceiver",
      "type": "error"
    },
    {
      "inputs": [
        {
          "internalType": "address",
          "name": "sender",
          "type": "address"
        }
      ],
      "name": "ERC721InvalidSender",
      "type": "error"
    },
    {
      "inputs": [
        {
          "internalType": "uint256",
          "name": "tokenId",
          "type": "uint256"
        }
      ],
      "name": "ERC721NonexistentToken",
      "type": "error"
    },
    {
      "anonymous": false,
      "inputs": [
        {
          "indexed": true,
          "internalType": "address",
          "name": "owner",
          "type": "address"
        },
        {
          "indexed": true,
          "internalType": "address",
          "name": "approved",
          "type": "address"
        },
        {
          "indexed": true,
          "internalType": "uint256",
          "name": "tokenId",
          "type": "uint256"
        }
      ],
      "name": "Approval",
      "type": "event"
    },
    {
      "anonymous": false,
      "inputs": [
        {
          "indexed": true,
          "internalType": "address",
          "name": "owner",
          "type": "address"
        },
        {
          "indexed": true,
          "internalType": "address",
          "name": "operator",
          "type": "address"
        },
        {
          "indexed": false,
          "internalType": "bool",
          "name": "approved",
          "type": "bool"
        }
      ],
      "name": "ApprovalForAll",
      "type": "event"
    },
    {
      "anonymous": false,
      "inputs": [
        {
          "indexed": true,
          "internalType": "address",
          "name": "from",
          "type": "address"
        },
        {
          "indexed": true,
          "internalType": "address",
          "name": "to",
          "type": "address"
        },
        {
          "indexed": true,
          "internalType": "uint256",
          "name": "tokenId",
          "type": "uint256"
        }
      ],
      "name": "Transfer",
      "type": "event"
    },
    {
      "anonymous": false,
      "inputs": [
        {
          "indexed": false,
          "internalType": "uint256",
          "name": "movieId",
          "type": "uint256"
        }
      ],
      "name": "Voted",
      "type": "event"
    },
    {
      "inputs": [
        {
          "internalType": "uint256",
          "name": "movie_id",
          "type": "uint256"
        },
        {
          "internalType": "string",
          "name": "name",
          "type": "string"
        }
      ],
      "name": "addMovie",
      "outputs": [],
      "stateMutability": "nonpayable",
      "type": "function"
    },
    {
      "inputs": [
        {
          "internalType": "address",
          "name": "",
          "type": "address"
        }
      ],
      "name": "addressToMovieId",
      "outputs": [
        {
          "internalType": "uint256",
          "name": "",
          "type": "uint256"
        }
      ],
      "stateMutability": "view",
      "type": "function"
    },
    {
      "inputs": [
        {
          "internalType": "address",
          "name": "to",
          "type": "address"
        },
        {
          "internalType": "uint256",
          "name": "tokenId",
          "type": "uint256"
        }
      ],
      "name": "approve",
      "outputs": [],
      "stateMutability": "nonpayable",
      "type": "function"
    },
    {
      "inputs": [
        {
          "internalType": "address",
          "name": "owner",
          "type": "address"
        }
      ],
      "name": "balanceOf",
      "outputs": [
        {
          "internalType": "uint256",
          "name": "",
          "type": "uint256"
        }
      ],
      "stateMutability": "view",
      "type": "function"
    },
    {
      "inputs": [
        {
          "internalType": "uint256",
          "name": "tokenId",
          "type": "uint256"
        }
      ],
      "name": "getApproved",
      "outputs": [
        {
          "internalType": "address",
          "name": "",
          "type": "address"
        }
      ],
      "stateMutability": "view",
      "type": "function"
    },
    {
      "inputs": [
        {
          "internalType": "uint256",
          "name": "movieId",
          "type": "uint256"
        }
      ],
      "name": "getMovieById",
      "outputs": [
        {
          "internalType": "string",
          "name": "",
          "type": "string"
        }
      ],
      "stateMutability": "view",
      "type": "function"
    },
    {
      "inputs": [
        {
          "internalType": "address",
          "name": "voter",
          "type": "address"
        }
      ],
      "name": "getMovieVotedFor",
      "outputs": [
        {
          "internalType": "string",
          "name": "",
          "type": "string"
        }
      ],
      "stateMutability": "view",
      "type": "function"
    },
    {
      "inputs": [],
      "name": "getTop5Movies",
      "outputs": [
        {
          "internalType": "uint256[5]",
          "name": "topMovieIds",
          "type": "uint256[5]"
        }
      ],
      "stateMutability": "view",
      "type": "function"
    },
    {
      "inputs": [
        {
          "internalType": "uint256",
          "name": "_movieId",
          "type": "uint256"
        }
      ],
      "name": "getVoteCountByMovieId",
      "outputs": [
        {
          "internalType": "uint256",
          "name": "",
          "type": "uint256"
        }
      ],
      "stateMutability": "view",
      "type": "function"
    },
    {
      "inputs": [
        {
          "internalType": "address",
          "name": "",
          "type": "address"
        }
      ],
      "name": "hasVoted",
      "outputs": [
        {
          "internalType": "bool",
          "name": "",
          "type": "bool"
        }
      ],
      "stateMutability": "view",
      "type": "function"
    },
    {
      "inputs": [
        {
          "internalType": "address",
          "name": "owner",
          "type": "address"
        },
        {
          "internalType": "address",
          "name": "operator",
          "type": "address"
        }
      ],
      "name": "isApprovedForAll",
      "outputs": [
        {
          "internalType": "bool",
          "name": "",
          "type": "bool"
        }
      ],
      "stateMutability": "view",
      "type": "function"
    },
    {
      "inputs": [],
      "name": "movieIdCounter",
      "outputs": [
        {
          "internalType": "uint256",
          "name": "",
          "type": "uint256"
        }
      ],
      "stateMutability": "view",
      "type": "function"
    },
    {
      "inputs": [
        {
          "internalType": "uint256",
          "name": "",
          "type": "uint256"
        }
      ],
      "name": "movieIds",
      "outputs": [
        {
          "internalType": "uint256",
          "name": "",
          "type": "uint256"
        }
      ],
      "stateMutability": "view",
      "type": "function"
    },
    {
      "inputs": [
        {
          "internalType": "uint256",
          "name": "",
          "type": "uint256"
        }
      ],
      "name": "movieNames",
      "outputs": [
        {
          "internalType": "string",
          "name": "",
          "type": "string"
        }
      ],
      "stateMutability": "view",
      "type": "function"
    },
    {
      "inputs": [],
      "name": "name",
      "outputs": [
        {
          "internalType": "string",
          "name": "",
          "type": "string"
        }
      ],
      "stateMutability": "view",
      "type": "function"
    },
    {
      "inputs": [],
      "name": "nextTokenId",
      "outputs": [
        {
          "internalType": "uint256",
          "name": "",
          "type": "uint256"
        }
      ],
      "stateMutability": "view",
      "type": "function"
    },
    {
      "inputs": [
        {
          "internalType": "uint256",
          "name": "",
          "type": "uint256"
        }
      ],
      "name": "nftIdsToMovieIds",
      "outputs": [
        {
          "internalType": "uint256",
          "name": "",
          "type": "uint256"
        }
      ],
      "stateMutability": "view",
      "type": "function"
    },
    {
      "inputs": [
        {
          "internalType": "uint256",
          "name": "tokenId",
          "type": "uint256"
        }
      ],
      "name": "ownerOf",
      "outputs": [
        {
          "internalType": "address",
          "name": "",
          "type": "address"
        }
      ],
      "stateMutability": "view",
      "type": "function"
    },
    {
      "inputs": [
        {
          "internalType": "address",
          "name": "from",
          "type": "address"
        },
        {
          "internalType": "address",
          "name": "to",
          "type": "address"
        },
        {
          "internalType": "uint256",
          "name": "tokenId",
          "type": "uint256"
        }
      ],
      "name": "safeTransferFrom",
      "outputs": [],
      "stateMutability": "nonpayable",
      "type": "function"
    },
    {
      "inputs": [
        {
          "internalType": "address",
          "name": "from",
          "type": "address"
        },
        {
          "internalType": "address",
          "name": "to",
          "type": "address"
        },
        {
          "internalType": "uint256",
          "name": "tokenId",
          "type": "uint256"
        },
        {
          "internalType": "bytes",
          "name": "data",
          "type": "bytes"
        }
      ],
      "name": "safeTransferFrom",
      "outputs": [],
      "stateMutability": "nonpayable",
      "type": "function"
    },
    {
      "inputs": [
        {
          "internalType": "address",
          "name": "operator",
          "type": "address"
        },
        {
          "internalType": "bool",
          "name": "approved",
          "type": "bool"
        }
      ],
      "name": "setApprovalForAll",
      "outputs": [],
      "stateMutability": "nonpayable",
      "type": "function"
    },
    {
      "inputs": [
        {
          "internalType": "bytes4",
          "name": "interfaceId",
          "type": "bytes4"
        }
      ],
      "name": "supportsInterface",
      "outputs": [
        {
          "internalType": "bool",
          "name": "",
          "type": "bool"
        }
      ],
      "stateMutability": "view",
      "type": "function"
    },
    {
      "inputs": [],
      "name": "symbol",
      "outputs": [
        {
          "internalType": "string",
          "name": "",
          "type": "string"
        }
      ],
      "stateMutability": "view",
      "type": "function"
    },
    {
      "inputs": [
        {
          "internalType": "uint256",
          "name": "tokenId",
          "type": "uint256"
        }
      ],
      "name": "tokenURI",
      "outputs": [
        {
          "internalType": "string",
          "name": "",
          "type": "string"
        }
      ],
      "stateMutability": "view",
      "type": "function"
    },
    {
      "inputs": [
        {
          "internalType": "address",
          "name": "from",
          "type": "address"
        },
        {
          "internalType": "address",
          "name": "to",
          "type": "address"
        },
        {
          "internalType": "uint256",
          "name": "tokenId",
          "type": "uint256"
        }
      ],
      "name": "transferFrom",
      "outputs": [],
      "stateMutability": "nonpayable",
      "type": "function"
    },
    {
      "inputs": [
        {
          "internalType": "uint256",
          "name": "_movieId",
          "type": "uint256"
        }
      ],
      "name": "vote",
      "outputs": [],
      "stateMutability": "nonpayable",
      "type": "function"
    },
    {
      "inputs": [
        {
          "internalType": "uint256",
          "name": "",
          "type": "uint256"
        }
      ],
      "name": "voteCounts",
      "outputs": [
        {
          "internalType": "uint256",
          "name": "",
          "type": "uint256"
        }
      ],
      "stateMutability": "view",
      "type": "function"
    }
  ],
  "bytecode": "0x608060405234801561001057600080fd5b506040516142f63803806142f6833981810160405281019061003291906106e0565b6040518060400160405280600981526020017f566f74696e674e465400000000000000000000000000000000000000000000008152506040518060400160405280600481526020017f564f54450000000000000000000000000000000000000000000000000000000081525081600090816100ad919061096f565b5080600190816100bd919061096f565b5050506100da67e3001dd0a522d52760c01b61029760201b60201c565b6100f46759acbe0bc073660f60c01b61029760201b60201c565b61010e67f525e9aae21e271760c01b61029760201b60201c565b610128676e08ea081cce665460c01b61029760201b60201c565b805182511461016c576040517f08c379a000000000000000000000000000000000000000000000000000000000815260040161016390610a9e565b60405180910390fd5b61018667281566b2643c7c1b60c01b61029760201b60201c565b6101a0670c93752378cedb4d60c01b61029760201b60201c565b6000600c819055506101c2670464ed61bb97557f60c01b61029760201b60201c565b60006008819055506101e46713239eff760d32f060c01b61029760201b60201c565b6101fe675705c2369df656b860c01b61029760201b60201c565b60005b825181101561028f5761022467944dc459585ce81160c01b61029760201b60201c565b61023e67fd217551b4f648dd60c01b61029760201b60201c565b61028283828151811061025457610253610abe565b5b602002602001015183838151811061026f5761026e610abe565b5b602002602001015161029a60201b60201c565b8080600101915050610201565b505050610b64565b50565b6102b467e704601eaf82dd8b60c01b61029760201b60201c565b6102ce67cf5eb81df0f9fbfb60c01b61029760201b60201c565b806006600084815260200190815260200160002090816102ee919061096f565b50610309678283046e12e9ec6c60c01b61029760201b60201c565b6000600960008481526020019081526020016000208190555061033c6711a26c87f656a95560c01b61029760201b60201c565b8160076000600854815260200190815260200160002081905550610370672d0ff417f09b2d2d60c01b61029760201b60201c565b6008600081548092919061038390610b1c565b91905055505050565b6000604051905090565b600080fd5b600080fd5b600080fd5b6000601f19601f8301169050919050565b7f4e487b7100000000000000000000000000000000000000000000000000000000600052604160045260246000fd5b6103ee826103a5565b810181811067ffffffffffffffff8211171561040d5761040c6103b6565b5b80604052505050565b600061042061038c565b905061042c82826103e5565b919050565b600067ffffffffffffffff82111561044c5761044b6103b6565b5b602082029050602081019050919050565b600080fd5b6000819050919050565b61047581610462565b811461048057600080fd5b50565b6000815190506104928161046c565b92915050565b60006104ab6104a684610431565b610416565b905080838252602082019050602084028301858111156104ce576104cd61045d565b5b835b818110156104f757806104e38882610483565b8452602084019350506020810190506104d0565b5050509392505050565b600082601f830112610516576105156103a0565b5b8151610526848260208601610498565b91505092915050565b600067ffffffffffffffff82111561054a576105496103b6565b5b602082029050602081019050919050565b600080fd5b600067ffffffffffffffff82111561057b5761057a6103b6565b5b610584826103a5565b9050602081019050919050565b60005b838110156105af578082015181840152602081019050610594565b60008484015250505050565b60006105ce6105c984610560565b610416565b9050828152602081018484840111156105ea576105e961055b565b5b6105f5848285610591565b509392505050565b600082601f830112610612576106116103a0565b5b81516106228482602086016105bb565b91505092915050565b600061063e6106398461052f565b610416565b905080838252602082019050602084028301858111156106615761066061045d565b5b835b818110156106a857805167ffffffffffffffff811115610686576106856103a0565b5b80860161069389826105fd565b85526020850194505050602081019050610663565b5050509392505050565b600082601f8301126106c7576106c66103a0565b5b81516106d784826020860161062b565b91505092915050565b600080604083850312156106f7576106f6610396565b5b600083015167ffffffffffffffff8111156107155761071461039b565b5b61072185828601610501565b925050602083015167ffffffffffffffff8111156107425761074161039b565b5b61074e858286016106b2565b9150509250929050565b600081519050919050565b7f4e487b7100000000000000000000000000000000000000000000000000000000600052602260045260246000fd5b600060028204905060018216806107aa57607f821691505b6020821081036107bd576107bc610763565b5b50919050565b60008190508160005260206000209050919050565b60006020601f8301049050919050565b600082821b905092915050565b6000600883026108257fffffffffffffffffffffffffffffffffffffffffffffffffffffffffffffffff826107e8565b61082f86836107e8565b95508019841693508086168417925050509392505050565b6000819050919050565b600061086c61086761086284610462565b610847565b610462565b9050919050565b6000819050919050565b61088683610851565b61089a61089282610873565b8484546107f5565b825550505050565b600090565b6108af6108a2565b6108ba81848461087d565b505050565b5b818110156108de576108d36000826108a7565b6001810190506108c0565b5050565b601f821115610923576108f4816107c3565b6108fd846107d8565b8101602085101561090c578190505b610920610918856107d8565b8301826108bf565b50505b505050565b600082821c905092915050565b600061094660001984600802610928565b1980831691505092915050565b600061095f8383610935565b9150826002028217905092915050565b61097882610758565b67ffffffffffffffff811115610991576109906103b6565b5b61099b8254610792565b6109a68282856108e2565b600060209050601f8311600181146109d957600084156109c7578287015190505b6109d18582610953565b865550610a39565b601f1984166109e7866107c3565b60005b82811015610a0f578489015182556001820191506020850194506020810190506109ea565b86831015610a2c5784890151610a28601f891682610935565b8355505b6001600288020188555050505b505050505050565b600082825260208201905092915050565b7f4d69736d61746368656420696e707574206c656e677468730000000000000000600082015250565b6000610a88601883610a41565b9150610a9382610a52565b602082019050919050565b60006020820190508181036000830152610ab781610a7b565b9050919050565b7f4e487b7100000000000000000000000000000000000000000000000000000000600052603260045260246000fd5b7f4e487b7100000000000000000000000000000000000000000000000000000000600052601160045260246000fd5b6000610b2782610462565b91507fffffffffffffffffffffffffffffffffffffffffffffffffffffffffffffffff8203610b5957610b58610aed565b5b600182019050919050565b61378380610b736000396000f3fe608060405234801561001057600080fd5b50600436106101a95760003560e01c806375794a3c116100f9578063b98afc7011610097578063e985e9c511610071578063e985e9c51461052c578063ed1f1f8e1461055c578063f206ae1b1461058c578063f77a9b3f146105a8576101a9565b8063b98afc701461049c578063c87b56dd146104cc578063d47e941f146104fc576101a9565b8063a22cb465116100d3578063a22cb46514610416578063a5b08a4f14610432578063ae0b05e914610450578063b88d4fde14610480576101a9565b806375794a3c146103aa5780638664054b146103c857806395d89b41146103f8576101a9565b806323b872dd1161016657806342842e0e1161014057806342842e0e146102fe5780636352211e1461031a5780636d4d371a1461034a57806370a082311461037a576101a9565b806323b872dd146102945780633500d740146102b05780633c3a220d146102ce576101a9565b80630121b93f146101ae57806301ffc9a7146101ca57806306fdde03146101fa578063081812fc14610218578063095ea7b31461024857806309eef43e14610264575b600080fd5b6101c860048036038101906101c39190612825565b6105d8565b005b6101e460048036038101906101df91906128aa565b61096e565b6040516101f191906128f2565b60405180910390f35b610202610a50565b60405161020f919061299d565b60405180910390f35b610232600480360381019061022d9190612825565b610ae2565b60405161023f9190612a00565b60405180910390f35b610262600480360381019061025d9190612a47565b610afe565b005b61027e60048036038101906102799190612a87565b610b14565b60405161028b91906128f2565b60405180910390f35b6102ae60048036038101906102a99190612ab4565b610b34565b005b6102b8610c36565b6040516102c59190612bb2565b60405180910390f35b6102e860048036038101906102e39190612825565b610ff3565b6040516102f59190612bdc565b60405180910390f35b61031860048036038101906103139190612ab4565b61100b565b005b610334600480360381019061032f9190612825565b61102b565b6040516103419190612a00565b60405180910390f35b610364600480360381019061035f9190612825565b61103d565b604051610371919061299d565b60405180910390f35b610394600480360381019061038f9190612a87565b6110dd565b6040516103a19190612bdc565b60405180910390f35b6103b2611197565b6040516103bf9190612bdc565b60405180910390f35b6103e260048036038101906103dd9190612a87565b61119d565b6040516103ef919061299d565b60405180910390f35b610400611542565b60405161040d919061299d565b60405180910390f35b610430600480360381019061042b9190612c23565b6115d4565b005b61043a6115ea565b6040516104479190612bdc565b60405180910390f35b61046a60048036038101906104659190612825565b6115f0565b604051610477919061299d565b60405180910390f35b61049a60048036038101906104959190612d98565b61179a565b005b6104b660048036038101906104b19190612825565b6117bf565b6040516104c39190612bdc565b60405180910390f35b6104e660048036038101906104e19190612825565b6117d7565b6040516104f3919061299d565b60405180910390f35b61051660048036038101906105119190612825565b611840565b6040516105239190612bdc565b60405180910390f35b61054660048036038101906105419190612e1b565b611858565b60405161055391906128f2565b60405180910390f35b61057660048036038101906105719190612a87565b6118ec565b6040516105839190612bdc565b60405180910390f35b6105a660048036038101906105a19190612efc565b611904565b005b6105c260048036038101906105bd9190612825565b61194e565b6040516105cf9190612bdc565b60405180910390f35b6105ec676a909a1407d92bd760c01b6119a7565b610600674ec9690a69239fb160c01b6119a7565b6106146734e1b5eedb91ceee60c01b6119a7565b610628671d85250ad5bef15360c01b6119a7565b600b60003373ffffffffffffffffffffffffffffffffffffffff1673ffffffffffffffffffffffffffffffffffffffff16815260200190815260200160002060009054906101000a900460ff16156106b5576040517f08c379a00000000000000000000000000000000000000000000000000000000081526004016106ac90612fa4565b60405180910390fd5b6106c967eaf2d8b7fa09318d60c01b6119a7565b6106dd67f0389cfbb404fe2560c01b6119a7565b6106f167896196a39a106a7760c01b6119a7565b61070567a7d993fa9cb2630460c01b6119a7565b600060066000838152602001908152602001600020805461072590612ff3565b905011610767576040517f08c379a000000000000000000000000000000000000000000000000000000000815260040161075e90613070565b60405180910390fd5b61077b67e3b2d4a675bba80a60c01b6119a7565b61078f67695be8f48f6e189060c01b6119a7565b6009600082815260200190815260200160002060008154809291906107b3906130bf565b91905055506107cc67050e73160ae9e42a60c01b6119a7565b6001600b60003373ffffffffffffffffffffffffffffffffffffffff1673ffffffffffffffffffffffffffffffffffffffff16815260200190815260200160002060006101000a81548160ff0219169083151502179055506108386735cd9f359768415860c01b6119a7565b61084c6736d513243c8c515a60c01b6119a7565b61085833600c546119aa565b61086c6765b72b1fc45ded0160c01b6119a7565b600c54600d60003373ffffffffffffffffffffffffffffffffffffffff1673ffffffffffffffffffffffffffffffffffffffff168152602001908152602001600020819055506108c667143356458555484160c01b6119a7565b80600a6000600c548152602001908152602001600020819055506108f467bc9e34e30559d65960c01b6119a7565b600c6000815480929190610907906130bf565b919050555061092067ac2083694c9e63b960c01b6119a7565b61093467a7a5c568151015de60c01b6119a7565b7f7f511e347bf51eed3be100b3194247d5207f05f3b33de7d31e3e8ee73199a049816040516109639190612bdc565b60405180910390a150565b60007f80ac58cd000000000000000000000000000000000000000000000000000000007bffffffffffffffffffffffffffffffffffffffffffffffffffffffff1916827bffffffffffffffffffffffffffffffffffffffffffffffffffffffff19161480610a3957507f5b5e139f000000000000000000000000000000000000000000000000000000007bffffffffffffffffffffffffffffffffffffffffffffffffffffffff1916827bffffffffffffffffffffffffffffffffffffffffffffffffffffffff1916145b80610a495750610a4882611aa3565b5b9050919050565b606060008054610a5f90612ff3565b80601f0160208091040260200160405190810160405280929190818152602001828054610a8b90612ff3565b8015610ad85780601f10610aad57610100808354040283529160200191610ad8565b820191906000526020600020905b815481529060010190602001808311610abb57829003601f168201915b5050505050905090565b6000610aed82611b0d565b50610af782611b95565b9050919050565b610b108282610b0b611bd2565b611bda565b5050565b600b6020528060005260406000206000915054906101000a900460ff1681565b600073ffffffffffffffffffffffffffffffffffffffff168273ffffffffffffffffffffffffffffffffffffffff1603610ba65760006040517f64a0ae92000000000000000000000000000000000000000000000000000000008152600401610b9d9190612a00565b60405180910390fd5b6000610bba8383610bb5611bd2565b611bec565b90508373ffffffffffffffffffffffffffffffffffffffff168173ffffffffffffffffffffffffffffffffffffffff1614610c30578382826040517f64283d7b000000000000000000000000000000000000000000000000000000008152600401610c2793929190613107565b60405180910390fd5b50505050565b610c3e6127b9565b610c5267fd2a138c35423b7360c01b6119a7565b610c6667e62847ac3661e29960c01b6119a7565b610c7a6717f4e538b2f19d7b60c01b6119a7565b60006008549050610c9567dde2f824c6b95cd360c01b6119a7565b610ca967b63fe17171dda4f260c01b6119a7565b610cb16127b9565b610cc5678786f87d3965aa8b60c01b6119a7565b610cd9675dd6a7f9ca41472060c01b6119a7565b610ce16127b9565b610cf567350769b847647c1c60c01b6119a7565b610d0967ffd88877b284a52a60c01b6119a7565b60005b83811015610fc157610d2867ea45d8938e76726260c01b6119a7565b610d3c67e76ef15655b10c5360c01b6119a7565b600060076000838152602001908152602001600020549050610d68679af7017df5e74c6e60c01b6119a7565b610d7c67d50ed4cbcb5e533b60c01b6119a7565b600060096000838152602001908152602001600020549050610da867e649a49f0d9747f860c01b6119a7565b610dbc6771f2ab50a7d2c77a60c01b6119a7565b60005b6005811015610fb157610ddc67ed4380c9a3246d2460c01b6119a7565b610df0678fee2afc7ac89c7760c01b6119a7565b858160058110610e0357610e0261313e565b5b60200201518210610f9057610e2267dcd710e045fcd91760c01b6119a7565b610e3667f65aad22ba2b55af60c01b6119a7565b610e4a67b5a7f047107fd14f60c01b6119a7565b6000600490505b81811115610f1457610e6d6747065b44d11b97d760c01b6119a7565b86600182610e7b919061316d565b60058110610e8c57610e8b61313e565b5b6020020151878260058110610ea457610ea361313e565b5b602002018181525050610ec16781bc24b4defce2f360c01b6119a7565b85600182610ecf919061316d565b60058110610ee057610edf61313e565b5b6020020151868260058110610ef857610ef761313e565b5b6020020181815250508080610f0c906131a1565b915050610e51565b50610f296787e1503f6dba746a60c01b6119a7565b81868260058110610f3d57610f3c61313e565b5b602002018181525050610f5a670102ae5d321587ab60c01b6119a7565b82858260058110610f6e57610f6d61313e565b5b602002018181525050610f8b67510e02305a4930ed60c01b6119a7565b610fb1565b610fa4676493523451aaa7d360c01b6119a7565b8080600101915050610dbf565b5050508080600101915050610d0c565b50610fd6671d9a84f6d56a06b560c01b6119a7565b610fea6760195084cd9fa2ae60c01b6119a7565b80935050505090565b60096020528060005260406000206000915090505481565b6110268383836040518060200160405280600081525061179a565b505050565b600061103682611b0d565b9050919050565b6006602052806000526040600020600091509050805461105c90612ff3565b80601f016020809104026020016040519081016040528092919081815260200182805461108890612ff3565b80156110d55780601f106110aa576101008083540402835291602001916110d5565b820191906000526020600020905b8154815290600101906020018083116110b857829003601f168201915b505050505081565b60008073ffffffffffffffffffffffffffffffffffffffff168273ffffffffffffffffffffffffffffffffffffffff16036111505760006040517f89c62b640000000000000000000000000000000000000000000000000000000081526004016111479190612a00565b60405180910390fd5b600360008373ffffffffffffffffffffffffffffffffffffffff1673ffffffffffffffffffffffffffffffffffffffff168152602001908152602001600020549050919050565b600c5481565b60606111b3671a96de5fa5b56e1c60c01b6119a7565b6111c767559d1814cf16454e60c01b6119a7565b6111db67c96b6de3ed7dd4ee60c01b6119a7565b6111ef671f5d8fa6d8754ff560c01b6119a7565b600b60008373ffffffffffffffffffffffffffffffffffffffff1673ffffffffffffffffffffffffffffffffffffffff16815260200190815260200160002060009054906101000a900460ff1661127b576040517f08c379a000000000000000000000000000000000000000000000000000000000815260040161127290613216565b60405180910390fd5b61128f67e32b6765b1eef54f60c01b6119a7565b6112a367d265e7de443296ca60c01b6119a7565b6112b767681b9b0b9d1960ba60c01b6119a7565b6000600d60008473ffffffffffffffffffffffffffffffffffffffff1673ffffffffffffffffffffffffffffffffffffffff16815260200190815260200160002054905061130f6716c5b8159b5b330a60c01b6119a7565b61132367f05ad4af0316f61a60c01b6119a7565b61133767df1a0dbba35185db60c01b6119a7565b600c54811061137b576040517f08c379a000000000000000000000000000000000000000000000000000000000815260040161137290613282565b60405180910390fd5b61138f67c4c94d36d3f83d2960c01b6119a7565b6113a36731ce9a72b40dd25d60c01b6119a7565b6113b7674d7c8060bc4e322360c01b6119a7565b6113cb6710be35ddd8b5f7c960c01b6119a7565b6000600a60008381526020019081526020016000205403611421576040517f08c379a000000000000000000000000000000000000000000000000000000000815260040161141890613314565b60405180910390fd5b611435672883e856f800938e60c01b6119a7565b611449671ab8ea580a45df7d60c01b6119a7565b61145d67ddd2bca612e65c6360c01b6119a7565b6000600a600083815260200190815260200160002054905061148967fec6f30888a4563860c01b6119a7565b61149d6756024cd573ef6d2860c01b6119a7565b6006600082815260200190815260200160002080546114bb90612ff3565b80601f01602080910402602001604051908101604052809291908181526020018280546114e790612ff3565b80156115345780601f1061150957610100808354040283529160200191611534565b820191906000526020600020905b81548152906001019060200180831161151757829003601f168201915b505050505092505050919050565b60606001805461155190612ff3565b80601f016020809104026020016040519081016040528092919081815260200182805461157d90612ff3565b80156115ca5780601f1061159f576101008083540402835291602001916115ca565b820191906000526020600020905b8154815290600101906020018083116115ad57829003601f168201915b5050505050905090565b6115e66115df611bd2565b8383611e06565b5050565b60085481565b60606116066722b9e3c3fc26e02660c01b6119a7565b61161a675a08121a4ce6c71360c01b6119a7565b61162e67593eaeb575645d4760c01b6119a7565b600060066000848152602001908152602001600020805461164e90612ff3565b80601f016020809104026020016040519081016040528092919081815260200182805461167a90612ff3565b80156116c75780601f1061169c576101008083540402835291602001916116c7565b820191906000526020600020905b8154815290600101906020018083116116aa57829003601f168201915b505050505090506116e267758107f02092201d60c01b6119a7565b6116f66756c44d959caaba8760c01b6119a7565b6000815111156117455761171467eeff48d0ef263ab160c01b6119a7565b61172867284350c47600d17e60c01b6119a7565b61173c67faa5aec192e0c56860c01b6119a7565b80915050611795565b6117596721e689615e74e33660c01b6119a7565b61176d679e21ab903d8b8cec60c01b6119a7565b6117816741a72690a1d0085560c01b6119a7565b604051806020016040528060008152509150505b919050565b6117a5848484610b34565b6117b96117b0611bd2565b85858585611f75565b50505050565b600a6020528060005260406000206000915090505481565b60606117e282611b0d565b5060006117ed612126565b9050600081511161180d5760405180602001604052806000815250611838565b806118178461213d565b604051602001611828929190613370565b6040516020818303038152906040525b915050919050565b60076020528060005260406000206000915090505481565b6000600560008473ffffffffffffffffffffffffffffffffffffffff1673ffffffffffffffffffffffffffffffffffffffff16815260200190815260200160002060008373ffffffffffffffffffffffffffffffffffffffff1673ffffffffffffffffffffffffffffffffffffffff16815260200190815260200160002060009054906101000a900460ff16905092915050565b600d6020528060005260406000206000915090505481565b61191867920f186493ba912c60c01b6119a7565b61192c674a0048c14e71caee60c01b6119a7565b611940672366f62a3cdcca9b60c01b6119a7565b61194a828261220b565b5050565b600061196467aec026242535052760c01b6119a7565b611978674b7db423872bd08c60c01b6119a7565b61198c67babc6ee173f0d5f560c01b6119a7565b60096000838152602001908152602001600020549050919050565b50565b600073ffffffffffffffffffffffffffffffffffffffff168273ffffffffffffffffffffffffffffffffffffffff1603611a1c5760006040517f64a0ae92000000000000000000000000000000000000000000000000000000008152600401611a139190612a00565b60405180910390fd5b6000611a2a83836000611bec565b9050600073ffffffffffffffffffffffffffffffffffffffff168173ffffffffffffffffffffffffffffffffffffffff1614611a9e5760006040517f73c6ac6e000000000000000000000000000000000000000000000000000000008152600401611a959190612a00565b60405180910390fd5b505050565b60007f01ffc9a7000000000000000000000000000000000000000000000000000000007bffffffffffffffffffffffffffffffffffffffffffffffffffffffff1916827bffffffffffffffffffffffffffffffffffffffffffffffffffffffff1916149050919050565b600080611b19836122df565b9050600073ffffffffffffffffffffffffffffffffffffffff168173ffffffffffffffffffffffffffffffffffffffff1603611b8c57826040517f7e273289000000000000000000000000000000000000000000000000000000008152600401611b839190612bdc565b60405180910390fd5b80915050919050565b60006004600083815260200190815260200160002060009054906101000a900473ffffffffffffffffffffffffffffffffffffffff169050919050565b600033905090565b611be7838383600161231c565b505050565b600080611bf8846122df565b9050600073ffffffffffffffffffffffffffffffffffffffff168373ffffffffffffffffffffffffffffffffffffffff1614611c3a57611c398184866124e1565b5b600073ffffffffffffffffffffffffffffffffffffffff168173ffffffffffffffffffffffffffffffffffffffff1614611ccb57611c7c60008560008061231c565b6001600360008373ffffffffffffffffffffffffffffffffffffffff1673ffffffffffffffffffffffffffffffffffffffff168152602001908152602001600020600082825403925050819055505b600073ffffffffffffffffffffffffffffffffffffffff168573ffffffffffffffffffffffffffffffffffffffff1614611d4e576001600360008773ffffffffffffffffffffffffffffffffffffffff1673ffffffffffffffffffffffffffffffffffffffff168152602001908152602001600020600082825401925050819055505b846002600086815260200190815260200160002060006101000a81548173ffffffffffffffffffffffffffffffffffffffff021916908373ffffffffffffffffffffffffffffffffffffffff160217905550838573ffffffffffffffffffffffffffffffffffffffff168273ffffffffffffffffffffffffffffffffffffffff167fddf252ad1be2c89b69c2b068fc378daa952ba7f163c4a11628f55a4df523b3ef60405160405180910390a4809150509392505050565b600073ffffffffffffffffffffffffffffffffffffffff168273ffffffffffffffffffffffffffffffffffffffff1603611e7757816040517f5b08ba18000000000000000000000000000000000000000000000000000000008152600401611e6e9190612a00565b60405180910390fd5b80600560008573ffffffffffffffffffffffffffffffffffffffff1673ffffffffffffffffffffffffffffffffffffffff16815260200190815260200160002060008473ffffffffffffffffffffffffffffffffffffffff1673ffffffffffffffffffffffffffffffffffffffff16815260200190815260200160002060006101000a81548160ff0219169083151502179055508173ffffffffffffffffffffffffffffffffffffffff168373ffffffffffffffffffffffffffffffffffffffff167f17307eab39ab6107e8899845ad3d59bd9653f200f220920489ca2b5937696c3183604051611f6891906128f2565b60405180910390a3505050565b60008373ffffffffffffffffffffffffffffffffffffffff163b111561211f578273ffffffffffffffffffffffffffffffffffffffff1663150b7a02868685856040518563ffffffff1660e01b8152600401611fd494939291906133e9565b6020604051808303816000875af192505050801561201057506040513d601f19601f8201168201806040525081019061200d919061344a565b60015b612094573d8060008114612040576040519150601f19603f3d011682016040523d82523d6000602084013e612045565b606091505b50600081510361208c57836040517f64a0ae920000000000000000000000000000000000000000000000000000000081526004016120839190612a00565b60405180910390fd5b805181602001fd5b63150b7a0260e01b7bffffffffffffffffffffffffffffffffffffffffffffffffffffffff1916817bffffffffffffffffffffffffffffffffffffffffffffffffffffffff19161461211d57836040517f64a0ae920000000000000000000000000000000000000000000000000000000081526004016121149190612a00565b60405180910390fd5b505b5050505050565b606060405180602001604052806000815250905090565b60606000600161214c846125a5565b01905060008167ffffffffffffffff81111561216b5761216a612c6d565b5b6040519080825280601f01601f19166020018201604052801561219d5781602001600182028036833780820191505090505b509050600082602001820190505b600115612200578080600190039150507f3031323334353637383961626364656600000000000000000000000000000000600a86061a8153600a85816121f4576121f3613477565b5b049450600085036121ab575b819350505050919050565b61221f67e704601eaf82dd8b60c01b6119a7565b61223367cf5eb81df0f9fbfb60c01b6119a7565b806006600084815260200190815260200160002090816122539190613652565b50612268678283046e12e9ec6c60c01b6119a7565b600060096000848152602001908152602001600020819055506122956711a26c87f656a95560c01b6119a7565b81600760006008548152602001908152602001600020819055506122c3672d0ff417f09b2d2d60c01b6119a7565b600860008154809291906122d6906130bf565b91905055505050565b60006002600083815260200190815260200160002060009054906101000a900473ffffffffffffffffffffffffffffffffffffffff169050919050565b80806123555750600073ffffffffffffffffffffffffffffffffffffffff168273ffffffffffffffffffffffffffffffffffffffff1614155b1561248957600061236584611b0d565b9050600073ffffffffffffffffffffffffffffffffffffffff168373ffffffffffffffffffffffffffffffffffffffff16141580156123d057508273ffffffffffffffffffffffffffffffffffffffff168173ffffffffffffffffffffffffffffffffffffffff1614155b80156123e357506123e18184611858565b155b1561242557826040517fa9fbf51f00000000000000000000000000000000000000000000000000000000815260040161241c9190612a00565b60405180910390fd5b811561248757838573ffffffffffffffffffffffffffffffffffffffff168273ffffffffffffffffffffffffffffffffffffffff167f8c5be1e5ebec7d5bd14f71427d1e84f3dd0314c0f7b2291e5b200ac8c7c3b92560405160405180910390a45b505b836004600085815260200190815260200160002060006101000a81548173ffffffffffffffffffffffffffffffffffffffff021916908373ffffffffffffffffffffffffffffffffffffffff16021790555050505050565b6124ec8383836126f8565b6125a057600073ffffffffffffffffffffffffffffffffffffffff168373ffffffffffffffffffffffffffffffffffffffff160361256157806040517f7e2732890000000000000000000000000000000000000000000000000000000081526004016125589190612bdc565b60405180910390fd5b81816040517f177e802f000000000000000000000000000000000000000000000000000000008152600401612597929190613724565b60405180910390fd5b505050565b600080600090507a184f03e93ff9f4daa797ed6e38ed64bf6a1f0100000000000000008310612603577a184f03e93ff9f4daa797ed6e38ed64bf6a1f01000000000000000083816125f9576125f8613477565b5b0492506040810190505b6d04ee2d6d415b85acef81000000008310612640576d04ee2d6d415b85acef8100000000838161263657612635613477565b5b0492506020810190505b662386f26fc10000831061266f57662386f26fc10000838161266557612664613477565b5b0492506010810190505b6305f5e1008310612698576305f5e100838161268e5761268d613477565b5b0492506008810190505b61271083106126bd5761271083816126b3576126b2613477565b5b0492506004810190505b606483106126e057606483816126d6576126d5613477565b5b0492506002810190505b600a83106126ef576001810190505b80915050919050565b60008073ffffffffffffffffffffffffffffffffffffffff168373ffffffffffffffffffffffffffffffffffffffff16141580156127b057508273ffffffffffffffffffffffffffffffffffffffff168473ffffffffffffffffffffffffffffffffffffffff16148061277157506127708484611858565b5b806127af57508273ffffffffffffffffffffffffffffffffffffffff1661279783611b95565b73ffffffffffffffffffffffffffffffffffffffff16145b5b90509392505050565b6040518060a00160405280600590602082028036833780820191505090505090565b6000604051905090565b600080fd5b600080fd5b6000819050919050565b612802816127ef565b811461280d57600080fd5b50565b60008135905061281f816127f9565b92915050565b60006020828403121561283b5761283a6127e5565b5b600061284984828501612810565b91505092915050565b60007fffffffff0000000000000000000000000000000000000000000000000000000082169050919050565b61288781612852565b811461289257600080fd5b50565b6000813590506128a48161287e565b92915050565b6000602082840312156128c0576128bf6127e5565b5b60006128ce84828501612895565b91505092915050565b60008115159050919050565b6128ec816128d7565b82525050565b600060208201905061290760008301846128e3565b92915050565b600081519050919050565b600082825260208201905092915050565b60005b8381101561294757808201518184015260208101905061292c565b60008484015250505050565b6000601f19601f8301169050919050565b600061296f8261290d565b6129798185612918565b9350612989818560208601612929565b61299281612953565b840191505092915050565b600060208201905081810360008301526129b78184612964565b905092915050565b600073ffffffffffffffffffffffffffffffffffffffff82169050919050565b60006129ea826129bf565b9050919050565b6129fa816129df565b82525050565b6000602082019050612a1560008301846129f1565b92915050565b612a24816129df565b8114612a2f57600080fd5b50565b600081359050612a4181612a1b565b92915050565b60008060408385031215612a5e57612a5d6127e5565b5b6000612a6c85828601612a32565b9250506020612a7d85828601612810565b9150509250929050565b600060208284031215612a9d57612a9c6127e5565b5b6000612aab84828501612a32565b91505092915050565b600080600060608486031215612acd57612acc6127e5565b5b6000612adb86828701612a32565b9350506020612aec86828701612a32565b9250506040612afd86828701612810565b9150509250925092565b600060059050919050565b600081905092915050565b6000819050919050565b612b30816127ef565b82525050565b6000612b428383612b27565b60208301905092915050565b6000602082019050919050565b612b6481612b07565b612b6e8184612b12565b9250612b7982612b1d565b8060005b83811015612baa578151612b918782612b36565b9650612b9c83612b4e565b925050600181019050612b7d565b505050505050565b600060a082019050612bc76000830184612b5b565b92915050565b612bd6816127ef565b82525050565b6000602082019050612bf16000830184612bcd565b92915050565b612c00816128d7565b8114612c0b57600080fd5b50565b600081359050612c1d81612bf7565b92915050565b60008060408385031215612c3a57612c396127e5565b5b6000612c4885828601612a32565b9250506020612c5985828601612c0e565b9150509250929050565b600080fd5b600080fd5b7f4e487b7100000000000000000000000000000000000000000000000000000000600052604160045260246000fd5b612ca582612953565b810181811067ffffffffffffffff82111715612cc457612cc3612c6d565b5b80604052505050565b6000612cd76127db565b9050612ce38282612c9c565b919050565b600067ffffffffffffffff821115612d0357612d02612c6d565b5b612d0c82612953565b9050602081019050919050565b82818337600083830152505050565b6000612d3b612d3684612ce8565b612ccd565b905082815260208101848484011115612d5757612d56612c68565b5b612d62848285612d19565b509392505050565b600082601f830112612d7f57612d7e612c63565b5b8135612d8f848260208601612d28565b91505092915050565b60008060008060808587031215612db257612db16127e5565b5b6000612dc087828801612a32565b9450506020612dd187828801612a32565b9350506040612de287828801612810565b925050606085013567ffffffffffffffff811115612e0357612e026127ea565b5b612e0f87828801612d6a565b91505092959194509250565b60008060408385031215612e3257612e316127e5565b5b6000612e4085828601612a32565b9250506020612e5185828601612a32565b9150509250929050565b600067ffffffffffffffff821115612e7657612e75612c6d565b5b612e7f82612953565b9050602081019050919050565b6000612e9f612e9a84612e5b565b612ccd565b905082815260208101848484011115612ebb57612eba612c68565b5b612ec6848285612d19565b509392505050565b600082601f830112612ee357612ee2612c63565b5b8135612ef3848260208601612e8c565b91505092915050565b60008060408385031215612f1357612f126127e5565b5b6000612f2185828601612810565b925050602083013567ffffffffffffffff811115612f4257612f416127ea565b5b612f4e85828601612ece565b9150509250929050565b7f416c726561647920766f74656400000000000000000000000000000000000000600082015250565b6000612f8e600d83612918565b9150612f9982612f58565b602082019050919050565b60006020820190508181036000830152612fbd81612f81565b9050919050565b7f4e487b7100000000000000000000000000000000000000000000000000000000600052602260045260246000fd5b6000600282049050600182168061300b57607f821691505b60208210810361301e5761301d612fc4565b5b50919050565b7f4d6f76696520646f6573206e6f74206578697374000000000000000000000000600082015250565b600061305a601483612918565b915061306582613024565b602082019050919050565b600060208201905081810360008301526130898161304d565b9050919050565b7f4e487b7100000000000000000000000000000000000000000000000000000000600052601160045260246000fd5b60006130ca826127ef565b91507fffffffffffffffffffffffffffffffffffffffffffffffffffffffffffffffff82036130fc576130fb613090565b5b600182019050919050565b600060608201905061311c60008301866129f1565b6131296020830185612bcd565b61313660408301846129f1565b949350505050565b7f4e487b7100000000000000000000000000000000000000000000000000000000600052603260045260246000fd5b6000613178826127ef565b9150613183836127ef565b925082820390508181111561319b5761319a613090565b5b92915050565b60006131ac826127ef565b9150600082036131bf576131be613090565b5b600182039050919050565b7f4164647265737320686173206e6f7420766f7465642079657400000000000000600082015250565b6000613200601983612918565b915061320b826131ca565b602082019050919050565b6000602082019050818103600083015261322f816131f3565b9050919050565b7f496e76616c696420746f6b656e20494400000000000000000000000000000000600082015250565b600061326c601083612918565b915061327782613236565b602082019050919050565b6000602082019050818103600083015261329b8161325f565b9050919050565b7f4e6f206d6f766965206173736f6369617465642077697468207468697320746f60008201527f6b656e2049440000000000000000000000000000000000000000000000000000602082015250565b60006132fe602683612918565b9150613309826132a2565b604082019050919050565b6000602082019050818103600083015261332d816132f1565b9050919050565b600081905092915050565b600061334a8261290d565b6133548185613334565b9350613364818560208601612929565b80840191505092915050565b600061337c828561333f565b9150613388828461333f565b91508190509392505050565b600081519050919050565b600082825260208201905092915050565b60006133bb82613394565b6133c5818561339f565b93506133d5818560208601612929565b6133de81612953565b840191505092915050565b60006080820190506133fe60008301876129f1565b61340b60208301866129f1565b6134186040830185612bcd565b818103606083015261342a81846133b0565b905095945050505050565b6000815190506134448161287e565b92915050565b6000602082840312156134605761345f6127e5565b5b600061346e84828501613435565b91505092915050565b7f4e487b7100000000000000000000000000000000000000000000000000000000600052601260045260246000fd5b60008190508160005260206000209050919050565b60006020601f8301049050919050565b600082821b905092915050565b6000600883026135087fffffffffffffffffffffffffffffffffffffffffffffffffffffffffffffffff826134cb565b61351286836134cb565b95508019841693508086168417925050509392505050565b6000819050919050565b600061354f61354a613545846127ef565b61352a565b6127ef565b9050919050565b6000819050919050565b61356983613534565b61357d61357582613556565b8484546134d8565b825550505050565b600090565b613592613585565b61359d818484613560565b505050565b5b818110156135c1576135b660008261358a565b6001810190506135a3565b5050565b601f821115613606576135d7816134a6565b6135e0846134bb565b810160208510156135ef578190505b6136036135fb856134bb565b8301826135a2565b50505b505050565b600082821c905092915050565b60006136296000198460080261360b565b1980831691505092915050565b60006136428383613618565b9150826002028217905092915050565b61365b8261290d565b67ffffffffffffffff81111561367457613673612c6d565b5b61367e8254612ff3565b6136898282856135c5565b600060209050601f8311600181146136bc57600084156136aa578287015190505b6136b48582613636565b86555061371c565b601f1984166136ca866134a6565b60005b828110156136f2578489015182556001820191506020850194506020810190506136cd565b8683101561370f578489015161370b601f891682613618565b8355505b6001600288020188555050505b505050505050565b600060408201905061373960008301856129f1565b6137466020830184612bcd565b939250505056fea2646970667358221220d946d571ace0fdd7198b44fad58896ac5d874218f995161c7209b26531af406c64736f6c634300081c0033",
  "linkReferences": {},
  "deployedLinkReferences": {}
}