{
  "_format": "hh-sol-artifact-1",
  "contractName": "Voting",
  "sourceName": "contracts/Voting.sol",
  "abi": [
    {
      "inputs": [
        {
          "internalType": "uint256[]",
          "name": "initialMovieIds",
          "type": "uint256[]"
        },
        {
          "internalType": "string[]",
          "name": "initialMovieTitles",
          "type": "string[]"
        }
      ],
      "stateMutability": "nonpayable",
      "type": "constructor"
    },
    {
      "inputs": [
        {
          "internalType": "address",
          "name": "sender",
          "type": "address"
        },
        {
          "internalType": "uint256",
          "name": "tokenId",
          "type": "uint256"
        },
        {
          "internalType": "address",
          "name": "owner",
          "type": "address"
        }
      ],
      "name": "ERC721IncorrectOwner",
      "type": "error"
    },
    {
      "inputs": [
        {
          "internalType": "address",
          "name": "operator",
          "type": "address"
        },
        {
          "internalType": "uint256",
          "name": "tokenId",
          "type": "uint256"
        }
      ],
      "name": "ERC721InsufficientApproval",
      "type": "error"
    },
    {
      "inputs": [
        {
          "internalType": "address",
          "name": "approver",
          "type": "address"
        }
      ],
      "name": "ERC721InvalidApprover",
      "type": "error"
    },
    {
      "inputs": [
        {
          "internalType": "address",
          "name": "operator",
          "type": "address"
        }
      ],
      "name": "ERC721InvalidOperator",
      "type": "error"
    },
    {
      "inputs": [
        {
          "internalType": "address",
          "name": "owner",
          "type": "address"
        }
      ],
      "name": "ERC721InvalidOwner",
      "type": "error"
    },
    {
      "inputs": [
        {
          "internalType": "address",
          "name": "receiver",
          "type": "address"
        }
      ],
      "name": "ERC721InvalidReceiver",
      "type": "error"
    },
    {
      "inputs": [
        {
          "internalType": "address",
          "name": "sender",
          "type": "address"
        }
      ],
      "name": "ERC721InvalidSender",
      "type": "error"
    },
    {
      "inputs": [
        {
          "internalType": "uint256",
          "name": "tokenId",
          "type": "uint256"
        }
      ],
      "name": "ERC721NonexistentToken",
      "type": "error"
    },
    {
      "anonymous": false,
      "inputs": [
        {
          "indexed": true,
          "internalType": "address",
          "name": "owner",
          "type": "address"
        },
        {
          "indexed": true,
          "internalType": "address",
          "name": "approved",
          "type": "address"
        },
        {
          "indexed": true,
          "internalType": "uint256",
          "name": "tokenId",
          "type": "uint256"
        }
      ],
      "name": "Approval",
      "type": "event"
    },
    {
      "anonymous": false,
      "inputs": [
        {
          "indexed": true,
          "internalType": "address",
          "name": "owner",
          "type": "address"
        },
        {
          "indexed": true,
          "internalType": "address",
          "name": "operator",
          "type": "address"
        },
        {
          "indexed": false,
          "internalType": "bool",
          "name": "approved",
          "type": "bool"
        }
      ],
      "name": "ApprovalForAll",
      "type": "event"
    },
    {
      "anonymous": false,
      "inputs": [
        {
          "indexed": true,
          "internalType": "address",
          "name": "from",
          "type": "address"
        },
        {
          "indexed": true,
          "internalType": "address",
          "name": "to",
          "type": "address"
        },
        {
          "indexed": true,
          "internalType": "uint256",
          "name": "tokenId",
          "type": "uint256"
        }
      ],
      "name": "Transfer",
      "type": "event"
    },
    {
      "anonymous": false,
      "inputs": [
        {
          "indexed": false,
          "internalType": "uint256",
          "name": "movieId",
          "type": "uint256"
        }
      ],
      "name": "Voted",
      "type": "event"
    },
    {
      "inputs": [
        {
          "internalType": "uint256",
          "name": "movie_id",
          "type": "uint256"
        },
        {
          "internalType": "string",
          "name": "name",
          "type": "string"
        }
      ],
      "name": "addMovie",
      "outputs": [],
      "stateMutability": "nonpayable",
      "type": "function"
    },
    {
      "inputs": [
        {
          "internalType": "address",
          "name": "",
          "type": "address"
        }
      ],
      "name": "addressToMovieId",
      "outputs": [
        {
          "internalType": "uint256",
          "name": "",
          "type": "uint256"
        }
      ],
      "stateMutability": "view",
      "type": "function"
    },
    {
      "inputs": [
        {
          "internalType": "address",
          "name": "to",
          "type": "address"
        },
        {
          "internalType": "uint256",
          "name": "tokenId",
          "type": "uint256"
        }
      ],
      "name": "approve",
      "outputs": [],
      "stateMutability": "nonpayable",
      "type": "function"
    },
    {
      "inputs": [
        {
          "internalType": "address",
          "name": "owner",
          "type": "address"
        }
      ],
      "name": "balanceOf",
      "outputs": [
        {
          "internalType": "uint256",
          "name": "",
          "type": "uint256"
        }
      ],
      "stateMutability": "view",
      "type": "function"
    },
    {
      "inputs": [
        {
          "internalType": "uint256",
          "name": "tokenId",
          "type": "uint256"
        }
      ],
      "name": "getApproved",
      "outputs": [
        {
          "internalType": "address",
          "name": "",
          "type": "address"
        }
      ],
      "stateMutability": "view",
      "type": "function"
    },
    {
      "inputs": [
        {
          "internalType": "uint256",
          "name": "movieId",
          "type": "uint256"
        }
      ],
      "name": "getMovieById",
      "outputs": [
        {
          "internalType": "string",
          "name": "",
          "type": "string"
        }
      ],
      "stateMutability": "view",
      "type": "function"
    },
    {
      "inputs": [
        {
          "internalType": "address",
          "name": "voter",
          "type": "address"
        }
      ],
      "name": "getMovieVotedFor",
      "outputs": [
        {
          "internalType": "string",
          "name": "",
          "type": "string"
        }
      ],
      "stateMutability": "view",
      "type": "function"
    },
    {
      "inputs": [],
      "name": "getTop5Movies",
      "outputs": [
        {
          "internalType": "uint256[5]",
          "name": "topMovieIds",
          "type": "uint256[5]"
        }
      ],
      "stateMutability": "view",
      "type": "function"
    },
    {
      "inputs": [
        {
          "internalType": "uint256",
          "name": "_movieId",
          "type": "uint256"
        }
      ],
      "name": "getVoteCountByMovieId",
      "outputs": [
        {
          "internalType": "uint256",
          "name": "",
          "type": "uint256"
        }
      ],
      "stateMutability": "view",
      "type": "function"
    },
    {
      "inputs": [
        {
          "internalType": "address",
          "name": "",
          "type": "address"
        }
      ],
      "name": "hasVoted",
      "outputs": [
        {
          "internalType": "bool",
          "name": "",
          "type": "bool"
        }
      ],
      "stateMutability": "view",
      "type": "function"
    },
    {
      "inputs": [
        {
          "internalType": "address",
          "name": "owner",
          "type": "address"
        },
        {
          "internalType": "address",
          "name": "operator",
          "type": "address"
        }
      ],
      "name": "isApprovedForAll",
      "outputs": [
        {
          "internalType": "bool",
          "name": "",
          "type": "bool"
        }
      ],
      "stateMutability": "view",
      "type": "function"
    },
    {
      "inputs": [
        {
          "internalType": "uint256",
          "name": "",
          "type": "uint256"
        }
      ],
      "name": "movieNames",
      "outputs": [
        {
          "internalType": "string",
          "name": "",
          "type": "string"
        }
      ],
      "stateMutability": "view",
      "type": "function"
    },
    {
      "inputs": [],
      "name": "name",
      "outputs": [
        {
          "internalType": "string",
          "name": "",
          "type": "string"
        }
      ],
      "stateMutability": "view",
      "type": "function"
    },
    {
      "inputs": [],
      "name": "nextTokenId",
      "outputs": [
        {
          "internalType": "uint256",
          "name": "",
          "type": "uint256"
        }
      ],
      "stateMutability": "view",
      "type": "function"
    },
    {
      "inputs": [
        {
          "internalType": "uint256",
          "name": "",
          "type": "uint256"
        }
      ],
      "name": "nftIdsToMovieIds",
      "outputs": [
        {
          "internalType": "uint256",
          "name": "",
          "type": "uint256"
        }
      ],
      "stateMutability": "view",
      "type": "function"
    },
    {
      "inputs": [
        {
          "internalType": "uint256",
          "name": "tokenId",
          "type": "uint256"
        }
      ],
      "name": "ownerOf",
      "outputs": [
        {
          "internalType": "address",
          "name": "",
          "type": "address"
        }
      ],
      "stateMutability": "view",
      "type": "function"
    },
    {
      "inputs": [
        {
          "internalType": "address",
          "name": "from",
          "type": "address"
        },
        {
          "internalType": "address",
          "name": "to",
          "type": "address"
        },
        {
          "internalType": "uint256",
          "name": "tokenId",
          "type": "uint256"
        }
      ],
      "name": "safeTransferFrom",
      "outputs": [],
      "stateMutability": "nonpayable",
      "type": "function"
    },
    {
      "inputs": [
        {
          "internalType": "address",
          "name": "from",
          "type": "address"
        },
        {
          "internalType": "address",
          "name": "to",
          "type": "address"
        },
        {
          "internalType": "uint256",
          "name": "tokenId",
          "type": "uint256"
        },
        {
          "internalType": "bytes",
          "name": "data",
          "type": "bytes"
        }
      ],
      "name": "safeTransferFrom",
      "outputs": [],
      "stateMutability": "nonpayable",
      "type": "function"
    },
    {
      "inputs": [
        {
          "internalType": "address",
          "name": "operator",
          "type": "address"
        },
        {
          "internalType": "bool",
          "name": "approved",
          "type": "bool"
        }
      ],
      "name": "setApprovalForAll",
      "outputs": [],
      "stateMutability": "nonpayable",
      "type": "function"
    },
    {
      "inputs": [
        {
          "internalType": "bytes4",
          "name": "interfaceId",
          "type": "bytes4"
        }
      ],
      "name": "supportsInterface",
      "outputs": [
        {
          "internalType": "bool",
          "name": "",
          "type": "bool"
        }
      ],
      "stateMutability": "view",
      "type": "function"
    },
    {
      "inputs": [],
      "name": "symbol",
      "outputs": [
        {
          "internalType": "string",
          "name": "",
          "type": "string"
        }
      ],
      "stateMutability": "view",
      "type": "function"
    },
    {
      "inputs": [
        {
          "internalType": "uint256",
          "name": "tokenId",
          "type": "uint256"
        }
      ],
      "name": "tokenURI",
      "outputs": [
        {
          "internalType": "string",
          "name": "",
          "type": "string"
        }
      ],
      "stateMutability": "view",
      "type": "function"
    },
    {
      "inputs": [
        {
          "internalType": "address",
          "name": "from",
          "type": "address"
        },
        {
          "internalType": "address",
          "name": "to",
          "type": "address"
        },
        {
          "internalType": "uint256",
          "name": "tokenId",
          "type": "uint256"
        }
      ],
      "name": "transferFrom",
      "outputs": [],
      "stateMutability": "nonpayable",
      "type": "function"
    },
    {
      "inputs": [
        {
          "internalType": "uint256",
          "name": "_movieId",
          "type": "uint256"
        }
      ],
      "name": "vote",
      "outputs": [],
      "stateMutability": "nonpayable",
      "type": "function"
    },
    {
      "inputs": [
        {
          "internalType": "uint256",
          "name": "",
          "type": "uint256"
        }
      ],
      "name": "voteCounts",
      "outputs": [
        {
          "internalType": "uint256",
          "name": "",
          "type": "uint256"
        }
      ],
      "stateMutability": "view",
      "type": "function"
    }
  ],
  "bytecode": "0x608060405234801561001057600080fd5b5060405161383138038061383183398181016040528101906100329190610503565b6040518060400160405280600981526020017f566f74696e674e465400000000000000000000000000000000000000000000008152506040518060400160405280600481526020017f564f54450000000000000000000000000000000000000000000000000000000081525081600090816100ad9190610792565b5080600190816100bd9190610792565b5050508051825114610104576040517f08c379a00000000000000000000000000000000000000000000000000000000081526004016100fb906108c1565b60405180910390fd5b6000600a8190555060005b82518110156101695761015c83828151811061012e5761012d6108e1565b5b6020026020010151838381518110610149576101486108e1565b5b602002602001015161017160201b60201c565b808060010191505061010f565b505050610910565b806006600084815260200190815260200160002090816101919190610792565b50600060076000848152602001908152602001600020819055505050565b6000604051905090565b600080fd5b600080fd5b600080fd5b6000601f19601f8301169050919050565b7f4e487b7100000000000000000000000000000000000000000000000000000000600052604160045260246000fd5b610211826101c8565b810181811067ffffffffffffffff821117156102305761022f6101d9565b5b80604052505050565b60006102436101af565b905061024f8282610208565b919050565b600067ffffffffffffffff82111561026f5761026e6101d9565b5b602082029050602081019050919050565b600080fd5b6000819050919050565b61029881610285565b81146102a357600080fd5b50565b6000815190506102b58161028f565b92915050565b60006102ce6102c984610254565b610239565b905080838252602082019050602084028301858111156102f1576102f0610280565b5b835b8181101561031a578061030688826102a6565b8452602084019350506020810190506102f3565b5050509392505050565b600082601f830112610339576103386101c3565b5b81516103498482602086016102bb565b91505092915050565b600067ffffffffffffffff82111561036d5761036c6101d9565b5b602082029050602081019050919050565b600080fd5b600067ffffffffffffffff82111561039e5761039d6101d9565b5b6103a7826101c8565b9050602081019050919050565b60005b838110156103d25780820151818401526020810190506103b7565b60008484015250505050565b60006103f16103ec84610383565b610239565b90508281526020810184848401111561040d5761040c61037e565b5b6104188482856103b4565b509392505050565b600082601f830112610435576104346101c3565b5b81516104458482602086016103de565b91505092915050565b600061046161045c84610352565b610239565b9050808382526020820190506020840283018581111561048457610483610280565b5b835b818110156104cb57805167ffffffffffffffff8111156104a9576104a86101c3565b5b8086016104b68982610420565b85526020850194505050602081019050610486565b5050509392505050565b600082601f8301126104ea576104e96101c3565b5b81516104fa84826020860161044e565b91505092915050565b6000806040838503121561051a576105196101b9565b5b600083015167ffffffffffffffff811115610538576105376101be565b5b61054485828601610324565b925050602083015167ffffffffffffffff811115610565576105646101be565b5b610571858286016104d5565b9150509250929050565b600081519050919050565b7f4e487b7100000000000000000000000000000000000000000000000000000000600052602260045260246000fd5b600060028204905060018216806105cd57607f821691505b6020821081036105e0576105df610586565b5b50919050565b60008190508160005260206000209050919050565b60006020601f8301049050919050565b600082821b905092915050565b6000600883026106487fffffffffffffffffffffffffffffffffffffffffffffffffffffffffffffffff8261060b565b610652868361060b565b95508019841693508086168417925050509392505050565b6000819050919050565b600061068f61068a61068584610285565b61066a565b610285565b9050919050565b6000819050919050565b6106a983610674565b6106bd6106b582610696565b848454610618565b825550505050565b600090565b6106d26106c5565b6106dd8184846106a0565b505050565b5b81811015610701576106f66000826106ca565b6001810190506106e3565b5050565b601f82111561074657610717816105e6565b610720846105fb565b8101602085101561072f578190505b61074361073b856105fb565b8301826106e2565b50505b505050565b600082821c905092915050565b60006107696000198460080261074b565b1980831691505092915050565b60006107828383610758565b9150826002028217905092915050565b61079b8261057b565b67ffffffffffffffff8111156107b4576107b36101d9565b5b6107be82546105b5565b6107c9828285610705565b600060209050601f8311600181146107fc57600084156107ea578287015190505b6107f48582610776565b86555061085c565b601f19841661080a866105e6565b60005b828110156108325784890151825560018201915060208501945060208101905061080d565b8683101561084f578489015161084b601f891682610758565b8355505b6001600288020188555050505b505050505050565b600082825260208201905092915050565b7f4d69736d61746368656420696e707574206c656e677468730000000000000000600082015250565b60006108ab601883610864565b91506108b682610875565b602082019050919050565b600060208201905081810360008301526108da8161089e565b9050919050565b7f4e487b7100000000000000000000000000000000000000000000000000000000600052603260045260246000fd5b612f128061091f6000396000f3fe608060405234801561001057600080fd5b50600436106101735760003560e01c806370a08231116100de578063b88d4fde11610097578063e985e9c511610071578063e985e9c5146104a8578063ed1f1f8e146104d8578063f206ae1b14610508578063f77a9b3f1461052457610173565b8063b88d4fde1461042c578063b98afc7014610448578063c87b56dd1461047857610173565b806370a082311461034457806375794a3c146103745780638664054b1461039257806395d89b41146103c2578063a22cb465146103e0578063ae0b05e9146103fc57610173565b806323b872dd1161013057806323b872dd1461025e5780633500d7401461027a5780633c3a220d1461029857806342842e0e146102c85780636352211e146102e45780636d4d371a1461031457610173565b80630121b93f1461017857806301ffc9a71461019457806306fdde03146101c4578063081812fc146101e2578063095ea7b31461021257806309eef43e1461022e575b600080fd5b610192600480360381019061018d9190612020565b610554565b005b6101ae60048036038101906101a991906120a5565b610720565b6040516101bb91906120ed565b60405180910390f35b6101cc610802565b6040516101d99190612198565b60405180910390f35b6101fc60048036038101906101f79190612020565b610894565b60405161020991906121fb565b60405180910390f35b61022c60048036038101906102279190612242565b6108b0565b005b61024860048036038101906102439190612282565b6108c6565b60405161025591906120ed565b60405180910390f35b610278600480360381019061027391906122af565b6108e6565b005b6102826109e8565b60405161028f91906123ad565b60405180910390f35b6102b260048036038101906102ad9190612020565b610b75565b6040516102bf91906123d7565b60405180910390f35b6102e260048036038101906102dd91906122af565b610b8d565b005b6102fe60048036038101906102f99190612020565b610bad565b60405161030b91906121fb565b60405180910390f35b61032e60048036038101906103299190612020565b610bbf565b60405161033b9190612198565b60405180910390f35b61035e60048036038101906103599190612282565b610c5f565b60405161036b91906123d7565b60405180910390f35b61037c610d19565b60405161038991906123d7565b60405180910390f35b6103ac60048036038101906103a79190612282565b610d1f565b6040516103b99190612198565b60405180910390f35b6103ca610f48565b6040516103d79190612198565b60405180910390f35b6103fa60048036038101906103f5919061241e565b610fda565b005b61041660048036038101906104119190612020565b610ff0565b6040516104239190612198565b60405180910390f35b61044660048036038101906104419190612593565b6110be565b005b610462600480360381019061045d9190612020565b6110e3565b60405161046f91906123d7565b60405180910390f35b610492600480360381019061048d9190612020565b6110fb565b60405161049f9190612198565b60405180910390f35b6104c260048036038101906104bd9190612616565b611164565b6040516104cf91906120ed565b60405180910390f35b6104f260048036038101906104ed9190612282565b6111f8565b6040516104ff91906123d7565b60405180910390f35b610522600480360381019061051d91906126f7565b611210565b005b61053e60048036038101906105399190612020565b61121e565b60405161054b91906123d7565b60405180910390f35b600960003373ffffffffffffffffffffffffffffffffffffffff1673ffffffffffffffffffffffffffffffffffffffff16815260200190815260200160002060009054906101000a900460ff16156105e1576040517f08c379a00000000000000000000000000000000000000000000000000000000081526004016105d89061279f565b60405180910390fd5b600760008281526020019081526020016000206000815480929190610605906127ee565b91905055506001600960003373ffffffffffffffffffffffffffffffffffffffff1673ffffffffffffffffffffffffffffffffffffffff16815260200190815260200160002060006101000a81548160ff02191690831515021790555061066e33600a5461123b565b600a54600b60003373ffffffffffffffffffffffffffffffffffffffff1673ffffffffffffffffffffffffffffffffffffffff168152602001908152602001600020819055508060086000600a54815260200190815260200160002081905550600a60008154809291906106e1906127ee565b91905055507f7f511e347bf51eed3be100b3194247d5207f05f3b33de7d31e3e8ee73199a0498160405161071591906123d7565b60405180910390a150565b60007f80ac58cd000000000000000000000000000000000000000000000000000000007bffffffffffffffffffffffffffffffffffffffffffffffffffffffff1916827bffffffffffffffffffffffffffffffffffffffffffffffffffffffff191614806107eb57507f5b5e139f000000000000000000000000000000000000000000000000000000007bffffffffffffffffffffffffffffffffffffffffffffffffffffffff1916827bffffffffffffffffffffffffffffffffffffffffffffffffffffffff1916145b806107fb57506107fa82611334565b5b9050919050565b60606000805461081190612865565b80601f016020809104026020016040519081016040528092919081815260200182805461083d90612865565b801561088a5780601f1061085f5761010080835404028352916020019161088a565b820191906000526020600020905b81548152906001019060200180831161086d57829003601f168201915b5050505050905090565b600061089f8261139e565b506108a982611426565b9050919050565b6108c282826108bd611463565b61146b565b5050565b60096020528060005260406000206000915054906101000a900460ff1681565b600073ffffffffffffffffffffffffffffffffffffffff168273ffffffffffffffffffffffffffffffffffffffff16036109585760006040517f64a0ae9200000000000000000000000000000000000000000000000000000000815260040161094f91906121fb565b60405180910390fd5b600061096c8383610967611463565b61147d565b90508373ffffffffffffffffffffffffffffffffffffffff168173ffffffffffffffffffffffffffffffffffffffff16146109e2578382826040517f64283d7b0000000000000000000000000000000000000000000000000000000081526004016109d993929190612896565b60405180910390fd5b50505050565b6109f0611fb4565b6000600a5490506109ff611fb4565b610a07611fb4565b60005b83811015610b6b5760006008600083815260200190815260200160002054905060006007600083815260200190815260200160002054905060005b6005811015610b5b57858160058110610a6157610a606128cd565b5b60200201518210610b4e576000600490505b81811115610b0e5786600182610a8991906128fc565b60058110610a9a57610a996128cd565b5b6020020151878260058110610ab257610ab16128cd565b5b60200201818152505085600182610ac991906128fc565b60058110610ada57610ad96128cd565b5b6020020151868260058110610af257610af16128cd565b5b6020020181815250508080610b0690612930565b915050610a73565b5081868260058110610b2357610b226128cd565b5b60200201818152505082858260058110610b4057610b3f6128cd565b5b602002018181525050610b5b565b8080600101915050610a45565b5050508080600101915050610a0a565b5080935050505090565b60076020528060005260406000206000915090505481565b610ba8838383604051806020016040528060008152506110be565b505050565b6000610bb88261139e565b9050919050565b60066020528060005260406000206000915090508054610bde90612865565b80601f0160208091040260200160405190810160405280929190818152602001828054610c0a90612865565b8015610c575780601f10610c2c57610100808354040283529160200191610c57565b820191906000526020600020905b815481529060010190602001808311610c3a57829003601f168201915b505050505081565b60008073ffffffffffffffffffffffffffffffffffffffff168273ffffffffffffffffffffffffffffffffffffffff1603610cd25760006040517f89c62b64000000000000000000000000000000000000000000000000000000008152600401610cc991906121fb565b60405180910390fd5b600360008373ffffffffffffffffffffffffffffffffffffffff1673ffffffffffffffffffffffffffffffffffffffff168152602001908152602001600020549050919050565b600a5481565b6060600960008373ffffffffffffffffffffffffffffffffffffffff1673ffffffffffffffffffffffffffffffffffffffff16815260200190815260200160002060009054906101000a900460ff16610dad576040517f08c379a0000000000000000000000000000000000000000000000000000000008152600401610da4906129a5565b60405180910390fd5b6000600b60008473ffffffffffffffffffffffffffffffffffffffff1673ffffffffffffffffffffffffffffffffffffffff168152602001908152602001600020549050600a548110610e35576040517f08c379a0000000000000000000000000000000000000000000000000000000008152600401610e2c90612a11565b60405180910390fd5b6000600860008381526020019081526020016000205403610e8b576040517f08c379a0000000000000000000000000000000000000000000000000000000008152600401610e8290612aa3565b60405180910390fd5b600060086000838152602001908152602001600020549050600660008281526020019081526020016000208054610ec190612865565b80601f0160208091040260200160405190810160405280929190818152602001828054610eed90612865565b8015610f3a5780601f10610f0f57610100808354040283529160200191610f3a565b820191906000526020600020905b815481529060010190602001808311610f1d57829003601f168201915b505050505092505050919050565b606060018054610f5790612865565b80601f0160208091040260200160405190810160405280929190818152602001828054610f8390612865565b8015610fd05780601f10610fa557610100808354040283529160200191610fd0565b820191906000526020600020905b815481529060010190602001808311610fb357829003601f168201915b5050505050905090565b610fec610fe5611463565b8383611697565b5050565b6060600060066000848152602001908152602001600020805461101290612865565b80601f016020809104026020016040519081016040528092919081815260200182805461103e90612865565b801561108b5780601f106110605761010080835404028352916020019161108b565b820191906000526020600020905b81548152906001019060200180831161106e57829003601f168201915b505050505090506000815111156110a557809150506110b9565b604051806020016040528060008152509150505b919050565b6110c98484846108e6565b6110dd6110d4611463565b85858585611806565b50505050565b60086020528060005260406000206000915090505481565b60606111068261139e565b5060006111116119b7565b90506000815111611131576040518060200160405280600081525061115c565b8061113b846119ce565b60405160200161114c929190612aff565b6040516020818303038152906040525b915050919050565b6000600560008473ffffffffffffffffffffffffffffffffffffffff1673ffffffffffffffffffffffffffffffffffffffff16815260200190815260200160002060008373ffffffffffffffffffffffffffffffffffffffff1673ffffffffffffffffffffffffffffffffffffffff16815260200190815260200160002060009054906101000a900460ff16905092915050565b600b6020528060005260406000206000915090505481565b61121a8282611a9c565b5050565b600060076000838152602001908152602001600020549050919050565b600073ffffffffffffffffffffffffffffffffffffffff168273ffffffffffffffffffffffffffffffffffffffff16036112ad5760006040517f64a0ae920000000000000000000000000000000000000000000000000000000081526004016112a491906121fb565b60405180910390fd5b60006112bb8383600061147d565b9050600073ffffffffffffffffffffffffffffffffffffffff168173ffffffffffffffffffffffffffffffffffffffff161461132f5760006040517f73c6ac6e00000000000000000000000000000000000000000000000000000000815260040161132691906121fb565b60405180910390fd5b505050565b60007f01ffc9a7000000000000000000000000000000000000000000000000000000007bffffffffffffffffffffffffffffffffffffffffffffffffffffffff1916827bffffffffffffffffffffffffffffffffffffffffffffffffffffffff1916149050919050565b6000806113aa83611ada565b9050600073ffffffffffffffffffffffffffffffffffffffff168173ffffffffffffffffffffffffffffffffffffffff160361141d57826040517f7e27328900000000000000000000000000000000000000000000000000000000815260040161141491906123d7565b60405180910390fd5b80915050919050565b60006004600083815260200190815260200160002060009054906101000a900473ffffffffffffffffffffffffffffffffffffffff169050919050565b600033905090565b6114788383836001611b17565b505050565b60008061148984611ada565b9050600073ffffffffffffffffffffffffffffffffffffffff168373ffffffffffffffffffffffffffffffffffffffff16146114cb576114ca818486611cdc565b5b600073ffffffffffffffffffffffffffffffffffffffff168173ffffffffffffffffffffffffffffffffffffffff161461155c5761150d600085600080611b17565b6001600360008373ffffffffffffffffffffffffffffffffffffffff1673ffffffffffffffffffffffffffffffffffffffff168152602001908152602001600020600082825403925050819055505b600073ffffffffffffffffffffffffffffffffffffffff168573ffffffffffffffffffffffffffffffffffffffff16146115df576001600360008773ffffffffffffffffffffffffffffffffffffffff1673ffffffffffffffffffffffffffffffffffffffff168152602001908152602001600020600082825401925050819055505b846002600086815260200190815260200160002060006101000a81548173ffffffffffffffffffffffffffffffffffffffff021916908373ffffffffffffffffffffffffffffffffffffffff160217905550838573ffffffffffffffffffffffffffffffffffffffff168273ffffffffffffffffffffffffffffffffffffffff167fddf252ad1be2c89b69c2b068fc378daa952ba7f163c4a11628f55a4df523b3ef60405160405180910390a4809150509392505050565b600073ffffffffffffffffffffffffffffffffffffffff168273ffffffffffffffffffffffffffffffffffffffff160361170857816040517f5b08ba180000000000000000000000000000000000000000000000000000000081526004016116ff91906121fb565b60405180910390fd5b80600560008573ffffffffffffffffffffffffffffffffffffffff1673ffffffffffffffffffffffffffffffffffffffff16815260200190815260200160002060008473ffffffffffffffffffffffffffffffffffffffff1673ffffffffffffffffffffffffffffffffffffffff16815260200190815260200160002060006101000a81548160ff0219169083151502179055508173ffffffffffffffffffffffffffffffffffffffff168373ffffffffffffffffffffffffffffffffffffffff167f17307eab39ab6107e8899845ad3d59bd9653f200f220920489ca2b5937696c31836040516117f991906120ed565b60405180910390a3505050565b60008373ffffffffffffffffffffffffffffffffffffffff163b11156119b0578273ffffffffffffffffffffffffffffffffffffffff1663150b7a02868685856040518563ffffffff1660e01b81526004016118659493929190612b78565b6020604051808303816000875af19250505080156118a157506040513d601f19601f8201168201806040525081019061189e9190612bd9565b60015b611925573d80600081146118d1576040519150601f19603f3d011682016040523d82523d6000602084013e6118d6565b606091505b50600081510361191d57836040517f64a0ae9200000000000000000000000000000000000000000000000000000000815260040161191491906121fb565b60405180910390fd5b805181602001fd5b63150b7a0260e01b7bffffffffffffffffffffffffffffffffffffffffffffffffffffffff1916817bffffffffffffffffffffffffffffffffffffffffffffffffffffffff1916146119ae57836040517f64a0ae920000000000000000000000000000000000000000000000000000000081526004016119a591906121fb565b60405180910390fd5b505b5050505050565b606060405180602001604052806000815250905090565b6060600060016119dd84611da0565b01905060008167ffffffffffffffff8111156119fc576119fb612468565b5b6040519080825280601f01601f191660200182016040528015611a2e5781602001600182028036833780820191505090505b509050600082602001820190505b600115611a91578080600190039150507f3031323334353637383961626364656600000000000000000000000000000000600a86061a8153600a8581611a8557611a84612c06565b5b04945060008503611a3c575b819350505050919050565b80600660008481526020019081526020016000209081611abc9190612de1565b50600060076000848152602001908152602001600020819055505050565b60006002600083815260200190815260200160002060009054906101000a900473ffffffffffffffffffffffffffffffffffffffff169050919050565b8080611b505750600073ffffffffffffffffffffffffffffffffffffffff168273ffffffffffffffffffffffffffffffffffffffff1614155b15611c84576000611b608461139e565b9050600073ffffffffffffffffffffffffffffffffffffffff168373ffffffffffffffffffffffffffffffffffffffff1614158015611bcb57508273ffffffffffffffffffffffffffffffffffffffff168173ffffffffffffffffffffffffffffffffffffffff1614155b8015611bde5750611bdc8184611164565b155b15611c2057826040517fa9fbf51f000000000000000000000000000000000000000000000000000000008152600401611c1791906121fb565b60405180910390fd5b8115611c8257838573ffffffffffffffffffffffffffffffffffffffff168273ffffffffffffffffffffffffffffffffffffffff167f8c5be1e5ebec7d5bd14f71427d1e84f3dd0314c0f7b2291e5b200ac8c7c3b92560405160405180910390a45b505b836004600085815260200190815260200160002060006101000a81548173ffffffffffffffffffffffffffffffffffffffff021916908373ffffffffffffffffffffffffffffffffffffffff16021790555050505050565b611ce7838383611ef3565b611d9b57600073ffffffffffffffffffffffffffffffffffffffff168373ffffffffffffffffffffffffffffffffffffffff1603611d5c57806040517f7e273289000000000000000000000000000000000000000000000000000000008152600401611d5391906123d7565b60405180910390fd5b81816040517f177e802f000000000000000000000000000000000000000000000000000000008152600401611d92929190612eb3565b60405180910390fd5b505050565b600080600090507a184f03e93ff9f4daa797ed6e38ed64bf6a1f0100000000000000008310611dfe577a184f03e93ff9f4daa797ed6e38ed64bf6a1f0100000000000000008381611df457611df3612c06565b5b0492506040810190505b6d04ee2d6d415b85acef81000000008310611e3b576d04ee2d6d415b85acef81000000008381611e3157611e30612c06565b5b0492506020810190505b662386f26fc100008310611e6a57662386f26fc100008381611e6057611e5f612c06565b5b0492506010810190505b6305f5e1008310611e93576305f5e1008381611e8957611e88612c06565b5b0492506008810190505b6127108310611eb8576127108381611eae57611ead612c06565b5b0492506004810190505b60648310611edb5760648381611ed157611ed0612c06565b5b0492506002810190505b600a8310611eea576001810190505b80915050919050565b60008073ffffffffffffffffffffffffffffffffffffffff168373ffffffffffffffffffffffffffffffffffffffff1614158015611fab57508273ffffffffffffffffffffffffffffffffffffffff168473ffffffffffffffffffffffffffffffffffffffff161480611f6c5750611f6b8484611164565b5b80611faa57508273ffffffffffffffffffffffffffffffffffffffff16611f9283611426565b73ffffffffffffffffffffffffffffffffffffffff16145b5b90509392505050565b6040518060a00160405280600590602082028036833780820191505090505090565b6000604051905090565b600080fd5b600080fd5b6000819050919050565b611ffd81611fea565b811461200857600080fd5b50565b60008135905061201a81611ff4565b92915050565b60006020828403121561203657612035611fe0565b5b60006120448482850161200b565b91505092915050565b60007fffffffff0000000000000000000000000000000000000000000000000000000082169050919050565b6120828161204d565b811461208d57600080fd5b50565b60008135905061209f81612079565b92915050565b6000602082840312156120bb576120ba611fe0565b5b60006120c984828501612090565b91505092915050565b60008115159050919050565b6120e7816120d2565b82525050565b600060208201905061210260008301846120de565b92915050565b600081519050919050565b600082825260208201905092915050565b60005b83811015612142578082015181840152602081019050612127565b60008484015250505050565b6000601f19601f8301169050919050565b600061216a82612108565b6121748185612113565b9350612184818560208601612124565b61218d8161214e565b840191505092915050565b600060208201905081810360008301526121b2818461215f565b905092915050565b600073ffffffffffffffffffffffffffffffffffffffff82169050919050565b60006121e5826121ba565b9050919050565b6121f5816121da565b82525050565b600060208201905061221060008301846121ec565b92915050565b61221f816121da565b811461222a57600080fd5b50565b60008135905061223c81612216565b92915050565b6000806040838503121561225957612258611fe0565b5b60006122678582860161222d565b92505060206122788582860161200b565b9150509250929050565b60006020828403121561229857612297611fe0565b5b60006122a68482850161222d565b91505092915050565b6000806000606084860312156122c8576122c7611fe0565b5b60006122d68682870161222d565b93505060206122e78682870161222d565b92505060406122f88682870161200b565b9150509250925092565b600060059050919050565b600081905092915050565b6000819050919050565b61232b81611fea565b82525050565b600061233d8383612322565b60208301905092915050565b6000602082019050919050565b61235f81612302565b612369818461230d565b925061237482612318565b8060005b838110156123a557815161238c8782612331565b965061239783612349565b925050600181019050612378565b505050505050565b600060a0820190506123c26000830184612356565b92915050565b6123d181611fea565b82525050565b60006020820190506123ec60008301846123c8565b92915050565b6123fb816120d2565b811461240657600080fd5b50565b600081359050612418816123f2565b92915050565b6000806040838503121561243557612434611fe0565b5b60006124438582860161222d565b925050602061245485828601612409565b9150509250929050565b600080fd5b600080fd5b7f4e487b7100000000000000000000000000000000000000000000000000000000600052604160045260246000fd5b6124a08261214e565b810181811067ffffffffffffffff821117156124bf576124be612468565b5b80604052505050565b60006124d2611fd6565b90506124de8282612497565b919050565b600067ffffffffffffffff8211156124fe576124fd612468565b5b6125078261214e565b9050602081019050919050565b82818337600083830152505050565b6000612536612531846124e3565b6124c8565b90508281526020810184848401111561255257612551612463565b5b61255d848285612514565b509392505050565b600082601f83011261257a5761257961245e565b5b813561258a848260208601612523565b91505092915050565b600080600080608085870312156125ad576125ac611fe0565b5b60006125bb8782880161222d565b94505060206125cc8782880161222d565b93505060406125dd8782880161200b565b925050606085013567ffffffffffffffff8111156125fe576125fd611fe5565b5b61260a87828801612565565b91505092959194509250565b6000806040838503121561262d5761262c611fe0565b5b600061263b8582860161222d565b925050602061264c8582860161222d565b9150509250929050565b600067ffffffffffffffff82111561267157612670612468565b5b61267a8261214e565b9050602081019050919050565b600061269a61269584612656565b6124c8565b9050828152602081018484840111156126b6576126b5612463565b5b6126c1848285612514565b509392505050565b600082601f8301126126de576126dd61245e565b5b81356126ee848260208601612687565b91505092915050565b6000806040838503121561270e5761270d611fe0565b5b600061271c8582860161200b565b925050602083013567ffffffffffffffff81111561273d5761273c611fe5565b5b612749858286016126c9565b9150509250929050565b7f416c726561647920766f74656400000000000000000000000000000000000000600082015250565b6000612789600d83612113565b915061279482612753565b602082019050919050565b600060208201905081810360008301526127b88161277c565b9050919050565b7f4e487b7100000000000000000000000000000000000000000000000000000000600052601160045260246000fd5b60006127f982611fea565b91507fffffffffffffffffffffffffffffffffffffffffffffffffffffffffffffffff820361282b5761282a6127bf565b5b600182019050919050565b7f4e487b7100000000000000000000000000000000000000000000000000000000600052602260045260246000fd5b6000600282049050600182168061287d57607f821691505b6020821081036128905761288f612836565b5b50919050565b60006060820190506128ab60008301866121ec565b6128b860208301856123c8565b6128c560408301846121ec565b949350505050565b7f4e487b7100000000000000000000000000000000000000000000000000000000600052603260045260246000fd5b600061290782611fea565b915061291283611fea565b925082820390508181111561292a576129296127bf565b5b92915050565b600061293b82611fea565b91506000820361294e5761294d6127bf565b5b600182039050919050565b7f4164647265737320686173206e6f7420766f7465642079657400000000000000600082015250565b600061298f601983612113565b915061299a82612959565b602082019050919050565b600060208201905081810360008301526129be81612982565b9050919050565b7f496e76616c696420746f6b656e20494400000000000000000000000000000000600082015250565b60006129fb601083612113565b9150612a06826129c5565b602082019050919050565b60006020820190508181036000830152612a2a816129ee565b9050919050565b7f4e6f206d6f766965206173736f6369617465642077697468207468697320746f60008201527f6b656e2049440000000000000000000000000000000000000000000000000000602082015250565b6000612a8d602683612113565b9150612a9882612a31565b604082019050919050565b60006020820190508181036000830152612abc81612a80565b9050919050565b600081905092915050565b6000612ad982612108565b612ae38185612ac3565b9350612af3818560208601612124565b80840191505092915050565b6000612b0b8285612ace565b9150612b178284612ace565b91508190509392505050565b600081519050919050565b600082825260208201905092915050565b6000612b4a82612b23565b612b548185612b2e565b9350612b64818560208601612124565b612b6d8161214e565b840191505092915050565b6000608082019050612b8d60008301876121ec565b612b9a60208301866121ec565b612ba760408301856123c8565b8181036060830152612bb98184612b3f565b905095945050505050565b600081519050612bd381612079565b92915050565b600060208284031215612bef57612bee611fe0565b5b6000612bfd84828501612bc4565b91505092915050565b7f4e487b7100000000000000000000000000000000000000000000000000000000600052601260045260246000fd5b60008190508160005260206000209050919050565b60006020601f8301049050919050565b600082821b905092915050565b600060088302612c977fffffffffffffffffffffffffffffffffffffffffffffffffffffffffffffffff82612c5a565b612ca18683612c5a565b95508019841693508086168417925050509392505050565b6000819050919050565b6000612cde612cd9612cd484611fea565b612cb9565b611fea565b9050919050565b6000819050919050565b612cf883612cc3565b612d0c612d0482612ce5565b848454612c67565b825550505050565b600090565b612d21612d14565b612d2c818484612cef565b505050565b5b81811015612d5057612d45600082612d19565b600181019050612d32565b5050565b601f821115612d9557612d6681612c35565b612d6f84612c4a565b81016020851015612d7e578190505b612d92612d8a85612c4a565b830182612d31565b50505b505050565b600082821c905092915050565b6000612db860001984600802612d9a565b1980831691505092915050565b6000612dd18383612da7565b9150826002028217905092915050565b612dea82612108565b67ffffffffffffffff811115612e0357612e02612468565b5b612e0d8254612865565b612e18828285612d54565b600060209050601f831160018114612e4b5760008415612e39578287015190505b612e438582612dc5565b865550612eab565b601f198416612e5986612c35565b60005b82811015612e8157848901518255600182019150602085019450602081019050612e5c565b86831015612e9e5784890151612e9a601f891682612da7565b8355505b6001600288020188555050505b505050505050565b6000604082019050612ec860008301856121ec565b612ed560208301846123c8565b939250505056fea2646970667358221220a155295ef8ac9611a1c1ca12fdbc74fedcf1ffb98248b669436a3ecace0ca55864736f6c634300081c0033",
  "linkReferences": {},
  "deployedLinkReferences": {}
}