{
  "_format": "hh-sol-artifact-1",
  "contractName": "Voting",
  "sourceName": "contracts/Voting.sol",
  "abi": [
    {
      "inputs": [
        {
          "internalType": "uint256[]",
          "name": "initialMovieIds",
          "type": "uint256[]"
        },
        {
          "internalType": "string[]",
          "name": "initialMovieTitles",
          "type": "string[]"
        }
      ],
      "stateMutability": "nonpayable",
      "type": "constructor"
    },
    {
      "inputs": [
        {
          "internalType": "address",
          "name": "sender",
          "type": "address"
        },
        {
          "internalType": "uint256",
          "name": "tokenId",
          "type": "uint256"
        },
        {
          "internalType": "address",
          "name": "owner",
          "type": "address"
        }
      ],
      "name": "ERC721IncorrectOwner",
      "type": "error"
    },
    {
      "inputs": [
        {
          "internalType": "address",
          "name": "operator",
          "type": "address"
        },
        {
          "internalType": "uint256",
          "name": "tokenId",
          "type": "uint256"
        }
      ],
      "name": "ERC721InsufficientApproval",
      "type": "error"
    },
    {
      "inputs": [
        {
          "internalType": "address",
          "name": "approver",
          "type": "address"
        }
      ],
      "name": "ERC721InvalidApprover",
      "type": "error"
    },
    {
      "inputs": [
        {
          "internalType": "address",
          "name": "operator",
          "type": "address"
        }
      ],
      "name": "ERC721InvalidOperator",
      "type": "error"
    },
    {
      "inputs": [
        {
          "internalType": "address",
          "name": "owner",
          "type": "address"
        }
      ],
      "name": "ERC721InvalidOwner",
      "type": "error"
    },
    {
      "inputs": [
        {
          "internalType": "address",
          "name": "receiver",
          "type": "address"
        }
      ],
      "name": "ERC721InvalidReceiver",
      "type": "error"
    },
    {
      "inputs": [
        {
          "internalType": "address",
          "name": "sender",
          "type": "address"
        }
      ],
      "name": "ERC721InvalidSender",
      "type": "error"
    },
    {
      "inputs": [
        {
          "internalType": "uint256",
          "name": "tokenId",
          "type": "uint256"
        }
      ],
      "name": "ERC721NonexistentToken",
      "type": "error"
    },
    {
      "anonymous": false,
      "inputs": [
        {
          "indexed": true,
          "internalType": "address",
          "name": "owner",
          "type": "address"
        },
        {
          "indexed": true,
          "internalType": "address",
          "name": "approved",
          "type": "address"
        },
        {
          "indexed": true,
          "internalType": "uint256",
          "name": "tokenId",
          "type": "uint256"
        }
      ],
      "name": "Approval",
      "type": "event"
    },
    {
      "anonymous": false,
      "inputs": [
        {
          "indexed": true,
          "internalType": "address",
          "name": "owner",
          "type": "address"
        },
        {
          "indexed": true,
          "internalType": "address",
          "name": "operator",
          "type": "address"
        },
        {
          "indexed": false,
          "internalType": "bool",
          "name": "approved",
          "type": "bool"
        }
      ],
      "name": "ApprovalForAll",
      "type": "event"
    },
    {
      "anonymous": false,
      "inputs": [
        {
          "indexed": true,
          "internalType": "address",
          "name": "from",
          "type": "address"
        },
        {
          "indexed": true,
          "internalType": "address",
          "name": "to",
          "type": "address"
        },
        {
          "indexed": true,
          "internalType": "uint256",
          "name": "tokenId",
          "type": "uint256"
        }
      ],
      "name": "Transfer",
      "type": "event"
    },
    {
      "anonymous": false,
      "inputs": [
        {
          "indexed": false,
          "internalType": "uint256",
          "name": "movieId",
          "type": "uint256"
        }
      ],
      "name": "Voted",
      "type": "event"
    },
    {
      "inputs": [
        {
          "internalType": "uint256",
          "name": "movie_id",
          "type": "uint256"
        },
        {
          "internalType": "string",
          "name": "name",
          "type": "string"
        }
      ],
      "name": "addMovie",
      "outputs": [],
      "stateMutability": "nonpayable",
      "type": "function"
    },
    {
      "inputs": [
        {
          "internalType": "address",
          "name": "",
          "type": "address"
        }
      ],
      "name": "addressToMovieId",
      "outputs": [
        {
          "internalType": "uint256",
          "name": "",
          "type": "uint256"
        }
      ],
      "stateMutability": "view",
      "type": "function"
    },
    {
      "inputs": [
        {
          "internalType": "address",
          "name": "to",
          "type": "address"
        },
        {
          "internalType": "uint256",
          "name": "tokenId",
          "type": "uint256"
        }
      ],
      "name": "approve",
      "outputs": [],
      "stateMutability": "nonpayable",
      "type": "function"
    },
    {
      "inputs": [
        {
          "internalType": "address",
          "name": "owner",
          "type": "address"
        }
      ],
      "name": "balanceOf",
      "outputs": [
        {
          "internalType": "uint256",
          "name": "",
          "type": "uint256"
        }
      ],
      "stateMutability": "view",
      "type": "function"
    },
    {
      "inputs": [
        {
          "internalType": "uint256",
          "name": "tokenId",
          "type": "uint256"
        }
      ],
      "name": "getApproved",
      "outputs": [
        {
          "internalType": "address",
          "name": "",
          "type": "address"
        }
      ],
      "stateMutability": "view",
      "type": "function"
    },
    {
      "inputs": [
        {
          "internalType": "uint256",
          "name": "movieId",
          "type": "uint256"
        }
      ],
      "name": "getMovieById",
      "outputs": [
        {
          "internalType": "string",
          "name": "",
          "type": "string"
        }
      ],
      "stateMutability": "view",
      "type": "function"
    },
    {
      "inputs": [
        {
          "internalType": "address",
          "name": "voter",
          "type": "address"
        }
      ],
      "name": "getMovieVotedFor",
      "outputs": [
        {
          "internalType": "string",
          "name": "",
          "type": "string"
        }
      ],
      "stateMutability": "view",
      "type": "function"
    },
    {
      "inputs": [],
      "name": "getTop5Movies",
      "outputs": [
        {
          "internalType": "uint256[5]",
          "name": "topMovieIds",
          "type": "uint256[5]"
        }
      ],
      "stateMutability": "view",
      "type": "function"
    },
    {
      "inputs": [
        {
          "internalType": "uint256",
          "name": "_movieId",
          "type": "uint256"
        }
      ],
      "name": "getVoteCountByMovieId",
      "outputs": [
        {
          "internalType": "uint256",
          "name": "",
          "type": "uint256"
        }
      ],
      "stateMutability": "view",
      "type": "function"
    },
    {
      "inputs": [
        {
          "internalType": "address",
          "name": "",
          "type": "address"
        }
      ],
      "name": "hasVoted",
      "outputs": [
        {
          "internalType": "bool",
          "name": "",
          "type": "bool"
        }
      ],
      "stateMutability": "view",
      "type": "function"
    },
    {
      "inputs": [
        {
          "internalType": "address",
          "name": "owner",
          "type": "address"
        },
        {
          "internalType": "address",
          "name": "operator",
          "type": "address"
        }
      ],
      "name": "isApprovedForAll",
      "outputs": [
        {
          "internalType": "bool",
          "name": "",
          "type": "bool"
        }
      ],
      "stateMutability": "view",
      "type": "function"
    },
    {
      "inputs": [],
      "name": "movieIdCounter",
      "outputs": [
        {
          "internalType": "uint256",
          "name": "",
          "type": "uint256"
        }
      ],
      "stateMutability": "view",
      "type": "function"
    },
    {
      "inputs": [
        {
          "internalType": "uint256",
          "name": "",
          "type": "uint256"
        }
      ],
      "name": "movieIds",
      "outputs": [
        {
          "internalType": "uint256",
          "name": "",
          "type": "uint256"
        }
      ],
      "stateMutability": "view",
      "type": "function"
    },
    {
      "inputs": [
        {
          "internalType": "uint256",
          "name": "",
          "type": "uint256"
        }
      ],
      "name": "movieNames",
      "outputs": [
        {
          "internalType": "string",
          "name": "",
          "type": "string"
        }
      ],
      "stateMutability": "view",
      "type": "function"
    },
    {
      "inputs": [],
      "name": "name",
      "outputs": [
        {
          "internalType": "string",
          "name": "",
          "type": "string"
        }
      ],
      "stateMutability": "view",
      "type": "function"
    },
    {
      "inputs": [],
      "name": "nextTokenId",
      "outputs": [
        {
          "internalType": "uint256",
          "name": "",
          "type": "uint256"
        }
      ],
      "stateMutability": "view",
      "type": "function"
    },
    {
      "inputs": [
        {
          "internalType": "uint256",
          "name": "",
          "type": "uint256"
        }
      ],
      "name": "nftIdsToMovieIds",
      "outputs": [
        {
          "internalType": "uint256",
          "name": "",
          "type": "uint256"
        }
      ],
      "stateMutability": "view",
      "type": "function"
    },
    {
      "inputs": [
        {
          "internalType": "uint256",
          "name": "tokenId",
          "type": "uint256"
        }
      ],
      "name": "ownerOf",
      "outputs": [
        {
          "internalType": "address",
          "name": "",
          "type": "address"
        }
      ],
      "stateMutability": "view",
      "type": "function"
    },
    {
      "inputs": [
        {
          "internalType": "address",
          "name": "from",
          "type": "address"
        },
        {
          "internalType": "address",
          "name": "to",
          "type": "address"
        },
        {
          "internalType": "uint256",
          "name": "tokenId",
          "type": "uint256"
        }
      ],
      "name": "safeTransferFrom",
      "outputs": [],
      "stateMutability": "nonpayable",
      "type": "function"
    },
    {
      "inputs": [
        {
          "internalType": "address",
          "name": "from",
          "type": "address"
        },
        {
          "internalType": "address",
          "name": "to",
          "type": "address"
        },
        {
          "internalType": "uint256",
          "name": "tokenId",
          "type": "uint256"
        },
        {
          "internalType": "bytes",
          "name": "data",
          "type": "bytes"
        }
      ],
      "name": "safeTransferFrom",
      "outputs": [],
      "stateMutability": "nonpayable",
      "type": "function"
    },
    {
      "inputs": [
        {
          "internalType": "address",
          "name": "operator",
          "type": "address"
        },
        {
          "internalType": "bool",
          "name": "approved",
          "type": "bool"
        }
      ],
      "name": "setApprovalForAll",
      "outputs": [],
      "stateMutability": "nonpayable",
      "type": "function"
    },
    {
      "inputs": [
        {
          "internalType": "bytes4",
          "name": "interfaceId",
          "type": "bytes4"
        }
      ],
      "name": "supportsInterface",
      "outputs": [
        {
          "internalType": "bool",
          "name": "",
          "type": "bool"
        }
      ],
      "stateMutability": "view",
      "type": "function"
    },
    {
      "inputs": [],
      "name": "symbol",
      "outputs": [
        {
          "internalType": "string",
          "name": "",
          "type": "string"
        }
      ],
      "stateMutability": "view",
      "type": "function"
    },
    {
      "inputs": [
        {
          "internalType": "uint256",
          "name": "tokenId",
          "type": "uint256"
        }
      ],
      "name": "tokenURI",
      "outputs": [
        {
          "internalType": "string",
          "name": "",
          "type": "string"
        }
      ],
      "stateMutability": "view",
      "type": "function"
    },
    {
      "inputs": [
        {
          "internalType": "address",
          "name": "from",
          "type": "address"
        },
        {
          "internalType": "address",
          "name": "to",
          "type": "address"
        },
        {
          "internalType": "uint256",
          "name": "tokenId",
          "type": "uint256"
        }
      ],
      "name": "transferFrom",
      "outputs": [],
      "stateMutability": "nonpayable",
      "type": "function"
    },
    {
      "inputs": [
        {
          "internalType": "uint256",
          "name": "_movieId",
          "type": "uint256"
        }
      ],
      "name": "vote",
      "outputs": [],
      "stateMutability": "nonpayable",
      "type": "function"
    },
    {
      "inputs": [
        {
          "internalType": "uint256",
          "name": "",
          "type": "uint256"
        }
      ],
      "name": "voteCounts",
      "outputs": [
        {
          "internalType": "uint256",
          "name": "",
          "type": "uint256"
        }
      ],
      "stateMutability": "view",
      "type": "function"
    }
  ],
  "bytecode": "0x608060405234801561001057600080fd5b506040516138ec3803806138ec8339818101604052810190610032919061053d565b6040518060400160405280600981526020017f566f74696e674e465400000000000000000000000000000000000000000000008152506040518060400160405280600481526020017f564f54450000000000000000000000000000000000000000000000000000000081525081600090816100ad91906107cc565b5080600190816100bd91906107cc565b5050508051825114610104576040517f08c379a00000000000000000000000000000000000000000000000000000000081526004016100fb906108fb565b60405180910390fd5b6000600c81905550600060088190555060005b8251811015610171576101648382815181106101365761013561091b565b5b60200260200101518383815181106101515761015061091b565b5b602002602001015161017960201b60201c565b8080600101915050610117565b5050506109c1565b8060066000848152602001908152602001600020908161019991906107cc565b50600060096000848152602001908152602001600020819055508160076000600854815260200190815260200160002081905550600860008154809291906101e090610979565b91905055505050565b6000604051905090565b600080fd5b600080fd5b600080fd5b6000601f19601f8301169050919050565b7f4e487b7100000000000000000000000000000000000000000000000000000000600052604160045260246000fd5b61024b82610202565b810181811067ffffffffffffffff8211171561026a57610269610213565b5b80604052505050565b600061027d6101e9565b90506102898282610242565b919050565b600067ffffffffffffffff8211156102a9576102a8610213565b5b602082029050602081019050919050565b600080fd5b6000819050919050565b6102d2816102bf565b81146102dd57600080fd5b50565b6000815190506102ef816102c9565b92915050565b60006103086103038461028e565b610273565b9050808382526020820190506020840283018581111561032b5761032a6102ba565b5b835b81811015610354578061034088826102e0565b84526020840193505060208101905061032d565b5050509392505050565b600082601f830112610373576103726101fd565b5b81516103838482602086016102f5565b91505092915050565b600067ffffffffffffffff8211156103a7576103a6610213565b5b602082029050602081019050919050565b600080fd5b600067ffffffffffffffff8211156103d8576103d7610213565b5b6103e182610202565b9050602081019050919050565b60005b8381101561040c5780820151818401526020810190506103f1565b60008484015250505050565b600061042b610426846103bd565b610273565b905082815260208101848484011115610447576104466103b8565b5b6104528482856103ee565b509392505050565b600082601f83011261046f5761046e6101fd565b5b815161047f848260208601610418565b91505092915050565b600061049b6104968461038c565b610273565b905080838252602082019050602084028301858111156104be576104bd6102ba565b5b835b8181101561050557805167ffffffffffffffff8111156104e3576104e26101fd565b5b8086016104f0898261045a565b855260208501945050506020810190506104c0565b5050509392505050565b600082601f830112610524576105236101fd565b5b8151610534848260208601610488565b91505092915050565b60008060408385031215610554576105536101f3565b5b600083015167ffffffffffffffff811115610572576105716101f8565b5b61057e8582860161035e565b925050602083015167ffffffffffffffff81111561059f5761059e6101f8565b5b6105ab8582860161050f565b9150509250929050565b600081519050919050565b7f4e487b7100000000000000000000000000000000000000000000000000000000600052602260045260246000fd5b6000600282049050600182168061060757607f821691505b60208210810361061a576106196105c0565b5b50919050565b60008190508160005260206000209050919050565b60006020601f8301049050919050565b600082821b905092915050565b6000600883026106827fffffffffffffffffffffffffffffffffffffffffffffffffffffffffffffffff82610645565b61068c8683610645565b95508019841693508086168417925050509392505050565b6000819050919050565b60006106c96106c46106bf846102bf565b6106a4565b6102bf565b9050919050565b6000819050919050565b6106e3836106ae565b6106f76106ef826106d0565b848454610652565b825550505050565b600090565b61070c6106ff565b6107178184846106da565b505050565b5b8181101561073b57610730600082610704565b60018101905061071d565b5050565b601f8211156107805761075181610620565b61075a84610635565b81016020851015610769578190505b61077d61077585610635565b83018261071c565b50505b505050565b600082821c905092915050565b60006107a360001984600802610785565b1980831691505092915050565b60006107bc8383610792565b9150826002028217905092915050565b6107d5826105b5565b67ffffffffffffffff8111156107ee576107ed610213565b5b6107f882546105ef565b61080382828561073f565b600060209050601f8311600181146108365760008415610824578287015190505b61082e85826107b0565b865550610896565b601f19841661084486610620565b60005b8281101561086c57848901518255600182019150602085019450602081019050610847565b868310156108895784890151610885601f891682610792565b8355505b6001600288020188555050505b505050505050565b600082825260208201905092915050565b7f4d69736d61746368656420696e707574206c656e677468730000000000000000600082015250565b60006108e560188361089e565b91506108f0826108af565b602082019050919050565b60006020820190508181036000830152610914816108d8565b9050919050565b7f4e487b7100000000000000000000000000000000000000000000000000000000600052603260045260246000fd5b7f4e487b7100000000000000000000000000000000000000000000000000000000600052601160045260246000fd5b6000610984826102bf565b91507fffffffffffffffffffffffffffffffffffffffffffffffffffffffffffffffff82036109b6576109b561094a565b5b600182019050919050565b612f1c806109d06000396000f3fe608060405234801561001057600080fd5b50600436106101a95760003560e01c806375794a3c116100f9578063b98afc7011610097578063e985e9c511610071578063e985e9c51461052c578063ed1f1f8e1461055c578063f206ae1b1461058c578063f77a9b3f146105a8576101a9565b8063b98afc701461049c578063c87b56dd146104cc578063d47e941f146104fc576101a9565b8063a22cb465116100d3578063a22cb46514610416578063a5b08a4f14610432578063ae0b05e914610450578063b88d4fde14610480576101a9565b806375794a3c146103aa5780638664054b146103c857806395d89b41146103f8576101a9565b806323b872dd1161016657806342842e0e1161014057806342842e0e146102fe5780636352211e1461031a5780636d4d371a1461034a57806370a082311461037a576101a9565b806323b872dd146102945780633500d740146102b05780633c3a220d146102ce576101a9565b80630121b93f146101ae57806301ffc9a7146101ca57806306fdde03146101fa578063081812fc14610218578063095ea7b31461024857806309eef43e14610264575b600080fd5b6101c860048036038101906101c391906120bc565b6105d8565b005b6101e460048036038101906101df9190612141565b610806565b6040516101f19190612189565b60405180910390f35b6102026108e8565b60405161020f9190612234565b60405180910390f35b610232600480360381019061022d91906120bc565b61097a565b60405161023f9190612297565b60405180910390f35b610262600480360381019061025d91906122de565b610996565b005b61027e6004803603810190610279919061231e565b6109ac565b60405161028b9190612189565b60405180910390f35b6102ae60048036038101906102a9919061234b565b6109cc565b005b6102b8610ace565b6040516102c59190612449565b60405180910390f35b6102e860048036038101906102e391906120bc565b610c5b565b6040516102f59190612473565b60405180910390f35b6103186004803603810190610313919061234b565b610c73565b005b610334600480360381019061032f91906120bc565b610c93565b6040516103419190612297565b60405180910390f35b610364600480360381019061035f91906120bc565b610ca5565b6040516103719190612234565b60405180910390f35b610394600480360381019061038f919061231e565b610d45565b6040516103a19190612473565b60405180910390f35b6103b2610dff565b6040516103bf9190612473565b60405180910390f35b6103e260048036038101906103dd919061231e565b610e05565b6040516103ef9190612234565b60405180910390f35b610400610f94565b60405161040d9190612234565b60405180910390f35b610430600480360381019061042b91906124ba565b611026565b005b61043a61103c565b6040516104479190612473565b60405180910390f35b61046a600480360381019061046591906120bc565b611042565b6040516104779190612234565b60405180910390f35b61049a6004803603810190610495919061262f565b611110565b005b6104b660048036038101906104b191906120bc565b611135565b6040516104c39190612473565b60405180910390f35b6104e660048036038101906104e191906120bc565b61114d565b6040516104f39190612234565b60405180910390f35b610516600480360381019061051191906120bc565b6111b6565b6040516105239190612473565b60405180910390f35b610546600480360381019061054191906126b2565b6111ce565b6040516105539190612189565b60405180910390f35b6105766004803603810190610571919061231e565b611262565b6040516105839190612473565b60405180910390f35b6105a660048036038101906105a19190612793565b61127a565b005b6105c260048036038101906105bd91906120bc565b611288565b6040516105cf9190612473565b60405180910390f35b600b60003373ffffffffffffffffffffffffffffffffffffffff1673ffffffffffffffffffffffffffffffffffffffff16815260200190815260200160002060009054906101000a900460ff1615610665576040517f08c379a000000000000000000000000000000000000000000000000000000000815260040161065c9061283b565b60405180910390fd5b60006006600083815260200190815260200160002080546106859061288a565b9050116106c7576040517f08c379a00000000000000000000000000000000000000000000000000000000081526004016106be90612907565b60405180910390fd5b6009600082815260200190815260200160002060008154809291906106eb90612956565b91905055506001600b60003373ffffffffffffffffffffffffffffffffffffffff1673ffffffffffffffffffffffffffffffffffffffff16815260200190815260200160002060006101000a81548160ff02191690831515021790555061075433600c546112a5565b600c54600d60003373ffffffffffffffffffffffffffffffffffffffff1673ffffffffffffffffffffffffffffffffffffffff1681526020019081526020016000208190555080600a6000600c54815260200190815260200160002081905550600c60008154809291906107c790612956565b91905055507f7f511e347bf51eed3be100b3194247d5207f05f3b33de7d31e3e8ee73199a049816040516107fb9190612473565b60405180910390a150565b60007f80ac58cd000000000000000000000000000000000000000000000000000000007bffffffffffffffffffffffffffffffffffffffffffffffffffffffff1916827bffffffffffffffffffffffffffffffffffffffffffffffffffffffff191614806108d157507f5b5e139f000000000000000000000000000000000000000000000000000000007bffffffffffffffffffffffffffffffffffffffffffffffffffffffff1916827bffffffffffffffffffffffffffffffffffffffffffffffffffffffff1916145b806108e157506108e08261139e565b5b9050919050565b6060600080546108f79061288a565b80601f01602080910402602001604051908101604052809291908181526020018280546109239061288a565b80156109705780601f1061094557610100808354040283529160200191610970565b820191906000526020600020905b81548152906001019060200180831161095357829003601f168201915b5050505050905090565b600061098582611408565b5061098f82611490565b9050919050565b6109a882826109a36114cd565b6114d5565b5050565b600b6020528060005260406000206000915054906101000a900460ff1681565b600073ffffffffffffffffffffffffffffffffffffffff168273ffffffffffffffffffffffffffffffffffffffff1603610a3e5760006040517f64a0ae92000000000000000000000000000000000000000000000000000000008152600401610a359190612297565b60405180910390fd5b6000610a528383610a4d6114cd565b6114e7565b90508373ffffffffffffffffffffffffffffffffffffffff168173ffffffffffffffffffffffffffffffffffffffff1614610ac8578382826040517f64283d7b000000000000000000000000000000000000000000000000000000008152600401610abf9392919061299e565b60405180910390fd5b50505050565b610ad6612050565b60006008549050610ae5612050565b610aed612050565b60005b83811015610c515760006007600083815260200190815260200160002054905060006009600083815260200190815260200160002054905060005b6005811015610c4157858160058110610b4757610b466129d5565b5b60200201518210610c34576000600490505b81811115610bf45786600182610b6f9190612a04565b60058110610b8057610b7f6129d5565b5b6020020151878260058110610b9857610b976129d5565b5b60200201818152505085600182610baf9190612a04565b60058110610bc057610bbf6129d5565b5b6020020151868260058110610bd857610bd76129d5565b5b6020020181815250508080610bec90612a38565b915050610b59565b5081868260058110610c0957610c086129d5565b5b60200201818152505082858260058110610c2657610c256129d5565b5b602002018181525050610c41565b8080600101915050610b2b565b5050508080600101915050610af0565b5080935050505090565b60096020528060005260406000206000915090505481565b610c8e83838360405180602001604052806000815250611110565b505050565b6000610c9e82611408565b9050919050565b60066020528060005260406000206000915090508054610cc49061288a565b80601f0160208091040260200160405190810160405280929190818152602001828054610cf09061288a565b8015610d3d5780601f10610d1257610100808354040283529160200191610d3d565b820191906000526020600020905b815481529060010190602001808311610d2057829003601f168201915b505050505081565b60008073ffffffffffffffffffffffffffffffffffffffff168273ffffffffffffffffffffffffffffffffffffffff1603610db85760006040517f89c62b64000000000000000000000000000000000000000000000000000000008152600401610daf9190612297565b60405180910390fd5b600360008373ffffffffffffffffffffffffffffffffffffffff1673ffffffffffffffffffffffffffffffffffffffff168152602001908152602001600020549050919050565b600c5481565b6060600b60008373ffffffffffffffffffffffffffffffffffffffff1673ffffffffffffffffffffffffffffffffffffffff16815260200190815260200160002060009054906101000a900460ff16610e93576040517f08c379a0000000000000000000000000000000000000000000000000000000008152600401610e8a90612aad565b60405180910390fd5b6000600d60008473ffffffffffffffffffffffffffffffffffffffff1673ffffffffffffffffffffffffffffffffffffffff1681526020019081526020016000205490506000600a6000838152602001908152602001600020549050600660008281526020019081526020016000208054610f0d9061288a565b80601f0160208091040260200160405190810160405280929190818152602001828054610f399061288a565b8015610f865780601f10610f5b57610100808354040283529160200191610f86565b820191906000526020600020905b815481529060010190602001808311610f6957829003601f168201915b505050505092505050919050565b606060018054610fa39061288a565b80601f0160208091040260200160405190810160405280929190818152602001828054610fcf9061288a565b801561101c5780601f10610ff15761010080835404028352916020019161101c565b820191906000526020600020905b815481529060010190602001808311610fff57829003601f168201915b5050505050905090565b6110386110316114cd565b8383611701565b5050565b60085481565b606060006006600084815260200190815260200160002080546110649061288a565b80601f01602080910402602001604051908101604052809291908181526020018280546110909061288a565b80156110dd5780601f106110b2576101008083540402835291602001916110dd565b820191906000526020600020905b8154815290600101906020018083116110c057829003601f168201915b505050505090506000815111156110f7578091505061110b565b604051806020016040528060008152509150505b919050565b61111b8484846109cc565b61112f6111266114cd565b85858585611870565b50505050565b600a6020528060005260406000206000915090505481565b606061115882611408565b506000611163611a21565b9050600081511161118357604051806020016040528060008152506111ae565b8061118d84611a38565b60405160200161119e929190612b09565b6040516020818303038152906040525b915050919050565b60076020528060005260406000206000915090505481565b6000600560008473ffffffffffffffffffffffffffffffffffffffff1673ffffffffffffffffffffffffffffffffffffffff16815260200190815260200160002060008373ffffffffffffffffffffffffffffffffffffffff1673ffffffffffffffffffffffffffffffffffffffff16815260200190815260200160002060009054906101000a900460ff16905092915050565b600d6020528060005260406000206000915090505481565b6112848282611b06565b5050565b600060096000838152602001908152602001600020549050919050565b600073ffffffffffffffffffffffffffffffffffffffff168273ffffffffffffffffffffffffffffffffffffffff16036113175760006040517f64a0ae9200000000000000000000000000000000000000000000000000000000815260040161130e9190612297565b60405180910390fd5b6000611325838360006114e7565b9050600073ffffffffffffffffffffffffffffffffffffffff168173ffffffffffffffffffffffffffffffffffffffff16146113995760006040517f73c6ac6e0000000000000000000000000000000000000000000000000000000081526004016113909190612297565b60405180910390fd5b505050565b60007f01ffc9a7000000000000000000000000000000000000000000000000000000007bffffffffffffffffffffffffffffffffffffffffffffffffffffffff1916827bffffffffffffffffffffffffffffffffffffffffffffffffffffffff1916149050919050565b60008061141483611b76565b9050600073ffffffffffffffffffffffffffffffffffffffff168173ffffffffffffffffffffffffffffffffffffffff160361148757826040517f7e27328900000000000000000000000000000000000000000000000000000000815260040161147e9190612473565b60405180910390fd5b80915050919050565b60006004600083815260200190815260200160002060009054906101000a900473ffffffffffffffffffffffffffffffffffffffff169050919050565b600033905090565b6114e28383836001611bb3565b505050565b6000806114f384611b76565b9050600073ffffffffffffffffffffffffffffffffffffffff168373ffffffffffffffffffffffffffffffffffffffff161461153557611534818486611d78565b5b600073ffffffffffffffffffffffffffffffffffffffff168173ffffffffffffffffffffffffffffffffffffffff16146115c657611577600085600080611bb3565b6001600360008373ffffffffffffffffffffffffffffffffffffffff1673ffffffffffffffffffffffffffffffffffffffff168152602001908152602001600020600082825403925050819055505b600073ffffffffffffffffffffffffffffffffffffffff168573ffffffffffffffffffffffffffffffffffffffff1614611649576001600360008773ffffffffffffffffffffffffffffffffffffffff1673ffffffffffffffffffffffffffffffffffffffff168152602001908152602001600020600082825401925050819055505b846002600086815260200190815260200160002060006101000a81548173ffffffffffffffffffffffffffffffffffffffff021916908373ffffffffffffffffffffffffffffffffffffffff160217905550838573ffffffffffffffffffffffffffffffffffffffff168273ffffffffffffffffffffffffffffffffffffffff167fddf252ad1be2c89b69c2b068fc378daa952ba7f163c4a11628f55a4df523b3ef60405160405180910390a4809150509392505050565b600073ffffffffffffffffffffffffffffffffffffffff168273ffffffffffffffffffffffffffffffffffffffff160361177257816040517f5b08ba180000000000000000000000000000000000000000000000000000000081526004016117699190612297565b60405180910390fd5b80600560008573ffffffffffffffffffffffffffffffffffffffff1673ffffffffffffffffffffffffffffffffffffffff16815260200190815260200160002060008473ffffffffffffffffffffffffffffffffffffffff1673ffffffffffffffffffffffffffffffffffffffff16815260200190815260200160002060006101000a81548160ff0219169083151502179055508173ffffffffffffffffffffffffffffffffffffffff168373ffffffffffffffffffffffffffffffffffffffff167f17307eab39ab6107e8899845ad3d59bd9653f200f220920489ca2b5937696c31836040516118639190612189565b60405180910390a3505050565b60008373ffffffffffffffffffffffffffffffffffffffff163b1115611a1a578273ffffffffffffffffffffffffffffffffffffffff1663150b7a02868685856040518563ffffffff1660e01b81526004016118cf9493929190612b82565b6020604051808303816000875af192505050801561190b57506040513d601f19601f820116820180604052508101906119089190612be3565b60015b61198f573d806000811461193b576040519150601f19603f3d011682016040523d82523d6000602084013e611940565b606091505b50600081510361198757836040517f64a0ae9200000000000000000000000000000000000000000000000000000000815260040161197e9190612297565b60405180910390fd5b805181602001fd5b63150b7a0260e01b7bffffffffffffffffffffffffffffffffffffffffffffffffffffffff1916817bffffffffffffffffffffffffffffffffffffffffffffffffffffffff191614611a1857836040517f64a0ae92000000000000000000000000000000000000000000000000000000008152600401611a0f9190612297565b60405180910390fd5b505b5050505050565b606060405180602001604052806000815250905090565b606060006001611a4784611e3c565b01905060008167ffffffffffffffff811115611a6657611a65612504565b5b6040519080825280601f01601f191660200182016040528015611a985781602001600182028036833780820191505090505b509050600082602001820190505b600115611afb578080600190039150507f3031323334353637383961626364656600000000000000000000000000000000600a86061a8153600a8581611aef57611aee612c10565b5b04945060008503611aa6575b819350505050919050565b80600660008481526020019081526020016000209081611b269190612deb565b5060006009600084815260200190815260200160002081905550816007600060085481526020019081526020016000208190555060086000815480929190611b6d90612956565b91905055505050565b60006002600083815260200190815260200160002060009054906101000a900473ffffffffffffffffffffffffffffffffffffffff169050919050565b8080611bec5750600073ffffffffffffffffffffffffffffffffffffffff168273ffffffffffffffffffffffffffffffffffffffff1614155b15611d20576000611bfc84611408565b9050600073ffffffffffffffffffffffffffffffffffffffff168373ffffffffffffffffffffffffffffffffffffffff1614158015611c6757508273ffffffffffffffffffffffffffffffffffffffff168173ffffffffffffffffffffffffffffffffffffffff1614155b8015611c7a5750611c7881846111ce565b155b15611cbc57826040517fa9fbf51f000000000000000000000000000000000000000000000000000000008152600401611cb39190612297565b60405180910390fd5b8115611d1e57838573ffffffffffffffffffffffffffffffffffffffff168273ffffffffffffffffffffffffffffffffffffffff167f8c5be1e5ebec7d5bd14f71427d1e84f3dd0314c0f7b2291e5b200ac8c7c3b92560405160405180910390a45b505b836004600085815260200190815260200160002060006101000a81548173ffffffffffffffffffffffffffffffffffffffff021916908373ffffffffffffffffffffffffffffffffffffffff16021790555050505050565b611d83838383611f8f565b611e3757600073ffffffffffffffffffffffffffffffffffffffff168373ffffffffffffffffffffffffffffffffffffffff1603611df857806040517f7e273289000000000000000000000000000000000000000000000000000000008152600401611def9190612473565b60405180910390fd5b81816040517f177e802f000000000000000000000000000000000000000000000000000000008152600401611e2e929190612ebd565b60405180910390fd5b505050565b600080600090507a184f03e93ff9f4daa797ed6e38ed64bf6a1f0100000000000000008310611e9a577a184f03e93ff9f4daa797ed6e38ed64bf6a1f0100000000000000008381611e9057611e8f612c10565b5b0492506040810190505b6d04ee2d6d415b85acef81000000008310611ed7576d04ee2d6d415b85acef81000000008381611ecd57611ecc612c10565b5b0492506020810190505b662386f26fc100008310611f0657662386f26fc100008381611efc57611efb612c10565b5b0492506010810190505b6305f5e1008310611f2f576305f5e1008381611f2557611f24612c10565b5b0492506008810190505b6127108310611f54576127108381611f4a57611f49612c10565b5b0492506004810190505b60648310611f775760648381611f6d57611f6c612c10565b5b0492506002810190505b600a8310611f86576001810190505b80915050919050565b60008073ffffffffffffffffffffffffffffffffffffffff168373ffffffffffffffffffffffffffffffffffffffff161415801561204757508273ffffffffffffffffffffffffffffffffffffffff168473ffffffffffffffffffffffffffffffffffffffff161480612008575061200784846111ce565b5b8061204657508273ffffffffffffffffffffffffffffffffffffffff1661202e83611490565b73ffffffffffffffffffffffffffffffffffffffff16145b5b90509392505050565b6040518060a00160405280600590602082028036833780820191505090505090565b6000604051905090565b600080fd5b600080fd5b6000819050919050565b61209981612086565b81146120a457600080fd5b50565b6000813590506120b681612090565b92915050565b6000602082840312156120d2576120d161207c565b5b60006120e0848285016120a7565b91505092915050565b60007fffffffff0000000000000000000000000000000000000000000000000000000082169050919050565b61211e816120e9565b811461212957600080fd5b50565b60008135905061213b81612115565b92915050565b6000602082840312156121575761215661207c565b5b60006121658482850161212c565b91505092915050565b60008115159050919050565b6121838161216e565b82525050565b600060208201905061219e600083018461217a565b92915050565b600081519050919050565b600082825260208201905092915050565b60005b838110156121de5780820151818401526020810190506121c3565b60008484015250505050565b6000601f19601f8301169050919050565b6000612206826121a4565b61221081856121af565b93506122208185602086016121c0565b612229816121ea565b840191505092915050565b6000602082019050818103600083015261224e81846121fb565b905092915050565b600073ffffffffffffffffffffffffffffffffffffffff82169050919050565b600061228182612256565b9050919050565b61229181612276565b82525050565b60006020820190506122ac6000830184612288565b92915050565b6122bb81612276565b81146122c657600080fd5b50565b6000813590506122d8816122b2565b92915050565b600080604083850312156122f5576122f461207c565b5b6000612303858286016122c9565b9250506020612314858286016120a7565b9150509250929050565b6000602082840312156123345761233361207c565b5b6000612342848285016122c9565b91505092915050565b6000806000606084860312156123645761236361207c565b5b6000612372868287016122c9565b9350506020612383868287016122c9565b9250506040612394868287016120a7565b9150509250925092565b600060059050919050565b600081905092915050565b6000819050919050565b6123c781612086565b82525050565b60006123d983836123be565b60208301905092915050565b6000602082019050919050565b6123fb8161239e565b61240581846123a9565b9250612410826123b4565b8060005b8381101561244157815161242887826123cd565b9650612433836123e5565b925050600181019050612414565b505050505050565b600060a08201905061245e60008301846123f2565b92915050565b61246d81612086565b82525050565b60006020820190506124886000830184612464565b92915050565b6124978161216e565b81146124a257600080fd5b50565b6000813590506124b48161248e565b92915050565b600080604083850312156124d1576124d061207c565b5b60006124df858286016122c9565b92505060206124f0858286016124a5565b9150509250929050565b600080fd5b600080fd5b7f4e487b7100000000000000000000000000000000000000000000000000000000600052604160045260246000fd5b61253c826121ea565b810181811067ffffffffffffffff8211171561255b5761255a612504565b5b80604052505050565b600061256e612072565b905061257a8282612533565b919050565b600067ffffffffffffffff82111561259a57612599612504565b5b6125a3826121ea565b9050602081019050919050565b82818337600083830152505050565b60006125d26125cd8461257f565b612564565b9050828152602081018484840111156125ee576125ed6124ff565b5b6125f98482856125b0565b509392505050565b600082601f830112612616576126156124fa565b5b81356126268482602086016125bf565b91505092915050565b600080600080608085870312156126495761264861207c565b5b6000612657878288016122c9565b9450506020612668878288016122c9565b9350506040612679878288016120a7565b925050606085013567ffffffffffffffff81111561269a57612699612081565b5b6126a687828801612601565b91505092959194509250565b600080604083850312156126c9576126c861207c565b5b60006126d7858286016122c9565b92505060206126e8858286016122c9565b9150509250929050565b600067ffffffffffffffff82111561270d5761270c612504565b5b612716826121ea565b9050602081019050919050565b6000612736612731846126f2565b612564565b905082815260208101848484011115612752576127516124ff565b5b61275d8482856125b0565b509392505050565b600082601f83011261277a576127796124fa565b5b813561278a848260208601612723565b91505092915050565b600080604083850312156127aa576127a961207c565b5b60006127b8858286016120a7565b925050602083013567ffffffffffffffff8111156127d9576127d8612081565b5b6127e585828601612765565b9150509250929050565b7f416c726561647920766f74656400000000000000000000000000000000000000600082015250565b6000612825600d836121af565b9150612830826127ef565b602082019050919050565b6000602082019050818103600083015261285481612818565b9050919050565b7f4e487b7100000000000000000000000000000000000000000000000000000000600052602260045260246000fd5b600060028204905060018216806128a257607f821691505b6020821081036128b5576128b461285b565b5b50919050565b7f4d6f76696520646f6573206e6f74206578697374000000000000000000000000600082015250565b60006128f16014836121af565b91506128fc826128bb565b602082019050919050565b60006020820190508181036000830152612920816128e4565b9050919050565b7f4e487b7100000000000000000000000000000000000000000000000000000000600052601160045260246000fd5b600061296182612086565b91507fffffffffffffffffffffffffffffffffffffffffffffffffffffffffffffffff820361299357612992612927565b5b600182019050919050565b60006060820190506129b36000830186612288565b6129c06020830185612464565b6129cd6040830184612288565b949350505050565b7f4e487b7100000000000000000000000000000000000000000000000000000000600052603260045260246000fd5b6000612a0f82612086565b9150612a1a83612086565b9250828203905081811115612a3257612a31612927565b5b92915050565b6000612a4382612086565b915060008203612a5657612a55612927565b5b600182039050919050565b7f4164647265737320686173206e6f7420766f7465642079657400000000000000600082015250565b6000612a976019836121af565b9150612aa282612a61565b602082019050919050565b60006020820190508181036000830152612ac681612a8a565b9050919050565b600081905092915050565b6000612ae3826121a4565b612aed8185612acd565b9350612afd8185602086016121c0565b80840191505092915050565b6000612b158285612ad8565b9150612b218284612ad8565b91508190509392505050565b600081519050919050565b600082825260208201905092915050565b6000612b5482612b2d565b612b5e8185612b38565b9350612b6e8185602086016121c0565b612b77816121ea565b840191505092915050565b6000608082019050612b976000830187612288565b612ba46020830186612288565b612bb16040830185612464565b8181036060830152612bc38184612b49565b905095945050505050565b600081519050612bdd81612115565b92915050565b600060208284031215612bf957612bf861207c565b5b6000612c0784828501612bce565b91505092915050565b7f4e487b7100000000000000000000000000000000000000000000000000000000600052601260045260246000fd5b60008190508160005260206000209050919050565b60006020601f8301049050919050565b600082821b905092915050565b600060088302612ca17fffffffffffffffffffffffffffffffffffffffffffffffffffffffffffffffff82612c64565b612cab8683612c64565b95508019841693508086168417925050509392505050565b6000819050919050565b6000612ce8612ce3612cde84612086565b612cc3565b612086565b9050919050565b6000819050919050565b612d0283612ccd565b612d16612d0e82612cef565b848454612c71565b825550505050565b600090565b612d2b612d1e565b612d36818484612cf9565b505050565b5b81811015612d5a57612d4f600082612d23565b600181019050612d3c565b5050565b601f821115612d9f57612d7081612c3f565b612d7984612c54565b81016020851015612d88578190505b612d9c612d9485612c54565b830182612d3b565b50505b505050565b600082821c905092915050565b6000612dc260001984600802612da4565b1980831691505092915050565b6000612ddb8383612db1565b9150826002028217905092915050565b612df4826121a4565b67ffffffffffffffff811115612e0d57612e0c612504565b5b612e17825461288a565b612e22828285612d5e565b600060209050601f831160018114612e555760008415612e43578287015190505b612e4d8582612dcf565b865550612eb5565b601f198416612e6386612c3f565b60005b82811015612e8b57848901518255600182019150602085019450602081019050612e66565b86831015612ea85784890151612ea4601f891682612db1565b8355505b6001600288020188555050505b505050505050565b6000604082019050612ed26000830185612288565b612edf6020830184612464565b939250505056fea2646970667358221220835e06b591aa8d8097a8f8a6e5fab79bc33005028ee3ba78560ba44106d2e00b64736f6c634300081c0033",
  "linkReferences": {},
  "deployedLinkReferences": {}
}