{
  "_format": "hh-sol-artifact-1",
  "contractName": "Voting",
  "sourceName": "contracts/Voting.sol",
  "abi": [
    {
      "inputs": [
        {
          "internalType": "string[]",
          "name": "_movieNames",
          "type": "string[]"
        }
      ],
      "stateMutability": "nonpayable",
      "type": "constructor"
    },
    {
      "inputs": [
        {
          "internalType": "address",
          "name": "sender",
          "type": "address"
        },
        {
          "internalType": "uint256",
          "name": "tokenId",
          "type": "uint256"
        },
        {
          "internalType": "address",
          "name": "owner",
          "type": "address"
        }
      ],
      "name": "ERC721IncorrectOwner",
      "type": "error"
    },
    {
      "inputs": [
        {
          "internalType": "address",
          "name": "operator",
          "type": "address"
        },
        {
          "internalType": "uint256",
          "name": "tokenId",
          "type": "uint256"
        }
      ],
      "name": "ERC721InsufficientApproval",
      "type": "error"
    },
    {
      "inputs": [
        {
          "internalType": "address",
          "name": "approver",
          "type": "address"
        }
      ],
      "name": "ERC721InvalidApprover",
      "type": "error"
    },
    {
      "inputs": [
        {
          "internalType": "address",
          "name": "operator",
          "type": "address"
        }
      ],
      "name": "ERC721InvalidOperator",
      "type": "error"
    },
    {
      "inputs": [
        {
          "internalType": "address",
          "name": "owner",
          "type": "address"
        }
      ],
      "name": "ERC721InvalidOwner",
      "type": "error"
    },
    {
      "inputs": [
        {
          "internalType": "address",
          "name": "receiver",
          "type": "address"
        }
      ],
      "name": "ERC721InvalidReceiver",
      "type": "error"
    },
    {
      "inputs": [
        {
          "internalType": "address",
          "name": "sender",
          "type": "address"
        }
      ],
      "name": "ERC721InvalidSender",
      "type": "error"
    },
    {
      "inputs": [
        {
          "internalType": "uint256",
          "name": "tokenId",
          "type": "uint256"
        }
      ],
      "name": "ERC721NonexistentToken",
      "type": "error"
    },
    {
      "anonymous": false,
      "inputs": [
        {
          "indexed": true,
          "internalType": "address",
          "name": "owner",
          "type": "address"
        },
        {
          "indexed": true,
          "internalType": "address",
          "name": "approved",
          "type": "address"
        },
        {
          "indexed": true,
          "internalType": "uint256",
          "name": "tokenId",
          "type": "uint256"
        }
      ],
      "name": "Approval",
      "type": "event"
    },
    {
      "anonymous": false,
      "inputs": [
        {
          "indexed": true,
          "internalType": "address",
          "name": "owner",
          "type": "address"
        },
        {
          "indexed": true,
          "internalType": "address",
          "name": "operator",
          "type": "address"
        },
        {
          "indexed": false,
          "internalType": "bool",
          "name": "approved",
          "type": "bool"
        }
      ],
      "name": "ApprovalForAll",
      "type": "event"
    },
    {
      "anonymous": false,
      "inputs": [
        {
          "indexed": true,
          "internalType": "address",
          "name": "from",
          "type": "address"
        },
        {
          "indexed": true,
          "internalType": "address",
          "name": "to",
          "type": "address"
        },
        {
          "indexed": true,
          "internalType": "uint256",
          "name": "tokenId",
          "type": "uint256"
        }
      ],
      "name": "Transfer",
      "type": "event"
    },
    {
      "anonymous": false,
      "inputs": [
        {
          "indexed": false,
          "internalType": "uint256",
          "name": "movieId",
          "type": "uint256"
        }
      ],
      "name": "Voted",
      "type": "event"
    },
    {
      "inputs": [
        {
          "internalType": "string",
          "name": "_name",
          "type": "string"
        }
      ],
      "name": "addMovie",
      "outputs": [],
      "stateMutability": "nonpayable",
      "type": "function"
    },
    {
      "inputs": [
        {
          "internalType": "address",
          "name": "to",
          "type": "address"
        },
        {
          "internalType": "uint256",
          "name": "tokenId",
          "type": "uint256"
        }
      ],
      "name": "approve",
      "outputs": [],
      "stateMutability": "nonpayable",
      "type": "function"
    },
    {
      "inputs": [
        {
          "internalType": "address",
          "name": "owner",
          "type": "address"
        }
      ],
      "name": "balanceOf",
      "outputs": [
        {
          "internalType": "uint256",
          "name": "",
          "type": "uint256"
        }
      ],
      "stateMutability": "view",
      "type": "function"
    },
    {
      "inputs": [],
      "name": "generateRandomNumber",
      "outputs": [
        {
          "internalType": "uint256",
          "name": "",
          "type": "uint256"
        }
      ],
      "stateMutability": "nonpayable",
      "type": "function"
    },
    {
      "inputs": [],
      "name": "getAllVotes",
      "outputs": [
        {
          "internalType": "string[]",
          "name": "",
          "type": "string[]"
        },
        {
          "internalType": "uint256[]",
          "name": "",
          "type": "uint256[]"
        }
      ],
      "stateMutability": "view",
      "type": "function"
    },
    {
      "inputs": [
        {
          "internalType": "uint256",
          "name": "tokenId",
          "type": "uint256"
        }
      ],
      "name": "getApproved",
      "outputs": [
        {
          "internalType": "address",
          "name": "",
          "type": "address"
        }
      ],
      "stateMutability": "view",
      "type": "function"
    },
    {
      "inputs": [
        {
          "internalType": "string",
          "name": "_movieName",
          "type": "string"
        }
      ],
      "name": "getMovieIdByName",
      "outputs": [
        {
          "internalType": "uint256",
          "name": "",
          "type": "uint256"
        }
      ],
      "stateMutability": "view",
      "type": "function"
    },
    {
      "inputs": [],
      "name": "getMoviesCount",
      "outputs": [
        {
          "internalType": "uint256",
          "name": "",
          "type": "uint256"
        }
      ],
      "stateMutability": "view",
      "type": "function"
    },
    {
      "inputs": [
        {
          "internalType": "uint256",
          "name": "_id",
          "type": "uint256"
        }
      ],
      "name": "getVotesByMovieId",
      "outputs": [
        {
          "internalType": "uint256",
          "name": "",
          "type": "uint256"
        }
      ],
      "stateMutability": "view",
      "type": "function"
    },
    {
      "inputs": [
        {
          "internalType": "address",
          "name": "",
          "type": "address"
        }
      ],
      "name": "hasVoted",
      "outputs": [
        {
          "internalType": "bool",
          "name": "",
          "type": "bool"
        }
      ],
      "stateMutability": "view",
      "type": "function"
    },
    {
      "inputs": [
        {
          "internalType": "address",
          "name": "owner",
          "type": "address"
        },
        {
          "internalType": "address",
          "name": "operator",
          "type": "address"
        }
      ],
      "name": "isApprovedForAll",
      "outputs": [
        {
          "internalType": "bool",
          "name": "",
          "type": "bool"
        }
      ],
      "stateMutability": "view",
      "type": "function"
    },
    {
      "inputs": [
        {
          "internalType": "uint256",
          "name": "",
          "type": "uint256"
        }
      ],
      "name": "movieNames",
      "outputs": [
        {
          "internalType": "string",
          "name": "",
          "type": "string"
        }
      ],
      "stateMutability": "view",
      "type": "function"
    },
    {
      "inputs": [],
      "name": "name",
      "outputs": [
        {
          "internalType": "string",
          "name": "",
          "type": "string"
        }
      ],
      "stateMutability": "view",
      "type": "function"
    },
    {
      "inputs": [],
      "name": "nextTokenId",
      "outputs": [
        {
          "internalType": "uint256",
          "name": "",
          "type": "uint256"
        }
      ],
      "stateMutability": "view",
      "type": "function"
    },
    {
      "inputs": [
        {
          "internalType": "uint256",
          "name": "tokenId",
          "type": "uint256"
        }
      ],
      "name": "ownerOf",
      "outputs": [
        {
          "internalType": "address",
          "name": "",
          "type": "address"
        }
      ],
      "stateMutability": "view",
      "type": "function"
    },
    {
      "inputs": [
        {
          "internalType": "address",
          "name": "from",
          "type": "address"
        },
        {
          "internalType": "address",
          "name": "to",
          "type": "address"
        },
        {
          "internalType": "uint256",
          "name": "tokenId",
          "type": "uint256"
        }
      ],
      "name": "safeTransferFrom",
      "outputs": [],
      "stateMutability": "nonpayable",
      "type": "function"
    },
    {
      "inputs": [
        {
          "internalType": "address",
          "name": "from",
          "type": "address"
        },
        {
          "internalType": "address",
          "name": "to",
          "type": "address"
        },
        {
          "internalType": "uint256",
          "name": "tokenId",
          "type": "uint256"
        },
        {
          "internalType": "bytes",
          "name": "data",
          "type": "bytes"
        }
      ],
      "name": "safeTransferFrom",
      "outputs": [],
      "stateMutability": "nonpayable",
      "type": "function"
    },
    {
      "inputs": [
        {
          "internalType": "address",
          "name": "operator",
          "type": "address"
        },
        {
          "internalType": "bool",
          "name": "approved",
          "type": "bool"
        }
      ],
      "name": "setApprovalForAll",
      "outputs": [],
      "stateMutability": "nonpayable",
      "type": "function"
    },
    {
      "inputs": [
        {
          "internalType": "bytes4",
          "name": "interfaceId",
          "type": "bytes4"
        }
      ],
      "name": "supportsInterface",
      "outputs": [
        {
          "internalType": "bool",
          "name": "",
          "type": "bool"
        }
      ],
      "stateMutability": "view",
      "type": "function"
    },
    {
      "inputs": [],
      "name": "symbol",
      "outputs": [
        {
          "internalType": "string",
          "name": "",
          "type": "string"
        }
      ],
      "stateMutability": "view",
      "type": "function"
    },
    {
      "inputs": [
        {
          "internalType": "uint256",
          "name": "tokenId",
          "type": "uint256"
        }
      ],
      "name": "tokenURI",
      "outputs": [
        {
          "internalType": "string",
          "name": "",
          "type": "string"
        }
      ],
      "stateMutability": "view",
      "type": "function"
    },
    {
      "inputs": [
        {
          "internalType": "address",
          "name": "from",
          "type": "address"
        },
        {
          "internalType": "address",
          "name": "to",
          "type": "address"
        },
        {
          "internalType": "uint256",
          "name": "tokenId",
          "type": "uint256"
        }
      ],
      "name": "transferFrom",
      "outputs": [],
      "stateMutability": "nonpayable",
      "type": "function"
    },
    {
      "inputs": [
        {
          "internalType": "uint256",
          "name": "_movieId",
          "type": "uint256"
        }
      ],
      "name": "vote",
      "outputs": [],
      "stateMutability": "nonpayable",
      "type": "function"
    },
    {
      "inputs": [
        {
          "internalType": "uint256",
          "name": "",
          "type": "uint256"
        }
      ],
      "name": "voteCounts",
      "outputs": [
        {
          "internalType": "uint256",
          "name": "",
          "type": "uint256"
        }
      ],
      "stateMutability": "view",
      "type": "function"
    }
  ],
  "bytecode": "0x6080604052601960095534801561001557600080fd5b5060405161400038038061400083398181016040528101906100379190610c4c565b6040518060400160405280600981526020017f566f74696e674e465400000000000000000000000000000000000000000000008152506040518060400160405280600481526020017f564f54450000000000000000000000000000000000000000000000000000000081525081600090816100b29190610eb6565b5080600190816100c29190610eb6565b50505060005b815181101561016e576000600a5490506100e8308261017560201b60201c565b8282815181106100fb576100fa610f88565b5b60200260200101516006600083815260200190815260200160002090816101229190610eb6565b5061013161027460201b60201c565b6007600083815260200190815260200160002081905550600a600081548092919061015b90610fe6565b91905055505080806001019150506100c8565b5050611179565b600073ffffffffffffffffffffffffffffffffffffffff168273ffffffffffffffffffffffffffffffffffffffff16036101e75760006040517f64a0ae920000000000000000000000000000000000000000000000000000000081526004016101de919061106f565b60405180910390fd5b60006101fb838360006102c160201b60201c565b9050600073ffffffffffffffffffffffffffffffffffffffff168173ffffffffffffffffffffffffffffffffffffffff161461026f5760006040517f73c6ac6e000000000000000000000000000000000000000000000000000000008152600401610266919061106f565b60405180910390fd5b505050565b60008060095460405160200161028a91906110ab565b6040516020818303038152906040528051906020012060001c90506064816102b291906110f5565b60098190555060095491505090565b6000806102d3846104ed60201b60201c565b9050600073ffffffffffffffffffffffffffffffffffffffff168373ffffffffffffffffffffffffffffffffffffffff161461031b5761031a81848661052a60201b60201c565b5b600073ffffffffffffffffffffffffffffffffffffffff168173ffffffffffffffffffffffffffffffffffffffff16146103b2576103636000856000806105f460201b60201c565b6001600360008373ffffffffffffffffffffffffffffffffffffffff1673ffffffffffffffffffffffffffffffffffffffff168152602001908152602001600020600082825403925050819055505b600073ffffffffffffffffffffffffffffffffffffffff168573ffffffffffffffffffffffffffffffffffffffff1614610435576001600360008773ffffffffffffffffffffffffffffffffffffffff1673ffffffffffffffffffffffffffffffffffffffff168152602001908152602001600020600082825401925050819055505b846002600086815260200190815260200160002060006101000a81548173ffffffffffffffffffffffffffffffffffffffff021916908373ffffffffffffffffffffffffffffffffffffffff160217905550838573ffffffffffffffffffffffffffffffffffffffff168273ffffffffffffffffffffffffffffffffffffffff167fddf252ad1be2c89b69c2b068fc378daa952ba7f163c4a11628f55a4df523b3ef60405160405180910390a4809150509392505050565b60006002600083815260200190815260200160002060009054906101000a900473ffffffffffffffffffffffffffffffffffffffff169050919050565b61053b8383836107c560201b60201c565b6105ef57600073ffffffffffffffffffffffffffffffffffffffff168373ffffffffffffffffffffffffffffffffffffffff16036105b057806040517f7e2732890000000000000000000000000000000000000000000000000000000081526004016105a79190611135565b60405180910390fd5b81816040517f177e802f0000000000000000000000000000000000000000000000000000000081526004016105e6929190611150565b60405180910390fd5b505050565b808061062d5750600073ffffffffffffffffffffffffffffffffffffffff168273ffffffffffffffffffffffffffffffffffffffff1614155b1561076d5760006106438461089260201b60201c565b9050600073ffffffffffffffffffffffffffffffffffffffff168373ffffffffffffffffffffffffffffffffffffffff16141580156106ae57508273ffffffffffffffffffffffffffffffffffffffff168173ffffffffffffffffffffffffffffffffffffffff1614155b80156106c757506106c5818461092060201b60201c565b155b1561070957826040517fa9fbf51f000000000000000000000000000000000000000000000000000000008152600401610700919061106f565b60405180910390fd5b811561076b57838573ffffffffffffffffffffffffffffffffffffffff168273ffffffffffffffffffffffffffffffffffffffff167f8c5be1e5ebec7d5bd14f71427d1e84f3dd0314c0f7b2291e5b200ac8c7c3b92560405160405180910390a45b505b836004600085815260200190815260200160002060006101000a81548173ffffffffffffffffffffffffffffffffffffffff021916908373ffffffffffffffffffffffffffffffffffffffff16021790555050505050565b60008073ffffffffffffffffffffffffffffffffffffffff168373ffffffffffffffffffffffffffffffffffffffff161415801561088957508273ffffffffffffffffffffffffffffffffffffffff168473ffffffffffffffffffffffffffffffffffffffff1614806108445750610843848461092060201b60201c565b5b8061088857508273ffffffffffffffffffffffffffffffffffffffff16610870836109b460201b60201c565b73ffffffffffffffffffffffffffffffffffffffff16145b5b90509392505050565b6000806108a4836104ed60201b60201c565b9050600073ffffffffffffffffffffffffffffffffffffffff168173ffffffffffffffffffffffffffffffffffffffff160361091757826040517f7e27328900000000000000000000000000000000000000000000000000000000815260040161090e9190611135565b60405180910390fd5b80915050919050565b6000600560008473ffffffffffffffffffffffffffffffffffffffff1673ffffffffffffffffffffffffffffffffffffffff16815260200190815260200160002060008373ffffffffffffffffffffffffffffffffffffffff1673ffffffffffffffffffffffffffffffffffffffff16815260200190815260200160002060009054906101000a900460ff16905092915050565b60006004600083815260200190815260200160002060009054906101000a900473ffffffffffffffffffffffffffffffffffffffff169050919050565b6000604051905090565b600080fd5b600080fd5b600080fd5b6000601f19601f8301169050919050565b7f4e487b7100000000000000000000000000000000000000000000000000000000600052604160045260246000fd5b610a5382610a0a565b810181811067ffffffffffffffff82111715610a7257610a71610a1b565b5b80604052505050565b6000610a856109f1565b9050610a918282610a4a565b919050565b600067ffffffffffffffff821115610ab157610ab0610a1b565b5b602082029050602081019050919050565b600080fd5b600080fd5b600067ffffffffffffffff821115610ae757610ae6610a1b565b5b610af082610a0a565b9050602081019050919050565b60005b83811015610b1b578082015181840152602081019050610b00565b60008484015250505050565b6000610b3a610b3584610acc565b610a7b565b905082815260208101848484011115610b5657610b55610ac7565b5b610b61848285610afd565b509392505050565b600082601f830112610b7e57610b7d610a05565b5b8151610b8e848260208601610b27565b91505092915050565b6000610baa610ba584610a96565b610a7b565b90508083825260208201905060208402830185811115610bcd57610bcc610ac2565b5b835b81811015610c1457805167ffffffffffffffff811115610bf257610bf1610a05565b5b808601610bff8982610b69565b85526020850194505050602081019050610bcf565b5050509392505050565b600082601f830112610c3357610c32610a05565b5b8151610c43848260208601610b97565b91505092915050565b600060208284031215610c6257610c616109fb565b5b600082015167ffffffffffffffff811115610c8057610c7f610a00565b5b610c8c84828501610c1e565b91505092915050565b600081519050919050565b7f4e487b7100000000000000000000000000000000000000000000000000000000600052602260045260246000fd5b60006002820490506001821680610ce757607f821691505b602082108103610cfa57610cf9610ca0565b5b50919050565b60008190508160005260206000209050919050565b60006020601f8301049050919050565b600082821b905092915050565b600060088302610d627fffffffffffffffffffffffffffffffffffffffffffffffffffffffffffffffff82610d25565b610d6c8683610d25565b95508019841693508086168417925050509392505050565b6000819050919050565b6000819050919050565b6000610db3610dae610da984610d84565b610d8e565b610d84565b9050919050565b6000819050919050565b610dcd83610d98565b610de1610dd982610dba565b848454610d32565b825550505050565b600090565b610df6610de9565b610e01818484610dc4565b505050565b5b81811015610e2557610e1a600082610dee565b600181019050610e07565b5050565b601f821115610e6a57610e3b81610d00565b610e4484610d15565b81016020851015610e53578190505b610e67610e5f85610d15565b830182610e06565b50505b505050565b600082821c905092915050565b6000610e8d60001984600802610e6f565b1980831691505092915050565b6000610ea68383610e7c565b9150826002028217905092915050565b610ebf82610c95565b67ffffffffffffffff811115610ed857610ed7610a1b565b5b610ee28254610ccf565b610eed828285610e29565b600060209050601f831160018114610f205760008415610f0e578287015190505b610f188582610e9a565b865550610f80565b601f198416610f2e86610d00565b60005b82811015610f5657848901518255600182019150602085019450602081019050610f31565b86831015610f735784890151610f6f601f891682610e7c565b8355505b6001600288020188555050505b505050505050565b7f4e487b7100000000000000000000000000000000000000000000000000000000600052603260045260246000fd5b7f4e487b7100000000000000000000000000000000000000000000000000000000600052601160045260246000fd5b6000610ff182610d84565b91507fffffffffffffffffffffffffffffffffffffffffffffffffffffffffffffffff820361102357611022610fb7565b5b600182019050919050565b600073ffffffffffffffffffffffffffffffffffffffff82169050919050565b60006110598261102e565b9050919050565b6110698161104e565b82525050565b60006020820190506110846000830184611060565b92915050565b6000819050919050565b6110a56110a082610d84565b61108a565b82525050565b60006110b78284611094565b60208201915081905092915050565b7f4e487b7100000000000000000000000000000000000000000000000000000000600052601260045260246000fd5b600061110082610d84565b915061110b83610d84565b92508261111b5761111a6110c6565b5b828206905092915050565b61112f81610d84565b82525050565b600060208201905061114a6000830184611126565b92915050565b60006040820190506111656000830185611060565b6111726020830184611126565b9392505050565b612e78806111886000396000f3fe608060405234801561001057600080fd5b50600436106101585760003560e01c80636d4d371a116100c357806395d89b411161007c57806395d89b4114610412578063a22cb46514610430578063b88d4fde1461044c578063c87b56dd14610468578063e20da8e014610498578063e985e9c5146104b657610158565b80636d4d371a1461033b57806370a082311461036b57806372511e471461039b57806375794a3c146103b7578063773a1154146103d5578063851b6ef2146103f357610158565b806323b872dd1161011557806323b872dd146102435780632ed4bccc1461025f5780633c3a220d1461028f57806341aa389d146102bf57806342842e0e146102ef5780636352211e1461030b57610158565b80630121b93f1461015d57806301ffc9a71461017957806306fdde03146101a9578063081812fc146101c7578063095ea7b3146101f757806309eef43e14610213575b600080fd5b61017760048036038101906101729190611ee0565b6104e6565b005b610193600480360381019061018e9190611f65565b6106a4565b6040516101a09190611fad565b60405180910390f35b6101b1610786565b6040516101be9190612058565b60405180910390f35b6101e160048036038101906101dc9190611ee0565b610818565b6040516101ee91906120bb565b60405180910390f35b610211600480360381019061020c9190612102565b610834565b005b61022d60048036038101906102289190612142565b61084a565b60405161023a9190611fad565b60405180910390f35b61025d6004803603810190610258919061216f565b61086a565b005b610279600480360381019061027491906122f7565b61096c565b604051610286919061234f565b60405180910390f35b6102a960048036038101906102a49190611ee0565b610b08565b6040516102b6919061234f565b60405180910390f35b6102d960048036038101906102d49190611ee0565b610b20565b6040516102e6919061234f565b60405180910390f35b6103096004803603810190610304919061216f565b610b81565b005b61032560048036038101906103209190611ee0565b610ba1565b60405161033291906120bb565b60405180910390f35b61035560048036038101906103509190611ee0565b610bb3565b6040516103629190612058565b60405180910390f35b61038560048036038101906103809190612142565b610c53565b604051610392919061234f565b60405180910390f35b6103b560048036038101906103b091906122f7565b610d0d565b005b6103bf610d7a565b6040516103cc919061234f565b60405180910390f35b6103dd610d80565b6040516103ea919061234f565b60405180910390f35b6103fb610dcd565b604051610409929190612534565b60405180910390f35b61041a610f87565b6040516104279190612058565b60405180910390f35b61044a60048036038101906104459190612597565b611019565b005b61046660048036038101906104619190612678565b61102f565b005b610482600480360381019061047d9190611ee0565b611054565b60405161048f9190612058565b60405180910390f35b6104a06110bd565b6040516104ad919061234f565b60405180910390f35b6104d060048036038101906104cb91906126fb565b6110c7565b6040516104dd9190611fad565b60405180910390f35b600860003373ffffffffffffffffffffffffffffffffffffffff1673ffffffffffffffffffffffffffffffffffffffff16815260200190815260200160002060009054906101000a900460ff1615610573576040517f08c379a000000000000000000000000000000000000000000000000000000000815260040161056a90612787565b60405180910390fd5b3073ffffffffffffffffffffffffffffffffffffffff1661059382610ba1565b73ffffffffffffffffffffffffffffffffffffffff16146105e9576040517f08c379a00000000000000000000000000000000000000000000000000000000081526004016105e0906127f3565b60405180910390fd5b60076000828152602001908152602001600020600081548092919061060d90612842565b91905055506001600860003373ffffffffffffffffffffffffffffffffffffffff1673ffffffffffffffffffffffffffffffffffffffff16815260200190815260200160002060006101000a81548160ff0219169083151502179055507f7f511e347bf51eed3be100b3194247d5207f05f3b33de7d31e3e8ee73199a04981604051610699919061234f565b60405180910390a150565b60007f80ac58cd000000000000000000000000000000000000000000000000000000007bffffffffffffffffffffffffffffffffffffffffffffffffffffffff1916827bffffffffffffffffffffffffffffffffffffffffffffffffffffffff1916148061076f57507f5b5e139f000000000000000000000000000000000000000000000000000000007bffffffffffffffffffffffffffffffffffffffffffffffffffffffff1916827bffffffffffffffffffffffffffffffffffffffffffffffffffffffff1916145b8061077f575061077e8261115b565b5b9050919050565b606060008054610795906128b9565b80601f01602080910402602001604051908101604052809291908181526020018280546107c1906128b9565b801561080e5780601f106107e35761010080835404028352916020019161080e565b820191906000526020600020905b8154815290600101906020018083116107f157829003601f168201915b5050505050905090565b6000610823826111c5565b5061082d8261124d565b9050919050565b610846828261084161128a565b611292565b5050565b60086020528060005260406000206000915054906101000a900460ff1681565b600073ffffffffffffffffffffffffffffffffffffffff168273ffffffffffffffffffffffffffffffffffffffff16036108dc5760006040517f64a0ae920000000000000000000000000000000000000000000000000000000081526004016108d391906120bb565b60405180910390fd5b60006108f083836108eb61128a565b6112a4565b90508373ffffffffffffffffffffffffffffffffffffffff168173ffffffffffffffffffffffffffffffffffffffff1614610966578382826040517f64283d7b00000000000000000000000000000000000000000000000000000000815260040161095d939291906128ea565b60405180910390fd5b50505050565b600080600090505b600a54811015610ac757825160066000838152602001908152602001600020805461099e906128b9565b905003610aba5760006001905060005b8451811015610aa7578481815181106109ca576109c9612921565b5b602001015160f81c60f81b7effffffffffffffffffffffffffffffffffffffffffffffffffffffffffffff191660066000858152602001908152602001600020828154610a16906128b9565b8110610a2557610a24612921565b5b815460011615610a445790600052602060002090602091828204019190065b9054901a7f0100000000000000000000000000000000000000000000000000000000000000027effffffffffffffffffffffffffffffffffffffffffffffffffffffffffffff191614610a9a5760009150610aa7565b80806001019150506109ae565b508015610ab8578192505050610b03565b505b8080600101915050610974565b506040517f08c379a0000000000000000000000000000000000000000000000000000000008152600401610afa9061299c565b60405180910390fd5b919050565b60076020528060005260406000206000915090505481565b6000600a548210610b66576040517f08c379a0000000000000000000000000000000000000000000000000000000008152600401610b5d906127f3565b60405180910390fd5b60076000838152602001908152602001600020549050919050565b610b9c8383836040518060200160405280600081525061102f565b505050565b6000610bac826111c5565b9050919050565b60066020528060005260406000206000915090508054610bd2906128b9565b80601f0160208091040260200160405190810160405280929190818152602001828054610bfe906128b9565b8015610c4b5780601f10610c2057610100808354040283529160200191610c4b565b820191906000526020600020905b815481529060010190602001808311610c2e57829003601f168201915b505050505081565b60008073ffffffffffffffffffffffffffffffffffffffff168273ffffffffffffffffffffffffffffffffffffffff1603610cc65760006040517f89c62b64000000000000000000000000000000000000000000000000000000008152600401610cbd91906120bb565b60405180910390fd5b600360008373ffffffffffffffffffffffffffffffffffffffff1673ffffffffffffffffffffffffffffffffffffffff168152602001908152602001600020549050919050565b6000600a549050610d1e30826114be565b81600660008381526020019081526020016000209081610d3e9190612b68565b50610d47610d80565b6007600083815260200190815260200160002081905550600a6000815480929190610d7190612842565b91905055505050565b600a5481565b600080600954604051602001610d969190612c5b565b6040516020818303038152906040528051906020012060001c9050606481610dbe9190612ca5565b60098190555060095491505090565b6060806000600a5467ffffffffffffffff811115610dee57610ded6121cc565b5b604051908082528060200260200182016040528015610e2157816020015b6060815260200190600190039081610e0c5790505b5090506000600a5467ffffffffffffffff811115610e4257610e416121cc565b5b604051908082528060200260200182016040528015610e705781602001602082028036833780820191505090505b50905060005b600a54811015610f7a57600660008281526020019081526020016000208054610e9e906128b9565b80601f0160208091040260200160405190810160405280929190818152602001828054610eca906128b9565b8015610f175780601f10610eec57610100808354040283529160200191610f17565b820191906000526020600020905b815481529060010190602001808311610efa57829003601f168201915b5050505050838281518110610f2f57610f2e612921565b5b60200260200101819052506007600082815260200190815260200160002054828281518110610f6157610f60612921565b5b6020026020010181815250508080600101915050610e76565b5081819350935050509091565b606060018054610f96906128b9565b80601f0160208091040260200160405190810160405280929190818152602001828054610fc2906128b9565b801561100f5780601f10610fe45761010080835404028352916020019161100f565b820191906000526020600020905b815481529060010190602001808311610ff257829003601f168201915b5050505050905090565b61102b61102461128a565b83836115b7565b5050565b61103a84848461086a565b61104e61104561128a565b85858585611726565b50505050565b606061105f826111c5565b50600061106a6118d7565b9050600081511161108a57604051806020016040528060008152506110b5565b80611094846118ee565b6040516020016110a5929190612d12565b6040516020818303038152906040525b915050919050565b6000600a54905090565b6000600560008473ffffffffffffffffffffffffffffffffffffffff1673ffffffffffffffffffffffffffffffffffffffff16815260200190815260200160002060008373ffffffffffffffffffffffffffffffffffffffff1673ffffffffffffffffffffffffffffffffffffffff16815260200190815260200160002060009054906101000a900460ff16905092915050565b60007f01ffc9a7000000000000000000000000000000000000000000000000000000007bffffffffffffffffffffffffffffffffffffffffffffffffffffffff1916827bffffffffffffffffffffffffffffffffffffffffffffffffffffffff1916149050919050565b6000806111d1836119bc565b9050600073ffffffffffffffffffffffffffffffffffffffff168173ffffffffffffffffffffffffffffffffffffffff160361124457826040517f7e27328900000000000000000000000000000000000000000000000000000000815260040161123b919061234f565b60405180910390fd5b80915050919050565b60006004600083815260200190815260200160002060009054906101000a900473ffffffffffffffffffffffffffffffffffffffff169050919050565b600033905090565b61129f83838360016119f9565b505050565b6000806112b0846119bc565b9050600073ffffffffffffffffffffffffffffffffffffffff168373ffffffffffffffffffffffffffffffffffffffff16146112f2576112f1818486611bbe565b5b600073ffffffffffffffffffffffffffffffffffffffff168173ffffffffffffffffffffffffffffffffffffffff1614611383576113346000856000806119f9565b6001600360008373ffffffffffffffffffffffffffffffffffffffff1673ffffffffffffffffffffffffffffffffffffffff168152602001908152602001600020600082825403925050819055505b600073ffffffffffffffffffffffffffffffffffffffff168573ffffffffffffffffffffffffffffffffffffffff1614611406576001600360008773ffffffffffffffffffffffffffffffffffffffff1673ffffffffffffffffffffffffffffffffffffffff168152602001908152602001600020600082825401925050819055505b846002600086815260200190815260200160002060006101000a81548173ffffffffffffffffffffffffffffffffffffffff021916908373ffffffffffffffffffffffffffffffffffffffff160217905550838573ffffffffffffffffffffffffffffffffffffffff168273ffffffffffffffffffffffffffffffffffffffff167fddf252ad1be2c89b69c2b068fc378daa952ba7f163c4a11628f55a4df523b3ef60405160405180910390a4809150509392505050565b600073ffffffffffffffffffffffffffffffffffffffff168273ffffffffffffffffffffffffffffffffffffffff16036115305760006040517f64a0ae9200000000000000000000000000000000000000000000000000000000815260040161152791906120bb565b60405180910390fd5b600061153e838360006112a4565b9050600073ffffffffffffffffffffffffffffffffffffffff168173ffffffffffffffffffffffffffffffffffffffff16146115b25760006040517f73c6ac6e0000000000000000000000000000000000000000000000000000000081526004016115a991906120bb565b60405180910390fd5b505050565b600073ffffffffffffffffffffffffffffffffffffffff168273ffffffffffffffffffffffffffffffffffffffff160361162857816040517f5b08ba1800000000000000000000000000000000000000000000000000000000815260040161161f91906120bb565b60405180910390fd5b80600560008573ffffffffffffffffffffffffffffffffffffffff1673ffffffffffffffffffffffffffffffffffffffff16815260200190815260200160002060008473ffffffffffffffffffffffffffffffffffffffff1673ffffffffffffffffffffffffffffffffffffffff16815260200190815260200160002060006101000a81548160ff0219169083151502179055508173ffffffffffffffffffffffffffffffffffffffff168373ffffffffffffffffffffffffffffffffffffffff167f17307eab39ab6107e8899845ad3d59bd9653f200f220920489ca2b5937696c31836040516117199190611fad565b60405180910390a3505050565b60008373ffffffffffffffffffffffffffffffffffffffff163b11156118d0578273ffffffffffffffffffffffffffffffffffffffff1663150b7a02868685856040518563ffffffff1660e01b81526004016117859493929190612d8b565b6020604051808303816000875af19250505080156117c157506040513d601f19601f820116820180604052508101906117be9190612dec565b60015b611845573d80600081146117f1576040519150601f19603f3d011682016040523d82523d6000602084013e6117f6565b606091505b50600081510361183d57836040517f64a0ae9200000000000000000000000000000000000000000000000000000000815260040161183491906120bb565b60405180910390fd5b805181602001fd5b63150b7a0260e01b7bffffffffffffffffffffffffffffffffffffffffffffffffffffffff1916817bffffffffffffffffffffffffffffffffffffffffffffffffffffffff1916146118ce57836040517f64a0ae920000000000000000000000000000000000000000000000000000000081526004016118c591906120bb565b60405180910390fd5b505b5050505050565b606060405180602001604052806000815250905090565b6060600060016118fd84611c82565b01905060008167ffffffffffffffff81111561191c5761191b6121cc565b5b6040519080825280601f01601f19166020018201604052801561194e5781602001600182028036833780820191505090505b509050600082602001820190505b6001156119b1578080600190039150507f3031323334353637383961626364656600000000000000000000000000000000600a86061a8153600a85816119a5576119a4612c76565b5b0494506000850361195c575b819350505050919050565b60006002600083815260200190815260200160002060009054906101000a900473ffffffffffffffffffffffffffffffffffffffff169050919050565b8080611a325750600073ffffffffffffffffffffffffffffffffffffffff168273ffffffffffffffffffffffffffffffffffffffff1614155b15611b66576000611a42846111c5565b9050600073ffffffffffffffffffffffffffffffffffffffff168373ffffffffffffffffffffffffffffffffffffffff1614158015611aad57508273ffffffffffffffffffffffffffffffffffffffff168173ffffffffffffffffffffffffffffffffffffffff1614155b8015611ac05750611abe81846110c7565b155b15611b0257826040517fa9fbf51f000000000000000000000000000000000000000000000000000000008152600401611af991906120bb565b60405180910390fd5b8115611b6457838573ffffffffffffffffffffffffffffffffffffffff168273ffffffffffffffffffffffffffffffffffffffff167f8c5be1e5ebec7d5bd14f71427d1e84f3dd0314c0f7b2291e5b200ac8c7c3b92560405160405180910390a45b505b836004600085815260200190815260200160002060006101000a81548173ffffffffffffffffffffffffffffffffffffffff021916908373ffffffffffffffffffffffffffffffffffffffff16021790555050505050565b611bc9838383611dd5565b611c7d57600073ffffffffffffffffffffffffffffffffffffffff168373ffffffffffffffffffffffffffffffffffffffff1603611c3e57806040517f7e273289000000000000000000000000000000000000000000000000000000008152600401611c35919061234f565b60405180910390fd5b81816040517f177e802f000000000000000000000000000000000000000000000000000000008152600401611c74929190612e19565b60405180910390fd5b505050565b600080600090507a184f03e93ff9f4daa797ed6e38ed64bf6a1f0100000000000000008310611ce0577a184f03e93ff9f4daa797ed6e38ed64bf6a1f0100000000000000008381611cd657611cd5612c76565b5b0492506040810190505b6d04ee2d6d415b85acef81000000008310611d1d576d04ee2d6d415b85acef81000000008381611d1357611d12612c76565b5b0492506020810190505b662386f26fc100008310611d4c57662386f26fc100008381611d4257611d41612c76565b5b0492506010810190505b6305f5e1008310611d75576305f5e1008381611d6b57611d6a612c76565b5b0492506008810190505b6127108310611d9a576127108381611d9057611d8f612c76565b5b0492506004810190505b60648310611dbd5760648381611db357611db2612c76565b5b0492506002810190505b600a8310611dcc576001810190505b80915050919050565b60008073ffffffffffffffffffffffffffffffffffffffff168373ffffffffffffffffffffffffffffffffffffffff1614158015611e8d57508273ffffffffffffffffffffffffffffffffffffffff168473ffffffffffffffffffffffffffffffffffffffff161480611e4e5750611e4d84846110c7565b5b80611e8c57508273ffffffffffffffffffffffffffffffffffffffff16611e748361124d565b73ffffffffffffffffffffffffffffffffffffffff16145b5b90509392505050565b6000604051905090565b600080fd5b600080fd5b6000819050919050565b611ebd81611eaa565b8114611ec857600080fd5b50565b600081359050611eda81611eb4565b92915050565b600060208284031215611ef657611ef5611ea0565b5b6000611f0484828501611ecb565b91505092915050565b60007fffffffff0000000000000000000000000000000000000000000000000000000082169050919050565b611f4281611f0d565b8114611f4d57600080fd5b50565b600081359050611f5f81611f39565b92915050565b600060208284031215611f7b57611f7a611ea0565b5b6000611f8984828501611f50565b91505092915050565b60008115159050919050565b611fa781611f92565b82525050565b6000602082019050611fc26000830184611f9e565b92915050565b600081519050919050565b600082825260208201905092915050565b60005b83811015612002578082015181840152602081019050611fe7565b60008484015250505050565b6000601f19601f8301169050919050565b600061202a82611fc8565b6120348185611fd3565b9350612044818560208601611fe4565b61204d8161200e565b840191505092915050565b60006020820190508181036000830152612072818461201f565b905092915050565b600073ffffffffffffffffffffffffffffffffffffffff82169050919050565b60006120a58261207a565b9050919050565b6120b58161209a565b82525050565b60006020820190506120d060008301846120ac565b92915050565b6120df8161209a565b81146120ea57600080fd5b50565b6000813590506120fc816120d6565b92915050565b6000806040838503121561211957612118611ea0565b5b6000612127858286016120ed565b925050602061213885828601611ecb565b9150509250929050565b60006020828403121561215857612157611ea0565b5b6000612166848285016120ed565b91505092915050565b60008060006060848603121561218857612187611ea0565b5b6000612196868287016120ed565b93505060206121a7868287016120ed565b92505060406121b886828701611ecb565b9150509250925092565b600080fd5b600080fd5b7f4e487b7100000000000000000000000000000000000000000000000000000000600052604160045260246000fd5b6122048261200e565b810181811067ffffffffffffffff82111715612223576122226121cc565b5b80604052505050565b6000612236611e96565b905061224282826121fb565b919050565b600067ffffffffffffffff821115612262576122616121cc565b5b61226b8261200e565b9050602081019050919050565b82818337600083830152505050565b600061229a61229584612247565b61222c565b9050828152602081018484840111156122b6576122b56121c7565b5b6122c1848285612278565b509392505050565b600082601f8301126122de576122dd6121c2565b5b81356122ee848260208601612287565b91505092915050565b60006020828403121561230d5761230c611ea0565b5b600082013567ffffffffffffffff81111561232b5761232a611ea5565b5b612337848285016122c9565b91505092915050565b61234981611eaa565b82525050565b60006020820190506123646000830184612340565b92915050565b600081519050919050565b600082825260208201905092915050565b6000819050602082019050919050565b600082825260208201905092915050565b60006123b282611fc8565b6123bc8185612396565b93506123cc818560208601611fe4565b6123d58161200e565b840191505092915050565b60006123ec83836123a7565b905092915050565b6000602082019050919050565b600061240c8261236a565b6124168185612375565b93508360208202850161242885612386565b8060005b85811015612464578484038952815161244585826123e0565b9450612450836123f4565b925060208a0199505060018101905061242c565b50829750879550505050505092915050565b600081519050919050565b600082825260208201905092915050565b6000819050602082019050919050565b6124ab81611eaa565b82525050565b60006124bd83836124a2565b60208301905092915050565b6000602082019050919050565b60006124e182612476565b6124eb8185612481565b93506124f683612492565b8060005b8381101561252757815161250e88826124b1565b9750612519836124c9565b9250506001810190506124fa565b5085935050505092915050565b6000604082019050818103600083015261254e8185612401565b9050818103602083015261256281846124d6565b90509392505050565b61257481611f92565b811461257f57600080fd5b50565b6000813590506125918161256b565b92915050565b600080604083850312156125ae576125ad611ea0565b5b60006125bc858286016120ed565b92505060206125cd85828601612582565b9150509250929050565b600067ffffffffffffffff8211156125f2576125f16121cc565b5b6125fb8261200e565b9050602081019050919050565b600061261b612616846125d7565b61222c565b905082815260208101848484011115612637576126366121c7565b5b612642848285612278565b509392505050565b600082601f83011261265f5761265e6121c2565b5b813561266f848260208601612608565b91505092915050565b6000806000806080858703121561269257612691611ea0565b5b60006126a0878288016120ed565b94505060206126b1878288016120ed565b93505060406126c287828801611ecb565b925050606085013567ffffffffffffffff8111156126e3576126e2611ea5565b5b6126ef8782880161264a565b91505092959194509250565b6000806040838503121561271257612711611ea0565b5b6000612720858286016120ed565b9250506020612731858286016120ed565b9150509250929050565b7f416c726561647920766f74656400000000000000000000000000000000000000600082015250565b6000612771600d83611fd3565b915061277c8261273b565b602082019050919050565b600060208201905081810360008301526127a081612764565b9050919050565b7f496e76616c6964206d6f76696520494400000000000000000000000000000000600082015250565b60006127dd601083611fd3565b91506127e8826127a7565b602082019050919050565b6000602082019050818103600083015261280c816127d0565b9050919050565b7f4e487b7100000000000000000000000000000000000000000000000000000000600052601160045260246000fd5b600061284d82611eaa565b91507fffffffffffffffffffffffffffffffffffffffffffffffffffffffffffffffff820361287f5761287e612813565b5b600182019050919050565b7f4e487b7100000000000000000000000000000000000000000000000000000000600052602260045260246000fd5b600060028204905060018216806128d157607f821691505b6020821081036128e4576128e361288a565b5b50919050565b60006060820190506128ff60008301866120ac565b61290c6020830185612340565b61291960408301846120ac565b949350505050565b7f4e487b7100000000000000000000000000000000000000000000000000000000600052603260045260246000fd5b7f4964206e6f7420666f756e640000000000000000000000000000000000000000600082015250565b6000612986600c83611fd3565b915061299182612950565b602082019050919050565b600060208201905081810360008301526129b581612979565b9050919050565b60008190508160005260206000209050919050565b60006020601f8301049050919050565b600082821b905092915050565b600060088302612a1e7fffffffffffffffffffffffffffffffffffffffffffffffffffffffffffffffff826129e1565b612a2886836129e1565b95508019841693508086168417925050509392505050565b6000819050919050565b6000612a65612a60612a5b84611eaa565b612a40565b611eaa565b9050919050565b6000819050919050565b612a7f83612a4a565b612a93612a8b82612a6c565b8484546129ee565b825550505050565b600090565b612aa8612a9b565b612ab3818484612a76565b505050565b5b81811015612ad757612acc600082612aa0565b600181019050612ab9565b5050565b601f821115612b1c57612aed816129bc565b612af6846129d1565b81016020851015612b05578190505b612b19612b11856129d1565b830182612ab8565b50505b505050565b600082821c905092915050565b6000612b3f60001984600802612b21565b1980831691505092915050565b6000612b588383612b2e565b9150826002028217905092915050565b612b7182611fc8565b67ffffffffffffffff811115612b8a57612b896121cc565b5b612b9482546128b9565b612b9f828285612adb565b600060209050601f831160018114612bd25760008415612bc0578287015190505b612bca8582612b4c565b865550612c32565b601f198416612be0866129bc565b60005b82811015612c0857848901518255600182019150602085019450602081019050612be3565b86831015612c255784890151612c21601f891682612b2e565b8355505b6001600288020188555050505b505050505050565b6000819050919050565b612c55612c5082611eaa565b612c3a565b82525050565b6000612c678284612c44565b60208201915081905092915050565b7f4e487b7100000000000000000000000000000000000000000000000000000000600052601260045260246000fd5b6000612cb082611eaa565b9150612cbb83611eaa565b925082612ccb57612cca612c76565b5b828206905092915050565b600081905092915050565b6000612cec82611fc8565b612cf68185612cd6565b9350612d06818560208601611fe4565b80840191505092915050565b6000612d1e8285612ce1565b9150612d2a8284612ce1565b91508190509392505050565b600081519050919050565b600082825260208201905092915050565b6000612d5d82612d36565b612d678185612d41565b9350612d77818560208601611fe4565b612d808161200e565b840191505092915050565b6000608082019050612da060008301876120ac565b612dad60208301866120ac565b612dba6040830185612340565b8181036060830152612dcc8184612d52565b905095945050505050565b600081519050612de681611f39565b92915050565b600060208284031215612e0257612e01611ea0565b5b6000612e1084828501612dd7565b91505092915050565b6000604082019050612e2e60008301856120ac565b612e3b6020830184612340565b939250505056fea2646970667358221220ac8e9ef20cc7a3bfaba4db5c43e9fb99fd0ddc6dbee43e1031ff03473d75c4f864736f6c634300081c0033",
  "linkReferences": {},
  "deployedLinkReferences": {}
}