{
  "_format": "hh-sol-artifact-1",
  "contractName": "Voting",
  "sourceName": "contracts/Voting.sol",
  "abi": [
    {
      "inputs": [
        {
          "internalType": "string[]",
          "name": "_movieNames",
          "type": "string[]"
        }
      ],
      "stateMutability": "nonpayable",
      "type": "constructor"
    },
    {
      "anonymous": false,
      "inputs": [
        {
          "indexed": false,
          "internalType": "uint256",
          "name": "movieId",
          "type": "uint256"
        }
      ],
      "name": "Voted",
      "type": "event"
    },
    {
      "inputs": [],
      "name": "generateRandomNumber",
      "outputs": [
        {
          "internalType": "uint256",
          "name": "",
          "type": "uint256"
        }
      ],
      "stateMutability": "nonpayable",
      "type": "function"
    },
    {
      "inputs": [],
      "name": "getAllVotes",
      "outputs": [
        {
          "internalType": "string[]",
          "name": "",
          "type": "string[]"
        },
        {
          "internalType": "uint256[]",
          "name": "",
          "type": "uint256[]"
        }
      ],
      "stateMutability": "view",
      "type": "function"
    },
    {
      "inputs": [
        {
          "internalType": "string",
          "name": "_movieName",
          "type": "string"
        }
      ],
      "name": "getMovieIdByName",
      "outputs": [
        {
          "internalType": "uint256",
          "name": "",
          "type": "uint256"
        }
      ],
      "stateMutability": "view",
      "type": "function"
    },
    {
      "inputs": [],
      "name": "getMoviesCount",
      "outputs": [
        {
          "internalType": "uint256",
          "name": "",
          "type": "uint256"
        }
      ],
      "stateMutability": "view",
      "type": "function"
    },
    {
      "inputs": [
        {
          "internalType": "uint256",
          "name": "_id",
          "type": "uint256"
        }
      ],
      "name": "getVotesByMovieId",
      "outputs": [
        {
          "internalType": "uint256",
          "name": "",
          "type": "uint256"
        }
      ],
      "stateMutability": "view",
      "type": "function"
    },
    {
      "inputs": [
        {
          "internalType": "address",
          "name": "",
          "type": "address"
        }
      ],
      "name": "hasVoted",
      "outputs": [
        {
          "internalType": "bool",
          "name": "",
          "type": "bool"
        }
      ],
      "stateMutability": "view",
      "type": "function"
    },
    {
      "inputs": [
        {
          "internalType": "uint256",
          "name": "",
          "type": "uint256"
        }
      ],
      "name": "movies",
      "outputs": [
        {
          "internalType": "uint256",
          "name": "id",
          "type": "uint256"
        },
        {
          "internalType": "string",
          "name": "name",
          "type": "string"
        },
        {
          "internalType": "uint256",
          "name": "voteCount",
          "type": "uint256"
        }
      ],
      "stateMutability": "view",
      "type": "function"
    },
    {
      "inputs": [
        {
          "internalType": "uint256",
          "name": "_movieId",
          "type": "uint256"
        }
      ],
      "name": "vote",
      "outputs": [],
      "stateMutability": "nonpayable",
      "type": "function"
    }
  ],
  "bytecode": "0x6080604052601960025534801561001557600080fd5b5060405161191538038061191583398181016040528101906100379190610398565b60005b81518110156100e95760006040518060600160405280838152602001848481518110610069576100686103e1565b5b602002602001015181526020016100846100f060201b60201c565b81525090806001815401808255809150506001900390600052602060002090600302016000909190919091506000820151816000015560208201518160010190816100cf9190610631565b50604082015181600201555050808060010191505061003a565b505061079f565b6000806002546040516020016101069190610724565b6040516020818303038152906040528051906020012060001c905060648161012e919061076e565b60028190555060025491505090565b6000604051905090565b600080fd5b600080fd5b600080fd5b6000601f19601f8301169050919050565b7f4e487b7100000000000000000000000000000000000000000000000000000000600052604160045260246000fd5b61019f82610156565b810181811067ffffffffffffffff821117156101be576101bd610167565b5b80604052505050565b60006101d161013d565b90506101dd8282610196565b919050565b600067ffffffffffffffff8211156101fd576101fc610167565b5b602082029050602081019050919050565b600080fd5b600080fd5b600067ffffffffffffffff82111561023357610232610167565b5b61023c82610156565b9050602081019050919050565b60005b8381101561026757808201518184015260208101905061024c565b60008484015250505050565b600061028661028184610218565b6101c7565b9050828152602081018484840111156102a2576102a1610213565b5b6102ad848285610249565b509392505050565b600082601f8301126102ca576102c9610151565b5b81516102da848260208601610273565b91505092915050565b60006102f66102f1846101e2565b6101c7565b905080838252602082019050602084028301858111156103195761031861020e565b5b835b8181101561036057805167ffffffffffffffff81111561033e5761033d610151565b5b80860161034b89826102b5565b8552602085019450505060208101905061031b565b5050509392505050565b600082601f83011261037f5761037e610151565b5b815161038f8482602086016102e3565b91505092915050565b6000602082840312156103ae576103ad610147565b5b600082015167ffffffffffffffff8111156103cc576103cb61014c565b5b6103d88482850161036a565b91505092915050565b7f4e487b7100000000000000000000000000000000000000000000000000000000600052603260045260246000fd5b600081519050919050565b7f4e487b7100000000000000000000000000000000000000000000000000000000600052602260045260246000fd5b6000600282049050600182168061046257607f821691505b6020821081036104755761047461041b565b5b50919050565b60008190508160005260206000209050919050565b60006020601f8301049050919050565b600082821b905092915050565b6000600883026104dd7fffffffffffffffffffffffffffffffffffffffffffffffffffffffffffffffff826104a0565b6104e786836104a0565b95508019841693508086168417925050509392505050565b6000819050919050565b6000819050919050565b600061052e610529610524846104ff565b610509565b6104ff565b9050919050565b6000819050919050565b61054883610513565b61055c61055482610535565b8484546104ad565b825550505050565b600090565b610571610564565b61057c81848461053f565b505050565b5b818110156105a057610595600082610569565b600181019050610582565b5050565b601f8211156105e5576105b68161047b565b6105bf84610490565b810160208510156105ce578190505b6105e26105da85610490565b830182610581565b50505b505050565b600082821c905092915050565b6000610608600019846008026105ea565b1980831691505092915050565b600061062183836105f7565b9150826002028217905092915050565b61063a82610410565b67ffffffffffffffff81111561065357610652610167565b5b61065d825461044a565b6106688282856105a4565b600060209050601f83116001811461069b5760008415610689578287015190505b6106938582610615565b8655506106fb565b601f1984166106a98661047b565b60005b828110156106d1578489015182556001820191506020850194506020810190506106ac565b868310156106ee57848901516106ea601f8916826105f7565b8355505b6001600288020188555050505b505050505050565b6000819050919050565b61071e610719826104ff565b610703565b82525050565b6000610730828461070d565b60208201915081905092915050565b7f4e487b7100000000000000000000000000000000000000000000000000000000600052601260045260246000fd5b6000610779826104ff565b9150610784836104ff565b9250826107945761079361073f565b5b828206905092915050565b611167806107ae6000396000f3fe608060405234801561001057600080fd5b50600436106100885760003560e01c806341aa389d1161005b57806341aa389d1461013b578063773a11541461016b578063851b6ef214610189578063e20da8e0146101a857610088565b80630121b93f1461008d57806309eef43e146100a95780632ed4bccc146100d9578063404ebf6c14610109575b600080fd5b6100a760048036038101906100a291906108e6565b6101c6565b005b6100c360048036038101906100be9190610971565b610366565b6040516100d091906109b9565b60405180910390f35b6100f360048036038101906100ee9190610b1a565b610386565b6040516101009190610b72565b60405180910390f35b610123600480360381019061011e91906108e6565b61056e565b60405161013293929190610c0c565b60405180910390f35b610155600480360381019061015091906108e6565b610630565b6040516101629190610b72565b60405180910390f35b61017361065e565b6040516101809190610b72565b60405180910390f35b6101916106ab565b60405161019f929190610e14565b60405180910390f35b6101b0610890565b6040516101bd9190610b72565b60405180910390f35b600160003373ffffffffffffffffffffffffffffffffffffffff1673ffffffffffffffffffffffffffffffffffffffff16815260200190815260200160002060009054906101000a900460ff1615610253576040517f08c379a000000000000000000000000000000000000000000000000000000000815260040161024a90610e97565b60405180910390fd5b600080549050811061029a576040517f08c379a000000000000000000000000000000000000000000000000000000000815260040161029190610f03565b60405180910390fd5b600081815481106102ae576102ad610f23565b5b906000526020600020906003020160020160008154809291906102d090610f81565b919050555060018060003373ffffffffffffffffffffffffffffffffffffffff1673ffffffffffffffffffffffffffffffffffffffff16815260200190815260200160002060006101000a81548160ff0219169083151502179055507f7f511e347bf51eed3be100b3194247d5207f05f3b33de7d31e3e8ee73199a0498160405161035b9190610b72565b60405180910390a150565b60016020528060005260406000206000915054906101000a900460ff1681565b600080600090505b60008054905081101561052d578251600082815481106103b1576103b0610f23565b5b906000526020600020906003020160010180546103cd90610ff8565b9050036105205760006001905060005b84518110156104e8578481815181106103f9576103f8610f23565b5b602001015160f81c60f81b7effffffffffffffffffffffffffffffffffffffffffffffffffffffffffffff19166000848154811061043a57610439610f23565b5b906000526020600020906003020160010182815461045790610ff8565b811061046657610465610f23565b5b8154600116156104855790600052602060002090602091828204019190065b9054901a7f0100000000000000000000000000000000000000000000000000000000000000027effffffffffffffffffffffffffffffffffffffffffffffffffffffffffffff1916146104db57600091506104e8565b80806001019150506103dd565b50801561051e576000828154811061050357610502610f23565b5b90600052602060002090600302016000015492505050610569565b505b808060010191505061038e565b506040517f08c379a000000000000000000000000000000000000000000000000000000000815260040161056090611075565b60405180910390fd5b919050565b6000818154811061057e57600080fd5b90600052602060002090600302016000915090508060000154908060010180546105a790610ff8565b80601f01602080910402602001604051908101604052809291908181526020018280546105d390610ff8565b80156106205780601f106105f557610100808354040283529160200191610620565b820191906000526020600020905b81548152906001019060200180831161060357829003601f168201915b5050505050908060020154905083565b600080828154811061064557610644610f23565b5b9060005260206000209060030201600201549050919050565b60008060025460405160200161067491906110b6565b6040516020818303038152906040528051906020012060001c905060648161069c9190611100565b60028190555060025491505090565b6060806000808054905067ffffffffffffffff8111156106ce576106cd6109ef565b5b60405190808252806020026020018201604052801561070157816020015b60608152602001906001900390816106ec5790505b5090506000808054905067ffffffffffffffff811115610724576107236109ef565b5b6040519080825280602002602001820160405280156107525781602001602082028036833780820191505090505b50905060005b600080549050811015610883576000818154811061077957610778610f23565b5b9060005260206000209060030201600101805461079590610ff8565b80601f01602080910402602001604051908101604052809291908181526020018280546107c190610ff8565b801561080e5780601f106107e35761010080835404028352916020019161080e565b820191906000526020600020905b8154815290600101906020018083116107f157829003601f168201915b505050505083828151811061082657610825610f23565b5b60200260200101819052506000818154811061084557610844610f23565b5b90600052602060002090600302016002015482828151811061086a57610869610f23565b5b6020026020010181815250508080600101915050610758565b5081819350935050509091565b60008080549050905090565b6000604051905090565b600080fd5b600080fd5b6000819050919050565b6108c3816108b0565b81146108ce57600080fd5b50565b6000813590506108e0816108ba565b92915050565b6000602082840312156108fc576108fb6108a6565b5b600061090a848285016108d1565b91505092915050565b600073ffffffffffffffffffffffffffffffffffffffff82169050919050565b600061093e82610913565b9050919050565b61094e81610933565b811461095957600080fd5b50565b60008135905061096b81610945565b92915050565b600060208284031215610987576109866108a6565b5b60006109958482850161095c565b91505092915050565b60008115159050919050565b6109b38161099e565b82525050565b60006020820190506109ce60008301846109aa565b92915050565b600080fd5b600080fd5b6000601f19601f8301169050919050565b7f4e487b7100000000000000000000000000000000000000000000000000000000600052604160045260246000fd5b610a27826109de565b810181811067ffffffffffffffff82111715610a4657610a456109ef565b5b80604052505050565b6000610a5961089c565b9050610a658282610a1e565b919050565b600067ffffffffffffffff821115610a8557610a846109ef565b5b610a8e826109de565b9050602081019050919050565b82818337600083830152505050565b6000610abd610ab884610a6a565b610a4f565b905082815260208101848484011115610ad957610ad86109d9565b5b610ae4848285610a9b565b509392505050565b600082601f830112610b0157610b006109d4565b5b8135610b11848260208601610aaa565b91505092915050565b600060208284031215610b3057610b2f6108a6565b5b600082013567ffffffffffffffff811115610b4e57610b4d6108ab565b5b610b5a84828501610aec565b91505092915050565b610b6c816108b0565b82525050565b6000602082019050610b876000830184610b63565b92915050565b600081519050919050565b600082825260208201905092915050565b60005b83811015610bc7578082015181840152602081019050610bac565b60008484015250505050565b6000610bde82610b8d565b610be88185610b98565b9350610bf8818560208601610ba9565b610c01816109de565b840191505092915050565b6000606082019050610c216000830186610b63565b8181036020830152610c338185610bd3565b9050610c426040830184610b63565b949350505050565b600081519050919050565b600082825260208201905092915050565b6000819050602082019050919050565b600082825260208201905092915050565b6000610c9282610b8d565b610c9c8185610c76565b9350610cac818560208601610ba9565b610cb5816109de565b840191505092915050565b6000610ccc8383610c87565b905092915050565b6000602082019050919050565b6000610cec82610c4a565b610cf68185610c55565b935083602082028501610d0885610c66565b8060005b85811015610d445784840389528151610d258582610cc0565b9450610d3083610cd4565b925060208a01995050600181019050610d0c565b50829750879550505050505092915050565b600081519050919050565b600082825260208201905092915050565b6000819050602082019050919050565b610d8b816108b0565b82525050565b6000610d9d8383610d82565b60208301905092915050565b6000602082019050919050565b6000610dc182610d56565b610dcb8185610d61565b9350610dd683610d72565b8060005b83811015610e07578151610dee8882610d91565b9750610df983610da9565b925050600181019050610dda565b5085935050505092915050565b60006040820190508181036000830152610e2e8185610ce1565b90508181036020830152610e428184610db6565b90509392505050565b7f416c726561647920766f74656400000000000000000000000000000000000000600082015250565b6000610e81600d83610b98565b9150610e8c82610e4b565b602082019050919050565b60006020820190508181036000830152610eb081610e74565b9050919050565b7f496e76616c6964206d6f76696520494400000000000000000000000000000000600082015250565b6000610eed601083610b98565b9150610ef882610eb7565b602082019050919050565b60006020820190508181036000830152610f1c81610ee0565b9050919050565b7f4e487b7100000000000000000000000000000000000000000000000000000000600052603260045260246000fd5b7f4e487b7100000000000000000000000000000000000000000000000000000000600052601160045260246000fd5b6000610f8c826108b0565b91507fffffffffffffffffffffffffffffffffffffffffffffffffffffffffffffffff8203610fbe57610fbd610f52565b5b600182019050919050565b7f4e487b7100000000000000000000000000000000000000000000000000000000600052602260045260246000fd5b6000600282049050600182168061101057607f821691505b60208210810361102357611022610fc9565b5b50919050565b7f4964206e6f7420666f756e640000000000000000000000000000000000000000600082015250565b600061105f600c83610b98565b915061106a82611029565b602082019050919050565b6000602082019050818103600083015261108e81611052565b9050919050565b6000819050919050565b6110b06110ab826108b0565b611095565b82525050565b60006110c2828461109f565b60208201915081905092915050565b7f4e487b7100000000000000000000000000000000000000000000000000000000600052601260045260246000fd5b600061110b826108b0565b9150611116836108b0565b925082611126576111256110d1565b5b82820690509291505056fea26469706673582212207c44f0a28b9a4691df5f0232a0f881a29ac6f01b1e1b4d53c8062fd1fee0b5a764736f6c634300081c0033",
  "linkReferences": {},
  "deployedLinkReferences": {}
}