{"contracts/Voting.sol":{"MovieVoting":{"abi":[{"inputs":[{"internalType":"string[]","name":"_movieNames","type":"string[]"}],"stateMutability":"nonpayable","type":"constructor"},{"anonymous":false,"inputs":[{"indexed":false,"internalType":"uint256","name":"movieId","type":"uint256"}],"name":"Voted","type":"event"},{"inputs":[],"name":"generateRandomNumber","outputs":[{"internalType":"uint256","name":"","type":"uint256"}],"stateMutability":"nonpayable","type":"function"},{"inputs":[],"name":"getAllVotes","outputs":[{"internalType":"string[]","name":"","type":"string[]"},{"internalType":"uint256[]","name":"","type":"uint256[]"}],"stateMutability":"view","type":"function"},{"inputs":[{"internalType":"string","name":"_movieName","type":"string"}],"name":"getMovieIdByName","outputs":[{"internalType":"uint256","name":"","type":"uint256"}],"stateMutability":"view","type":"function"},{"inputs":[],"name":"getMoviesCount","outputs":[{"internalType":"uint256","name":"","type":"uint256"}],"stateMutability":"view","type":"function"},{"inputs":[{"internalType":"uint256","name":"_id","type":"uint256"}],"name":"getVotesByMovieId","outputs":[{"internalType":"uint256","name":"","type":"uint256"}],"stateMutability":"view","type":"function"},{"inputs":[{"internalType":"address","name":"","type":"address"}],"name":"hasVoted","outputs":[{"internalType":"bool","name":"","type":"bool"}],"stateMutability":"view","type":"function"},{"inputs":[{"internalType":"uint256","name":"","type":"uint256"}],"name":"movies","outputs":[{"internalType":"uint256","name":"id","type":"uint256"},{"internalType":"string","name":"name","type":"string"},{"internalType":"uint256","name":"voteCount","type":"uint256"}],"stateMutability":"view","type":"function"},{"inputs":[{"internalType":"uint256","name":"_movieId","type":"uint256"}],"name":"vote","outputs":[],"stateMutability":"nonpayable","type":"function"}],"evm":{"bytecode":{"linkReferences":{},"object":"608060405260196002553480156200001657600080fd5b5060405162001fb538038062001fb583398181016040528101906200003c919062000517565b62000058674316bdd50f255f5f60c01b6200018b60201b60201c565b6200007467958753ac421269da60c01b6200018b60201b60201c565b6200009067569b78d5564834e360c01b6200018b60201b60201c565b60005b81518110156200018357620000b9679f1d8c282222b12060c01b6200018b60201b60201c565b620000d567bdb5508043afbc1e60c01b6200018b60201b60201c565b60006040518060600160405280838152602001848481518110620000fe57620000fd62000568565b5b602002602001015181526020016200011b6200018e60201b60201c565b8152509080600181540180825580915050600190039060005260206000209060030201600090919091909150600082015181600001556020820151816001019081620001689190620007e2565b50604082015181600201555050808060010191505062000093565b505062000972565b50565b6000620001ac6789c367da073369a860c01b6200018b60201b60201c565b620001c86732f1d287733228c160c01b6200018b60201b60201c565b620001e467bce102b6fe9fe8ea60c01b6200018b60201b60201c565b6000600254604051602001620001fb9190620008ee565b6040516020818303038152906040528051906020012060001c9050620002326751a7cb350e40d57460c01b6200018b60201b60201c565b6064816200024191906200093a565b6002819055506200026367fdef11136959bff860c01b6200018b60201b60201c565b6200027f672d14a1147f8d47c660c01b6200018b60201b60201c565b60025491505090565b6000604051905090565b600080fd5b600080fd5b600080fd5b6000601f19601f8301169050919050565b7f4e487b7100000000000000000000000000000000000000000000000000000000600052604160045260246000fd5b620002ec82620002a1565b810181811067ffffffffffffffff821117156200030e576200030d620002b2565b5b80604052505050565b60006200032362000288565b9050620003318282620002e1565b919050565b600067ffffffffffffffff821115620003545762000353620002b2565b5b602082029050602081019050919050565b600080fd5b600080fd5b600067ffffffffffffffff8211156200038d576200038c620002b2565b5b6200039882620002a1565b9050602081019050919050565b60005b83811015620003c5578082015181840152602081019050620003a8565b60008484015250505050565b6000620003e8620003e2846200036f565b62000317565b9050828152602081018484840111156200040757620004066200036a565b5b62000414848285620003a5565b509392505050565b600082601f8301126200043457620004336200029c565b5b815162000446848260208601620003d1565b91505092915050565b600062000466620004608462000336565b62000317565b905080838252602082019050602084028301858111156200048c576200048b62000365565b5b835b81811015620004da57805167ffffffffffffffff811115620004b557620004b46200029c565b5b808601620004c489826200041c565b855260208501945050506020810190506200048e565b5050509392505050565b600082601f830112620004fc57620004fb6200029c565b5b81516200050e8482602086016200044f565b91505092915050565b60006020828403121562000530576200052f62000292565b5b600082015167ffffffffffffffff81111562000551576200055062000297565b5b6200055f84828501620004e4565b91505092915050565b7f4e487b7100000000000000000000000000000000000000000000000000000000600052603260045260246000fd5b600081519050919050565b7f4e487b7100000000000000000000000000000000000000000000000000000000600052602260045260246000fd5b60006002820490506001821680620005ea57607f821691505b6020821081036200060057620005ff620005a2565b5b50919050565b60008190508160005260206000209050919050565b60006020601f8301049050919050565b600082821b905092915050565b6000600883026200066a7fffffffffffffffffffffffffffffffffffffffffffffffffffffffffffffffff826200062b565b6200067686836200062b565b95508019841693508086168417925050509392505050565b6000819050919050565b6000819050919050565b6000620006c3620006bd620006b7846200068e565b62000698565b6200068e565b9050919050565b6000819050919050565b620006df83620006a2565b620006f7620006ee82620006ca565b84845462000638565b825550505050565b600090565b6200070e620006ff565b6200071b818484620006d4565b505050565b5b8181101562000743576200073760008262000704565b60018101905062000721565b5050565b601f82111562000792576200075c8162000606565b62000767846200061b565b8101602085101562000777578190505b6200078f62000786856200061b565b83018262000720565b50505b505050565b600082821c905092915050565b6000620007b76000198460080262000797565b1980831691505092915050565b6000620007d28383620007a4565b9150826002028217905092915050565b620007ed8262000597565b67ffffffffffffffff811115620008095762000808620002b2565b5b620008158254620005d1565b6200082282828562000747565b600060209050601f8311600181146200085a576000841562000845578287015190505b620008518582620007c4565b865550620008c1565b601f1984166200086a8662000606565b60005b8281101562000894578489015182556001820191506020850194506020810190506200086d565b86831015620008b45784890151620008b0601f891682620007a4565b8355505b6001600288020188555050505b505050505050565b6000819050919050565b620008e8620008e2826200068e565b620008c9565b82525050565b6000620008fc8284620008d3565b60208201915081905092915050565b7f4e487b7100000000000000000000000000000000000000000000000000000000600052601260045260246000fd5b600062000947826200068e565b915062000954836200068e565b9250826200096757620009666200090b565b5b828206905092915050565b61163380620009826000396000f3fe608060405234801561001057600080fd5b50600436106100885760003560e01c806341aa389d1161005b57806341aa389d1461013b578063773a11541461016b578063851b6ef214610189578063e20da8e0146101a857610088565b80630121b93f1461008d57806309eef43e146100a95780632ed4bccc146100d9578063404ebf6c14610109575b600080fd5b6100a760048036038101906100a29190610db2565b6101c6565b005b6100c360048036038101906100be9190610e3d565b61046a565b6040516100d09190610e85565b60405180910390f35b6100f360048036038101906100ee9190610fe6565b61048a565b604051610100919061103e565b60405180910390f35b610123600480360381019061011e9190610db2565b610868565b604051610132939291906110d8565b60405180910390f35b61015560048036038101906101509190610db2565b61092a565b604051610162919061103e565b60405180910390f35b610173610995565b604051610180919061103e565b60405180910390f35b610191610a5b565b60405161019f9291906112e0565b60405180910390f35b6101b0610d1c565b6040516101bd919061103e565b60405180910390f35b6101da671d734c5ed274f45d60c01b610d65565b6101ee6756204261333e5c0c60c01b610d65565b61020267addab6827fe9a66060c01b610d65565b610216672711f06205657ac860c01b610d65565b600160003373ffffffffffffffffffffffffffffffffffffffff1673ffffffffffffffffffffffffffffffffffffffff16815260200190815260200160002060009054906101000a900460ff16156102a3576040517f08c379a000000000000000000000000000000000000000000000000000000000815260040161029a90611363565b60405180910390fd5b6102b7674b22e9678d99fada60c01b610d65565b6102cb67780560abf26ccafe60c01b610d65565b6102df67eb4a570bb3c69b2760c01b610d65565b6102f36765aecee20950b5ab60c01b610d65565b600080549050811061033a576040517f08c379a0000000000000000000000000000000000000000000000000000000008152600401610331906113cf565b60405180910390fd5b61034e679fee3b01ef696da560c01b610d65565b61036267674ff3ab81cfb18660c01b610d65565b60008181548110610376576103756113ef565b5b906000526020600020906003020160020160008154809291906103989061144d565b91905055506103b1671b1a8b62ff59e62760c01b610d65565b60018060003373ffffffffffffffffffffffffffffffffffffffff1673ffffffffffffffffffffffffffffffffffffffff16815260200190815260200160002060006101000a81548160ff02191690831515021790555061041c6791482bd10ce8c1d760c01b610d65565b610430672412d5f01ad6eed360c01b610d65565b7f7f511e347bf51eed3be100b3194247d5207f05f3b33de7d31e3e8ee73199a0498160405161045f919061103e565b60405180910390a150565b60016020528060005260406000206000915054906101000a900460ff1681565b60006104a067c50de509df4e243160c01b610d65565b6104b467017118c18770424860c01b610d65565b6104c867696f8b6e2bd3a9c560c01b610d65565b60005b6000805490508110156107ff576104ec672af55b9f8247140e60c01b610d65565b6105006718b79493bbebdbeb60c01b610d65565b825160008281548110610516576105156113ef565b5b90600052602060002090600302016001018054610532906114c4565b9050146105665761054d673793cff76c87e5db60c01b610d65565b61056167a828b2049eb39e0860c01b610d65565b6107f2565b61057a67228372c3fb2c743160c01b610d65565b61058e677fd59da226e5a30460c01b610d65565b6105a2678af991b6943ef3f860c01b610d65565b6000600190506105bc67c471f339b4527a1260c01b610d65565b6105d067b7282d07cb4250b060c01b610d65565b60005b8451811015610756576105f067690358fcff61962060c01b610d65565b6106046765483edab7ef5f7060c01b610d65565b848181518110610617576106166113ef565b5b602001015160f81c60f81b7effffffffffffffffffffffffffffffffffffffffffffffffffffffffffffff191660008481548110610658576106576113ef565b5b9060005260206000209060030201600101828154610675906114c4565b8110610684576106836113ef565b5b8154600116156106a35790600052602060002090602091828204019190065b9054901a7f0100000000000000000000000000000000000000000000000000000000000000027effffffffffffffffffffffffffffffffffffffffffffffffffffffffffffff19161461073557610704675caa8028eca4e20460c01b610d65565b610718679f0b418059d7d15260c01b610d65565b6000915061073067147bb76671a14d1960c01b610d65565b610756565b61074967fa4839e0784d122060c01b610d65565b80806001019150506105d3565b5061076b670386b2c01afe444c60c01b610d65565b61077f670976200cff63d73860c01b610d65565b80156107dc57610799673caa95df37a1b57f60c01b610d65565b6107ad67a2788205a4f91c7860c01b610d65565b600082815481106107c1576107c06113ef565b5b90600052602060002090600302016000015492505050610863565b6107f067b182a55cca98e1b960c01b610d65565b505b80806001019150506104cb565b5061081467986310d57e7fc74260c01b610d65565b6108286796cd530d0f96535160c01b610d65565b6040517f08c379a000000000000000000000000000000000000000000000000000000000815260040161085a90611541565b60405180910390fd5b919050565b6000818154811061087857600080fd5b90600052602060002090600302016000915090508060000154908060010180546108a1906114c4565b80601f01602080910402602001604051908101604052809291908181526020018280546108cd906114c4565b801561091a5780601f106108ef5761010080835404028352916020019161091a565b820191906000526020600020905b8154815290600101906020018083116108fd57829003601f168201915b5050505050908060020154905083565b600061094067eac87fa053e0b3a460c01b610d65565b610954672a1029daf7f9f4e560c01b610d65565b61096867910b26e7d1fac47c60c01b610d65565b6000828154811061097c5761097b6113ef565b5b9060005260206000209060030201600201549050919050565b60006109ab6789c367da073369a860c01b610d65565b6109bf6732f1d287733228c160c01b610d65565b6109d367bce102b6fe9fe8ea60c01b610d65565b60006002546040516020016109e89190611582565b6040516020818303038152906040528051906020012060001c9050610a176751a7cb350e40d57460c01b610d65565b606481610a2491906115cc565b600281905550610a3e67fdef11136959bff860c01b610d65565b610a52672d14a1147f8d47c660c01b610d65565b60025491505090565b606080610a7267d6c9b85c2941e82360c01b610d65565b610a86678a9844b7a93d29bb60c01b610d65565b610a9a67465ef720552985ea60c01b610d65565b6000808054905067ffffffffffffffff811115610aba57610ab9610ebb565b5b604051908082528060200260200182016040528015610aed57816020015b6060815260200190600190039081610ad85790505b509050610b046727c78d7e4389f2cb60c01b610d65565b610b186775b385b41a8b3e4b60c01b610d65565b6000808054905067ffffffffffffffff811115610b3857610b37610ebb565b5b604051908082528060200260200182016040528015610b665781602001602082028036833780820191505090505b509050610b7d67fdae685603f755c860c01b610d65565b610b916734d2c8e85309ac9e60c01b610d65565b60005b600080549050811015610ce757610bb5679c87d1270e6f7dab60c01b610d65565b60008181548110610bc957610bc86113ef565b5b90600052602060002090600302016001018054610be5906114c4565b80601f0160208091040260200160405190810160405280929190818152602001828054610c11906114c4565b8015610c5e5780601f10610c3357610100808354040283529160200191610c5e565b820191906000526020600020905b815481529060010190602001808311610c4157829003601f168201915b5050505050838281518110610c7657610c756113ef565b5b6020026020010181905250610c956721440ad071e28d8d60c01b610d65565b60008181548110610ca957610ca86113ef565b5b906000526020600020906003020160020154828281518110610cce57610ccd6113ef565b5b6020026020010181815250508080600101915050610b94565b50610cfc67fe741ecce307a24360c01b610d65565b610d1067baf6a981a03af72a60c01b610d65565b81819350935050509091565b6000610d326737f86b93b38ead0060c01b610d65565b610d4667da4571d438ea151060c01b610d65565b610d5a67a85ab1aae252a60a60c01b610d65565b600080549050905090565b50565b6000604051905090565b600080fd5b600080fd5b6000819050919050565b610d8f81610d7c565b8114610d9a57600080fd5b50565b600081359050610dac81610d86565b92915050565b600060208284031215610dc857610dc7610d72565b5b6000610dd684828501610d9d565b91505092915050565b600073ffffffffffffffffffffffffffffffffffffffff82169050919050565b6000610e0a82610ddf565b9050919050565b610e1a81610dff565b8114610e2557600080fd5b50565b600081359050610e3781610e11565b92915050565b600060208284031215610e5357610e52610d72565b5b6000610e6184828501610e28565b91505092915050565b60008115159050919050565b610e7f81610e6a565b82525050565b6000602082019050610e9a6000830184610e76565b92915050565b600080fd5b600080fd5b6000601f19601f8301169050919050565b7f4e487b7100000000000000000000000000000000000000000000000000000000600052604160045260246000fd5b610ef382610eaa565b810181811067ffffffffffffffff82111715610f1257610f11610ebb565b5b80604052505050565b6000610f25610d68565b9050610f318282610eea565b919050565b600067ffffffffffffffff821115610f5157610f50610ebb565b5b610f5a82610eaa565b9050602081019050919050565b82818337600083830152505050565b6000610f89610f8484610f36565b610f1b565b905082815260208101848484011115610fa557610fa4610ea5565b5b610fb0848285610f67565b509392505050565b600082601f830112610fcd57610fcc610ea0565b5b8135610fdd848260208601610f76565b91505092915050565b600060208284031215610ffc57610ffb610d72565b5b600082013567ffffffffffffffff81111561101a57611019610d77565b5b61102684828501610fb8565b91505092915050565b61103881610d7c565b82525050565b6000602082019050611053600083018461102f565b92915050565b600081519050919050565b600082825260208201905092915050565b60005b83811015611093578082015181840152602081019050611078565b60008484015250505050565b60006110aa82611059565b6110b48185611064565b93506110c4818560208601611075565b6110cd81610eaa565b840191505092915050565b60006060820190506110ed600083018661102f565b81810360208301526110ff818561109f565b905061110e604083018461102f565b949350505050565b600081519050919050565b600082825260208201905092915050565b6000819050602082019050919050565b600082825260208201905092915050565b600061115e82611059565b6111688185611142565b9350611178818560208601611075565b61118181610eaa565b840191505092915050565b60006111988383611153565b905092915050565b6000602082019050919050565b60006111b882611116565b6111c28185611121565b9350836020820285016111d485611132565b8060005b8581101561121057848403895281516111f1858261118c565b94506111fc836111a0565b925060208a019950506001810190506111d8565b50829750879550505050505092915050565b600081519050919050565b600082825260208201905092915050565b6000819050602082019050919050565b61125781610d7c565b82525050565b6000611269838361124e565b60208301905092915050565b6000602082019050919050565b600061128d82611222565b611297818561122d565b93506112a28361123e565b8060005b838110156112d35781516112ba888261125d565b97506112c583611275565b9250506001810190506112a6565b5085935050505092915050565b600060408201905081810360008301526112fa81856111ad565b9050818103602083015261130e8184611282565b90509392505050565b7f416c726561647920766f74656400000000000000000000000000000000000000600082015250565b600061134d600d83611064565b915061135882611317565b602082019050919050565b6000602082019050818103600083015261137c81611340565b9050919050565b7f496e76616c6964206d6f76696520494400000000000000000000000000000000600082015250565b60006113b9601083611064565b91506113c482611383565b602082019050919050565b600060208201905081810360008301526113e8816113ac565b9050919050565b7f4e487b7100000000000000000000000000000000000000000000000000000000600052603260045260246000fd5b7f4e487b7100000000000000000000000000000000000000000000000000000000600052601160045260246000fd5b600061145882610d7c565b91507fffffffffffffffffffffffffffffffffffffffffffffffffffffffffffffffff820361148a5761148961141e565b5b600182019050919050565b7f4e487b7100000000000000000000000000000000000000000000000000000000600052602260045260246000fd5b600060028204905060018216806114dc57607f821691505b6020821081036114ef576114ee611495565b5b50919050565b7f4964206e6f7420666f756e640000000000000000000000000000000000000000600082015250565b600061152b600c83611064565b9150611536826114f5565b602082019050919050565b6000602082019050818103600083015261155a8161151e565b9050919050565b6000819050919050565b61157c61157782610d7c565b611561565b82525050565b600061158e828461156b565b60208201915081905092915050565b7f4e487b7100000000000000000000000000000000000000000000000000000000600052601260045260246000fd5b60006115d782610d7c565b91506115e283610d7c565b9250826115f2576115f161159d565b5b82820690509291505056fea2646970667358221220a8e43385569fe3f7e6e063c3466e67f91315c6c97190e200c7218ad1c14b716e64736f6c63430008180033","opcodes":"PUSH1 0x80 PUSH1 0x40 MSTORE PUSH1 0x19 PUSH1 0x2 SSTORE CALLVALUE DUP1 ISZERO PUSH3 0x16 JUMPI PUSH1 0x0 DUP1 REVERT JUMPDEST POP PUSH1 0x40 MLOAD PUSH3 0x1FB5 CODESIZE SUB DUP1 PUSH3 0x1FB5 DUP4 CODECOPY DUP2 DUP2 ADD PUSH1 0x40 MSTORE DUP2 ADD SWAP1 PUSH3 0x3C SWAP2 SWAP1 PUSH3 0x517 JUMP JUMPDEST PUSH3 0x58 PUSH8 0x4316BDD50F255F5F PUSH1 0xC0 SHL PUSH3 0x18B PUSH1 0x20 SHL PUSH1 0x20 SHR JUMP JUMPDEST PUSH3 0x74 PUSH8 0x958753AC421269DA PUSH1 0xC0 SHL PUSH3 0x18B PUSH1 0x20 SHL PUSH1 0x20 SHR JUMP JUMPDEST PUSH3 0x90 PUSH8 0x569B78D5564834E3 PUSH1 0xC0 SHL PUSH3 0x18B PUSH1 0x20 SHL PUSH1 0x20 SHR JUMP JUMPDEST PUSH1 0x0 JUMPDEST DUP2 MLOAD DUP2 LT ISZERO PUSH3 0x183 JUMPI PUSH3 0xB9 PUSH8 0x9F1D8C282222B120 PUSH1 0xC0 SHL PUSH3 0x18B PUSH1 0x20 SHL PUSH1 0x20 SHR JUMP JUMPDEST PUSH3 0xD5 PUSH8 0xBDB5508043AFBC1E PUSH1 0xC0 SHL PUSH3 0x18B PUSH1 0x20 SHL PUSH1 0x20 SHR JUMP JUMPDEST PUSH1 0x0 PUSH1 0x40 MLOAD DUP1 PUSH1 0x60 ADD PUSH1 0x40 MSTORE DUP1 DUP4 DUP2 MSTORE PUSH1 0x20 ADD DUP5 DUP5 DUP2 MLOAD DUP2 LT PUSH3 0xFE JUMPI PUSH3 0xFD PUSH3 0x568 JUMP JUMPDEST JUMPDEST PUSH1 0x20 MUL PUSH1 0x20 ADD ADD MLOAD DUP2 MSTORE PUSH1 0x20 ADD PUSH3 0x11B PUSH3 0x18E PUSH1 0x20 SHL PUSH1 0x20 SHR JUMP JUMPDEST DUP2 MSTORE POP SWAP1 DUP1 PUSH1 0x1 DUP2 SLOAD ADD DUP1 DUP3 SSTORE DUP1 SWAP2 POP POP PUSH1 0x1 SWAP1 SUB SWAP1 PUSH1 0x0 MSTORE PUSH1 0x20 PUSH1 0x0 KECCAK256 SWAP1 PUSH1 0x3 MUL ADD PUSH1 0x0 SWAP1 SWAP2 SWAP1 SWAP2 SWAP1 SWAP2 POP PUSH1 0x0 DUP3 ADD MLOAD DUP2 PUSH1 0x0 ADD SSTORE PUSH1 0x20 DUP3 ADD MLOAD DUP2 PUSH1 0x1 ADD SWAP1 DUP2 PUSH3 0x168 SWAP2 SWAP1 PUSH3 0x7E2 JUMP JUMPDEST POP PUSH1 0x40 DUP3 ADD MLOAD DUP2 PUSH1 0x2 ADD SSTORE POP POP DUP1 DUP1 PUSH1 0x1 ADD SWAP2 POP POP PUSH3 0x93 JUMP JUMPDEST POP POP PUSH3 0x972 JUMP JUMPDEST POP JUMP JUMPDEST PUSH1 0x0 PUSH3 0x1AC PUSH8 0x89C367DA073369A8 PUSH1 0xC0 SHL PUSH3 0x18B PUSH1 0x20 SHL PUSH1 0x20 SHR JUMP JUMPDEST PUSH3 0x1C8 PUSH8 0x32F1D287733228C1 PUSH1 0xC0 SHL PUSH3 0x18B PUSH1 0x20 SHL PUSH1 0x20 SHR JUMP JUMPDEST PUSH3 0x1E4 PUSH8 0xBCE102B6FE9FE8EA PUSH1 0xC0 SHL PUSH3 0x18B PUSH1 0x20 SHL PUSH1 0x20 SHR JUMP JUMPDEST PUSH1 0x0 PUSH1 0x2 SLOAD PUSH1 0x40 MLOAD PUSH1 0x20 ADD PUSH3 0x1FB SWAP2 SWAP1 PUSH3 0x8EE JUMP JUMPDEST PUSH1 0x40 MLOAD PUSH1 0x20 DUP2 DUP4 SUB SUB DUP2 MSTORE SWAP1 PUSH1 0x40 MSTORE DUP1 MLOAD SWAP1 PUSH1 0x20 ADD KECCAK256 PUSH1 0x0 SHR SWAP1 POP PUSH3 0x232 PUSH8 0x51A7CB350E40D574 PUSH1 0xC0 SHL PUSH3 0x18B PUSH1 0x20 SHL PUSH1 0x20 SHR JUMP JUMPDEST PUSH1 0x64 DUP2 PUSH3 0x241 SWAP2 SWAP1 PUSH3 0x93A JUMP JUMPDEST PUSH1 0x2 DUP2 SWAP1 SSTORE POP PUSH3 0x263 PUSH8 0xFDEF11136959BFF8 PUSH1 0xC0 SHL PUSH3 0x18B PUSH1 0x20 SHL PUSH1 0x20 SHR JUMP JUMPDEST PUSH3 0x27F PUSH8 0x2D14A1147F8D47C6 PUSH1 0xC0 SHL PUSH3 0x18B PUSH1 0x20 SHL PUSH1 0x20 SHR JUMP JUMPDEST PUSH1 0x2 SLOAD SWAP2 POP POP SWAP1 JUMP JUMPDEST PUSH1 0x0 PUSH1 0x40 MLOAD SWAP1 POP SWAP1 JUMP JUMPDEST PUSH1 0x0 DUP1 REVERT JUMPDEST PUSH1 0x0 DUP1 REVERT JUMPDEST PUSH1 0x0 DUP1 REVERT JUMPDEST PUSH1 0x0 PUSH1 0x1F NOT PUSH1 0x1F DUP4 ADD AND SWAP1 POP SWAP2 SWAP1 POP JUMP JUMPDEST PUSH32 0x4E487B7100000000000000000000000000000000000000000000000000000000 PUSH1 0x0 MSTORE PUSH1 0x41 PUSH1 0x4 MSTORE PUSH1 0x24 PUSH1 0x0 REVERT JUMPDEST PUSH3 0x2EC DUP3 PUSH3 0x2A1 JUMP JUMPDEST DUP2 ADD DUP2 DUP2 LT PUSH8 0xFFFFFFFFFFFFFFFF DUP3 GT OR ISZERO PUSH3 0x30E JUMPI PUSH3 0x30D PUSH3 0x2B2 JUMP JUMPDEST JUMPDEST DUP1 PUSH1 0x40 MSTORE POP POP POP JUMP JUMPDEST PUSH1 0x0 PUSH3 0x323 PUSH3 0x288 JUMP JUMPDEST SWAP1 POP PUSH3 0x331 DUP3 DUP3 PUSH3 0x2E1 JUMP JUMPDEST SWAP2 SWAP1 POP JUMP JUMPDEST PUSH1 0x0 PUSH8 0xFFFFFFFFFFFFFFFF DUP3 GT ISZERO PUSH3 0x354 JUMPI PUSH3 0x353 PUSH3 0x2B2 JUMP JUMPDEST JUMPDEST PUSH1 0x20 DUP3 MUL SWAP1 POP PUSH1 0x20 DUP2 ADD SWAP1 POP SWAP2 SWAP1 POP JUMP JUMPDEST PUSH1 0x0 DUP1 REVERT JUMPDEST PUSH1 0x0 DUP1 REVERT JUMPDEST PUSH1 0x0 PUSH8 0xFFFFFFFFFFFFFFFF DUP3 GT ISZERO PUSH3 0x38D JUMPI PUSH3 0x38C PUSH3 0x2B2 JUMP JUMPDEST JUMPDEST PUSH3 0x398 DUP3 PUSH3 0x2A1 JUMP JUMPDEST SWAP1 POP PUSH1 0x20 DUP2 ADD SWAP1 POP SWAP2 SWAP1 POP JUMP JUMPDEST PUSH1 0x0 JUMPDEST DUP4 DUP2 LT ISZERO PUSH3 0x3C5 JUMPI DUP1 DUP3 ADD MLOAD DUP2 DUP5 ADD MSTORE PUSH1 0x20 DUP2 ADD SWAP1 POP PUSH3 0x3A8 JUMP JUMPDEST PUSH1 0x0 DUP5 DUP5 ADD MSTORE POP POP POP POP JUMP JUMPDEST PUSH1 0x0 PUSH3 0x3E8 PUSH3 0x3E2 DUP5 PUSH3 0x36F JUMP JUMPDEST PUSH3 0x317 JUMP JUMPDEST SWAP1 POP DUP3 DUP2 MSTORE PUSH1 0x20 DUP2 ADD DUP5 DUP5 DUP5 ADD GT ISZERO PUSH3 0x407 JUMPI PUSH3 0x406 PUSH3 0x36A JUMP JUMPDEST JUMPDEST PUSH3 0x414 DUP5 DUP3 DUP6 PUSH3 0x3A5 JUMP JUMPDEST POP SWAP4 SWAP3 POP POP POP JUMP JUMPDEST PUSH1 0x0 DUP3 PUSH1 0x1F DUP4 ADD SLT PUSH3 0x434 JUMPI PUSH3 0x433 PUSH3 0x29C JUMP JUMPDEST JUMPDEST DUP2 MLOAD PUSH3 0x446 DUP5 DUP3 PUSH1 0x20 DUP7 ADD PUSH3 0x3D1 JUMP JUMPDEST SWAP2 POP POP SWAP3 SWAP2 POP POP JUMP JUMPDEST PUSH1 0x0 PUSH3 0x466 PUSH3 0x460 DUP5 PUSH3 0x336 JUMP JUMPDEST PUSH3 0x317 JUMP JUMPDEST SWAP1 POP DUP1 DUP4 DUP3 MSTORE PUSH1 0x20 DUP3 ADD SWAP1 POP PUSH1 0x20 DUP5 MUL DUP4 ADD DUP6 DUP2 GT ISZERO PUSH3 0x48C JUMPI PUSH3 0x48B PUSH3 0x365 JUMP JUMPDEST JUMPDEST DUP4 JUMPDEST DUP2 DUP2 LT ISZERO PUSH3 0x4DA JUMPI DUP1 MLOAD PUSH8 0xFFFFFFFFFFFFFFFF DUP2 GT ISZERO PUSH3 0x4B5 JUMPI PUSH3 0x4B4 PUSH3 0x29C JUMP JUMPDEST JUMPDEST DUP1 DUP7 ADD PUSH3 0x4C4 DUP10 DUP3 PUSH3 0x41C JUMP JUMPDEST DUP6 MSTORE PUSH1 0x20 DUP6 ADD SWAP5 POP POP POP PUSH1 0x20 DUP2 ADD SWAP1 POP PUSH3 0x48E JUMP JUMPDEST POP POP POP SWAP4 SWAP3 POP POP POP JUMP JUMPDEST PUSH1 0x0 DUP3 PUSH1 0x1F DUP4 ADD SLT PUSH3 0x4FC JUMPI PUSH3 0x4FB PUSH3 0x29C JUMP JUMPDEST JUMPDEST DUP2 MLOAD PUSH3 0x50E DUP5 DUP3 PUSH1 0x20 DUP7 ADD PUSH3 0x44F JUMP JUMPDEST SWAP2 POP POP SWAP3 SWAP2 POP POP JUMP JUMPDEST PUSH1 0x0 PUSH1 0x20 DUP3 DUP5 SUB SLT ISZERO PUSH3 0x530 JUMPI PUSH3 0x52F PUSH3 0x292 JUMP JUMPDEST JUMPDEST PUSH1 0x0 DUP3 ADD MLOAD PUSH8 0xFFFFFFFFFFFFFFFF DUP2 GT ISZERO PUSH3 0x551 JUMPI PUSH3 0x550 PUSH3 0x297 JUMP JUMPDEST JUMPDEST PUSH3 0x55F DUP5 DUP3 DUP6 ADD PUSH3 0x4E4 JUMP JUMPDEST SWAP2 POP POP SWAP3 SWAP2 POP POP JUMP JUMPDEST PUSH32 0x4E487B7100000000000000000000000000000000000000000000000000000000 PUSH1 0x0 MSTORE PUSH1 0x32 PUSH1 0x4 MSTORE PUSH1 0x24 PUSH1 0x0 REVERT JUMPDEST PUSH1 0x0 DUP2 MLOAD SWAP1 POP SWAP2 SWAP1 POP JUMP JUMPDEST PUSH32 0x4E487B7100000000000000000000000000000000000000000000000000000000 PUSH1 0x0 MSTORE PUSH1 0x22 PUSH1 0x4 MSTORE PUSH1 0x24 PUSH1 0x0 REVERT JUMPDEST PUSH1 0x0 PUSH1 0x2 DUP3 DIV SWAP1 POP PUSH1 0x1 DUP3 AND DUP1 PUSH3 0x5EA JUMPI PUSH1 0x7F DUP3 AND SWAP2 POP JUMPDEST PUSH1 0x20 DUP3 LT DUP2 SUB PUSH3 0x600 JUMPI PUSH3 0x5FF PUSH3 0x5A2 JUMP JUMPDEST JUMPDEST POP SWAP2 SWAP1 POP JUMP JUMPDEST PUSH1 0x0 DUP2 SWAP1 POP DUP2 PUSH1 0x0 MSTORE PUSH1 0x20 PUSH1 0x0 KECCAK256 SWAP1 POP SWAP2 SWAP1 POP JUMP JUMPDEST PUSH1 0x0 PUSH1 0x20 PUSH1 0x1F DUP4 ADD DIV SWAP1 POP SWAP2 SWAP1 POP JUMP JUMPDEST PUSH1 0x0 DUP3 DUP3 SHL SWAP1 POP SWAP3 SWAP2 POP POP JUMP JUMPDEST PUSH1 0x0 PUSH1 0x8 DUP4 MUL PUSH3 0x66A PUSH32 0xFFFFFFFFFFFFFFFFFFFFFFFFFFFFFFFFFFFFFFFFFFFFFFFFFFFFFFFFFFFFFFFF DUP3 PUSH3 0x62B JUMP JUMPDEST PUSH3 0x676 DUP7 DUP4 PUSH3 0x62B JUMP JUMPDEST SWAP6 POP DUP1 NOT DUP5 AND SWAP4 POP DUP1 DUP7 AND DUP5 OR SWAP3 POP POP POP SWAP4 SWAP3 POP POP POP JUMP JUMPDEST PUSH1 0x0 DUP2 SWAP1 POP SWAP2 SWAP1 POP JUMP JUMPDEST PUSH1 0x0 DUP2 SWAP1 POP SWAP2 SWAP1 POP JUMP JUMPDEST PUSH1 0x0 PUSH3 0x6C3 PUSH3 0x6BD PUSH3 0x6B7 DUP5 PUSH3 0x68E JUMP JUMPDEST PUSH3 0x698 JUMP JUMPDEST PUSH3 0x68E JUMP JUMPDEST SWAP1 POP SWAP2 SWAP1 POP JUMP JUMPDEST PUSH1 0x0 DUP2 SWAP1 POP SWAP2 SWAP1 POP JUMP JUMPDEST PUSH3 0x6DF DUP4 PUSH3 0x6A2 JUMP JUMPDEST PUSH3 0x6F7 PUSH3 0x6EE DUP3 PUSH3 0x6CA JUMP JUMPDEST DUP5 DUP5 SLOAD PUSH3 0x638 JUMP JUMPDEST DUP3 SSTORE POP POP POP POP JUMP JUMPDEST PUSH1 0x0 SWAP1 JUMP JUMPDEST PUSH3 0x70E PUSH3 0x6FF JUMP JUMPDEST PUSH3 0x71B DUP2 DUP5 DUP5 PUSH3 0x6D4 JUMP JUMPDEST POP POP POP JUMP JUMPDEST JUMPDEST DUP2 DUP2 LT ISZERO PUSH3 0x743 JUMPI PUSH3 0x737 PUSH1 0x0 DUP3 PUSH3 0x704 JUMP JUMPDEST PUSH1 0x1 DUP2 ADD SWAP1 POP PUSH3 0x721 JUMP JUMPDEST POP POP JUMP JUMPDEST PUSH1 0x1F DUP3 GT ISZERO PUSH3 0x792 JUMPI PUSH3 0x75C DUP2 PUSH3 0x606 JUMP JUMPDEST PUSH3 0x767 DUP5 PUSH3 0x61B JUMP JUMPDEST DUP2 ADD PUSH1 0x20 DUP6 LT ISZERO PUSH3 0x777 JUMPI DUP2 SWAP1 POP JUMPDEST PUSH3 0x78F PUSH3 0x786 DUP6 PUSH3 0x61B JUMP JUMPDEST DUP4 ADD DUP3 PUSH3 0x720 JUMP JUMPDEST POP POP JUMPDEST POP POP POP JUMP JUMPDEST PUSH1 0x0 DUP3 DUP3 SHR SWAP1 POP SWAP3 SWAP2 POP POP JUMP JUMPDEST PUSH1 0x0 PUSH3 0x7B7 PUSH1 0x0 NOT DUP5 PUSH1 0x8 MUL PUSH3 0x797 JUMP JUMPDEST NOT DUP1 DUP4 AND SWAP2 POP POP SWAP3 SWAP2 POP POP JUMP JUMPDEST PUSH1 0x0 PUSH3 0x7D2 DUP4 DUP4 PUSH3 0x7A4 JUMP JUMPDEST SWAP2 POP DUP3 PUSH1 0x2 MUL DUP3 OR SWAP1 POP SWAP3 SWAP2 POP POP JUMP JUMPDEST PUSH3 0x7ED DUP3 PUSH3 0x597 JUMP JUMPDEST PUSH8 0xFFFFFFFFFFFFFFFF DUP2 GT ISZERO PUSH3 0x809 JUMPI PUSH3 0x808 PUSH3 0x2B2 JUMP JUMPDEST JUMPDEST PUSH3 0x815 DUP3 SLOAD PUSH3 0x5D1 JUMP JUMPDEST PUSH3 0x822 DUP3 DUP3 DUP6 PUSH3 0x747 JUMP JUMPDEST PUSH1 0x0 PUSH1 0x20 SWAP1 POP PUSH1 0x1F DUP4 GT PUSH1 0x1 DUP2 EQ PUSH3 0x85A JUMPI PUSH1 0x0 DUP5 ISZERO PUSH3 0x845 JUMPI DUP3 DUP8 ADD MLOAD SWAP1 POP JUMPDEST PUSH3 0x851 DUP6 DUP3 PUSH3 0x7C4 JUMP JUMPDEST DUP7 SSTORE POP PUSH3 0x8C1 JUMP JUMPDEST PUSH1 0x1F NOT DUP5 AND PUSH3 0x86A DUP7 PUSH3 0x606 JUMP JUMPDEST PUSH1 0x0 JUMPDEST DUP3 DUP2 LT ISZERO PUSH3 0x894 JUMPI DUP5 DUP10 ADD MLOAD DUP3 SSTORE PUSH1 0x1 DUP3 ADD SWAP2 POP PUSH1 0x20 DUP6 ADD SWAP5 POP PUSH1 0x20 DUP2 ADD SWAP1 POP PUSH3 0x86D JUMP JUMPDEST DUP7 DUP4 LT ISZERO PUSH3 0x8B4 JUMPI DUP5 DUP10 ADD MLOAD PUSH3 0x8B0 PUSH1 0x1F DUP10 AND DUP3 PUSH3 0x7A4 JUMP JUMPDEST DUP4 SSTORE POP JUMPDEST PUSH1 0x1 PUSH1 0x2 DUP9 MUL ADD DUP9 SSTORE POP POP POP JUMPDEST POP POP POP POP POP POP JUMP JUMPDEST PUSH1 0x0 DUP2 SWAP1 POP SWAP2 SWAP1 POP JUMP JUMPDEST PUSH3 0x8E8 PUSH3 0x8E2 DUP3 PUSH3 0x68E JUMP JUMPDEST PUSH3 0x8C9 JUMP JUMPDEST DUP3 MSTORE POP POP JUMP JUMPDEST PUSH1 0x0 PUSH3 0x8FC DUP3 DUP5 PUSH3 0x8D3 JUMP JUMPDEST PUSH1 0x20 DUP3 ADD SWAP2 POP DUP2 SWAP1 POP SWAP3 SWAP2 POP POP JUMP JUMPDEST PUSH32 0x4E487B7100000000000000000000000000000000000000000000000000000000 PUSH1 0x0 MSTORE PUSH1 0x12 PUSH1 0x4 MSTORE PUSH1 0x24 PUSH1 0x0 REVERT JUMPDEST PUSH1 0x0 PUSH3 0x947 DUP3 PUSH3 0x68E JUMP JUMPDEST SWAP2 POP PUSH3 0x954 DUP4 PUSH3 0x68E JUMP JUMPDEST SWAP3 POP DUP3 PUSH3 0x967 JUMPI PUSH3 0x966 PUSH3 0x90B JUMP JUMPDEST JUMPDEST DUP3 DUP3 MOD SWAP1 POP SWAP3 SWAP2 POP POP JUMP JUMPDEST PUSH2 0x1633 DUP1 PUSH3 0x982 PUSH1 0x0 CODECOPY PUSH1 0x0 RETURN INVALID PUSH1 0x80 PUSH1 0x40 MSTORE CALLVALUE DUP1 ISZERO PUSH2 0x10 JUMPI PUSH1 0x0 DUP1 REVERT JUMPDEST POP PUSH1 0x4 CALLDATASIZE LT PUSH2 0x88 JUMPI PUSH1 0x0 CALLDATALOAD PUSH1 0xE0 SHR DUP1 PUSH4 0x41AA389D GT PUSH2 0x5B JUMPI DUP1 PUSH4 0x41AA389D EQ PUSH2 0x13B JUMPI DUP1 PUSH4 0x773A1154 EQ PUSH2 0x16B JUMPI DUP1 PUSH4 0x851B6EF2 EQ PUSH2 0x189 JUMPI DUP1 PUSH4 0xE20DA8E0 EQ PUSH2 0x1A8 JUMPI PUSH2 0x88 JUMP JUMPDEST DUP1 PUSH4 0x121B93F EQ PUSH2 0x8D JUMPI DUP1 PUSH4 0x9EEF43E EQ PUSH2 0xA9 JUMPI DUP1 PUSH4 0x2ED4BCCC EQ PUSH2 0xD9 JUMPI DUP1 PUSH4 0x404EBF6C EQ PUSH2 0x109 JUMPI JUMPDEST PUSH1 0x0 DUP1 REVERT JUMPDEST PUSH2 0xA7 PUSH1 0x4 DUP1 CALLDATASIZE SUB DUP2 ADD SWAP1 PUSH2 0xA2 SWAP2 SWAP1 PUSH2 0xDB2 JUMP JUMPDEST PUSH2 0x1C6 JUMP JUMPDEST STOP JUMPDEST PUSH2 0xC3 PUSH1 0x4 DUP1 CALLDATASIZE SUB DUP2 ADD SWAP1 PUSH2 0xBE SWAP2 SWAP1 PUSH2 0xE3D JUMP JUMPDEST PUSH2 0x46A JUMP JUMPDEST PUSH1 0x40 MLOAD PUSH2 0xD0 SWAP2 SWAP1 PUSH2 0xE85 JUMP JUMPDEST PUSH1 0x40 MLOAD DUP1 SWAP2 SUB SWAP1 RETURN JUMPDEST PUSH2 0xF3 PUSH1 0x4 DUP1 CALLDATASIZE SUB DUP2 ADD SWAP1 PUSH2 0xEE SWAP2 SWAP1 PUSH2 0xFE6 JUMP JUMPDEST PUSH2 0x48A JUMP JUMPDEST PUSH1 0x40 MLOAD PUSH2 0x100 SWAP2 SWAP1 PUSH2 0x103E JUMP JUMPDEST PUSH1 0x40 MLOAD DUP1 SWAP2 SUB SWAP1 RETURN JUMPDEST PUSH2 0x123 PUSH1 0x4 DUP1 CALLDATASIZE SUB DUP2 ADD SWAP1 PUSH2 0x11E SWAP2 SWAP1 PUSH2 0xDB2 JUMP JUMPDEST PUSH2 0x868 JUMP JUMPDEST PUSH1 0x40 MLOAD PUSH2 0x132 SWAP4 SWAP3 SWAP2 SWAP1 PUSH2 0x10D8 JUMP JUMPDEST PUSH1 0x40 MLOAD DUP1 SWAP2 SUB SWAP1 RETURN JUMPDEST PUSH2 0x155 PUSH1 0x4 DUP1 CALLDATASIZE SUB DUP2 ADD SWAP1 PUSH2 0x150 SWAP2 SWAP1 PUSH2 0xDB2 JUMP JUMPDEST PUSH2 0x92A JUMP JUMPDEST PUSH1 0x40 MLOAD PUSH2 0x162 SWAP2 SWAP1 PUSH2 0x103E JUMP JUMPDEST PUSH1 0x40 MLOAD DUP1 SWAP2 SUB SWAP1 RETURN JUMPDEST PUSH2 0x173 PUSH2 0x995 JUMP JUMPDEST PUSH1 0x40 MLOAD PUSH2 0x180 SWAP2 SWAP1 PUSH2 0x103E JUMP JUMPDEST PUSH1 0x40 MLOAD DUP1 SWAP2 SUB SWAP1 RETURN JUMPDEST PUSH2 0x191 PUSH2 0xA5B JUMP JUMPDEST PUSH1 0x40 MLOAD PUSH2 0x19F SWAP3 SWAP2 SWAP1 PUSH2 0x12E0 JUMP JUMPDEST PUSH1 0x40 MLOAD DUP1 SWAP2 SUB SWAP1 RETURN JUMPDEST PUSH2 0x1B0 PUSH2 0xD1C JUMP JUMPDEST PUSH1 0x40 MLOAD PUSH2 0x1BD SWAP2 SWAP1 PUSH2 0x103E JUMP JUMPDEST PUSH1 0x40 MLOAD DUP1 SWAP2 SUB SWAP1 RETURN JUMPDEST PUSH2 0x1DA PUSH8 0x1D734C5ED274F45D PUSH1 0xC0 SHL PUSH2 0xD65 JUMP JUMPDEST PUSH2 0x1EE PUSH8 0x56204261333E5C0C PUSH1 0xC0 SHL PUSH2 0xD65 JUMP JUMPDEST PUSH2 0x202 PUSH8 0xADDAB6827FE9A660 PUSH1 0xC0 SHL PUSH2 0xD65 JUMP JUMPDEST PUSH2 0x216 PUSH8 0x2711F06205657AC8 PUSH1 0xC0 SHL PUSH2 0xD65 JUMP JUMPDEST PUSH1 0x1 PUSH1 0x0 CALLER PUSH20 0xFFFFFFFFFFFFFFFFFFFFFFFFFFFFFFFFFFFFFFFF AND PUSH20 0xFFFFFFFFFFFFFFFFFFFFFFFFFFFFFFFFFFFFFFFF AND DUP2 MSTORE PUSH1 0x20 ADD SWAP1 DUP2 MSTORE PUSH1 0x20 ADD PUSH1 0x0 KECCAK256 PUSH1 0x0 SWAP1 SLOAD SWAP1 PUSH2 0x100 EXP SWAP1 DIV PUSH1 0xFF AND ISZERO PUSH2 0x2A3 JUMPI PUSH1 0x40 MLOAD PUSH32 0x8C379A000000000000000000000000000000000000000000000000000000000 DUP2 MSTORE PUSH1 0x4 ADD PUSH2 0x29A SWAP1 PUSH2 0x1363 JUMP JUMPDEST PUSH1 0x40 MLOAD DUP1 SWAP2 SUB SWAP1 REVERT JUMPDEST PUSH2 0x2B7 PUSH8 0x4B22E9678D99FADA PUSH1 0xC0 SHL PUSH2 0xD65 JUMP JUMPDEST PUSH2 0x2CB PUSH8 0x780560ABF26CCAFE PUSH1 0xC0 SHL PUSH2 0xD65 JUMP JUMPDEST PUSH2 0x2DF PUSH8 0xEB4A570BB3C69B27 PUSH1 0xC0 SHL PUSH2 0xD65 JUMP JUMPDEST PUSH2 0x2F3 PUSH8 0x65AECEE20950B5AB PUSH1 0xC0 SHL PUSH2 0xD65 JUMP JUMPDEST PUSH1 0x0 DUP1 SLOAD SWAP1 POP DUP2 LT PUSH2 0x33A JUMPI PUSH1 0x40 MLOAD PUSH32 0x8C379A000000000000000000000000000000000000000000000000000000000 DUP2 MSTORE PUSH1 0x4 ADD PUSH2 0x331 SWAP1 PUSH2 0x13CF JUMP JUMPDEST PUSH1 0x40 MLOAD DUP1 SWAP2 SUB SWAP1 REVERT JUMPDEST PUSH2 0x34E PUSH8 0x9FEE3B01EF696DA5 PUSH1 0xC0 SHL PUSH2 0xD65 JUMP JUMPDEST PUSH2 0x362 PUSH8 0x674FF3AB81CFB186 PUSH1 0xC0 SHL PUSH2 0xD65 JUMP JUMPDEST PUSH1 0x0 DUP2 DUP2 SLOAD DUP2 LT PUSH2 0x376 JUMPI PUSH2 0x375 PUSH2 0x13EF JUMP JUMPDEST JUMPDEST SWAP1 PUSH1 0x0 MSTORE PUSH1 0x20 PUSH1 0x0 KECCAK256 SWAP1 PUSH1 0x3 MUL ADD PUSH1 0x2 ADD PUSH1 0x0 DUP2 SLOAD DUP1 SWAP3 SWAP2 SWAP1 PUSH2 0x398 SWAP1 PUSH2 0x144D JUMP JUMPDEST SWAP2 SWAP1 POP SSTORE POP PUSH2 0x3B1 PUSH8 0x1B1A8B62FF59E627 PUSH1 0xC0 SHL PUSH2 0xD65 JUMP JUMPDEST PUSH1 0x1 DUP1 PUSH1 0x0 CALLER PUSH20 0xFFFFFFFFFFFFFFFFFFFFFFFFFFFFFFFFFFFFFFFF AND PUSH20 0xFFFFFFFFFFFFFFFFFFFFFFFFFFFFFFFFFFFFFFFF AND DUP2 MSTORE PUSH1 0x20 ADD SWAP1 DUP2 MSTORE PUSH1 0x20 ADD PUSH1 0x0 KECCAK256 PUSH1 0x0 PUSH2 0x100 EXP DUP2 SLOAD DUP2 PUSH1 0xFF MUL NOT AND SWAP1 DUP4 ISZERO ISZERO MUL OR SWAP1 SSTORE POP PUSH2 0x41C PUSH8 0x91482BD10CE8C1D7 PUSH1 0xC0 SHL PUSH2 0xD65 JUMP JUMPDEST PUSH2 0x430 PUSH8 0x2412D5F01AD6EED3 PUSH1 0xC0 SHL PUSH2 0xD65 JUMP JUMPDEST PUSH32 0x7F511E347BF51EED3BE100B3194247D5207F05F3B33DE7D31E3E8EE73199A049 DUP2 PUSH1 0x40 MLOAD PUSH2 0x45F SWAP2 SWAP1 PUSH2 0x103E JUMP JUMPDEST PUSH1 0x40 MLOAD DUP1 SWAP2 SUB SWAP1 LOG1 POP JUMP JUMPDEST PUSH1 0x1 PUSH1 0x20 MSTORE DUP1 PUSH1 0x0 MSTORE PUSH1 0x40 PUSH1 0x0 KECCAK256 PUSH1 0x0 SWAP2 POP SLOAD SWAP1 PUSH2 0x100 EXP SWAP1 DIV PUSH1 0xFF AND DUP2 JUMP JUMPDEST PUSH1 0x0 PUSH2 0x4A0 PUSH8 0xC50DE509DF4E2431 PUSH1 0xC0 SHL PUSH2 0xD65 JUMP JUMPDEST PUSH2 0x4B4 PUSH8 0x17118C187704248 PUSH1 0xC0 SHL PUSH2 0xD65 JUMP JUMPDEST PUSH2 0x4C8 PUSH8 0x696F8B6E2BD3A9C5 PUSH1 0xC0 SHL PUSH2 0xD65 JUMP JUMPDEST PUSH1 0x0 JUMPDEST PUSH1 0x0 DUP1 SLOAD SWAP1 POP DUP2 LT ISZERO PUSH2 0x7FF JUMPI PUSH2 0x4EC PUSH8 0x2AF55B9F8247140E PUSH1 0xC0 SHL PUSH2 0xD65 JUMP JUMPDEST PUSH2 0x500 PUSH8 0x18B79493BBEBDBEB PUSH1 0xC0 SHL PUSH2 0xD65 JUMP JUMPDEST DUP3 MLOAD PUSH1 0x0 DUP3 DUP2 SLOAD DUP2 LT PUSH2 0x516 JUMPI PUSH2 0x515 PUSH2 0x13EF JUMP JUMPDEST JUMPDEST SWAP1 PUSH1 0x0 MSTORE PUSH1 0x20 PUSH1 0x0 KECCAK256 SWAP1 PUSH1 0x3 MUL ADD PUSH1 0x1 ADD DUP1 SLOAD PUSH2 0x532 SWAP1 PUSH2 0x14C4 JUMP JUMPDEST SWAP1 POP EQ PUSH2 0x566 JUMPI PUSH2 0x54D PUSH8 0x3793CFF76C87E5DB PUSH1 0xC0 SHL PUSH2 0xD65 JUMP JUMPDEST PUSH2 0x561 PUSH8 0xA828B2049EB39E08 PUSH1 0xC0 SHL PUSH2 0xD65 JUMP JUMPDEST PUSH2 0x7F2 JUMP JUMPDEST PUSH2 0x57A PUSH8 0x228372C3FB2C7431 PUSH1 0xC0 SHL PUSH2 0xD65 JUMP JUMPDEST PUSH2 0x58E PUSH8 0x7FD59DA226E5A304 PUSH1 0xC0 SHL PUSH2 0xD65 JUMP JUMPDEST PUSH2 0x5A2 PUSH8 0x8AF991B6943EF3F8 PUSH1 0xC0 SHL PUSH2 0xD65 JUMP JUMPDEST PUSH1 0x0 PUSH1 0x1 SWAP1 POP PUSH2 0x5BC PUSH8 0xC471F339B4527A12 PUSH1 0xC0 SHL PUSH2 0xD65 JUMP JUMPDEST PUSH2 0x5D0 PUSH8 0xB7282D07CB4250B0 PUSH1 0xC0 SHL PUSH2 0xD65 JUMP JUMPDEST PUSH1 0x0 JUMPDEST DUP5 MLOAD DUP2 LT ISZERO PUSH2 0x756 JUMPI PUSH2 0x5F0 PUSH8 0x690358FCFF619620 PUSH1 0xC0 SHL PUSH2 0xD65 JUMP JUMPDEST PUSH2 0x604 PUSH8 0x65483EDAB7EF5F70 PUSH1 0xC0 SHL PUSH2 0xD65 JUMP JUMPDEST DUP5 DUP2 DUP2 MLOAD DUP2 LT PUSH2 0x617 JUMPI PUSH2 0x616 PUSH2 0x13EF JUMP JUMPDEST JUMPDEST PUSH1 0x20 ADD ADD MLOAD PUSH1 0xF8 SHR PUSH1 0xF8 SHL PUSH31 0xFFFFFFFFFFFFFFFFFFFFFFFFFFFFFFFFFFFFFFFFFFFFFFFFFFFFFFFFFFFFFF NOT AND PUSH1 0x0 DUP5 DUP2 SLOAD DUP2 LT PUSH2 0x658 JUMPI PUSH2 0x657 PUSH2 0x13EF JUMP JUMPDEST JUMPDEST SWAP1 PUSH1 0x0 MSTORE PUSH1 0x20 PUSH1 0x0 KECCAK256 SWAP1 PUSH1 0x3 MUL ADD PUSH1 0x1 ADD DUP3 DUP2 SLOAD PUSH2 0x675 SWAP1 PUSH2 0x14C4 JUMP JUMPDEST DUP2 LT PUSH2 0x684 JUMPI PUSH2 0x683 PUSH2 0x13EF JUMP JUMPDEST JUMPDEST DUP2 SLOAD PUSH1 0x1 AND ISZERO PUSH2 0x6A3 JUMPI SWAP1 PUSH1 0x0 MSTORE PUSH1 0x20 PUSH1 0x0 KECCAK256 SWAP1 PUSH1 0x20 SWAP2 DUP3 DUP3 DIV ADD SWAP2 SWAP1 MOD JUMPDEST SWAP1 SLOAD SWAP1 BYTE PUSH32 0x100000000000000000000000000000000000000000000000000000000000000 MUL PUSH31 0xFFFFFFFFFFFFFFFFFFFFFFFFFFFFFFFFFFFFFFFFFFFFFFFFFFFFFFFFFFFFFF NOT AND EQ PUSH2 0x735 JUMPI PUSH2 0x704 PUSH8 0x5CAA8028ECA4E204 PUSH1 0xC0 SHL PUSH2 0xD65 JUMP JUMPDEST PUSH2 0x718 PUSH8 0x9F0B418059D7D152 PUSH1 0xC0 SHL PUSH2 0xD65 JUMP JUMPDEST PUSH1 0x0 SWAP2 POP PUSH2 0x730 PUSH8 0x147BB76671A14D19 PUSH1 0xC0 SHL PUSH2 0xD65 JUMP JUMPDEST PUSH2 0x756 JUMP JUMPDEST PUSH2 0x749 PUSH8 0xFA4839E0784D1220 PUSH1 0xC0 SHL PUSH2 0xD65 JUMP JUMPDEST DUP1 DUP1 PUSH1 0x1 ADD SWAP2 POP POP PUSH2 0x5D3 JUMP JUMPDEST POP PUSH2 0x76B PUSH8 0x386B2C01AFE444C PUSH1 0xC0 SHL PUSH2 0xD65 JUMP JUMPDEST PUSH2 0x77F PUSH8 0x976200CFF63D738 PUSH1 0xC0 SHL PUSH2 0xD65 JUMP JUMPDEST DUP1 ISZERO PUSH2 0x7DC JUMPI PUSH2 0x799 PUSH8 0x3CAA95DF37A1B57F PUSH1 0xC0 SHL PUSH2 0xD65 JUMP JUMPDEST PUSH2 0x7AD PUSH8 0xA2788205A4F91C78 PUSH1 0xC0 SHL PUSH2 0xD65 JUMP JUMPDEST PUSH1 0x0 DUP3 DUP2 SLOAD DUP2 LT PUSH2 0x7C1 JUMPI PUSH2 0x7C0 PUSH2 0x13EF JUMP JUMPDEST JUMPDEST SWAP1 PUSH1 0x0 MSTORE PUSH1 0x20 PUSH1 0x0 KECCAK256 SWAP1 PUSH1 0x3 MUL ADD PUSH1 0x0 ADD SLOAD SWAP3 POP POP POP PUSH2 0x863 JUMP JUMPDEST PUSH2 0x7F0 PUSH8 0xB182A55CCA98E1B9 PUSH1 0xC0 SHL PUSH2 0xD65 JUMP JUMPDEST POP JUMPDEST DUP1 DUP1 PUSH1 0x1 ADD SWAP2 POP POP PUSH2 0x4CB JUMP JUMPDEST POP PUSH2 0x814 PUSH8 0x986310D57E7FC742 PUSH1 0xC0 SHL PUSH2 0xD65 JUMP JUMPDEST PUSH2 0x828 PUSH8 0x96CD530D0F965351 PUSH1 0xC0 SHL PUSH2 0xD65 JUMP JUMPDEST PUSH1 0x40 MLOAD PUSH32 0x8C379A000000000000000000000000000000000000000000000000000000000 DUP2 MSTORE PUSH1 0x4 ADD PUSH2 0x85A SWAP1 PUSH2 0x1541 JUMP JUMPDEST PUSH1 0x40 MLOAD DUP1 SWAP2 SUB SWAP1 REVERT JUMPDEST SWAP2 SWAP1 POP JUMP JUMPDEST PUSH1 0x0 DUP2 DUP2 SLOAD DUP2 LT PUSH2 0x878 JUMPI PUSH1 0x0 DUP1 REVERT JUMPDEST SWAP1 PUSH1 0x0 MSTORE PUSH1 0x20 PUSH1 0x0 KECCAK256 SWAP1 PUSH1 0x3 MUL ADD PUSH1 0x0 SWAP2 POP SWAP1 POP DUP1 PUSH1 0x0 ADD SLOAD SWAP1 DUP1 PUSH1 0x1 ADD DUP1 SLOAD PUSH2 0x8A1 SWAP1 PUSH2 0x14C4 JUMP JUMPDEST DUP1 PUSH1 0x1F ADD PUSH1 0x20 DUP1 SWAP2 DIV MUL PUSH1 0x20 ADD PUSH1 0x40 MLOAD SWAP1 DUP2 ADD PUSH1 0x40 MSTORE DUP1 SWAP3 SWAP2 SWAP1 DUP2 DUP2 MSTORE PUSH1 0x20 ADD DUP3 DUP1 SLOAD PUSH2 0x8CD SWAP1 PUSH2 0x14C4 JUMP JUMPDEST DUP1 ISZERO PUSH2 0x91A JUMPI DUP1 PUSH1 0x1F LT PUSH2 0x8EF JUMPI PUSH2 0x100 DUP1 DUP4 SLOAD DIV MUL DUP4 MSTORE SWAP2 PUSH1 0x20 ADD SWAP2 PUSH2 0x91A JUMP JUMPDEST DUP3 ADD SWAP2 SWAP1 PUSH1 0x0 MSTORE PUSH1 0x20 PUSH1 0x0 KECCAK256 SWAP1 JUMPDEST DUP2 SLOAD DUP2 MSTORE SWAP1 PUSH1 0x1 ADD SWAP1 PUSH1 0x20 ADD DUP1 DUP4 GT PUSH2 0x8FD JUMPI DUP3 SWAP1 SUB PUSH1 0x1F AND DUP3 ADD SWAP2 JUMPDEST POP POP POP POP POP SWAP1 DUP1 PUSH1 0x2 ADD SLOAD SWAP1 POP DUP4 JUMP JUMPDEST PUSH1 0x0 PUSH2 0x940 PUSH8 0xEAC87FA053E0B3A4 PUSH1 0xC0 SHL PUSH2 0xD65 JUMP JUMPDEST PUSH2 0x954 PUSH8 0x2A1029DAF7F9F4E5 PUSH1 0xC0 SHL PUSH2 0xD65 JUMP JUMPDEST PUSH2 0x968 PUSH8 0x910B26E7D1FAC47C PUSH1 0xC0 SHL PUSH2 0xD65 JUMP JUMPDEST PUSH1 0x0 DUP3 DUP2 SLOAD DUP2 LT PUSH2 0x97C JUMPI PUSH2 0x97B PUSH2 0x13EF JUMP JUMPDEST JUMPDEST SWAP1 PUSH1 0x0 MSTORE PUSH1 0x20 PUSH1 0x0 KECCAK256 SWAP1 PUSH1 0x3 MUL ADD PUSH1 0x2 ADD SLOAD SWAP1 POP SWAP2 SWAP1 POP JUMP JUMPDEST PUSH1 0x0 PUSH2 0x9AB PUSH8 0x89C367DA073369A8 PUSH1 0xC0 SHL PUSH2 0xD65 JUMP JUMPDEST PUSH2 0x9BF PUSH8 0x32F1D287733228C1 PUSH1 0xC0 SHL PUSH2 0xD65 JUMP JUMPDEST PUSH2 0x9D3 PUSH8 0xBCE102B6FE9FE8EA PUSH1 0xC0 SHL PUSH2 0xD65 JUMP JUMPDEST PUSH1 0x0 PUSH1 0x2 SLOAD PUSH1 0x40 MLOAD PUSH1 0x20 ADD PUSH2 0x9E8 SWAP2 SWAP1 PUSH2 0x1582 JUMP JUMPDEST PUSH1 0x40 MLOAD PUSH1 0x20 DUP2 DUP4 SUB SUB DUP2 MSTORE SWAP1 PUSH1 0x40 MSTORE DUP1 MLOAD SWAP1 PUSH1 0x20 ADD KECCAK256 PUSH1 0x0 SHR SWAP1 POP PUSH2 0xA17 PUSH8 0x51A7CB350E40D574 PUSH1 0xC0 SHL PUSH2 0xD65 JUMP JUMPDEST PUSH1 0x64 DUP2 PUSH2 0xA24 SWAP2 SWAP1 PUSH2 0x15CC JUMP JUMPDEST PUSH1 0x2 DUP2 SWAP1 SSTORE POP PUSH2 0xA3E PUSH8 0xFDEF11136959BFF8 PUSH1 0xC0 SHL PUSH2 0xD65 JUMP JUMPDEST PUSH2 0xA52 PUSH8 0x2D14A1147F8D47C6 PUSH1 0xC0 SHL PUSH2 0xD65 JUMP JUMPDEST PUSH1 0x2 SLOAD SWAP2 POP POP SWAP1 JUMP JUMPDEST PUSH1 0x60 DUP1 PUSH2 0xA72 PUSH8 0xD6C9B85C2941E823 PUSH1 0xC0 SHL PUSH2 0xD65 JUMP JUMPDEST PUSH2 0xA86 PUSH8 0x8A9844B7A93D29BB PUSH1 0xC0 SHL PUSH2 0xD65 JUMP JUMPDEST PUSH2 0xA9A PUSH8 0x465EF720552985EA PUSH1 0xC0 SHL PUSH2 0xD65 JUMP JUMPDEST PUSH1 0x0 DUP1 DUP1 SLOAD SWAP1 POP PUSH8 0xFFFFFFFFFFFFFFFF DUP2 GT ISZERO PUSH2 0xABA JUMPI PUSH2 0xAB9 PUSH2 0xEBB JUMP JUMPDEST JUMPDEST PUSH1 0x40 MLOAD SWAP1 DUP1 DUP3 MSTORE DUP1 PUSH1 0x20 MUL PUSH1 0x20 ADD DUP3 ADD PUSH1 0x40 MSTORE DUP1 ISZERO PUSH2 0xAED JUMPI DUP2 PUSH1 0x20 ADD JUMPDEST PUSH1 0x60 DUP2 MSTORE PUSH1 0x20 ADD SWAP1 PUSH1 0x1 SWAP1 SUB SWAP1 DUP2 PUSH2 0xAD8 JUMPI SWAP1 POP JUMPDEST POP SWAP1 POP PUSH2 0xB04 PUSH8 0x27C78D7E4389F2CB PUSH1 0xC0 SHL PUSH2 0xD65 JUMP JUMPDEST PUSH2 0xB18 PUSH8 0x75B385B41A8B3E4B PUSH1 0xC0 SHL PUSH2 0xD65 JUMP JUMPDEST PUSH1 0x0 DUP1 DUP1 SLOAD SWAP1 POP PUSH8 0xFFFFFFFFFFFFFFFF DUP2 GT ISZERO PUSH2 0xB38 JUMPI PUSH2 0xB37 PUSH2 0xEBB JUMP JUMPDEST JUMPDEST PUSH1 0x40 MLOAD SWAP1 DUP1 DUP3 MSTORE DUP1 PUSH1 0x20 MUL PUSH1 0x20 ADD DUP3 ADD PUSH1 0x40 MSTORE DUP1 ISZERO PUSH2 0xB66 JUMPI DUP2 PUSH1 0x20 ADD PUSH1 0x20 DUP3 MUL DUP1 CALLDATASIZE DUP4 CALLDATACOPY DUP1 DUP3 ADD SWAP2 POP POP SWAP1 POP JUMPDEST POP SWAP1 POP PUSH2 0xB7D PUSH8 0xFDAE685603F755C8 PUSH1 0xC0 SHL PUSH2 0xD65 JUMP JUMPDEST PUSH2 0xB91 PUSH8 0x34D2C8E85309AC9E PUSH1 0xC0 SHL PUSH2 0xD65 JUMP JUMPDEST PUSH1 0x0 JUMPDEST PUSH1 0x0 DUP1 SLOAD SWAP1 POP DUP2 LT ISZERO PUSH2 0xCE7 JUMPI PUSH2 0xBB5 PUSH8 0x9C87D1270E6F7DAB PUSH1 0xC0 SHL PUSH2 0xD65 JUMP JUMPDEST PUSH1 0x0 DUP2 DUP2 SLOAD DUP2 LT PUSH2 0xBC9 JUMPI PUSH2 0xBC8 PUSH2 0x13EF JUMP JUMPDEST JUMPDEST SWAP1 PUSH1 0x0 MSTORE PUSH1 0x20 PUSH1 0x0 KECCAK256 SWAP1 PUSH1 0x3 MUL ADD PUSH1 0x1 ADD DUP1 SLOAD PUSH2 0xBE5 SWAP1 PUSH2 0x14C4 JUMP JUMPDEST DUP1 PUSH1 0x1F ADD PUSH1 0x20 DUP1 SWAP2 DIV MUL PUSH1 0x20 ADD PUSH1 0x40 MLOAD SWAP1 DUP2 ADD PUSH1 0x40 MSTORE DUP1 SWAP3 SWAP2 SWAP1 DUP2 DUP2 MSTORE PUSH1 0x20 ADD DUP3 DUP1 SLOAD PUSH2 0xC11 SWAP1 PUSH2 0x14C4 JUMP JUMPDEST DUP1 ISZERO PUSH2 0xC5E JUMPI DUP1 PUSH1 0x1F LT PUSH2 0xC33 JUMPI PUSH2 0x100 DUP1 DUP4 SLOAD DIV MUL DUP4 MSTORE SWAP2 PUSH1 0x20 ADD SWAP2 PUSH2 0xC5E JUMP JUMPDEST DUP3 ADD SWAP2 SWAP1 PUSH1 0x0 MSTORE PUSH1 0x20 PUSH1 0x0 KECCAK256 SWAP1 JUMPDEST DUP2 SLOAD DUP2 MSTORE SWAP1 PUSH1 0x1 ADD SWAP1 PUSH1 0x20 ADD DUP1 DUP4 GT PUSH2 0xC41 JUMPI DUP3 SWAP1 SUB PUSH1 0x1F AND DUP3 ADD SWAP2 JUMPDEST POP POP POP POP POP DUP4 DUP3 DUP2 MLOAD DUP2 LT PUSH2 0xC76 JUMPI PUSH2 0xC75 PUSH2 0x13EF JUMP JUMPDEST JUMPDEST PUSH1 0x20 MUL PUSH1 0x20 ADD ADD DUP2 SWAP1 MSTORE POP PUSH2 0xC95 PUSH8 0x21440AD071E28D8D PUSH1 0xC0 SHL PUSH2 0xD65 JUMP JUMPDEST PUSH1 0x0 DUP2 DUP2 SLOAD DUP2 LT PUSH2 0xCA9 JUMPI PUSH2 0xCA8 PUSH2 0x13EF JUMP JUMPDEST JUMPDEST SWAP1 PUSH1 0x0 MSTORE PUSH1 0x20 PUSH1 0x0 KECCAK256 SWAP1 PUSH1 0x3 MUL ADD PUSH1 0x2 ADD SLOAD DUP3 DUP3 DUP2 MLOAD DUP2 LT PUSH2 0xCCE JUMPI PUSH2 0xCCD PUSH2 0x13EF JUMP JUMPDEST JUMPDEST PUSH1 0x20 MUL PUSH1 0x20 ADD ADD DUP2 DUP2 MSTORE POP POP DUP1 DUP1 PUSH1 0x1 ADD SWAP2 POP POP PUSH2 0xB94 JUMP JUMPDEST POP PUSH2 0xCFC PUSH8 0xFE741ECCE307A243 PUSH1 0xC0 SHL PUSH2 0xD65 JUMP JUMPDEST PUSH2 0xD10 PUSH8 0xBAF6A981A03AF72A PUSH1 0xC0 SHL PUSH2 0xD65 JUMP JUMPDEST DUP2 DUP2 SWAP4 POP SWAP4 POP POP POP SWAP1 SWAP2 JUMP JUMPDEST PUSH1 0x0 PUSH2 0xD32 PUSH8 0x37F86B93B38EAD00 PUSH1 0xC0 SHL PUSH2 0xD65 JUMP JUMPDEST PUSH2 0xD46 PUSH8 0xDA4571D438EA1510 PUSH1 0xC0 SHL PUSH2 0xD65 JUMP JUMPDEST PUSH2 0xD5A PUSH8 0xA85AB1AAE252A60A PUSH1 0xC0 SHL PUSH2 0xD65 JUMP JUMPDEST PUSH1 0x0 DUP1 SLOAD SWAP1 POP SWAP1 POP SWAP1 JUMP JUMPDEST POP JUMP JUMPDEST PUSH1 0x0 PUSH1 0x40 MLOAD SWAP1 POP SWAP1 JUMP JUMPDEST PUSH1 0x0 DUP1 REVERT JUMPDEST PUSH1 0x0 DUP1 REVERT JUMPDEST PUSH1 0x0 DUP2 SWAP1 POP SWAP2 SWAP1 POP JUMP JUMPDEST PUSH2 0xD8F DUP2 PUSH2 0xD7C JUMP JUMPDEST DUP2 EQ PUSH2 0xD9A JUMPI PUSH1 0x0 DUP1 REVERT JUMPDEST POP JUMP JUMPDEST PUSH1 0x0 DUP2 CALLDATALOAD SWAP1 POP PUSH2 0xDAC DUP2 PUSH2 0xD86 JUMP JUMPDEST SWAP3 SWAP2 POP POP JUMP JUMPDEST PUSH1 0x0 PUSH1 0x20 DUP3 DUP5 SUB SLT ISZERO PUSH2 0xDC8 JUMPI PUSH2 0xDC7 PUSH2 0xD72 JUMP JUMPDEST JUMPDEST PUSH1 0x0 PUSH2 0xDD6 DUP5 DUP3 DUP6 ADD PUSH2 0xD9D JUMP JUMPDEST SWAP2 POP POP SWAP3 SWAP2 POP POP JUMP JUMPDEST PUSH1 0x0 PUSH20 0xFFFFFFFFFFFFFFFFFFFFFFFFFFFFFFFFFFFFFFFF DUP3 AND SWAP1 POP SWAP2 SWAP1 POP JUMP JUMPDEST PUSH1 0x0 PUSH2 0xE0A DUP3 PUSH2 0xDDF JUMP JUMPDEST SWAP1 POP SWAP2 SWAP1 POP JUMP JUMPDEST PUSH2 0xE1A DUP2 PUSH2 0xDFF JUMP JUMPDEST DUP2 EQ PUSH2 0xE25 JUMPI PUSH1 0x0 DUP1 REVERT JUMPDEST POP JUMP JUMPDEST PUSH1 0x0 DUP2 CALLDATALOAD SWAP1 POP PUSH2 0xE37 DUP2 PUSH2 0xE11 JUMP JUMPDEST SWAP3 SWAP2 POP POP JUMP JUMPDEST PUSH1 0x0 PUSH1 0x20 DUP3 DUP5 SUB SLT ISZERO PUSH2 0xE53 JUMPI PUSH2 0xE52 PUSH2 0xD72 JUMP JUMPDEST JUMPDEST PUSH1 0x0 PUSH2 0xE61 DUP5 DUP3 DUP6 ADD PUSH2 0xE28 JUMP JUMPDEST SWAP2 POP POP SWAP3 SWAP2 POP POP JUMP JUMPDEST PUSH1 0x0 DUP2 ISZERO ISZERO SWAP1 POP SWAP2 SWAP1 POP JUMP JUMPDEST PUSH2 0xE7F DUP2 PUSH2 0xE6A JUMP JUMPDEST DUP3 MSTORE POP POP JUMP JUMPDEST PUSH1 0x0 PUSH1 0x20 DUP3 ADD SWAP1 POP PUSH2 0xE9A PUSH1 0x0 DUP4 ADD DUP5 PUSH2 0xE76 JUMP JUMPDEST SWAP3 SWAP2 POP POP JUMP JUMPDEST PUSH1 0x0 DUP1 REVERT JUMPDEST PUSH1 0x0 DUP1 REVERT JUMPDEST PUSH1 0x0 PUSH1 0x1F NOT PUSH1 0x1F DUP4 ADD AND SWAP1 POP SWAP2 SWAP1 POP JUMP JUMPDEST PUSH32 0x4E487B7100000000000000000000000000000000000000000000000000000000 PUSH1 0x0 MSTORE PUSH1 0x41 PUSH1 0x4 MSTORE PUSH1 0x24 PUSH1 0x0 REVERT JUMPDEST PUSH2 0xEF3 DUP3 PUSH2 0xEAA JUMP JUMPDEST DUP2 ADD DUP2 DUP2 LT PUSH8 0xFFFFFFFFFFFFFFFF DUP3 GT OR ISZERO PUSH2 0xF12 JUMPI PUSH2 0xF11 PUSH2 0xEBB JUMP JUMPDEST JUMPDEST DUP1 PUSH1 0x40 MSTORE POP POP POP JUMP JUMPDEST PUSH1 0x0 PUSH2 0xF25 PUSH2 0xD68 JUMP JUMPDEST SWAP1 POP PUSH2 0xF31 DUP3 DUP3 PUSH2 0xEEA JUMP JUMPDEST SWAP2 SWAP1 POP JUMP JUMPDEST PUSH1 0x0 PUSH8 0xFFFFFFFFFFFFFFFF DUP3 GT ISZERO PUSH2 0xF51 JUMPI PUSH2 0xF50 PUSH2 0xEBB JUMP JUMPDEST JUMPDEST PUSH2 0xF5A DUP3 PUSH2 0xEAA JUMP JUMPDEST SWAP1 POP PUSH1 0x20 DUP2 ADD SWAP1 POP SWAP2 SWAP1 POP JUMP JUMPDEST DUP3 DUP2 DUP4 CALLDATACOPY PUSH1 0x0 DUP4 DUP4 ADD MSTORE POP POP POP JUMP JUMPDEST PUSH1 0x0 PUSH2 0xF89 PUSH2 0xF84 DUP5 PUSH2 0xF36 JUMP JUMPDEST PUSH2 0xF1B JUMP JUMPDEST SWAP1 POP DUP3 DUP2 MSTORE PUSH1 0x20 DUP2 ADD DUP5 DUP5 DUP5 ADD GT ISZERO PUSH2 0xFA5 JUMPI PUSH2 0xFA4 PUSH2 0xEA5 JUMP JUMPDEST JUMPDEST PUSH2 0xFB0 DUP5 DUP3 DUP6 PUSH2 0xF67 JUMP JUMPDEST POP SWAP4 SWAP3 POP POP POP JUMP JUMPDEST PUSH1 0x0 DUP3 PUSH1 0x1F DUP4 ADD SLT PUSH2 0xFCD JUMPI PUSH2 0xFCC PUSH2 0xEA0 JUMP JUMPDEST JUMPDEST DUP2 CALLDATALOAD PUSH2 0xFDD DUP5 DUP3 PUSH1 0x20 DUP7 ADD PUSH2 0xF76 JUMP JUMPDEST SWAP2 POP POP SWAP3 SWAP2 POP POP JUMP JUMPDEST PUSH1 0x0 PUSH1 0x20 DUP3 DUP5 SUB SLT ISZERO PUSH2 0xFFC JUMPI PUSH2 0xFFB PUSH2 0xD72 JUMP JUMPDEST JUMPDEST PUSH1 0x0 DUP3 ADD CALLDATALOAD PUSH8 0xFFFFFFFFFFFFFFFF DUP2 GT ISZERO PUSH2 0x101A JUMPI PUSH2 0x1019 PUSH2 0xD77 JUMP JUMPDEST JUMPDEST PUSH2 0x1026 DUP5 DUP3 DUP6 ADD PUSH2 0xFB8 JUMP JUMPDEST SWAP2 POP POP SWAP3 SWAP2 POP POP JUMP JUMPDEST PUSH2 0x1038 DUP2 PUSH2 0xD7C JUMP JUMPDEST DUP3 MSTORE POP POP JUMP JUMPDEST PUSH1 0x0 PUSH1 0x20 DUP3 ADD SWAP1 POP PUSH2 0x1053 PUSH1 0x0 DUP4 ADD DUP5 PUSH2 0x102F JUMP JUMPDEST SWAP3 SWAP2 POP POP JUMP JUMPDEST PUSH1 0x0 DUP2 MLOAD SWAP1 POP SWAP2 SWAP1 POP JUMP JUMPDEST PUSH1 0x0 DUP3 DUP3 MSTORE PUSH1 0x20 DUP3 ADD SWAP1 POP SWAP3 SWAP2 POP POP JUMP JUMPDEST PUSH1 0x0 JUMPDEST DUP4 DUP2 LT ISZERO PUSH2 0x1093 JUMPI DUP1 DUP3 ADD MLOAD DUP2 DUP5 ADD MSTORE PUSH1 0x20 DUP2 ADD SWAP1 POP PUSH2 0x1078 JUMP JUMPDEST PUSH1 0x0 DUP5 DUP5 ADD MSTORE POP POP POP POP JUMP JUMPDEST PUSH1 0x0 PUSH2 0x10AA DUP3 PUSH2 0x1059 JUMP JUMPDEST PUSH2 0x10B4 DUP2 DUP6 PUSH2 0x1064 JUMP JUMPDEST SWAP4 POP PUSH2 0x10C4 DUP2 DUP6 PUSH1 0x20 DUP7 ADD PUSH2 0x1075 JUMP JUMPDEST PUSH2 0x10CD DUP2 PUSH2 0xEAA JUMP JUMPDEST DUP5 ADD SWAP2 POP POP SWAP3 SWAP2 POP POP JUMP JUMPDEST PUSH1 0x0 PUSH1 0x60 DUP3 ADD SWAP1 POP PUSH2 0x10ED PUSH1 0x0 DUP4 ADD DUP7 PUSH2 0x102F JUMP JUMPDEST DUP2 DUP2 SUB PUSH1 0x20 DUP4 ADD MSTORE PUSH2 0x10FF DUP2 DUP6 PUSH2 0x109F JUMP JUMPDEST SWAP1 POP PUSH2 0x110E PUSH1 0x40 DUP4 ADD DUP5 PUSH2 0x102F JUMP JUMPDEST SWAP5 SWAP4 POP POP POP POP JUMP JUMPDEST PUSH1 0x0 DUP2 MLOAD SWAP1 POP SWAP2 SWAP1 POP JUMP JUMPDEST PUSH1 0x0 DUP3 DUP3 MSTORE PUSH1 0x20 DUP3 ADD SWAP1 POP SWAP3 SWAP2 POP POP JUMP JUMPDEST PUSH1 0x0 DUP2 SWAP1 POP PUSH1 0x20 DUP3 ADD SWAP1 POP SWAP2 SWAP1 POP JUMP JUMPDEST PUSH1 0x0 DUP3 DUP3 MSTORE PUSH1 0x20 DUP3 ADD SWAP1 POP SWAP3 SWAP2 POP POP JUMP JUMPDEST PUSH1 0x0 PUSH2 0x115E DUP3 PUSH2 0x1059 JUMP JUMPDEST PUSH2 0x1168 DUP2 DUP6 PUSH2 0x1142 JUMP JUMPDEST SWAP4 POP PUSH2 0x1178 DUP2 DUP6 PUSH1 0x20 DUP7 ADD PUSH2 0x1075 JUMP JUMPDEST PUSH2 0x1181 DUP2 PUSH2 0xEAA JUMP JUMPDEST DUP5 ADD SWAP2 POP POP SWAP3 SWAP2 POP POP JUMP JUMPDEST PUSH1 0x0 PUSH2 0x1198 DUP4 DUP4 PUSH2 0x1153 JUMP JUMPDEST SWAP1 POP SWAP3 SWAP2 POP POP JUMP JUMPDEST PUSH1 0x0 PUSH1 0x20 DUP3 ADD SWAP1 POP SWAP2 SWAP1 POP JUMP JUMPDEST PUSH1 0x0 PUSH2 0x11B8 DUP3 PUSH2 0x1116 JUMP JUMPDEST PUSH2 0x11C2 DUP2 DUP6 PUSH2 0x1121 JUMP JUMPDEST SWAP4 POP DUP4 PUSH1 0x20 DUP3 MUL DUP6 ADD PUSH2 0x11D4 DUP6 PUSH2 0x1132 JUMP JUMPDEST DUP1 PUSH1 0x0 JUMPDEST DUP6 DUP2 LT ISZERO PUSH2 0x1210 JUMPI DUP5 DUP5 SUB DUP10 MSTORE DUP2 MLOAD PUSH2 0x11F1 DUP6 DUP3 PUSH2 0x118C JUMP JUMPDEST SWAP5 POP PUSH2 0x11FC DUP4 PUSH2 0x11A0 JUMP JUMPDEST SWAP3 POP PUSH1 0x20 DUP11 ADD SWAP10 POP POP PUSH1 0x1 DUP2 ADD SWAP1 POP PUSH2 0x11D8 JUMP JUMPDEST POP DUP3 SWAP8 POP DUP8 SWAP6 POP POP POP POP POP POP SWAP3 SWAP2 POP POP JUMP JUMPDEST PUSH1 0x0 DUP2 MLOAD SWAP1 POP SWAP2 SWAP1 POP JUMP JUMPDEST PUSH1 0x0 DUP3 DUP3 MSTORE PUSH1 0x20 DUP3 ADD SWAP1 POP SWAP3 SWAP2 POP POP JUMP JUMPDEST PUSH1 0x0 DUP2 SWAP1 POP PUSH1 0x20 DUP3 ADD SWAP1 POP SWAP2 SWAP1 POP JUMP JUMPDEST PUSH2 0x1257 DUP2 PUSH2 0xD7C JUMP JUMPDEST DUP3 MSTORE POP POP JUMP JUMPDEST PUSH1 0x0 PUSH2 0x1269 DUP4 DUP4 PUSH2 0x124E JUMP JUMPDEST PUSH1 0x20 DUP4 ADD SWAP1 POP SWAP3 SWAP2 POP POP JUMP JUMPDEST PUSH1 0x0 PUSH1 0x20 DUP3 ADD SWAP1 POP SWAP2 SWAP1 POP JUMP JUMPDEST PUSH1 0x0 PUSH2 0x128D DUP3 PUSH2 0x1222 JUMP JUMPDEST PUSH2 0x1297 DUP2 DUP6 PUSH2 0x122D JUMP JUMPDEST SWAP4 POP PUSH2 0x12A2 DUP4 PUSH2 0x123E JUMP JUMPDEST DUP1 PUSH1 0x0 JUMPDEST DUP4 DUP2 LT ISZERO PUSH2 0x12D3 JUMPI DUP2 MLOAD PUSH2 0x12BA DUP9 DUP3 PUSH2 0x125D JUMP JUMPDEST SWAP8 POP PUSH2 0x12C5 DUP4 PUSH2 0x1275 JUMP JUMPDEST SWAP3 POP POP PUSH1 0x1 DUP2 ADD SWAP1 POP PUSH2 0x12A6 JUMP JUMPDEST POP DUP6 SWAP4 POP POP POP POP SWAP3 SWAP2 POP POP JUMP JUMPDEST PUSH1 0x0 PUSH1 0x40 DUP3 ADD SWAP1 POP DUP2 DUP2 SUB PUSH1 0x0 DUP4 ADD MSTORE PUSH2 0x12FA DUP2 DUP6 PUSH2 0x11AD JUMP JUMPDEST SWAP1 POP DUP2 DUP2 SUB PUSH1 0x20 DUP4 ADD MSTORE PUSH2 0x130E DUP2 DUP5 PUSH2 0x1282 JUMP JUMPDEST SWAP1 POP SWAP4 SWAP3 POP POP POP JUMP JUMPDEST PUSH32 0x416C726561647920766F74656400000000000000000000000000000000000000 PUSH1 0x0 DUP3 ADD MSTORE POP JUMP JUMPDEST PUSH1 0x0 PUSH2 0x134D PUSH1 0xD DUP4 PUSH2 0x1064 JUMP JUMPDEST SWAP2 POP PUSH2 0x1358 DUP3 PUSH2 0x1317 JUMP JUMPDEST PUSH1 0x20 DUP3 ADD SWAP1 POP SWAP2 SWAP1 POP JUMP JUMPDEST PUSH1 0x0 PUSH1 0x20 DUP3 ADD SWAP1 POP DUP2 DUP2 SUB PUSH1 0x0 DUP4 ADD MSTORE PUSH2 0x137C DUP2 PUSH2 0x1340 JUMP JUMPDEST SWAP1 POP SWAP2 SWAP1 POP JUMP JUMPDEST PUSH32 0x496E76616C6964206D6F76696520494400000000000000000000000000000000 PUSH1 0x0 DUP3 ADD MSTORE POP JUMP JUMPDEST PUSH1 0x0 PUSH2 0x13B9 PUSH1 0x10 DUP4 PUSH2 0x1064 JUMP JUMPDEST SWAP2 POP PUSH2 0x13C4 DUP3 PUSH2 0x1383 JUMP JUMPDEST PUSH1 0x20 DUP3 ADD SWAP1 POP SWAP2 SWAP1 POP JUMP JUMPDEST PUSH1 0x0 PUSH1 0x20 DUP3 ADD SWAP1 POP DUP2 DUP2 SUB PUSH1 0x0 DUP4 ADD MSTORE PUSH2 0x13E8 DUP2 PUSH2 0x13AC JUMP JUMPDEST SWAP1 POP SWAP2 SWAP1 POP JUMP JUMPDEST PUSH32 0x4E487B7100000000000000000000000000000000000000000000000000000000 PUSH1 0x0 MSTORE PUSH1 0x32 PUSH1 0x4 MSTORE PUSH1 0x24 PUSH1 0x0 REVERT JUMPDEST PUSH32 0x4E487B7100000000000000000000000000000000000000000000000000000000 PUSH1 0x0 MSTORE PUSH1 0x11 PUSH1 0x4 MSTORE PUSH1 0x24 PUSH1 0x0 REVERT JUMPDEST PUSH1 0x0 PUSH2 0x1458 DUP3 PUSH2 0xD7C JUMP JUMPDEST SWAP2 POP PUSH32 0xFFFFFFFFFFFFFFFFFFFFFFFFFFFFFFFFFFFFFFFFFFFFFFFFFFFFFFFFFFFFFFFF DUP3 SUB PUSH2 0x148A JUMPI PUSH2 0x1489 PUSH2 0x141E JUMP JUMPDEST JUMPDEST PUSH1 0x1 DUP3 ADD SWAP1 POP SWAP2 SWAP1 POP JUMP JUMPDEST PUSH32 0x4E487B7100000000000000000000000000000000000000000000000000000000 PUSH1 0x0 MSTORE PUSH1 0x22 PUSH1 0x4 MSTORE PUSH1 0x24 PUSH1 0x0 REVERT JUMPDEST PUSH1 0x0 PUSH1 0x2 DUP3 DIV SWAP1 POP PUSH1 0x1 DUP3 AND DUP1 PUSH2 0x14DC JUMPI PUSH1 0x7F DUP3 AND SWAP2 POP JUMPDEST PUSH1 0x20 DUP3 LT DUP2 SUB PUSH2 0x14EF JUMPI PUSH2 0x14EE PUSH2 0x1495 JUMP JUMPDEST JUMPDEST POP SWAP2 SWAP1 POP JUMP JUMPDEST PUSH32 0x4964206E6F7420666F756E640000000000000000000000000000000000000000 PUSH1 0x0 DUP3 ADD MSTORE POP JUMP JUMPDEST PUSH1 0x0 PUSH2 0x152B PUSH1 0xC DUP4 PUSH2 0x1064 JUMP JUMPDEST SWAP2 POP PUSH2 0x1536 DUP3 PUSH2 0x14F5 JUMP JUMPDEST PUSH1 0x20 DUP3 ADD SWAP1 POP SWAP2 SWAP1 POP JUMP JUMPDEST PUSH1 0x0 PUSH1 0x20 DUP3 ADD SWAP1 POP DUP2 DUP2 SUB PUSH1 0x0 DUP4 ADD MSTORE PUSH2 0x155A DUP2 PUSH2 0x151E JUMP JUMPDEST SWAP1 POP SWAP2 SWAP1 POP JUMP JUMPDEST PUSH1 0x0 DUP2 SWAP1 POP SWAP2 SWAP1 POP JUMP JUMPDEST PUSH2 0x157C PUSH2 0x1577 DUP3 PUSH2 0xD7C JUMP JUMPDEST PUSH2 0x1561 JUMP JUMPDEST DUP3 MSTORE POP POP JUMP JUMPDEST PUSH1 0x0 PUSH2 0x158E DUP3 DUP5 PUSH2 0x156B JUMP JUMPDEST PUSH1 0x20 DUP3 ADD SWAP2 POP DUP2 SWAP1 POP SWAP3 SWAP2 POP POP JUMP JUMPDEST PUSH32 0x4E487B7100000000000000000000000000000000000000000000000000000000 PUSH1 0x0 MSTORE PUSH1 0x12 PUSH1 0x4 MSTORE PUSH1 0x24 PUSH1 0x0 REVERT JUMPDEST PUSH1 0x0 PUSH2 0x15D7 DUP3 PUSH2 0xD7C JUMP JUMPDEST SWAP2 POP PUSH2 0x15E2 DUP4 PUSH2 0xD7C JUMP JUMPDEST SWAP3 POP DUP3 PUSH2 0x15F2 JUMPI PUSH2 0x15F1 PUSH2 0x159D JUMP JUMPDEST JUMPDEST DUP3 DUP3 MOD SWAP1 POP SWAP3 SWAP2 POP POP JUMP INVALID LOG2 PUSH5 0x6970667358 0x22 SLT KECCAK256 0xA8 0xE4 CALLER DUP6 JUMP SWAP16 0xE3 0xF7 0xE6 0xE0 PUSH4 0xC3466E67 0xF9 SGT ISZERO 0xC6 0xC9 PUSH18 0x90E200C7218AD1C14B716E64736F6C634300 ADDMOD XOR STOP CALLER "},"methodIdentifiers":{"generateRandomNumber()":"773a1154","getAllVotes()":"851b6ef2","getMovieIdByName(string)":"2ed4bccc","getMoviesCount()":"e20da8e0","getVotesByMovieId(uint256)":"41aa389d","hasVoted(address)":"09eef43e","movies(uint256)":"404ebf6c","vote(uint256)":"0121b93f"}}}}}