{
  "_format": "hh-sol-artifact-1",
  "contractName": "MovieVoting",
  "sourceName": "contracts/Voting.sol",
  "abi": [
    {
      "inputs": [
        {
          "internalType": "string[]",
          "name": "_movieNames",
          "type": "string[]"
        }
      ],
      "stateMutability": "nonpayable",
      "type": "constructor"
    },
    {
      "anonymous": false,
      "inputs": [
        {
          "indexed": false,
          "internalType": "uint256",
          "name": "movieId",
          "type": "uint256"
        }
      ],
      "name": "Voted",
      "type": "event"
    },
    {
      "inputs": [],
      "name": "generateRandomNumber",
      "outputs": [
        {
          "internalType": "uint256",
          "name": "",
          "type": "uint256"
        }
      ],
      "stateMutability": "nonpayable",
      "type": "function"
    },
    {
      "inputs": [],
      "name": "getAllVotes",
      "outputs": [
        {
          "internalType": "string[]",
          "name": "",
          "type": "string[]"
        },
        {
          "internalType": "uint256[]",
          "name": "",
          "type": "uint256[]"
        }
      ],
      "stateMutability": "view",
      "type": "function"
    },
    {
      "inputs": [
        {
          "internalType": "string",
          "name": "_movieName",
          "type": "string"
        }
      ],
      "name": "getMovieIdByName",
      "outputs": [
        {
          "internalType": "uint256",
          "name": "",
          "type": "uint256"
        }
      ],
      "stateMutability": "view",
      "type": "function"
    },
    {
      "inputs": [],
      "name": "getMoviesCount",
      "outputs": [
        {
          "internalType": "uint256",
          "name": "",
          "type": "uint256"
        }
      ],
      "stateMutability": "view",
      "type": "function"
    },
    {
      "inputs": [
        {
          "internalType": "uint256",
          "name": "_id",
          "type": "uint256"
        }
      ],
      "name": "getVotesByMovieId",
      "outputs": [
        {
          "internalType": "uint256",
          "name": "",
          "type": "uint256"
        }
      ],
      "stateMutability": "view",
      "type": "function"
    },
    {
      "inputs": [
        {
          "internalType": "address",
          "name": "",
          "type": "address"
        }
      ],
      "name": "hasVoted",
      "outputs": [
        {
          "internalType": "bool",
          "name": "",
          "type": "bool"
        }
      ],
      "stateMutability": "view",
      "type": "function"
    },
    {
      "inputs": [
        {
          "internalType": "uint256",
          "name": "",
          "type": "uint256"
        }
      ],
      "name": "movies",
      "outputs": [
        {
          "internalType": "uint256",
          "name": "id",
          "type": "uint256"
        },
        {
          "internalType": "string",
          "name": "name",
          "type": "string"
        },
        {
          "internalType": "uint256",
          "name": "voteCount",
          "type": "uint256"
        }
      ],
      "stateMutability": "view",
      "type": "function"
    },
    {
      "inputs": [
        {
          "internalType": "uint256",
          "name": "_movieId",
          "type": "uint256"
        }
      ],
      "name": "vote",
      "outputs": [],
      "stateMutability": "nonpayable",
      "type": "function"
    }
  ],
  "bytecode": "0x608060405260196002553480156200001657600080fd5b5060405162001fb538038062001fb583398181016040528101906200003c919062000517565b62000058674316bdd50f255f5f60c01b6200018b60201b60201c565b6200007467958753ac421269da60c01b6200018b60201b60201c565b6200009067569b78d5564834e360c01b6200018b60201b60201c565b60005b81518110156200018357620000b9679f1d8c282222b12060c01b6200018b60201b60201c565b620000d567bdb5508043afbc1e60c01b6200018b60201b60201c565b60006040518060600160405280838152602001848481518110620000fe57620000fd62000568565b5b602002602001015181526020016200011b6200018e60201b60201c565b8152509080600181540180825580915050600190039060005260206000209060030201600090919091909150600082015181600001556020820151816001019081620001689190620007e2565b50604082015181600201555050808060010191505062000093565b505062000972565b50565b6000620001ac6789c367da073369a860c01b6200018b60201b60201c565b620001c86732f1d287733228c160c01b6200018b60201b60201c565b620001e467bce102b6fe9fe8ea60c01b6200018b60201b60201c565b6000600254604051602001620001fb9190620008ee565b6040516020818303038152906040528051906020012060001c9050620002326751a7cb350e40d57460c01b6200018b60201b60201c565b6064816200024191906200093a565b6002819055506200026367fdef11136959bff860c01b6200018b60201b60201c565b6200027f672d14a1147f8d47c660c01b6200018b60201b60201c565b60025491505090565b6000604051905090565b600080fd5b600080fd5b600080fd5b6000601f19601f8301169050919050565b7f4e487b7100000000000000000000000000000000000000000000000000000000600052604160045260246000fd5b620002ec82620002a1565b810181811067ffffffffffffffff821117156200030e576200030d620002b2565b5b80604052505050565b60006200032362000288565b9050620003318282620002e1565b919050565b600067ffffffffffffffff821115620003545762000353620002b2565b5b602082029050602081019050919050565b600080fd5b600080fd5b600067ffffffffffffffff8211156200038d576200038c620002b2565b5b6200039882620002a1565b9050602081019050919050565b60005b83811015620003c5578082015181840152602081019050620003a8565b60008484015250505050565b6000620003e8620003e2846200036f565b62000317565b9050828152602081018484840111156200040757620004066200036a565b5b62000414848285620003a5565b509392505050565b600082601f8301126200043457620004336200029c565b5b815162000446848260208601620003d1565b91505092915050565b600062000466620004608462000336565b62000317565b905080838252602082019050602084028301858111156200048c576200048b62000365565b5b835b81811015620004da57805167ffffffffffffffff811115620004b557620004b46200029c565b5b808601620004c489826200041c565b855260208501945050506020810190506200048e565b5050509392505050565b600082601f830112620004fc57620004fb6200029c565b5b81516200050e8482602086016200044f565b91505092915050565b60006020828403121562000530576200052f62000292565b5b600082015167ffffffffffffffff81111562000551576200055062000297565b5b6200055f84828501620004e4565b91505092915050565b7f4e487b7100000000000000000000000000000000000000000000000000000000600052603260045260246000fd5b600081519050919050565b7f4e487b7100000000000000000000000000000000000000000000000000000000600052602260045260246000fd5b60006002820490506001821680620005ea57607f821691505b6020821081036200060057620005ff620005a2565b5b50919050565b60008190508160005260206000209050919050565b60006020601f8301049050919050565b600082821b905092915050565b6000600883026200066a7fffffffffffffffffffffffffffffffffffffffffffffffffffffffffffffffff826200062b565b6200067686836200062b565b95508019841693508086168417925050509392505050565b6000819050919050565b6000819050919050565b6000620006c3620006bd620006b7846200068e565b62000698565b6200068e565b9050919050565b6000819050919050565b620006df83620006a2565b620006f7620006ee82620006ca565b84845462000638565b825550505050565b600090565b6200070e620006ff565b6200071b818484620006d4565b505050565b5b8181101562000743576200073760008262000704565b60018101905062000721565b5050565b601f82111562000792576200075c8162000606565b62000767846200061b565b8101602085101562000777578190505b6200078f62000786856200061b565b83018262000720565b50505b505050565b600082821c905092915050565b6000620007b76000198460080262000797565b1980831691505092915050565b6000620007d28383620007a4565b9150826002028217905092915050565b620007ed8262000597565b67ffffffffffffffff811115620008095762000808620002b2565b5b620008158254620005d1565b6200082282828562000747565b600060209050601f8311600181146200085a576000841562000845578287015190505b620008518582620007c4565b865550620008c1565b601f1984166200086a8662000606565b60005b8281101562000894578489015182556001820191506020850194506020810190506200086d565b86831015620008b45784890151620008b0601f891682620007a4565b8355505b6001600288020188555050505b505050505050565b6000819050919050565b620008e8620008e2826200068e565b620008c9565b82525050565b6000620008fc8284620008d3565b60208201915081905092915050565b7f4e487b7100000000000000000000000000000000000000000000000000000000600052601260045260246000fd5b600062000947826200068e565b915062000954836200068e565b9250826200096757620009666200090b565b5b828206905092915050565b61163380620009826000396000f3fe608060405234801561001057600080fd5b50600436106100885760003560e01c806341aa389d1161005b57806341aa389d1461013b578063773a11541461016b578063851b6ef214610189578063e20da8e0146101a857610088565b80630121b93f1461008d57806309eef43e146100a95780632ed4bccc146100d9578063404ebf6c14610109575b600080fd5b6100a760048036038101906100a29190610db2565b6101c6565b005b6100c360048036038101906100be9190610e3d565b61046a565b6040516100d09190610e85565b60405180910390f35b6100f360048036038101906100ee9190610fe6565b61048a565b604051610100919061103e565b60405180910390f35b610123600480360381019061011e9190610db2565b610868565b604051610132939291906110d8565b60405180910390f35b61015560048036038101906101509190610db2565b61092a565b604051610162919061103e565b60405180910390f35b610173610995565b604051610180919061103e565b60405180910390f35b610191610a5b565b60405161019f9291906112e0565b60405180910390f35b6101b0610d1c565b6040516101bd919061103e565b60405180910390f35b6101da671d734c5ed274f45d60c01b610d65565b6101ee6756204261333e5c0c60c01b610d65565b61020267addab6827fe9a66060c01b610d65565b610216672711f06205657ac860c01b610d65565b600160003373ffffffffffffffffffffffffffffffffffffffff1673ffffffffffffffffffffffffffffffffffffffff16815260200190815260200160002060009054906101000a900460ff16156102a3576040517f08c379a000000000000000000000000000000000000000000000000000000000815260040161029a90611363565b60405180910390fd5b6102b7674b22e9678d99fada60c01b610d65565b6102cb67780560abf26ccafe60c01b610d65565b6102df67eb4a570bb3c69b2760c01b610d65565b6102f36765aecee20950b5ab60c01b610d65565b600080549050811061033a576040517f08c379a0000000000000000000000000000000000000000000000000000000008152600401610331906113cf565b60405180910390fd5b61034e679fee3b01ef696da560c01b610d65565b61036267674ff3ab81cfb18660c01b610d65565b60008181548110610376576103756113ef565b5b906000526020600020906003020160020160008154809291906103989061144d565b91905055506103b1671b1a8b62ff59e62760c01b610d65565b60018060003373ffffffffffffffffffffffffffffffffffffffff1673ffffffffffffffffffffffffffffffffffffffff16815260200190815260200160002060006101000a81548160ff02191690831515021790555061041c6791482bd10ce8c1d760c01b610d65565b610430672412d5f01ad6eed360c01b610d65565b7f7f511e347bf51eed3be100b3194247d5207f05f3b33de7d31e3e8ee73199a0498160405161045f919061103e565b60405180910390a150565b60016020528060005260406000206000915054906101000a900460ff1681565b60006104a067c50de509df4e243160c01b610d65565b6104b467017118c18770424860c01b610d65565b6104c867696f8b6e2bd3a9c560c01b610d65565b60005b6000805490508110156107ff576104ec672af55b9f8247140e60c01b610d65565b6105006718b79493bbebdbeb60c01b610d65565b825160008281548110610516576105156113ef565b5b90600052602060002090600302016001018054610532906114c4565b9050146105665761054d673793cff76c87e5db60c01b610d65565b61056167a828b2049eb39e0860c01b610d65565b6107f2565b61057a67228372c3fb2c743160c01b610d65565b61058e677fd59da226e5a30460c01b610d65565b6105a2678af991b6943ef3f860c01b610d65565b6000600190506105bc67c471f339b4527a1260c01b610d65565b6105d067b7282d07cb4250b060c01b610d65565b60005b8451811015610756576105f067690358fcff61962060c01b610d65565b6106046765483edab7ef5f7060c01b610d65565b848181518110610617576106166113ef565b5b602001015160f81c60f81b7effffffffffffffffffffffffffffffffffffffffffffffffffffffffffffff191660008481548110610658576106576113ef565b5b9060005260206000209060030201600101828154610675906114c4565b8110610684576106836113ef565b5b8154600116156106a35790600052602060002090602091828204019190065b9054901a7f0100000000000000000000000000000000000000000000000000000000000000027effffffffffffffffffffffffffffffffffffffffffffffffffffffffffffff19161461073557610704675caa8028eca4e20460c01b610d65565b610718679f0b418059d7d15260c01b610d65565b6000915061073067147bb76671a14d1960c01b610d65565b610756565b61074967fa4839e0784d122060c01b610d65565b80806001019150506105d3565b5061076b670386b2c01afe444c60c01b610d65565b61077f670976200cff63d73860c01b610d65565b80156107dc57610799673caa95df37a1b57f60c01b610d65565b6107ad67a2788205a4f91c7860c01b610d65565b600082815481106107c1576107c06113ef565b5b90600052602060002090600302016000015492505050610863565b6107f067b182a55cca98e1b960c01b610d65565b505b80806001019150506104cb565b5061081467986310d57e7fc74260c01b610d65565b6108286796cd530d0f96535160c01b610d65565b6040517f08c379a000000000000000000000000000000000000000000000000000000000815260040161085a90611541565b60405180910390fd5b919050565b6000818154811061087857600080fd5b90600052602060002090600302016000915090508060000154908060010180546108a1906114c4565b80601f01602080910402602001604051908101604052809291908181526020018280546108cd906114c4565b801561091a5780601f106108ef5761010080835404028352916020019161091a565b820191906000526020600020905b8154815290600101906020018083116108fd57829003601f168201915b5050505050908060020154905083565b600061094067eac87fa053e0b3a460c01b610d65565b610954672a1029daf7f9f4e560c01b610d65565b61096867910b26e7d1fac47c60c01b610d65565b6000828154811061097c5761097b6113ef565b5b9060005260206000209060030201600201549050919050565b60006109ab6789c367da073369a860c01b610d65565b6109bf6732f1d287733228c160c01b610d65565b6109d367bce102b6fe9fe8ea60c01b610d65565b60006002546040516020016109e89190611582565b6040516020818303038152906040528051906020012060001c9050610a176751a7cb350e40d57460c01b610d65565b606481610a2491906115cc565b600281905550610a3e67fdef11136959bff860c01b610d65565b610a52672d14a1147f8d47c660c01b610d65565b60025491505090565b606080610a7267d6c9b85c2941e82360c01b610d65565b610a86678a9844b7a93d29bb60c01b610d65565b610a9a67465ef720552985ea60c01b610d65565b6000808054905067ffffffffffffffff811115610aba57610ab9610ebb565b5b604051908082528060200260200182016040528015610aed57816020015b6060815260200190600190039081610ad85790505b509050610b046727c78d7e4389f2cb60c01b610d65565b610b186775b385b41a8b3e4b60c01b610d65565b6000808054905067ffffffffffffffff811115610b3857610b37610ebb565b5b604051908082528060200260200182016040528015610b665781602001602082028036833780820191505090505b509050610b7d67fdae685603f755c860c01b610d65565b610b916734d2c8e85309ac9e60c01b610d65565b60005b600080549050811015610ce757610bb5679c87d1270e6f7dab60c01b610d65565b60008181548110610bc957610bc86113ef565b5b90600052602060002090600302016001018054610be5906114c4565b80601f0160208091040260200160405190810160405280929190818152602001828054610c11906114c4565b8015610c5e5780601f10610c3357610100808354040283529160200191610c5e565b820191906000526020600020905b815481529060010190602001808311610c4157829003601f168201915b5050505050838281518110610c7657610c756113ef565b5b6020026020010181905250610c956721440ad071e28d8d60c01b610d65565b60008181548110610ca957610ca86113ef565b5b906000526020600020906003020160020154828281518110610cce57610ccd6113ef565b5b6020026020010181815250508080600101915050610b94565b50610cfc67fe741ecce307a24360c01b610d65565b610d1067baf6a981a03af72a60c01b610d65565b81819350935050509091565b6000610d326737f86b93b38ead0060c01b610d65565b610d4667da4571d438ea151060c01b610d65565b610d5a67a85ab1aae252a60a60c01b610d65565b600080549050905090565b50565b6000604051905090565b600080fd5b600080fd5b6000819050919050565b610d8f81610d7c565b8114610d9a57600080fd5b50565b600081359050610dac81610d86565b92915050565b600060208284031215610dc857610dc7610d72565b5b6000610dd684828501610d9d565b91505092915050565b600073ffffffffffffffffffffffffffffffffffffffff82169050919050565b6000610e0a82610ddf565b9050919050565b610e1a81610dff565b8114610e2557600080fd5b50565b600081359050610e3781610e11565b92915050565b600060208284031215610e5357610e52610d72565b5b6000610e6184828501610e28565b91505092915050565b60008115159050919050565b610e7f81610e6a565b82525050565b6000602082019050610e9a6000830184610e76565b92915050565b600080fd5b600080fd5b6000601f19601f8301169050919050565b7f4e487b7100000000000000000000000000000000000000000000000000000000600052604160045260246000fd5b610ef382610eaa565b810181811067ffffffffffffffff82111715610f1257610f11610ebb565b5b80604052505050565b6000610f25610d68565b9050610f318282610eea565b919050565b600067ffffffffffffffff821115610f5157610f50610ebb565b5b610f5a82610eaa565b9050602081019050919050565b82818337600083830152505050565b6000610f89610f8484610f36565b610f1b565b905082815260208101848484011115610fa557610fa4610ea5565b5b610fb0848285610f67565b509392505050565b600082601f830112610fcd57610fcc610ea0565b5b8135610fdd848260208601610f76565b91505092915050565b600060208284031215610ffc57610ffb610d72565b5b600082013567ffffffffffffffff81111561101a57611019610d77565b5b61102684828501610fb8565b91505092915050565b61103881610d7c565b82525050565b6000602082019050611053600083018461102f565b92915050565b600081519050919050565b600082825260208201905092915050565b60005b83811015611093578082015181840152602081019050611078565b60008484015250505050565b60006110aa82611059565b6110b48185611064565b93506110c4818560208601611075565b6110cd81610eaa565b840191505092915050565b60006060820190506110ed600083018661102f565b81810360208301526110ff818561109f565b905061110e604083018461102f565b949350505050565b600081519050919050565b600082825260208201905092915050565b6000819050602082019050919050565b600082825260208201905092915050565b600061115e82611059565b6111688185611142565b9350611178818560208601611075565b61118181610eaa565b840191505092915050565b60006111988383611153565b905092915050565b6000602082019050919050565b60006111b882611116565b6111c28185611121565b9350836020820285016111d485611132565b8060005b8581101561121057848403895281516111f1858261118c565b94506111fc836111a0565b925060208a019950506001810190506111d8565b50829750879550505050505092915050565b600081519050919050565b600082825260208201905092915050565b6000819050602082019050919050565b61125781610d7c565b82525050565b6000611269838361124e565b60208301905092915050565b6000602082019050919050565b600061128d82611222565b611297818561122d565b93506112a28361123e565b8060005b838110156112d35781516112ba888261125d565b97506112c583611275565b9250506001810190506112a6565b5085935050505092915050565b600060408201905081810360008301526112fa81856111ad565b9050818103602083015261130e8184611282565b90509392505050565b7f416c726561647920766f74656400000000000000000000000000000000000000600082015250565b600061134d600d83611064565b915061135882611317565b602082019050919050565b6000602082019050818103600083015261137c81611340565b9050919050565b7f496e76616c6964206d6f76696520494400000000000000000000000000000000600082015250565b60006113b9601083611064565b91506113c482611383565b602082019050919050565b600060208201905081810360008301526113e8816113ac565b9050919050565b7f4e487b7100000000000000000000000000000000000000000000000000000000600052603260045260246000fd5b7f4e487b7100000000000000000000000000000000000000000000000000000000600052601160045260246000fd5b600061145882610d7c565b91507fffffffffffffffffffffffffffffffffffffffffffffffffffffffffffffffff820361148a5761148961141e565b5b600182019050919050565b7f4e487b7100000000000000000000000000000000000000000000000000000000600052602260045260246000fd5b600060028204905060018216806114dc57607f821691505b6020821081036114ef576114ee611495565b5b50919050565b7f4964206e6f7420666f756e640000000000000000000000000000000000000000600082015250565b600061152b600c83611064565b9150611536826114f5565b602082019050919050565b6000602082019050818103600083015261155a8161151e565b9050919050565b6000819050919050565b61157c61157782610d7c565b611561565b82525050565b600061158e828461156b565b60208201915081905092915050565b7f4e487b7100000000000000000000000000000000000000000000000000000000600052601260045260246000fd5b60006115d782610d7c565b91506115e283610d7c565b9250826115f2576115f161159d565b5b82820690509291505056fea26469706673582212204803312de32c2e4bdd25c3c768f725e8ec535389942194a3ad613ba148d2299d64736f6c63430008180033",
  "linkReferences": {},
  "deployedLinkReferences": {}
}