{
  "_format": "hh-sol-artifact-1",
  "contractName": "MovieVoting",
  "sourceName": "contracts/Voting.sol",
  "abi": [
    {
      "inputs": [
        {
          "internalType": "string[]",
          "name": "_movieNames",
          "type": "string[]"
        }
      ],
      "stateMutability": "nonpayable",
      "type": "constructor"
    },
    {
      "anonymous": false,
      "inputs": [
        {
          "indexed": false,
          "internalType": "uint256",
          "name": "movieId",
          "type": "uint256"
        }
      ],
      "name": "Voted",
      "type": "event"
    },
    {
      "inputs": [],
      "name": "getMoviesCount",
      "outputs": [
        {
          "internalType": "uint256",
          "name": "",
          "type": "uint256"
        }
      ],
      "stateMutability": "view",
      "type": "function"
    },
    {
      "inputs": [
        {
          "internalType": "address",
          "name": "",
          "type": "address"
        }
      ],
      "name": "hasVoted",
      "outputs": [
        {
          "internalType": "bool",
          "name": "",
          "type": "bool"
        }
      ],
      "stateMutability": "view",
      "type": "function"
    },
    {
      "inputs": [
        {
          "internalType": "uint256",
          "name": "",
          "type": "uint256"
        }
      ],
      "name": "movies",
      "outputs": [
        {
          "internalType": "uint256",
          "name": "id",
          "type": "uint256"
        },
        {
          "internalType": "string",
          "name": "name",
          "type": "string"
        },
        {
          "internalType": "uint256",
          "name": "voteCount",
          "type": "uint256"
        }
      ],
      "stateMutability": "view",
      "type": "function"
    },
    {
      "inputs": [
        {
          "internalType": "uint256",
          "name": "_movieId",
          "type": "uint256"
        }
      ],
      "name": "vote",
      "outputs": [],
      "stateMutability": "nonpayable",
      "type": "function"
    }
  ],
  "bytecode": "0x60806040523480156200001157600080fd5b5060405162000eed38038062000eed83398181016040528101906200003791906200037b565b60005b8151811015620000e457600060405180606001604052808381526020018484815181106200006d576200006c620003cc565b5b6020026020010151815260200160008152509080600181540180825580915050600190039060005260206000209060030201600090919091909150600082015181600001556020820151816001019081620000c9919062000646565b5060408201518160020155505080806001019150506200003a565b50506200072d565b6000604051905090565b600080fd5b600080fd5b600080fd5b6000601f19601f8301169050919050565b7f4e487b7100000000000000000000000000000000000000000000000000000000600052604160045260246000fd5b620001508262000105565b810181811067ffffffffffffffff8211171562000172576200017162000116565b5b80604052505050565b600062000187620000ec565b905062000195828262000145565b919050565b600067ffffffffffffffff821115620001b857620001b762000116565b5b602082029050602081019050919050565b600080fd5b600080fd5b600067ffffffffffffffff821115620001f157620001f062000116565b5b620001fc8262000105565b9050602081019050919050565b60005b83811015620002295780820151818401526020810190506200020c565b60008484015250505050565b60006200024c6200024684620001d3565b6200017b565b9050828152602081018484840111156200026b576200026a620001ce565b5b6200027884828562000209565b509392505050565b600082601f83011262000298576200029762000100565b5b8151620002aa84826020860162000235565b91505092915050565b6000620002ca620002c4846200019a565b6200017b565b90508083825260208201905060208402830185811115620002f057620002ef620001c9565b5b835b818110156200033e57805167ffffffffffffffff81111562000319576200031862000100565b5b80860162000328898262000280565b85526020850194505050602081019050620002f2565b5050509392505050565b600082601f83011262000360576200035f62000100565b5b815162000372848260208601620002b3565b91505092915050565b600060208284031215620003945762000393620000f6565b5b600082015167ffffffffffffffff811115620003b557620003b4620000fb565b5b620003c38482850162000348565b91505092915050565b7f4e487b7100000000000000000000000000000000000000000000000000000000600052603260045260246000fd5b600081519050919050565b7f4e487b7100000000000000000000000000000000000000000000000000000000600052602260045260246000fd5b600060028204905060018216806200044e57607f821691505b60208210810362000464576200046362000406565b5b50919050565b60008190508160005260206000209050919050565b60006020601f8301049050919050565b600082821b905092915050565b600060088302620004ce7fffffffffffffffffffffffffffffffffffffffffffffffffffffffffffffffff826200048f565b620004da86836200048f565b95508019841693508086168417925050509392505050565b6000819050919050565b6000819050919050565b600062000527620005216200051b84620004f2565b620004fc565b620004f2565b9050919050565b6000819050919050565b620005438362000506565b6200055b62000552826200052e565b8484546200049c565b825550505050565b600090565b6200057262000563565b6200057f81848462000538565b505050565b5b81811015620005a7576200059b60008262000568565b60018101905062000585565b5050565b601f821115620005f657620005c0816200046a565b620005cb846200047f565b81016020851015620005db578190505b620005f3620005ea856200047f565b83018262000584565b50505b505050565b600082821c905092915050565b60006200061b60001984600802620005fb565b1980831691505092915050565b600062000636838362000608565b9150826002028217905092915050565b6200065182620003fb565b67ffffffffffffffff8111156200066d576200066c62000116565b5b62000679825462000435565b62000686828285620005ab565b600060209050601f831160018114620006be5760008415620006a9578287015190505b620006b5858262000628565b86555062000725565b601f198416620006ce866200046a565b60005b82811015620006f857848901518255600182019150602085019450602081019050620006d1565b8683101562000718578489015162000714601f89168262000608565b8355505b6001600288020188555050505b505050505050565b6107b0806200073d6000396000f3fe608060405234801561001057600080fd5b506004361061004c5760003560e01c80630121b93f1461005157806309eef43e1461006d578063404ebf6c1461009d578063e20da8e0146100cf575b600080fd5b61006b600480360381019061006691906103b6565b6100ed565b005b61008760048036038101906100829190610441565b61028d565b6040516100949190610489565b60405180910390f35b6100b760048036038101906100b291906103b6565b6102ad565b6040516100c693929190610543565b60405180910390f35b6100d761036f565b6040516100e49190610581565b60405180910390f35b600160003373ffffffffffffffffffffffffffffffffffffffff1673ffffffffffffffffffffffffffffffffffffffff16815260200190815260200160002060009054906101000a900460ff161561017a576040517f08c379a0000000000000000000000000000000000000000000000000000000008152600401610171906105e8565b60405180910390fd5b60008054905081106101c1576040517f08c379a00000000000000000000000000000000000000000000000000000000081526004016101b890610654565b60405180910390fd5b600081815481106101d5576101d4610674565b5b906000526020600020906003020160020160008154809291906101f7906106d2565b919050555060018060003373ffffffffffffffffffffffffffffffffffffffff1673ffffffffffffffffffffffffffffffffffffffff16815260200190815260200160002060006101000a81548160ff0219169083151502179055507f7f511e347bf51eed3be100b3194247d5207f05f3b33de7d31e3e8ee73199a049816040516102829190610581565b60405180910390a150565b60016020528060005260406000206000915054906101000a900460ff1681565b600081815481106102bd57600080fd5b90600052602060002090600302016000915090508060000154908060010180546102e690610749565b80601f016020809104026020016040519081016040528092919081815260200182805461031290610749565b801561035f5780601f106103345761010080835404028352916020019161035f565b820191906000526020600020905b81548152906001019060200180831161034257829003601f168201915b5050505050908060020154905083565b60008080549050905090565b600080fd5b6000819050919050565b61039381610380565b811461039e57600080fd5b50565b6000813590506103b08161038a565b92915050565b6000602082840312156103cc576103cb61037b565b5b60006103da848285016103a1565b91505092915050565b600073ffffffffffffffffffffffffffffffffffffffff82169050919050565b600061040e826103e3565b9050919050565b61041e81610403565b811461042957600080fd5b50565b60008135905061043b81610415565b92915050565b6000602082840312156104575761045661037b565b5b60006104658482850161042c565b91505092915050565b60008115159050919050565b6104838161046e565b82525050565b600060208201905061049e600083018461047a565b92915050565b6104ad81610380565b82525050565b600081519050919050565b600082825260208201905092915050565b60005b838110156104ed5780820151818401526020810190506104d2565b60008484015250505050565b6000601f19601f8301169050919050565b6000610515826104b3565b61051f81856104be565b935061052f8185602086016104cf565b610538816104f9565b840191505092915050565b600060608201905061055860008301866104a4565b818103602083015261056a818561050a565b905061057960408301846104a4565b949350505050565b600060208201905061059660008301846104a4565b92915050565b7f416c726561647920766f74656400000000000000000000000000000000000000600082015250565b60006105d2600d836104be565b91506105dd8261059c565b602082019050919050565b60006020820190508181036000830152610601816105c5565b9050919050565b7f496e76616c6964206d6f76696520494400000000000000000000000000000000600082015250565b600061063e6010836104be565b915061064982610608565b602082019050919050565b6000602082019050818103600083015261066d81610631565b9050919050565b7f4e487b7100000000000000000000000000000000000000000000000000000000600052603260045260246000fd5b7f4e487b7100000000000000000000000000000000000000000000000000000000600052601160045260246000fd5b60006106dd82610380565b91507fffffffffffffffffffffffffffffffffffffffffffffffffffffffffffffffff820361070f5761070e6106a3565b5b600182019050919050565b7f4e487b7100000000000000000000000000000000000000000000000000000000600052602260045260246000fd5b6000600282049050600182168061076157607f821691505b6020821081036107745761077361071a565b5b5091905056fea26469706673582212203879cea97ec16e8696c23b3541a297bd33b1433d8fb8adda1d0d99e21448eb9864736f6c63430008180033",
  "linkReferences": {},
  "deployedLinkReferences": {}
}