{
  "_format": "hh-sol-artifact-1",
  "contractName": "MovieVoting",
  "sourceName": "contracts/Voting.sol",
  "abi": [
    {
      "inputs": [
        {
          "internalType": "string[]",
          "name": "_movieNames",
          "type": "string[]"
        }
      ],
      "stateMutability": "nonpayable",
      "type": "constructor"
    },
    {
      "anonymous": false,
      "inputs": [
        {
          "indexed": false,
          "internalType": "uint256",
          "name": "movieId",
          "type": "uint256"
        }
      ],
      "name": "Voted",
      "type": "event"
    },
    {
      "inputs": [],
      "name": "generateRandomNumber",
      "outputs": [
        {
          "internalType": "uint256",
          "name": "",
          "type": "uint256"
        }
      ],
      "stateMutability": "nonpayable",
      "type": "function"
    },
    {
      "inputs": [],
      "name": "getAllVotes",
      "outputs": [
        {
          "internalType": "string[]",
          "name": "",
          "type": "string[]"
        },
        {
          "internalType": "uint256[]",
          "name": "",
          "type": "uint256[]"
        }
      ],
      "stateMutability": "view",
      "type": "function"
    },
    {
      "inputs": [
        {
          "internalType": "string",
          "name": "_movieName",
          "type": "string"
        }
      ],
      "name": "getMovieIdByName",
      "outputs": [
        {
          "internalType": "uint256",
          "name": "",
          "type": "uint256"
        }
      ],
      "stateMutability": "view",
      "type": "function"
    },
    {
      "inputs": [],
      "name": "getMoviesCount",
      "outputs": [
        {
          "internalType": "uint256",
          "name": "",
          "type": "uint256"
        }
      ],
      "stateMutability": "view",
      "type": "function"
    },
    {
      "inputs": [
        {
          "internalType": "uint256",
          "name": "_id",
          "type": "uint256"
        }
      ],
      "name": "getVotesByMovieId",
      "outputs": [
        {
          "internalType": "uint256",
          "name": "",
          "type": "uint256"
        }
      ],
      "stateMutability": "view",
      "type": "function"
    },
    {
      "inputs": [
        {
          "internalType": "address",
          "name": "",
          "type": "address"
        }
      ],
      "name": "hasVoted",
      "outputs": [
        {
          "internalType": "bool",
          "name": "",
          "type": "bool"
        }
      ],
      "stateMutability": "view",
      "type": "function"
    },
    {
      "inputs": [
        {
          "internalType": "uint256",
          "name": "",
          "type": "uint256"
        }
      ],
      "name": "movies",
      "outputs": [
        {
          "internalType": "uint256",
          "name": "id",
          "type": "uint256"
        },
        {
          "internalType": "string",
          "name": "name",
          "type": "string"
        },
        {
          "internalType": "uint256",
          "name": "voteCount",
          "type": "uint256"
        }
      ],
      "stateMutability": "view",
      "type": "function"
    },
    {
      "inputs": [
        {
          "internalType": "uint256",
          "name": "_movieId",
          "type": "uint256"
        }
      ],
      "name": "vote",
      "outputs": [],
      "stateMutability": "nonpayable",
      "type": "function"
    }
  ],
  "bytecode": "0x608060405260196002553480156200001657600080fd5b50604051620019b1380380620019b183398181016040528101906200003c9190620003df565b60005b8151811015620000f7576000604051806060016040528083815260200184848151811062000072576200007162000430565b5b602002602001015181526020016200008f620000ff60201b60201c565b8152509080600181540180825580915050600190039060005260206000209060030201600090919091909150600082015181600001556020820151816001019081620000dc9190620006aa565b5060408201518160020155505080806001019150506200003f565b50506200083a565b600080600254604051602001620001179190620007b6565b6040516020818303038152906040528051906020012060001c905060648162000141919062000802565b60028190555060025491505090565b6000604051905090565b600080fd5b600080fd5b600080fd5b6000601f19601f8301169050919050565b7f4e487b7100000000000000000000000000000000000000000000000000000000600052604160045260246000fd5b620001b48262000169565b810181811067ffffffffffffffff82111715620001d657620001d56200017a565b5b80604052505050565b6000620001eb62000150565b9050620001f98282620001a9565b919050565b600067ffffffffffffffff8211156200021c576200021b6200017a565b5b602082029050602081019050919050565b600080fd5b600080fd5b600067ffffffffffffffff8211156200025557620002546200017a565b5b620002608262000169565b9050602081019050919050565b60005b838110156200028d57808201518184015260208101905062000270565b60008484015250505050565b6000620002b0620002aa8462000237565b620001df565b905082815260208101848484011115620002cf57620002ce62000232565b5b620002dc8482856200026d565b509392505050565b600082601f830112620002fc57620002fb62000164565b5b81516200030e84826020860162000299565b91505092915050565b60006200032e6200032884620001fe565b620001df565b905080838252602082019050602084028301858111156200035457620003536200022d565b5b835b81811015620003a257805167ffffffffffffffff8111156200037d576200037c62000164565b5b8086016200038c8982620002e4565b8552602085019450505060208101905062000356565b5050509392505050565b600082601f830112620003c457620003c362000164565b5b8151620003d684826020860162000317565b91505092915050565b600060208284031215620003f857620003f76200015a565b5b600082015167ffffffffffffffff8111156200041957620004186200015f565b5b6200042784828501620003ac565b91505092915050565b7f4e487b7100000000000000000000000000000000000000000000000000000000600052603260045260246000fd5b600081519050919050565b7f4e487b7100000000000000000000000000000000000000000000000000000000600052602260045260246000fd5b60006002820490506001821680620004b257607f821691505b602082108103620004c857620004c76200046a565b5b50919050565b60008190508160005260206000209050919050565b60006020601f8301049050919050565b600082821b905092915050565b600060088302620005327fffffffffffffffffffffffffffffffffffffffffffffffffffffffffffffffff82620004f3565b6200053e8683620004f3565b95508019841693508086168417925050509392505050565b6000819050919050565b6000819050919050565b60006200058b620005856200057f8462000556565b62000560565b62000556565b9050919050565b6000819050919050565b620005a7836200056a565b620005bf620005b68262000592565b84845462000500565b825550505050565b600090565b620005d6620005c7565b620005e38184846200059c565b505050565b5b818110156200060b57620005ff600082620005cc565b600181019050620005e9565b5050565b601f8211156200065a576200062481620004ce565b6200062f84620004e3565b810160208510156200063f578190505b620006576200064e85620004e3565b830182620005e8565b50505b505050565b600082821c905092915050565b60006200067f600019846008026200065f565b1980831691505092915050565b60006200069a83836200066c565b9150826002028217905092915050565b620006b5826200045f565b67ffffffffffffffff811115620006d157620006d06200017a565b5b620006dd825462000499565b620006ea8282856200060f565b600060209050601f8311600181146200072257600084156200070d578287015190505b6200071985826200068c565b86555062000789565b601f1984166200073286620004ce565b60005b828110156200075c5784890151825560018201915060208501945060208101905062000735565b868310156200077c578489015162000778601f8916826200066c565b8355505b6001600288020188555050505b505050505050565b6000819050919050565b620007b0620007aa8262000556565b62000791565b82525050565b6000620007c482846200079b565b60208201915081905092915050565b7f4e487b7100000000000000000000000000000000000000000000000000000000600052601260045260246000fd5b60006200080f8262000556565b91506200081c8362000556565b9250826200082f576200082e620007d3565b5b828206905092915050565b611167806200084a6000396000f3fe608060405234801561001057600080fd5b50600436106100885760003560e01c806341aa389d1161005b57806341aa389d1461013b578063773a11541461016b578063851b6ef214610189578063e20da8e0146101a857610088565b80630121b93f1461008d57806309eef43e146100a95780632ed4bccc146100d9578063404ebf6c14610109575b600080fd5b6100a760048036038101906100a291906108e6565b6101c6565b005b6100c360048036038101906100be9190610971565b610366565b6040516100d091906109b9565b60405180910390f35b6100f360048036038101906100ee9190610b1a565b610386565b6040516101009190610b72565b60405180910390f35b610123600480360381019061011e91906108e6565b61056e565b60405161013293929190610c0c565b60405180910390f35b610155600480360381019061015091906108e6565b610630565b6040516101629190610b72565b60405180910390f35b61017361065e565b6040516101809190610b72565b60405180910390f35b6101916106ab565b60405161019f929190610e14565b60405180910390f35b6101b0610890565b6040516101bd9190610b72565b60405180910390f35b600160003373ffffffffffffffffffffffffffffffffffffffff1673ffffffffffffffffffffffffffffffffffffffff16815260200190815260200160002060009054906101000a900460ff1615610253576040517f08c379a000000000000000000000000000000000000000000000000000000000815260040161024a90610e97565b60405180910390fd5b600080549050811061029a576040517f08c379a000000000000000000000000000000000000000000000000000000000815260040161029190610f03565b60405180910390fd5b600081815481106102ae576102ad610f23565b5b906000526020600020906003020160020160008154809291906102d090610f81565b919050555060018060003373ffffffffffffffffffffffffffffffffffffffff1673ffffffffffffffffffffffffffffffffffffffff16815260200190815260200160002060006101000a81548160ff0219169083151502179055507f7f511e347bf51eed3be100b3194247d5207f05f3b33de7d31e3e8ee73199a0498160405161035b9190610b72565b60405180910390a150565b60016020528060005260406000206000915054906101000a900460ff1681565b600080600090505b60008054905081101561052d578251600082815481106103b1576103b0610f23565b5b906000526020600020906003020160010180546103cd90610ff8565b9050036105205760006001905060005b84518110156104e8578481815181106103f9576103f8610f23565b5b602001015160f81c60f81b7effffffffffffffffffffffffffffffffffffffffffffffffffffffffffffff19166000848154811061043a57610439610f23565b5b906000526020600020906003020160010182815461045790610ff8565b811061046657610465610f23565b5b8154600116156104855790600052602060002090602091828204019190065b9054901a7f0100000000000000000000000000000000000000000000000000000000000000027effffffffffffffffffffffffffffffffffffffffffffffffffffffffffffff1916146104db57600091506104e8565b80806001019150506103dd565b50801561051e576000828154811061050357610502610f23565b5b90600052602060002090600302016000015492505050610569565b505b808060010191505061038e565b506040517f08c379a000000000000000000000000000000000000000000000000000000000815260040161056090611075565b60405180910390fd5b919050565b6000818154811061057e57600080fd5b90600052602060002090600302016000915090508060000154908060010180546105a790610ff8565b80601f01602080910402602001604051908101604052809291908181526020018280546105d390610ff8565b80156106205780601f106105f557610100808354040283529160200191610620565b820191906000526020600020905b81548152906001019060200180831161060357829003601f168201915b5050505050908060020154905083565b600080828154811061064557610644610f23565b5b9060005260206000209060030201600201549050919050565b60008060025460405160200161067491906110b6565b6040516020818303038152906040528051906020012060001c905060648161069c9190611100565b60028190555060025491505090565b6060806000808054905067ffffffffffffffff8111156106ce576106cd6109ef565b5b60405190808252806020026020018201604052801561070157816020015b60608152602001906001900390816106ec5790505b5090506000808054905067ffffffffffffffff811115610724576107236109ef565b5b6040519080825280602002602001820160405280156107525781602001602082028036833780820191505090505b50905060005b600080549050811015610883576000818154811061077957610778610f23565b5b9060005260206000209060030201600101805461079590610ff8565b80601f01602080910402602001604051908101604052809291908181526020018280546107c190610ff8565b801561080e5780601f106107e35761010080835404028352916020019161080e565b820191906000526020600020905b8154815290600101906020018083116107f157829003601f168201915b505050505083828151811061082657610825610f23565b5b60200260200101819052506000818154811061084557610844610f23565b5b90600052602060002090600302016002015482828151811061086a57610869610f23565b5b6020026020010181815250508080600101915050610758565b5081819350935050509091565b60008080549050905090565b6000604051905090565b600080fd5b600080fd5b6000819050919050565b6108c3816108b0565b81146108ce57600080fd5b50565b6000813590506108e0816108ba565b92915050565b6000602082840312156108fc576108fb6108a6565b5b600061090a848285016108d1565b91505092915050565b600073ffffffffffffffffffffffffffffffffffffffff82169050919050565b600061093e82610913565b9050919050565b61094e81610933565b811461095957600080fd5b50565b60008135905061096b81610945565b92915050565b600060208284031215610987576109866108a6565b5b60006109958482850161095c565b91505092915050565b60008115159050919050565b6109b38161099e565b82525050565b60006020820190506109ce60008301846109aa565b92915050565b600080fd5b600080fd5b6000601f19601f8301169050919050565b7f4e487b7100000000000000000000000000000000000000000000000000000000600052604160045260246000fd5b610a27826109de565b810181811067ffffffffffffffff82111715610a4657610a456109ef565b5b80604052505050565b6000610a5961089c565b9050610a658282610a1e565b919050565b600067ffffffffffffffff821115610a8557610a846109ef565b5b610a8e826109de565b9050602081019050919050565b82818337600083830152505050565b6000610abd610ab884610a6a565b610a4f565b905082815260208101848484011115610ad957610ad86109d9565b5b610ae4848285610a9b565b509392505050565b600082601f830112610b0157610b006109d4565b5b8135610b11848260208601610aaa565b91505092915050565b600060208284031215610b3057610b2f6108a6565b5b600082013567ffffffffffffffff811115610b4e57610b4d6108ab565b5b610b5a84828501610aec565b91505092915050565b610b6c816108b0565b82525050565b6000602082019050610b876000830184610b63565b92915050565b600081519050919050565b600082825260208201905092915050565b60005b83811015610bc7578082015181840152602081019050610bac565b60008484015250505050565b6000610bde82610b8d565b610be88185610b98565b9350610bf8818560208601610ba9565b610c01816109de565b840191505092915050565b6000606082019050610c216000830186610b63565b8181036020830152610c338185610bd3565b9050610c426040830184610b63565b949350505050565b600081519050919050565b600082825260208201905092915050565b6000819050602082019050919050565b600082825260208201905092915050565b6000610c9282610b8d565b610c9c8185610c76565b9350610cac818560208601610ba9565b610cb5816109de565b840191505092915050565b6000610ccc8383610c87565b905092915050565b6000602082019050919050565b6000610cec82610c4a565b610cf68185610c55565b935083602082028501610d0885610c66565b8060005b85811015610d445784840389528151610d258582610cc0565b9450610d3083610cd4565b925060208a01995050600181019050610d0c565b50829750879550505050505092915050565b600081519050919050565b600082825260208201905092915050565b6000819050602082019050919050565b610d8b816108b0565b82525050565b6000610d9d8383610d82565b60208301905092915050565b6000602082019050919050565b6000610dc182610d56565b610dcb8185610d61565b9350610dd683610d72565b8060005b83811015610e07578151610dee8882610d91565b9750610df983610da9565b925050600181019050610dda565b5085935050505092915050565b60006040820190508181036000830152610e2e8185610ce1565b90508181036020830152610e428184610db6565b90509392505050565b7f416c726561647920766f74656400000000000000000000000000000000000000600082015250565b6000610e81600d83610b98565b9150610e8c82610e4b565b602082019050919050565b60006020820190508181036000830152610eb081610e74565b9050919050565b7f496e76616c6964206d6f76696520494400000000000000000000000000000000600082015250565b6000610eed601083610b98565b9150610ef882610eb7565b602082019050919050565b60006020820190508181036000830152610f1c81610ee0565b9050919050565b7f4e487b7100000000000000000000000000000000000000000000000000000000600052603260045260246000fd5b7f4e487b7100000000000000000000000000000000000000000000000000000000600052601160045260246000fd5b6000610f8c826108b0565b91507fffffffffffffffffffffffffffffffffffffffffffffffffffffffffffffffff8203610fbe57610fbd610f52565b5b600182019050919050565b7f4e487b7100000000000000000000000000000000000000000000000000000000600052602260045260246000fd5b6000600282049050600182168061101057607f821691505b60208210810361102357611022610fc9565b5b50919050565b7f4964206e6f7420666f756e640000000000000000000000000000000000000000600082015250565b600061105f600c83610b98565b915061106a82611029565b602082019050919050565b6000602082019050818103600083015261108e81611052565b9050919050565b6000819050919050565b6110b06110ab826108b0565b611095565b82525050565b60006110c2828461109f565b60208201915081905092915050565b7f4e487b7100000000000000000000000000000000000000000000000000000000600052601260045260246000fd5b600061110b826108b0565b9150611116836108b0565b925082611126576111256110d1565b5b82820690509291505056fea2646970667358221220640cfc7c56030997afdca6dc3c389499a43a7901e87993b9f22c233f06cfa42d64736f6c63430008180033",
  "linkReferences": {},
  "deployedLinkReferences": {}
}