{
  "_format": "hh-sol-artifact-1",
  "contractName": "MovieVoting",
  "sourceName": "contracts/Voting.sol",
  "abi": [
    {
      "inputs": [
        {
          "internalType": "string[]",
          "name": "_movieNames",
          "type": "string[]"
        }
      ],
      "stateMutability": "nonpayable",
      "type": "constructor"
    },
    {
      "anonymous": false,
      "inputs": [
        {
          "indexed": false,
          "internalType": "uint256",
          "name": "movieId",
          "type": "uint256"
        }
      ],
      "name": "Voted",
      "type": "event"
    },
    {
      "inputs": [],
      "name": "getAllVotes",
      "outputs": [
        {
          "internalType": "string[]",
          "name": "",
          "type": "string[]"
        },
        {
          "internalType": "uint256[]",
          "name": "",
          "type": "uint256[]"
        }
      ],
      "stateMutability": "view",
      "type": "function"
    },
    {
      "inputs": [],
      "name": "getMoviesCount",
      "outputs": [
        {
          "internalType": "uint256",
          "name": "",
          "type": "uint256"
        }
      ],
      "stateMutability": "view",
      "type": "function"
    },
    {
      "inputs": [
        {
          "internalType": "address",
          "name": "",
          "type": "address"
        }
      ],
      "name": "hasVoted",
      "outputs": [
        {
          "internalType": "bool",
          "name": "",
          "type": "bool"
        }
      ],
      "stateMutability": "view",
      "type": "function"
    },
    {
      "inputs": [
        {
          "internalType": "uint256",
          "name": "",
          "type": "uint256"
        }
      ],
      "name": "movies",
      "outputs": [
        {
          "internalType": "uint256",
          "name": "id",
          "type": "uint256"
        },
        {
          "internalType": "string",
          "name": "name",
          "type": "string"
        },
        {
          "internalType": "uint256",
          "name": "voteCount",
          "type": "uint256"
        }
      ],
      "stateMutability": "view",
      "type": "function"
    },
    {
      "inputs": [
        {
          "internalType": "uint256",
          "name": "_movieId",
          "type": "uint256"
        }
      ],
      "name": "vote",
      "outputs": [],
      "stateMutability": "nonpayable",
      "type": "function"
    }
  ],
  "bytecode": "0x60806040523480156200001157600080fd5b506040516200132c3803806200132c83398181016040528101906200003791906200037b565b60005b8151811015620000e457600060405180606001604052808381526020018484815181106200006d576200006c620003cc565b5b6020026020010151815260200160008152509080600181540180825580915050600190039060005260206000209060030201600090919091909150600082015181600001556020820151816001019081620000c9919062000646565b5060408201518160020155505080806001019150506200003a565b50506200072d565b6000604051905090565b600080fd5b600080fd5b600080fd5b6000601f19601f8301169050919050565b7f4e487b7100000000000000000000000000000000000000000000000000000000600052604160045260246000fd5b620001508262000105565b810181811067ffffffffffffffff8211171562000172576200017162000116565b5b80604052505050565b600062000187620000ec565b905062000195828262000145565b919050565b600067ffffffffffffffff821115620001b857620001b762000116565b5b602082029050602081019050919050565b600080fd5b600080fd5b600067ffffffffffffffff821115620001f157620001f062000116565b5b620001fc8262000105565b9050602081019050919050565b60005b83811015620002295780820151818401526020810190506200020c565b60008484015250505050565b60006200024c6200024684620001d3565b6200017b565b9050828152602081018484840111156200026b576200026a620001ce565b5b6200027884828562000209565b509392505050565b600082601f83011262000298576200029762000100565b5b8151620002aa84826020860162000235565b91505092915050565b6000620002ca620002c4846200019a565b6200017b565b90508083825260208201905060208402830185811115620002f057620002ef620001c9565b5b835b818110156200033e57805167ffffffffffffffff81111562000319576200031862000100565b5b80860162000328898262000280565b85526020850194505050602081019050620002f2565b5050509392505050565b600082601f83011262000360576200035f62000100565b5b815162000372848260208601620002b3565b91505092915050565b600060208284031215620003945762000393620000f6565b5b600082015167ffffffffffffffff811115620003b557620003b4620000fb565b5b620003c38482850162000348565b91505092915050565b7f4e487b7100000000000000000000000000000000000000000000000000000000600052603260045260246000fd5b600081519050919050565b7f4e487b7100000000000000000000000000000000000000000000000000000000600052602260045260246000fd5b600060028204905060018216806200044e57607f821691505b60208210810362000464576200046362000406565b5b50919050565b60008190508160005260206000209050919050565b60006020601f8301049050919050565b600082821b905092915050565b600060088302620004ce7fffffffffffffffffffffffffffffffffffffffffffffffffffffffffffffffff826200048f565b620004da86836200048f565b95508019841693508086168417925050509392505050565b6000819050919050565b6000819050919050565b600062000527620005216200051b84620004f2565b620004fc565b620004f2565b9050919050565b6000819050919050565b620005438362000506565b6200055b62000552826200052e565b8484546200049c565b825550505050565b600090565b6200057262000563565b6200057f81848462000538565b505050565b5b81811015620005a7576200059b60008262000568565b60018101905062000585565b5050565b601f821115620005f657620005c0816200046a565b620005cb846200047f565b81016020851015620005db578190505b620005f3620005ea856200047f565b83018262000584565b50505b505050565b600082821c905092915050565b60006200061b60001984600802620005fb565b1980831691505092915050565b600062000636838362000608565b9150826002028217905092915050565b6200065182620003fb565b67ffffffffffffffff8111156200066d576200066c62000116565b5b62000679825462000435565b62000686828285620005ab565b600060209050601f831160018114620006be5760008415620006a9578287015190505b620006b5858262000628565b86555062000725565b601f198416620006ce866200046a565b60005b82811015620006f857848901518255600182019150602085019450602081019050620006d1565b8683101562000718578489015162000714601f89168262000608565b8355505b6001600288020188555050505b505050505050565b610bef806200073d6000396000f3fe608060405234801561001057600080fd5b50600436106100575760003560e01c80630121b93f1461005c57806309eef43e14610078578063404ebf6c146100a8578063851b6ef2146100da578063e20da8e0146100f9575b600080fd5b610076600480360381019061007191906105c5565b610117565b005b610092600480360381019061008d9190610650565b6102b7565b60405161009f9190610698565b60405180910390f35b6100c260048036038101906100bd91906105c5565b6102d7565b6040516100d193929190610752565b60405180910390f35b6100e2610399565b6040516100f092919061095a565b60405180910390f35b61010161057e565b60405161010e9190610991565b60405180910390f35b600160003373ffffffffffffffffffffffffffffffffffffffff1673ffffffffffffffffffffffffffffffffffffffff16815260200190815260200160002060009054906101000a900460ff16156101a4576040517f08c379a000000000000000000000000000000000000000000000000000000000815260040161019b906109f8565b60405180910390fd5b60008054905081106101eb576040517f08c379a00000000000000000000000000000000000000000000000000000000081526004016101e290610a64565b60405180910390fd5b600081815481106101ff576101fe610a84565b5b9060005260206000209060030201600201600081548092919061022190610ae2565b919050555060018060003373ffffffffffffffffffffffffffffffffffffffff1673ffffffffffffffffffffffffffffffffffffffff16815260200190815260200160002060006101000a81548160ff0219169083151502179055507f7f511e347bf51eed3be100b3194247d5207f05f3b33de7d31e3e8ee73199a049816040516102ac9190610991565b60405180910390a150565b60016020528060005260406000206000915054906101000a900460ff1681565b600081815481106102e757600080fd5b906000526020600020906003020160009150905080600001549080600101805461031090610b59565b80601f016020809104026020016040519081016040528092919081815260200182805461033c90610b59565b80156103895780601f1061035e57610100808354040283529160200191610389565b820191906000526020600020905b81548152906001019060200180831161036c57829003601f168201915b5050505050908060020154905083565b6060806000808054905067ffffffffffffffff8111156103bc576103bb610b8a565b5b6040519080825280602002602001820160405280156103ef57816020015b60608152602001906001900390816103da5790505b5090506000808054905067ffffffffffffffff81111561041257610411610b8a565b5b6040519080825280602002602001820160405280156104405781602001602082028036833780820191505090505b50905060005b600080549050811015610571576000818154811061046757610466610a84565b5b9060005260206000209060030201600101805461048390610b59565b80601f01602080910402602001604051908101604052809291908181526020018280546104af90610b59565b80156104fc5780601f106104d1576101008083540402835291602001916104fc565b820191906000526020600020905b8154815290600101906020018083116104df57829003601f168201915b505050505083828151811061051457610513610a84565b5b60200260200101819052506000818154811061053357610532610a84565b5b90600052602060002090600302016002015482828151811061055857610557610a84565b5b6020026020010181815250508080600101915050610446565b5081819350935050509091565b60008080549050905090565b600080fd5b6000819050919050565b6105a28161058f565b81146105ad57600080fd5b50565b6000813590506105bf81610599565b92915050565b6000602082840312156105db576105da61058a565b5b60006105e9848285016105b0565b91505092915050565b600073ffffffffffffffffffffffffffffffffffffffff82169050919050565b600061061d826105f2565b9050919050565b61062d81610612565b811461063857600080fd5b50565b60008135905061064a81610624565b92915050565b6000602082840312156106665761066561058a565b5b60006106748482850161063b565b91505092915050565b60008115159050919050565b6106928161067d565b82525050565b60006020820190506106ad6000830184610689565b92915050565b6106bc8161058f565b82525050565b600081519050919050565b600082825260208201905092915050565b60005b838110156106fc5780820151818401526020810190506106e1565b60008484015250505050565b6000601f19601f8301169050919050565b6000610724826106c2565b61072e81856106cd565b935061073e8185602086016106de565b61074781610708565b840191505092915050565b600060608201905061076760008301866106b3565b81810360208301526107798185610719565b905061078860408301846106b3565b949350505050565b600081519050919050565b600082825260208201905092915050565b6000819050602082019050919050565b600082825260208201905092915050565b60006107d8826106c2565b6107e281856107bc565b93506107f28185602086016106de565b6107fb81610708565b840191505092915050565b600061081283836107cd565b905092915050565b6000602082019050919050565b600061083282610790565b61083c818561079b565b93508360208202850161084e856107ac565b8060005b8581101561088a578484038952815161086b8582610806565b94506108768361081a565b925060208a01995050600181019050610852565b50829750879550505050505092915050565b600081519050919050565b600082825260208201905092915050565b6000819050602082019050919050565b6108d18161058f565b82525050565b60006108e383836108c8565b60208301905092915050565b6000602082019050919050565b60006109078261089c565b61091181856108a7565b935061091c836108b8565b8060005b8381101561094d57815161093488826108d7565b975061093f836108ef565b925050600181019050610920565b5085935050505092915050565b600060408201905081810360008301526109748185610827565b9050818103602083015261098881846108fc565b90509392505050565b60006020820190506109a660008301846106b3565b92915050565b7f416c726561647920766f74656400000000000000000000000000000000000000600082015250565b60006109e2600d836106cd565b91506109ed826109ac565b602082019050919050565b60006020820190508181036000830152610a11816109d5565b9050919050565b7f496e76616c6964206d6f76696520494400000000000000000000000000000000600082015250565b6000610a4e6010836106cd565b9150610a5982610a18565b602082019050919050565b60006020820190508181036000830152610a7d81610a41565b9050919050565b7f4e487b7100000000000000000000000000000000000000000000000000000000600052603260045260246000fd5b7f4e487b7100000000000000000000000000000000000000000000000000000000600052601160045260246000fd5b6000610aed8261058f565b91507fffffffffffffffffffffffffffffffffffffffffffffffffffffffffffffffff8203610b1f57610b1e610ab3565b5b600182019050919050565b7f4e487b7100000000000000000000000000000000000000000000000000000000600052602260045260246000fd5b60006002820490506001821680610b7157607f821691505b602082108103610b8457610b83610b2a565b5b50919050565b7f4e487b7100000000000000000000000000000000000000000000000000000000600052604160045260246000fdfea2646970667358221220044f88a8dde6a1660f53089a230cc3d329ecd45a67b13bf6e01318059d03975764736f6c63430008180033",
  "linkReferences": {},
  "deployedLinkReferences": {}
}