{
  "_format": "hh-sol-artifact-1",
  "contractName": "MovieVoting",
  "sourceName": "contracts/Voting.sol",
  "abi": [
    {
      "inputs": [
        {
          "internalType": "string[]",
          "name": "_movieNames",
          "type": "string[]"
        }
      ],
      "stateMutability": "nonpayable",
      "type": "constructor"
    },
    {
      "anonymous": false,
      "inputs": [
        {
          "indexed": false,
          "internalType": "uint256",
          "name": "movieId",
          "type": "uint256"
        }
      ],
      "name": "Voted",
      "type": "event"
    },
    {
      "inputs": [],
      "name": "generateRandomNumber",
      "outputs": [
        {
          "internalType": "uint256",
          "name": "",
          "type": "uint256"
        }
      ],
      "stateMutability": "nonpayable",
      "type": "function"
    },
    {
      "inputs": [],
      "name": "getAllVotes",
      "outputs": [
        {
          "internalType": "string[]",
          "name": "",
          "type": "string[]"
        },
        {
          "internalType": "uint256[]",
          "name": "",
          "type": "uint256[]"
        }
      ],
      "stateMutability": "view",
      "type": "function"
    },
    {
      "inputs": [
        {
          "internalType": "string",
          "name": "_movieName",
          "type": "string"
        }
      ],
      "name": "getMovieIdByName",
      "outputs": [
        {
          "internalType": "uint256",
          "name": "",
          "type": "uint256"
        }
      ],
      "stateMutability": "view",
      "type": "function"
    },
    {
      "inputs": [],
      "name": "getMoviesCount",
      "outputs": [
        {
          "internalType": "uint256",
          "name": "",
          "type": "uint256"
        }
      ],
      "stateMutability": "view",
      "type": "function"
    },
    {
      "inputs": [],
      "name": "getStatus",
      "outputs": [
        {
          "internalType": "bool",
          "name": "",
          "type": "bool"
        }
      ],
      "stateMutability": "view",
      "type": "function"
    },
    {
      "inputs": [
        {
          "internalType": "uint256",
          "name": "_id",
          "type": "uint256"
        }
      ],
      "name": "getVotesByMovieId",
      "outputs": [
        {
          "internalType": "uint256",
          "name": "",
          "type": "uint256"
        }
      ],
      "stateMutability": "view",
      "type": "function"
    },
    {
      "inputs": [
        {
          "internalType": "address",
          "name": "",
          "type": "address"
        }
      ],
      "name": "hasVoted",
      "outputs": [
        {
          "internalType": "bool",
          "name": "",
          "type": "bool"
        }
      ],
      "stateMutability": "view",
      "type": "function"
    },
    {
      "inputs": [
        {
          "internalType": "uint256",
          "name": "",
          "type": "uint256"
        }
      ],
      "name": "movies",
      "outputs": [
        {
          "internalType": "uint256",
          "name": "id",
          "type": "uint256"
        },
        {
          "internalType": "string",
          "name": "name",
          "type": "string"
        },
        {
          "internalType": "uint256",
          "name": "voteCount",
          "type": "uint256"
        }
      ],
      "stateMutability": "view",
      "type": "function"
    },
    {
      "inputs": [
        {
          "internalType": "uint256",
          "name": "_movieId",
          "type": "uint256"
        }
      ],
      "name": "vote",
      "outputs": [],
      "stateMutability": "nonpayable",
      "type": "function"
    }
  ],
  "bytecode": "0x608060405260196002553480156200001657600080fd5b5060405162001a2e38038062001a2e83398181016040528101906200003c9190620003df565b60005b8151811015620000f7576000604051806060016040528083815260200184848151811062000072576200007162000430565b5b602002602001015181526020016200008f620000ff60201b60201c565b8152509080600181540180825580915050600190039060005260206000209060030201600090919091909150600082015181600001556020820151816001019081620000dc9190620006aa565b5060408201518160020155505080806001019150506200003f565b50506200083a565b600080600254604051602001620001179190620007b6565b6040516020818303038152906040528051906020012060001c905060648162000141919062000802565b60028190555060025491505090565b6000604051905090565b600080fd5b600080fd5b600080fd5b6000601f19601f8301169050919050565b7f4e487b7100000000000000000000000000000000000000000000000000000000600052604160045260246000fd5b620001b48262000169565b810181811067ffffffffffffffff82111715620001d657620001d56200017a565b5b80604052505050565b6000620001eb62000150565b9050620001f98282620001a9565b919050565b600067ffffffffffffffff8211156200021c576200021b6200017a565b5b602082029050602081019050919050565b600080fd5b600080fd5b600067ffffffffffffffff8211156200025557620002546200017a565b5b620002608262000169565b9050602081019050919050565b60005b838110156200028d57808201518184015260208101905062000270565b60008484015250505050565b6000620002b0620002aa8462000237565b620001df565b905082815260208101848484011115620002cf57620002ce62000232565b5b620002dc8482856200026d565b509392505050565b600082601f830112620002fc57620002fb62000164565b5b81516200030e84826020860162000299565b91505092915050565b60006200032e6200032884620001fe565b620001df565b905080838252602082019050602084028301858111156200035457620003536200022d565b5b835b81811015620003a257805167ffffffffffffffff8111156200037d576200037c62000164565b5b8086016200038c8982620002e4565b8552602085019450505060208101905062000356565b5050509392505050565b600082601f830112620003c457620003c362000164565b5b8151620003d684826020860162000317565b91505092915050565b600060208284031215620003f857620003f76200015a565b5b600082015167ffffffffffffffff8111156200041957620004186200015f565b5b6200042784828501620003ac565b91505092915050565b7f4e487b7100000000000000000000000000000000000000000000000000000000600052603260045260246000fd5b600081519050919050565b7f4e487b7100000000000000000000000000000000000000000000000000000000600052602260045260246000fd5b60006002820490506001821680620004b257607f821691505b602082108103620004c857620004c76200046a565b5b50919050565b60008190508160005260206000209050919050565b60006020601f8301049050919050565b600082821b905092915050565b600060088302620005327fffffffffffffffffffffffffffffffffffffffffffffffffffffffffffffffff82620004f3565b6200053e8683620004f3565b95508019841693508086168417925050509392505050565b6000819050919050565b6000819050919050565b60006200058b620005856200057f8462000556565b62000560565b62000556565b9050919050565b6000819050919050565b620005a7836200056a565b620005bf620005b68262000592565b84845462000500565b825550505050565b600090565b620005d6620005c7565b620005e38184846200059c565b505050565b5b818110156200060b57620005ff600082620005cc565b600181019050620005e9565b5050565b601f8211156200065a576200062481620004ce565b6200062f84620004e3565b810160208510156200063f578190505b620006576200064e85620004e3565b830182620005e8565b50505b505050565b600082821c905092915050565b60006200067f600019846008026200065f565b1980831691505092915050565b60006200069a83836200066c565b9150826002028217905092915050565b620006b5826200045f565b67ffffffffffffffff811115620006d157620006d06200017a565b5b620006dd825462000499565b620006ea8282856200060f565b600060209050601f8311600181146200072257600084156200070d578287015190505b6200071985826200068c565b86555062000789565b601f1984166200073286620004ce565b60005b828110156200075c5784890151825560018201915060208501945060208101905062000735565b868310156200077c578489015162000778601f8916826200066c565b8355505b6001600288020188555050505b505050505050565b6000819050919050565b620007b0620007aa8262000556565b62000791565b82525050565b6000620007c482846200079b565b60208201915081905092915050565b7f4e487b7100000000000000000000000000000000000000000000000000000000600052601260045260246000fd5b60006200080f8262000556565b91506200081c8362000556565b9250826200082f576200082e620007d3565b5b828206905092915050565b6111e4806200084a6000396000f3fe608060405234801561001057600080fd5b50600436106100935760003560e01c806341aa389d1161006657806341aa389d146101465780634e69d56014610176578063773a115414610194578063851b6ef2146101b2578063e20da8e0146101d157610093565b80630121b93f1461009857806309eef43e146100b45780632ed4bccc146100e4578063404ebf6c14610114575b600080fd5b6100b260048036038101906100ad9190610963565b6101ef565b005b6100ce60048036038101906100c991906109ee565b61038f565b6040516100db9190610a36565b60405180910390f35b6100fe60048036038101906100f99190610b97565b6103af565b60405161010b9190610bef565b60405180910390f35b61012e60048036038101906101299190610963565b610597565b60405161013d93929190610c89565b60405180910390f35b610160600480360381019061015b9190610963565b610659565b60405161016d9190610bef565b60405180910390f35b61017e610687565b60405161018b9190610a36565b60405180910390f35b61019c6106db565b6040516101a99190610bef565b60405180910390f35b6101ba610728565b6040516101c8929190610e91565b60405180910390f35b6101d961090d565b6040516101e69190610bef565b60405180910390f35b600160003373ffffffffffffffffffffffffffffffffffffffff1673ffffffffffffffffffffffffffffffffffffffff16815260200190815260200160002060009054906101000a900460ff161561027c576040517f08c379a000000000000000000000000000000000000000000000000000000000815260040161027390610f14565b60405180910390fd5b60008054905081106102c3576040517f08c379a00000000000000000000000000000000000000000000000000000000081526004016102ba90610f80565b60405180910390fd5b600081815481106102d7576102d6610fa0565b5b906000526020600020906003020160020160008154809291906102f990610ffe565b919050555060018060003373ffffffffffffffffffffffffffffffffffffffff1673ffffffffffffffffffffffffffffffffffffffff16815260200190815260200160002060006101000a81548160ff0219169083151502179055507f7f511e347bf51eed3be100b3194247d5207f05f3b33de7d31e3e8ee73199a049816040516103849190610bef565b60405180910390a150565b60016020528060005260406000206000915054906101000a900460ff1681565b600080600090505b600080549050811015610556578251600082815481106103da576103d9610fa0565b5b906000526020600020906003020160010180546103f690611075565b9050036105495760006001905060005b84518110156105115784818151811061042257610421610fa0565b5b602001015160f81c60f81b7effffffffffffffffffffffffffffffffffffffffffffffffffffffffffffff19166000848154811061046357610462610fa0565b5b906000526020600020906003020160010182815461048090611075565b811061048f5761048e610fa0565b5b8154600116156104ae5790600052602060002090602091828204019190065b9054901a7f0100000000000000000000000000000000000000000000000000000000000000027effffffffffffffffffffffffffffffffffffffffffffffffffffffffffffff1916146105045760009150610511565b8080600101915050610406565b508015610547576000828154811061052c5761052b610fa0565b5b90600052602060002090600302016000015492505050610592565b505b80806001019150506103b7565b506040517f08c379a0000000000000000000000000000000000000000000000000000000008152600401610589906110f2565b60405180910390fd5b919050565b600081815481106105a757600080fd5b90600052602060002090600302016000915090508060000154908060010180546105d090611075565b80601f01602080910402602001604051908101604052809291908181526020018280546105fc90611075565b80156106495780601f1061061e57610100808354040283529160200191610649565b820191906000526020600020905b81548152906001019060200180831161062c57829003601f168201915b5050505050908060020154905083565b600080828154811061066e5761066d610fa0565b5b9060005260206000209060030201600201549050919050565b6000600160003373ffffffffffffffffffffffffffffffffffffffff1673ffffffffffffffffffffffffffffffffffffffff16815260200190815260200160002060009054906101000a900460ff16905090565b6000806002546040516020016106f19190611133565b6040516020818303038152906040528051906020012060001c9050606481610719919061117d565b60028190555060025491505090565b6060806000808054905067ffffffffffffffff81111561074b5761074a610a6c565b5b60405190808252806020026020018201604052801561077e57816020015b60608152602001906001900390816107695790505b5090506000808054905067ffffffffffffffff8111156107a1576107a0610a6c565b5b6040519080825280602002602001820160405280156107cf5781602001602082028036833780820191505090505b50905060005b60008054905081101561090057600081815481106107f6576107f5610fa0565b5b9060005260206000209060030201600101805461081290611075565b80601f016020809104026020016040519081016040528092919081815260200182805461083e90611075565b801561088b5780601f106108605761010080835404028352916020019161088b565b820191906000526020600020905b81548152906001019060200180831161086e57829003601f168201915b50505050508382815181106108a3576108a2610fa0565b5b6020026020010181905250600081815481106108c2576108c1610fa0565b5b9060005260206000209060030201600201548282815181106108e7576108e6610fa0565b5b60200260200101818152505080806001019150506107d5565b5081819350935050509091565b60008080549050905090565b6000604051905090565b600080fd5b600080fd5b6000819050919050565b6109408161092d565b811461094b57600080fd5b50565b60008135905061095d81610937565b92915050565b60006020828403121561097957610978610923565b5b60006109878482850161094e565b91505092915050565b600073ffffffffffffffffffffffffffffffffffffffff82169050919050565b60006109bb82610990565b9050919050565b6109cb816109b0565b81146109d657600080fd5b50565b6000813590506109e8816109c2565b92915050565b600060208284031215610a0457610a03610923565b5b6000610a12848285016109d9565b91505092915050565b60008115159050919050565b610a3081610a1b565b82525050565b6000602082019050610a4b6000830184610a27565b92915050565b600080fd5b600080fd5b6000601f19601f8301169050919050565b7f4e487b7100000000000000000000000000000000000000000000000000000000600052604160045260246000fd5b610aa482610a5b565b810181811067ffffffffffffffff82111715610ac357610ac2610a6c565b5b80604052505050565b6000610ad6610919565b9050610ae28282610a9b565b919050565b600067ffffffffffffffff821115610b0257610b01610a6c565b5b610b0b82610a5b565b9050602081019050919050565b82818337600083830152505050565b6000610b3a610b3584610ae7565b610acc565b905082815260208101848484011115610b5657610b55610a56565b5b610b61848285610b18565b509392505050565b600082601f830112610b7e57610b7d610a51565b5b8135610b8e848260208601610b27565b91505092915050565b600060208284031215610bad57610bac610923565b5b600082013567ffffffffffffffff811115610bcb57610bca610928565b5b610bd784828501610b69565b91505092915050565b610be98161092d565b82525050565b6000602082019050610c046000830184610be0565b92915050565b600081519050919050565b600082825260208201905092915050565b60005b83811015610c44578082015181840152602081019050610c29565b60008484015250505050565b6000610c5b82610c0a565b610c658185610c15565b9350610c75818560208601610c26565b610c7e81610a5b565b840191505092915050565b6000606082019050610c9e6000830186610be0565b8181036020830152610cb08185610c50565b9050610cbf6040830184610be0565b949350505050565b600081519050919050565b600082825260208201905092915050565b6000819050602082019050919050565b600082825260208201905092915050565b6000610d0f82610c0a565b610d198185610cf3565b9350610d29818560208601610c26565b610d3281610a5b565b840191505092915050565b6000610d498383610d04565b905092915050565b6000602082019050919050565b6000610d6982610cc7565b610d738185610cd2565b935083602082028501610d8585610ce3565b8060005b85811015610dc15784840389528151610da28582610d3d565b9450610dad83610d51565b925060208a01995050600181019050610d89565b50829750879550505050505092915050565b600081519050919050565b600082825260208201905092915050565b6000819050602082019050919050565b610e088161092d565b82525050565b6000610e1a8383610dff565b60208301905092915050565b6000602082019050919050565b6000610e3e82610dd3565b610e488185610dde565b9350610e5383610def565b8060005b83811015610e84578151610e6b8882610e0e565b9750610e7683610e26565b925050600181019050610e57565b5085935050505092915050565b60006040820190508181036000830152610eab8185610d5e565b90508181036020830152610ebf8184610e33565b90509392505050565b7f416c726561647920766f74656400000000000000000000000000000000000000600082015250565b6000610efe600d83610c15565b9150610f0982610ec8565b602082019050919050565b60006020820190508181036000830152610f2d81610ef1565b9050919050565b7f496e76616c6964206d6f76696520494400000000000000000000000000000000600082015250565b6000610f6a601083610c15565b9150610f7582610f34565b602082019050919050565b60006020820190508181036000830152610f9981610f5d565b9050919050565b7f4e487b7100000000000000000000000000000000000000000000000000000000600052603260045260246000fd5b7f4e487b7100000000000000000000000000000000000000000000000000000000600052601160045260246000fd5b60006110098261092d565b91507fffffffffffffffffffffffffffffffffffffffffffffffffffffffffffffffff820361103b5761103a610fcf565b5b600182019050919050565b7f4e487b7100000000000000000000000000000000000000000000000000000000600052602260045260246000fd5b6000600282049050600182168061108d57607f821691505b6020821081036110a05761109f611046565b5b50919050565b7f4964206e6f7420666f756e640000000000000000000000000000000000000000600082015250565b60006110dc600c83610c15565b91506110e7826110a6565b602082019050919050565b6000602082019050818103600083015261110b816110cf565b9050919050565b6000819050919050565b61112d6111288261092d565b611112565b82525050565b600061113f828461111c565b60208201915081905092915050565b7f4e487b7100000000000000000000000000000000000000000000000000000000600052601260045260246000fd5b60006111888261092d565b91506111938361092d565b9250826111a3576111a261114e565b5b82820690509291505056fea2646970667358221220c45d1a91dc50264347f0bfe2965a62801e1fab7ec421d723eca5468d97b9148464736f6c63430008180033",
  "linkReferences": {},
  "deployedLinkReferences": {}
}